:020000040800F2
:100000001807002001010008D14D0008993A0008A6
:100010005D4D0008790B0008595E000800000000E3
:10002000000000000000000000000000195400085B
:100030007D0B000800000000855300087154000883
:100040001B0100081B0100081B0100081B01000820
:100050001B0100081B010008810B00081B010008A0
:100060001B0100081B0100081B0100081B01000800
:100070001B0100081B0100081B0100081B010008F0
:100080001B0100081B0100081B0100081B010008E0
:100090001B0100081B0100081B0100081B010008D0
:1000A0001B0100081B0100081B0100081B010008C0
:1000B000E9540008F9540008095500081B0100081C
:1000C0001B0100081B0100081B0100081B010008A0
:1000D0001B010008495E00081B0100081B01000805
:1000E0001B0100081B0100081B010008DFF80CD0F1
:1000F00000F0DEFC00480047397A000818070020AD
:100100000648804706480047FEE7FEE7FEE7FEE7B1
:10011000FEE7FEE7FEE7FEE7FEE7FEE7E554000840
:10012000ED0000082DE9F0410024061B254671F181
:10013000000605DA01240027D0EB070067EB010178
:10014000161E73F1000605DA0027D2EB070201251F
:1001500067EB030300F057FB86460E4617469C46A6
:10016000AC4204D00025D0EB050E65EB010624B1AE
:100170000020D2EB000760EB030C704631463A4694
:100180006346BDE8F081002800DA40427047D2B2F1
:1001900001E000F8012B491EFBD270470022F6E770
:1001A00010B513460A4604461946FFF7F0FF2046ED
:1001B00010BD421C10F8011B0029FBD1801A7047AA
:1001C00030B504460020034600E05B1C934203D296
:1001D000E05CCD5C401BF8D030BDF0B480EA010299
:1001E000D40F4200B2EB410F02D20246084611463C
:1001F0004A0042D0C30DDDB2C1F3C752AD1A202D63
:1002000035DAC1F3160141F4000204B15242C5F1DE
:10021000200602FA06F12A411044B3EBD05F23D046
:10022000C4B1012DA0EBC35009DCF0BC4FF000427B
:1002300002EAC352DBB200F5000000F04FBB400001
:1002400000F1807000EBC350A0F1807040EAD170E3
:10025000490009E0490841EAC071A0EBC35000F52C
:100260000000400800EBC350F0BC00F02EBB614220
:10027000012202EB4101001BF6E7F0BC704781F060
:100280000041AAE780F00040A7E780EA010210B52C
:1002900002F00043400022D04A001FD0010E01EBC3
:1002A0001261C0F35600C2F3560240F4000042F45B
:1002B0000002A0FB022000047F39140400D0401C7F
:1002C00050EA124001D44000491EC2B20C0604EBB1
:1002D000D010401C4008802A02D003E0002010BD4E
:1002E00020F00100002900DA0020184310BD30B4CE
:1002F00080EA010202F0004530F0004221F00040A7
:1003000013D090B1C30DD40DC2F31601C0F3160083
:10031000E41A41F4000140F400027D34914201D31B
:10032000641C00E04900002C02DA30BC0020704759
:100330004FF400000023914201D3891A034340087F
:100340004FEA4101F7D151B1914202D14FF0004142
:1003500005E002D24FF0010101E06FF0010103EB73
:10036000C450284430BC00F0B0BA2DE9FE4F80469E
:1003700081EA0300C00F0C46009021F0004123F0F9
:100380000045B8EB0200A94105D2404621469046FF
:100390001C460B46024623F00040104347D0270D71
:1003A000C7F30A00C3F30A510290401A0190402893
:1003B0006BDAC3F3130040F4801B0098924620B11F
:1003C0000023D2EB030A63EB0B0B01985946C0F1F3
:1003D0004002504600F048FA06460D46504659463F
:1003E000019A00F060FA10EB08006141002487EAEE
:1003F000115284EAE7731A4340D0009A62B3019A1B
:10040000012A4FEA075215DC001B61EB02014FF095
:10041000004202EA0752CDE90042001C41F580117A
:1004200032462B4600F097FA03B0BDE8F08F404605
:100430002146F9E7001B61EB0201001C41F5801326
:1004400000185B412018A2F5001747EB030140EAB2
:10045000D570B6196D4111E06D084FEA360645EAD0
:10046000C0754FEA0752001B61EB0201001C41F509
:10047000801149084FEA30000019514132462B469D
:1004800003B0BDE8F04F00F057BA009801224000D9
:100490000023D0EB020263EBE073009821464FEAA1
:1004A000E074B8EB000061EB0401E9E783F000437E
:1004B0005BE781F0004158E72DE9FE4F81EA030434
:1004C00004F0004421F0004100944FF0000B23F0B1
:1004D000004350EA01045ED052EA03045BD0C3F348
:1004E0000A54C1F30A552C44A4F2F3340194A0FB3E
:1004F0000254C1F3130141F48011C3F3130343F415
:10050000801301FB024400FB034E840A970A44EA6D
:10051000815447EA8357A4FB076802958D0A05FBBF
:1005200007854FEA932C04FB0C542705029D4FEAE4
:10053000065847EA1637B5EB08056EEB070C870E31
:10054000920E47EA811742EA8312A7FB0201B6EB3B
:100550000B0164EB00042B0D43EA0C335E1844EBF3
:100560001C50DA465146E7FB0201C5F313044FEA7B
:100570000B3343EA14534FEA0432019C43EA060367
:10058000A4F10C040294009CCDE900B400F0E3F95E
:1005900003B0BDE8F08F00200146F9E72DE9F04DEA
:1005A00081EA030404F0004B21F0004514464FF0AB
:1005B000000A23F0004150EA050220D054EA01026B
:1005C0001DD0C5F30A570246C5F31303C1F3130048
:1005D000C1F30A5640F4801543F48013A7EB0608D4
:1005E000101BD64608F2FD3873EB050002D308F164
:1005F000010801E092185B41B8F1000F03DA002016
:100600000146BDE8F08D00204FF480110646844677
:100610000EE0171B73EB050705D3121B63EB0503F5
:1006200006434CEA010C49084FEA300092185B413E
:1006300050EA0107EDD152EA030012D082EA040029
:1006400083EA0501084305D0101BAB4106D2012205
:10065000002306E000224FF0004302E06FF00102A9
:1006600053101AEB06004CEB085110EB0A0041EB5B
:100670000B01BDE8F04D00F05FB9002801DBC0F1CF
:100680000040002901DBC1F10041814201D8012075
:10069000704700207047002801DBC0F100400029AE
:1006A00001DBC1F10041814201D2012070470020ED
:1006B0007047002801DBC0F10040002901DBC1F1D7
:1006C0000041814201D10120704700207047C10FD5
:1006D00080EAE0700844CA079623002100F0FEB8C3
:1006E00096230022114600F0F9B80EB5C10F80EA3A
:1006F000E0700844CA07002140F233438DE80E0041
:100700000A460B4600F027F903B000BD00F0004296
:1007100020F00040C10DC0F3160040F400007F2916
:1007200001DA00207047962903DCC1F19601C84028
:1007300001E096398840002AF4D04042704770B5F5
:10074000C1F30A5201F000450024C1F3130140F245
:10075000FF3341F480119A4201DA002070BD40F26B
:1007600033439A42A2F2334203DC524200F08BF848
:1007700000E090402C43F1D0404270BD00F00042B8
:1007800030F000400AD0C10D01F56071C0F31600D1
:1007900042EA0151C2084007114370470020014658
:1007A000704701F0004330B421F0004150EA0102EB
:1007B00006D00A0DA2F56072C1F31301002A02DC13
:1007C00030BC00207047440F44EAC104C100E01867
:1007D00030BC00EBC25000F078B830B50B46014693
:1007E00000202022012409E021FA02F59D4205D3D0
:1007F00003FA02F5491B04FA02F52844151EA2F17A
:100800000102F1DC30BD2DE9F05F05460020924683
:100810009B4688460646814640241BE028464146C2
:100820004746224600F02FF853465A46C01A9141D7
:1008300010D311461846224600F016F82D1A67EB21
:1008400001084F4622460120002100F00DF817EB69
:1008500000094E41201EA4F10104DFDC4846314668
:100860002A464346BDE8F09F202A04DB203A00FADE
:1008700002F1002070479140C2F1200320FA03F3F7
:10088000194390407047202A04DB203A21FA02F0F5
:100890000021704721FA02F3D040C2F120029140BA
:1008A000084319467047202A06DBCB17203A41FA45
:1008B00002F043EAE07306E041FA02F3D040C2F1ED
:1008C000200291400843194670470029A8BF70478D
:1008D000401C490008BF20F00100704710B4B0FA76
:1008E00080FC00FA0CF050EA010404BF10BC704711
:1008F00049B1CCF1200421FA04F411FA0CF118BF2B
:10090000012121430843A3EB0C01CB1D4FEA0061F9
:100910004FEA102042BF002010BC704700EBC350CC
:1009200010440029A4BF10BC7047401C490008BFF8
:1009300020F0010010BC704710B5141E73F10004C4
:1009400008DA401C41F1000192185B411A4301D1C1
:1009500020F0010010BD2DE9F04D92469B4611B1EB
:10096000B1FA81F202E0B0FA80F220329046FFF74D
:100970007BFF04460F4640EA0A0041EA0B0153465A
:100980005A46084313D0114653EA010019D0C8F162
:1009900040025046FFF777FF05460E46504659463F
:1009A0004246FFF761FF084305D0012004E02046DE
:1009B0003946BDE8F08D0020054346EAE0762C4339
:1009C00037430A986305E40AA0EB08000022FD0AF9
:1009D00044EA47540A3002D500200146E9E7010500
:1009E00010196941DDE9084500196941BDE8F04D7C
:1009F000A2E770B521F0004303430CD0C1F30A55C0
:100A00000024D5EB040564EB0403D617AD1AB341FB
:100A100002DB0020014670BD201841EB025170BD81
:100A2000C1F30A52C1F3130140F2FF3341F48011C4
:100A30009A4202DA00200146704740F233439A425C
:100A4000A2F2334202DC5242FFF71DBFFFF70CBF98
:100A500030B5041E71F1000404DB4FF00044404245
:100A600064EB0101141E73F1000405DB1C464FF01A
:100A70000043524263EB04038B4208BF824230BD05
:100A800030B5041E71F1000404DB4FF00044404215
:100A900064EB0101141E73F1000405DB1C464FF0EA
:100AA0000043524263EB0403994208BF904230BDB9
:100AB000064C074D06E0E06840F0010394E80700AB
:100AC00098471034AC42F6D3FFF714FB5CBE000825
:100AD0007CBE00082DE9F04D00231A461B1A8A41FE
:100AE00003DB00200146BDE8F08DC1F30A52C1F3DB
:100AF000130141F480154FF0000BD10702D100180B
:100B00006D41521E0027044640F2FF11384601EBAA
:100B1000620A3E468046024600204FF48011FFF7ED
:100B2000B2FEC2197141BB1846EB0100B4EB030CD5
:100B300075EB000C04D3E41A65EB000517460E466E
:100B4000241908F101006D4180463428E3DDF919CC
:100B500046EB0600091BA84103D24FF0FF321346B3
:100B600001E0002213461BEB070046EB0A51BDE8EB
:100B7000F04DFFF7E1BE0000FFE7FEE77047000021
:100B800080B5012000F0FEF880BD000081B0EFF3D9
:100B9000108072B60090FFE7FEE7000083B001907E
:100BA00000208DF80300019890F8210002280DD054
:100BB000FFE7019904208863FFE70199002081F88D
:100BC0002000FFE701208DF80B0021E0019801686B
:100BD000086820F00E00086001980168086820F09D
:100BE000010008600198C16B026C012090404860D0
:100BF000FFE70199012081F82100FFE7019900201A
:100C000081F82000FFE79DF803008DF80B00FFE757
:100C10009DF80B0003B0704780B588B007900020A6
:100C20008DF81B00079890F82100022807D0FFE7F5
:100C300007990420886301208DF81B0076E007984F
:100C40000168086820F00E000860079801680868CD
:100C500020F001000860079800680821C4F2020132
:100C6000884203D1FFE70120059047E0079800681C
:100C70001C21C4F20201884203D1FFE71020049036
:100C800039E0079800683021C4F20201884204D19B
:100C9000FFE74FF4807003902AE007980068442132
:100CA000C4F20201884204D1FFE74FF48050029061
:100CB0001BE0079800685821C4F20201884204D161
:100CC000FFE74FF4803001900CE0079801686C2238
:100CD000C4F202024FF08070914208BF4FF48010BE
:100CE0000190FFE701980290FFE702980390FFE769
:100CF00003980490FFE704980590FFE70598042106
:100D0000C4F2020108600799012081F82100FFE781
:100D10000799002081F82000FFE70798406B20B179
:100D2000FFE70798416B8847FFE7FFE79DF81B0047
:100D300008B080BD80B584B0039000F0FFF9029048
:100D4000039801900198013048B1FFE740F2480054
:100D5000C2F200000178019808440190FFE7FFE724
:100D600000F0ECF90299401A0199884201D2FFE79C
:100D7000F6E704B080BD000081B0ADF8020001B01C
:100D80007047000080B582B0ADF8060040F2144014
:100D9000C4F201000068BDF8061008420CD0FFE75D
:100DA000BDF8060040F21441C4F201010860BDF82C
:100DB0000600FFF7E1FFFFE702B080BD90B00F90A3
:100DC0000E9100200D900990FFE70E9800680D9994
:100DD000C840002800F07F81FFE70D99012088407E
:100DE0000C900E9800680C9908400B900B980C9989
:100DF000884240F06C81FFE70E984068059000281B
:100E000051D0FFE7059801283AD0FFE7059802285E
:100E10003FD0FFE7059803285FD0FFE7059811282A
:100E200032D0FFE70598122838D0FFE70598002157
:100E3000C1F21101884236D0FFE705980021C1F2C6
:100E4000120188422FD0FFE705980021C1F221014D
:100E5000884228D0FFE705980021C1F2220188428C
:100E600021D0FFE705980021C1F2310188421AD054
:100E7000FFE705980021C1F23201884213D02FE02C
:100E80000E98C06809902CE00E98C0680430099054
:100E900027E00E98C0680830099022E00E98C068DC
:100EA0000C3009901DE00E98806818B9FFE7042007
:100EB000099011E00E988068012806D1FFE708200C
:100EC00009900C980F99086105E0082009900C988A
:100ED0000F994861FFE7FFE703E00020099000E079
:100EE000FFE70B98FF2803D8FFE70F98049003E073
:100EF0000F9804300490FFE7049808900B98FF289F
:100F000004D8FFE70D988000039006E00D996FF07C
:100F10001F0000EB81000390FFE7039807900898FB
:100F20000068079A0F21914088430999914008432E
:100F3000089908600E98C079C006002840F1C68064
:100F4000FFE7FFE741F21800C4F20200016841F038
:100F500001010160006800F0010006900698FFE7BB
:100F60000D9820F003000821C4F2010140580A90B6
:100F70000D9800F0030081000F2000FA01F10A989B
:100F800088430A900F9840F60001C4F2010188429C
:100F900003D1FFE70020029026E00F9840F60041C1
:100FA000C4F20101884203D1FFE70120019018E05B
:100FB0000F9841F20001C4F20101884203D1FFE71A
:100FC000022000900AE00F9941F20042C4F20102AF
:100FD0000420914208BF03200090FFE70098019091
:100FE000FFE701980290FFE702980D9901F00301D5
:100FF000890000FA01F10A9808430A900A980D99AD
:1010000021F003010822C4F2010288500E98807971
:10101000C00748B1FFE70B9A40F20041C4F201015A
:1010200008681043086008E00B9A40F20041C4F2DF
:101030000101086890430860FFE70E9880798007F7
:10104000002809D5FFE70B9A40F20441C4F20101E0
:1010500008681043086008E00B9A40F20441C4F2AB
:101060000101086890430860FFE70E988079C00688
:10107000002809D5FFE70B9A40F20841C4F20101AC
:1010800008681043086008E00B9A40F20841C4F277
:101090000101086890430860FFE70E988079800698
:1010A000002809D5FFE70B9A40F20C41C4F2010178
:1010B00008681043086008E00B9A40F20C41C4F243
:1010C0000101086890430860FFE7FFE7FFE70D981C
:1010D00001300D9079E610B07047000082B00190A9
:1010E000ADF8021001988068BDF80210084204D0E3
:1010F000FFE701208DF8010003E000208DF80100DA
:10110000FFE79DF8010002B07047000082B0019037
:10111000ADF802108DF801209DF8010028B1FFE71D
:10112000BDF802000199086105E0BDF80200000465
:1011300001990861FFE702B07047000040F20C30EF
:10114000C2F200000068704780B58EB00C900C9819
:1011500020B9FFE701208DF8370043E10C9890F8A3
:101160003D0040B9FFE70C99002081F83C000C9845
:1011700000F044FAFFE70C99242081F83D000C9818
:101180000168086820F0010008600C980168086890
:1011900040F4004008600C980168086820F40040A2
:1011A000086000F067FC0A900C98406848F2A06163
:1011B000C0F2010188420BD8FFE70A9948F2804249
:1011C000C0F21E020020914238BF012009900AE0BF
:1011D0000A9940F60012C0F23D020020914238BF49
:1011E00001200990FFE70998012804D1FFE70120B9
:1011F0008DF83700F6E00A984DF68361C4F21B3192
:10120000A0FB0110800C0B900C980068406820F047
:101210003F000B9908430C99096848600C980068D6
:10122000006A20F03F0008900C98406848F2A061E6
:10123000C0F20101884204D8FFE70B980130079003
:101240000EE00B984FF49671484344F6D351C1F227
:101250006201A0FB0101012000EB91100790FFE764
:101260000898079908430C99096808620C98006867
:10127000C0694CF6FF71884306900C98406848F2AC
:10128000A061C0F2010188421FD8FFE70A98013827
:101290000C9949684900B0FBF1F001306FF31F3041
:1012A000032803D8FFE7042005900BE00A980138D3
:1012B0000C9949684900B0FBF1F001306FF31F3021
:1012C0000590FFE7059804904CE00C98806868B999
:1012D000FFE70A9801380C99496801EB4101B0FB1E
:1012E000F1F001306FF31F3003900DE00A980138E0
:1012F0000C99496819225143B0FBF1F001300421E7
:1013000061F31F300390FFE70398000518B9FFE76A
:101310000120029023E00C98806868B9FFE70A98E2
:1013200001380C99496801EB4101B0FBF1F0013043
:101330006FF31F3001900DE00A9801380C9949684D
:1013400019225143B0FBF1F00130042161F31F3049
:101350000190FFE7019840F400400290FFE70298F7
:101360000490FFE70698049908430C990968C8613E
:101370000C980068006820F0C0000C9B1968DA69BE
:101380001B6A1A43104308600C980068806848F292
:10139000FF3188430C9A1168D36812691A431043CD
:1013A00088600C980068C06820F0FF000C9B1968EA
:1013B0005A699B691A431043C8600C980168086811
:1013C00040F0010008600C99002008640C9A20216C
:1013D00082F83D100C9908630C9981F83E008DF855
:1013E0003700FFE79DF837000EB080BD10B588B01C
:1013F00084460C980B98DDF828E0CDF818C0ADF8BD
:101400001610ADF81420ADF81230ADF81000FFF74B
:1014100095FE0390069890F83D00202840F0E68065
:10142000FFE7069803996A4611600221C0F2100195
:101430000122192302F04EFC20B1FFE702208DF8B3
:101440001F00D7E0FFE7069890F83C00012804D180
:10145000FFE702208DF81F00CCE00699012081F8FB
:101460003C00FFE7FFE7069800680068C00738B94E
:10147000FFE706980168086840F001000860FFE790
:1014800006980168086820F4006008600699212029
:1014900081F83D000699402081F83E000699002021
:1014A00008640A9806994862BDF8100006994885B4
:1014B0000698408D0699088506990020CFF6FF70A2
:1014C000C8620698BDF81610BDF81420BDF8123099
:1014D000DDF830C0039CEE46CEF80440CEF800C0E4
:1014E00002F00EFB20B1FFE701208DF81F0081E024
:1014F000FFE70698008D002849D0FFE706980C9971
:10150000039A02F0CFFC80B1FFE70698006C042834
:1015100007D1FFE706980168086840F4007008608A
:10152000FFE701208DF81F0064E006980168406A1B
:10153000007808610699486A013048620699088D6A
:10154000013808850699488D013848850698006855
:10155000406900F004010120B0EB910F16D1FFE7C4
:101560000698008D90B1FFE706980168406A007800
:1015700008610699486A013048620699088D013869
:1015800008850699488D01384885FFE7B1E7069838
:101590000C99039A02F052FB80B1FFE70698006CA9
:1015A000042807D1FFE706980168086840F4007036
:1015B0000860FFE701208DF81F001BE00698016816
:1015C000086840F4007008600699202081F83D000A
:1015D0000699002081F83E00FFE70699002081F877
:1015E0003C00FFE700208DF81F0003E002208DF88B
:1015F0001F00FFE79DF81F0008B010BD80B588B040
:1016000007900020069005900490039007980068CA
:1016100045F20041C4F2000188423ED1FFE7FFE7F6
:1016200041F21800C4F20200016841F008010160B3
:10163000006800F0080002900298FFE74FF4407045
:101640000390122004900320069040F60040C4F25C
:10165000010003A9FFF7B2FBFFE70421C4F2010177
:1016600008680190019840F0E0600190019840F016
:101670000200019001980860FFE7FFE741F21C00BB
:10168000C4F20200016841F400110160006800F436
:10169000001000900098FFE7FFE708B080BD000051
:1016A00040F24800C2F20000027840F20C31C2F26F
:1016B00000010868104408607047000080B542F2DD
:1016C0000001C4F20201086840F010000860032025
:1016D00000F096F80F2000F005F800F03BF800202D
:1016E00080BD000080B582B0009040F20C00C2F2D4
:1016F0000000006840F24801C2F200010A784FF48D
:101700007A71B1FBF2F1B0FBF1F000F087FD20B18E
:10171000FFE701208DF8070018E000980F280DD88A
:10172000FFE700994FF0FF30002200F04FF80098DB
:1017300040F24C01C2F20001086003E001208DF884
:10174000070003E000208DF80700FFE79DF8070081
:1017500002B080BD83B0FFE741F21800C4F202007E
:10176000016841F001010160006800F00100029091
:101770000298FFE7FFE741F21C00C4F20200016893
:1017800041F080510160006800F0805001900198A4
:10179000FFE7FFE70421C4F2010108680090009808
:1017A00020F0E0600090009840F0007000900098F9
:1017B0000860FFE703B0704780B582B08DF807007E
:1017C0009DF9070004F060FC02B080BD80B586B0D2
:1017D0008DF81700049103920020029004F06CFC35
:1017E00002909DF91700019002980499039A03F062
:1017F000F1FA0146019804F067FC06B080BD0000D4
:1018000080B582B00190019804F080FC02B080BDE8
:1018100080B584B002900191029820B9FFE70120C1
:101820008DF80F001BE1019842F20001C4F20201A1
:10183000096801F00701884216D9FFE742F200006B
:10184000C4F20200016821F00701019A114301600E
:10185000006800F007000199884204D0FFE70120EA
:101860008DF80F00FBE0FFE7029800788007002862
:101870002AD5FFE7029800784007002809D5FFE73E
:1018800041F20401C4F20201086840F4E06008601B
:10189000FFE7029800780007002809D5FFE741F22A
:1018A0000401C4F20201086840F460500860FFE7D8
:1018B00041F20401C4F20201086820F0F000029A2B
:1018C000926810430860FFE702980078C00700287C
:1018D00060D0FFE70298406801280ED1FFE741F28F
:1018E0000000C4F2020000688003002804D4FFE76F
:1018F00001208DF80F00B2E021E002984068022834
:101900000ED1FFE741F20000C4F20200006880013E
:10191000002804D4FFE701208DF80F009FE00DE0C0
:1019200041F20000C4F2020000688007002804D4DD
:10193000FFE701208DF80F0091E0FFE7FFE741F29C
:101940000401C4F20201086820F00300029A526800
:1019500010430860FFF7F2FB0090FFE741F204003C
:10196000C4F20200006800F00C0002994968B0EB74
:10197000810F0ED0FFE7FFF7E1FB0099401A41F21B
:101980008931884204D3FFE703208DF80F0066E019
:10199000E4E7FFE7019842F20001C4F2020109689E
:1019A00001F00701884216D2FFE742F20000C4F2BC
:1019B0000200016821F00701019A114301600068EB
:1019C00000F007000199884204D0FFE701208DF85C
:1019D0000F0044E0FFE702980078400700280CD58C
:1019E000FFE741F20401C4F20201086820F4E0605C
:1019F000029AD26810430860FFE702980078000757
:101A000000280DD5FFE741F20401C4F20201086885
:101A100020F46050029A126940EAC2000860FFE7B1
:101A200000F04CF841F20401C4F202010968C9B2A5
:101A30000A094AF6D001C0F60001895CC84040F2AC
:101A40000C01C2F20001086040F24C00C2F200003A
:101A50000068FFF747FE00208DF80F00FFE79DF8B4
:101A60000F0004B080BD000040F20C00C2F2000084
:101A70000068704780B5FFF7F7FF41F20401C4F238
:101A800002010968C1F302224AF6E001C0F6000132
:101A9000895CC84080BD000080B5FFF7E5FF41F2DA
:101AA0000401C4F202010968C1F3C2224AF6E0014E
:101AB000C0F60001895CC84080BD00008BB040F6D4
:101AC0000E70C1F210000A9040F60A30C0F60C50B9
:101AD000099040F20670C0F60810089040F20230FB
:101AE000C0F20450079040F20120ADF81A00002027
:101AF0000590049003900290019041F20400C4F21A
:101B0000020000680590059800F00C000146009165
:101B1000E0B3FFE70098042804D0FFE70098082806
:101B200006D034E041F20020C0F27A00019034E0A7
:101B30000598C0F3834107A8405C02909DF8160009
:101B4000C007C0B1FFE741F20400C4F20200006820
:101B500000F400310DF11A0040EA51400078049081
:101B6000029841F20021C0F27A0148430499B0FB87
:101B7000F1F0039007E0029840F60011C0F23D0139
:101B800048430390FFE70398019006E0FFE741F226
:101B90000020C0F27A000190FFE701980BB0704777
:101BA00080B586B00490049820B9FFE701208DF835
:101BB00017002EE304980078C007002800F0AE80DC
:101BC000FFE741F20400C4F20200006800F00C00DC
:101BD000042813D0FFE741F20400C4F202000068B9
:101BE00000F00C0008281BD1FFE741F20400C4F20A
:101BF00002000068C003002812D5FFE741F2000090
:101C0000C4F2020000688003002808D5FFE70498AA
:101C1000406820B9FFE701208DF81700F9E27CE069
:101C2000FFE704984068B0F5803F09D1FFE741F233
:101C30000001C4F20201086840F48030086032E01C
:101C40000498406868B9FFE741F20001C4F202015C
:101C5000086820F480300860086820F4802008605C
:101C600020E004984068B0F5A02F0DD1FFE741F2C5
:101C70000001C4F20201086840F48020086008688E
:101C800040F4803008600CE041F20001C4F202012F
:101C9000086820F480300860086820F4802008601C
:101CA000FFE7FFE7FFE7FFE704984068D0B1FFE7F1
:101CB000FFF744FA0390FFE741F20000C4F202008C
:101CC0000068800300280CD4FFE7FFF737FA039978
:101CD000401A652804D3FFE703208DF8170098E227
:101CE000EAE719E0FFF72AFA0390FFE741F2000064
:101CF000C4F202000068800300280CD5FFE7FFF75C
:101D00001DFA0399401A652804D3FFE703208DF8D4
:101D100017007EE2EAE7FFE7FFE7FFE704980078B5
:101D20008007002840F18D80FFE741F20400C4F2F3
:101D30000200006810F00C0F13D0FFE741F204001E
:101D4000C4F20200006800F00C00082829D1FFE767
:101D500041F20400C4F202000068C003002820D44D
:101D6000FFE741F20000C4F202000068800700288B
:101D700009D5FFE704980069012804D0FFE7012096
:101D80008DF8170045E241F20001C4F20201086833
:101D900020F0F800049A526940EAC2000860FFE7A8
:101DA0004EE00498006958B3FFE70021C4F24221D5
:101DB00001200860FFF7C2F90390FFE741F200003D
:101DC000C4F202000068800700280CD4FFE7FFF788
:101DD000B5F90399401A032804D3FFE703208DF8CF
:101DE000170016E2EAE741F20001C4F202010868B6
:101DF00020F0F800049A526940EAC20008601EE030
:101E00000021C4F2422100200860FFF797F90390F7
:101E1000FFE741F20000C4F20200006880070028DA
:101E20000CD5FFE7FFF78AF90399401A032804D37A
:101E3000FFE703208DF81700EBE1EAE7FFE7FFE794
:101E4000FFE7049800780007002848D5FFE70498CA
:101E5000806918B3FFE740F28041C4F242210120BB
:101E60000860FFF76BF90390FFE741F22400C4F22A
:101E700002000068800700280CD4FFE7FFF75EF936
:101E80000399401A032804D3FFE703208DF81700B5
:101E9000BFE1EAE7012003F077FA1FE040F280415A
:101EA000C4F2422100200860FFF748F90390FFE7E1
:101EB00041F22400C4F202000068800700280CD51B
:101EC000FFE7FFF73BF90399401A032804D3FFE724
:101ED00003208DF817009CE1EAE7FFE7FFE704988D
:101EE00000784007002840F1D880FFE700208DF8F7
:101EF000070041F21C00C4F202000068C000002884
:101F000013D4FFE7FFE741F21C00C4F202000168AE
:101F100041F080510160006800F08050009000980E
:101F2000FFE701208DF80700FFE747F20000C4F249
:101F300000000068C005002822D4FFE747F2000136
:101F4000C4F20001086840F480700860FFF7F6F8FA
:101F50000390FFE747F20000C4F200000068C005EC
:101F600000280CD4FFE7FFF7E9F80399401A652829
:101F700004D3FFE703208DF817004AE1EAE7FFE703
:101F8000FFE70498C068012809D1FFE741F220016A
:101F9000C4F20201086840F00100086031E00498D2
:101FA000C06868B9FFE741F22001C4F20201086885
:101FB00020F001000860086820F0040008601FE0BD
:101FC0000498C06805280DD1FFE741F22001C4F252
:101FD0000201086840F004000860086840F0010051
:101FE00008600CE041F22001C4F20201086820F010
:101FF00001000860086820F004000860FFE7FFE7C0
:10200000FFE7FFE70498C068E0B1FFE7FFF796F845
:102010000390FFE741F22000C4F20200006880074D
:1020200000280ED4FFE7FFF789F80399401A41F220
:102030008931884204D3FFE703208DF81700E8E0D8
:10204000E8E71BE0FFF77AF80390FFE741F2200092
:10205000C4F202000068800700280ED5FFE7FFF7F2
:102060006DF80399401A41F28931884204D3FFE7A1
:1020700003208DF81700CCE0E8E7FFE79DF80700A4
:10208000012809D1FFE741F21C01C4F202010868EE
:1020900020F080500860FFE7FFE70498C06900283F
:1020A00000F0B380FFE741F20400C4F202000068D0
:1020B00000F00C00082800F08280FFE70498C06957
:1020C00002285CD1FFE76021C4F2422100200860B1
:1020D000FFF734F80390FFE741F20000C4F202007A
:1020E0000068800100280CD5FFE7FFF727F8039967
:1020F000401A032804D3FFE703208DF8170088E077
:10210000EAE70498006AB0F5803F0CD1FFE741F29E
:102110000401C4F20201086820F40030049A9268B5
:1021200010430860FFE741F20401C4F202010868AD
:1021300020F47410049B1A6A5B6A1A431043086007
:102140006021C4F2422101200860FEF7F7FF0390EE
:10215000FFE741F20000C4F202000068800100289D
:102160000CD4FFE7FEF7EAFF0399401A032804D3D3
:10217000FFE703208DF817004BE0EAE71EE060213F
:10218000C4F2422100200860FEF7D8FF0390FFE769
:1021900041F20000C4F202000068800100280CD562
:1021A000FFE7FEF7CBFF0399401A032804D3FFE7AC
:1021B00003208DF817002CE0EAE7FFE724E00498FD
:1021C000C069012804D1FFE701208DF8170020E045
:1021D00041F20400C4F2020000680290029800F488
:1021E00080300499096A884208D1FFE7029800F418
:1021F00070100499496A884204D0FFE701208DF8E5
:10220000170006E0FFE7FFE7FFE700208DF8170063
:10221000FFE79DF8170006B080BD000080B582B0D2
:102220000190019803F0FAF802B080BD81B00090EF
:1022300001B0704781B0009001B0704784B0029047
:10224000019100200090FFE7029890F83C000128DF
:1022500004D1FFE702208DF80F0044E0029901202D
:1022600081F83C00FFE7FFE7009820F0FF000199AC
:10227000C96808430090009820F44070019989686B
:1022800008430090009820F4806001994968084351
:102290000090009820F400600199096808430090BC
:1022A000009820F480500199096908430090009833
:1022B00020F400500199496908430090009820F4E7
:1022C00080400199C9690843009000980299096803
:1022D0004864FFE70299002081F83C00FFE70020F6
:1022E0008DF80F00FFE79DF80F0004B07047000065
:1022F00085B003900291FFE7039890F83C00012815
:1023000004D1FFE702208DF813005BE00399012060
:1023100081F83C00FFE7FFE70399022081F83D00C8
:1023200003980068406801900398006880680090F6
:10233000019820F07000019002980168019808430C
:10234000019001980399096848600398006842F673
:102350000041C4F20101884218D0FFE703980068E9
:10236000B0F1804F12D0FFE70398006840F20041BF
:10237000C4F20001884209D0FFE70398006840F6E4
:102380000001C4F2000188420ED1FFE7009820F05E
:1023900080000090029841680098084300900098DF
:1023A000039909688860FFE70399012081F83D00DF
:1023B000FFE70399002081F83C00FFE700208DF83B
:1023C0001300FFE79DF8130005B0704780B582B099
:1023D0000090009820B9FFE701208DF807003FE04A
:1023E000009890F83D0040B9FFE70099002081F87F
:1023F0003C00009800F038F8FFE70099022081F8CF
:102400003D00009951F8040B03F086F80099012073
:1024100081F84600FFE70099012081F83E0000990D
:1024200081F83F00009981F84000009981F841004F
:10243000FFE7FFE70099012081F84200009981F849
:102440004300009981F84400009981F84500FFE7B6
:102450000099012081F83D0000208DF80700FFE77A
:102460009DF8070002B080BD80B58AB009900020B9
:1024700008900790069005900998006842F6004180
:10248000C4F20101884210D1FFE7FFE741F21800D2
:10249000C4F20200016841F400610160006800F4C8
:1024A000006004900498FFE74FE009980068B0F1DD
:1024B000804F49D1FFE7FFE741F21C00C4F2020060
:1024C000016841F001010160006800F00100039023
:1024D0000398FFE7FFE741F21800C4F20200016829
:1024E00041F008010160006800F0080002900298C5
:1024F000FFE70820059002200690089040F6004073
:10250000C4F2010005A9FEF759FCFFE70421C4F25B
:10251000010108680190019820F440700190019831
:1025200040F0E0600190019840F4807001900198C3
:102530000860FFE71C20009000221146FFF746F9D3
:102540000098FFF739F9FFE7FFE70AB080BD000008
:1025500083B00190019890F83D00012804D0FFE776
:1025600001208DF80B0047E00199022081F83D0021
:1025700001980168C86840F00100C86001980068CF
:1025800042F60041C4F20101884218D0FFE70198E9
:102590000068B0F1804F12D0FFE70198006840F268
:1025A0000041C4F20001884209D0FFE701980068A9
:1025B00040F60001C4F20001884212D1FFE7019801
:1025C0000068806800F0070000900098062807D097
:1025D000FFE701980168086840F001000860FFE724
:1025E00006E001980168086840F001000860FFE714
:1025F00000208DF80B00FFE79DF80B0003B070473B
:1026000080B586B004900391FFE7049890F83C00F1
:10261000012804D1FFE702208DF81700A7E00499F4
:10262000012081F83C00FFE7FFE70499022081F8D0
:102630003D000498006880680290029820F07700BE
:102640000290029820F47F40029002980499096851
:102650008860039800680190002872D0FFE7019815
:1026600010286ED0FFE7019820286AD0FFE7019874
:10267000302866D0FFE70198402855D0FFE7019841
:10268000502837D0FFE70198602840D0FFE7019835
:1026900070280BD0FFE70198B0F5805F05D0FFE709
:1026A0000198B0F5005F16D052E052E0049800683F
:1026B000039B5A689968DB6802F0C2FF04980068BF
:1026C00080680290029840F0770002900298049986
:1026D000096888603DE004980068039B5A6899681F
:1026E000DB6802F0ADFF04980168886840F4804020
:1026F00088602EE004980068039A5168D26803F05D
:102700005BF904980068502102F0B4FF21E00498BE
:102710000068039A5168D26803F076F9049800685B
:10272000602102F0A7FF14E004980068039A516842
:10273000D26803F041F904980068402102F09AFF42
:1027400007E0049800680399096802F093FF00E02D
:10275000FFE70499012081F83D00FFE7049900207C
:1027600081F83C00FFE700208DF81700FFE79DF897
:10277000170006B080BD000080B586B004900391BC
:10278000049820B9FFE701208DF8170084E0049831
:1027900090F83D0040B9FFE70499002081F83C0023
:1027A000049800F07DF8FFE70499022081F83D00CD
:1027B00004980168886844F207029043886004998D
:1027C00051F8040B02F0A8FE04980068806802909B
:1027D000049800688069019004980068006A00907D
:1027E00003980168029808430290019840F203316F
:1027F0008843019003998868896940EA012101981A
:1028000008430190019840F60C41884301900198DB
:102810004FF2F001884301900399C868C96940EA02
:10282000012101980843019003990869096A000190
:1028300040EA0131019808430190009820F02200FD
:10284000009003994868496940EA011100980843DB
:1028500000900298049909688860019804990968B1
:10286000886100980499096808620499012081F838
:102870004600049981F83E00049981F83F000499CC
:1028800081F84200049981F84300049981F83D00E1
:1028900000208DF81700FFE79DF8170006B080BDF7
:1028A00080B58EB00D9000200C900B900A9009908E
:1028B0000D98006840F20041C4F2000188424AD1FC
:1028C000FFE7FFE741F21C00C4F20200016841F09B
:1028D00002010160006800F0020008900898FFE71C
:1028E000FFE741F21800C4F20200016841F008015C
:1028F0000160006800F0080007900798FFE73020AB
:10290000099000200A9001200B9040F60040C4F28C
:10291000010009A9FEF752FAFFE70421C4F2010100
:1029200008680690069820F440600690069840F0EB
:10293000E0600690069840F40060069006980860F3
:10294000FFE71D20039001210022FEF73FFF0398BF
:10295000FEF732FF3EE00D98006840F60001C4F239
:102960000001884235D1FFE7FFE741F21C00C4F2C5
:102970000200016841F004010160006800F00400F9
:1029800005900598FFE7FFE741F21800C4F2020046
:10299000016841F008010160006800F0080004903F
:1029A0000498FFE7C0200990002001900A900B9046
:1029B00040F60040C4F2010009A9FEF7FFF9019AB0
:1029C0001E2002900121FEF701FF0298FEF7F4FE9F
:1029D000FFE7FFE70EB080BD80B586B0049003919D
:1029E000049890F83E008DF80B00049890F83F0092
:1029F0008DF80A00049890F842008DF809000498B8
:102A000090F843008DF808000398B8B9FFE79DF8E7
:102A10000B00012805D1FFE79DF80900012804D02B
:102A2000FFE701208DF8170079E00499022081F872
:102A30003E00049981F84200FFE742E00398042831
:102A400017D1FFE79DF80A00012805D1FFE79DF89F
:102A50000800012804D0FFE701208DF817005EE090
:102A60000499022081F83F00049981F84300FFE7B0
:102A700026E09DF80B0001280FD1FFE79DF80A0022
:102A800001280AD1FFE79DF80900012805D1FFE7D9
:102A90009DF80800012804D0FFE701208DF81700F9
:102AA0003DE00499022081F83E00049981F83F003E
:102AB000049981F84200049981F84300FFE7FFE799
:102AC000FFE70398019020B1FFE70198042807D0A1
:102AD0000DE0049800680021012202F095FD14E049
:102AE000049800680421012202F08EFD0DE0049894
:102AF000006800210122009202F086FD009A0498ED
:102B00000068042102F080FDFFE70498016808686E
:102B100040F00100086000208DF81700FFE79DF8E5
:102B2000170006B080BD000081B0009001B0704772
:102B300080B582B0019001980068006900F0020140
:102B40000020B0EB510F28D0FFE701980068C06863
:102B500000F002010020B0EB510F1DD0FFE70198FB
:102B600001686FF00200086101990120087701985F
:102B700000688069800720B1FFE70198FFF7D4FF64
:102B800006E0019800F042F9019800F02FFAFFE703
:102B9000019900200877FFE7FFE7019800680069C6
:102BA00000F004010020B0EB910F29D0FFE701985D
:102BB0000068C06800F004010020B0EB910F1ED047
:102BC000FFE7019801686FF0040008610199022095
:102BD000087701980068806910F4407F04D0FFE70F
:102BE0000198FFF7A1FF06E0019800F00FF90198A6
:102BF00000F0FCF9FFE7019900200877FFE7FFE705
:102C000001980068006900F008010020B0EBD10FC6
:102C100028D0FFE701980068C06800F00801002094
:102C2000B0EBD10F1DD0FFE7019801686FF00800ED
:102C3000086101990420087701980068C06980073D
:102C400020B1FFE70198FFF76FFF06E0019800F061
:102C5000DDF8019800F0CAF9FFE701990020087734
:102C6000FFE7FFE701980068006900F0100100200D
:102C7000B0EB111F29D0FFE701980068C06800F091
:102C800010010020B0EB111F1ED0FFE70198016872
:102C90006FF010000861019908200877019800681A
:102CA000C06910F4407F04D0FFE70198FFF73CFFB4
:102CB00006E0019800F0AAF8019800F097F9FFE704
:102CC000019900200877FFE7FFE701980068006995
:102CD000C00780B1FFE701980068C068C00748B12D
:102CE000FFE7019801686FF001000861019800F0AA
:102CF00031FAFFE7FFE7019800680069C1B20020E0
:102D0000B0EBD11F13D0FFE701980068C068C1B2D3
:102D10000020B0EBD11F09D0FFE7019801686FF0E8
:102D2000800008610198FFF781FAFFE7FFE701984B
:102D30000068006900F040010020B0EB911F14D042
:102D4000FFE701980068C06800F040010020B0EB88
:102D5000911F09D0FFE7019801686FF040000861FA
:102D6000019800F053FBFFE7FFE701980068006956
:102D700000F020010020B0EB511F14D0FFE70198B4
:102D80000068C06800F020010020B0EB511F09D09E
:102D9000FFE7019801686FF0200008610198FFF7D4
:102DA00049FAFFE7FFE702B080BD000080B586B0BA
:102DB000059000200490039002900190059800680F
:102DC00042F60041C4F2010188421DD1FFE7FFE74E
:102DD00041F21800C4F20200016841F004010160F0
:102DE000006800F0040000900098FFE74FF41060C6
:102DF000019002200290049040F60000C4F201000D
:102E000001A9FDF7DBFFFFE706B080BD81B00090B0
:102E100001B0704780B586B0049003910292FFE73D
:102E2000049890F83C00012804D1FFE702208DF8B7
:102E3000170085E00499012081F83C00FFE7FFE7D7
:102E4000029801900C2800F270800199DFE801F0EF
:102E5000076D6D6D206D6D6D3A6D6D6D530004984D
:102E60000068039902F01CFC04980168886940F02E
:102E70000800886104980168886920F0040088616E
:102E800003980269049801688869104388614DE0DD
:102E900004980068039902F06BFC04980168886943
:102EA00040F40060886104980168886920F48060BB
:102EB00088610398026904980168886940EA0220E1
:102EC000886133E004980068039902F0BDFC04981F
:102ED0000168C86940F00800C86104980168C869C1
:102EE00020F00400C8610398026904980168C86969
:102EF0001043C8611AE004980068039902F010FDBD
:102F000004980168C86940F40060C86104980168C9
:102F1000C86920F48060C861039802690498016858
:102F2000C86940EA0220C86100E0FFE7FFE70499B2
:102F3000002081F83C00FFE700208DF81700FFE734
:102F40009DF8170006B080BD80B582B00090009853
:102F500020B9FFE701208DF807003FE0009890F8C6
:102F60003D0040B9FFE70099002081F83C0000983F
:102F700000F038F8FFE70099022081F83D00009941
:102F800051F8040B02F0C8FA0099012081F84600BC
:102F9000FFE70099012081F83E00009981F83F0089
:102FA000009981F84000009981F84100FFE7FFE7B0
:102FB0000099012081F84200009981F843000099AE
:102FC00081F84400009981F84500FFE7009901204D
:102FD00081F83D0000208DF80700FFE79DF807000D
:102FE00002B080BD81B0009001B0704781B0009008
:102FF00001B0704780B58AB008900791079828B94A
:10300000FFE7089890F83E0005901CE00798042818
:1030100005D1FFE7089890F83F00049010E007986A
:10302000082805D1FFE7089890F84000039004E0D5
:10303000089890F841000390FFE703980490FFE799
:1030400004980590FFE70598012804D0FFE70120C8
:103050008DF827007AE0079828B9FFE70899022041
:1030600081F83E001EE00798042806D1FFE7089982
:10307000022081F83F00029012E00798082806D14C
:10308000FFE70899022081F84000019005E00899C7
:10309000022081F841000190FFE701980290FFE7CC
:1030A0000298FFE7089800680799012202F0ACFA3D
:1030B0000898006842F60041C4F20101884207D135
:1030C000FFE708980168486C40F400404864FFE757
:1030D0000898006842F60041C4F20101884218D005
:1030E000FFE708980068B0F1804F12D0FFE708981A
:1030F000006840F20041C4F20001884209D0FFE7B5
:103100000898006840F60001C4F20001884212D11C
:10311000FFE708980068806800F0070006900698AE
:10312000062807D0FFE708980168086840F001000A
:103130000860FFE706E008980168086840F00100B1
:103140000860FFE700208DF82700FFE79DF82700C3
:103150000AB080BD80B58EB00D900D980068B0F1BA
:10316000804F40F05081FFE7032002F02BF94042EE
:1031700040F2CC21C2F200010C91C860042002F0A0
:1031800021F940F2E821C2F20001C86040F20430A7
:10319000C2F2000040F20831C2F2000140F21032E7
:1031A000C2F2000204F024FD40F2CA00C2F20000A4
:1031B00040F2CC01C2F2000140F2CE02C2F20002A3
:1031C00001F026F940F2B000C2F2000040F2B20174
:1031D000C2F2000140F2B402C2F2000201F0E8F8CB
:1031E0000C98C068012809DBFFE740F2E820C2F232
:1031F0000000C068012801DBFFE71AE040F2CC20A4
:10320000C2F20000C068B0F1FF3F11DCFFE740F2FE
:10321000E820C2F20000C068B0F1FF3F08DCFFE721
:1032200040F2E821C2F20001C8680138C860FFE737
:10323000FFE740F20430C2F200000068FDF766FAD2
:1032400004F0C6FA292816DBFFE740F60040C4F276
:1032500001004FF4004100220B92FDF757FF0B983D
:1032600040F2E821C2F20001886140F2CC21C2F2B2
:1032700000018861BAE040F60040C4F201004FF45A
:1032800000410122FDF742FF40F20800C2F20000B7
:10329000069040F20430C2F20000059040F2CC00EB
:1032A000C2F20000B0F90000FDF711FA05990246DC
:1032B00006980968006802F095FE40F2A001C2F28B
:1032C00000010791C86040F2CC20C2F200000A90D1
:1032D000C06840F2E821C2F200010991C96802F019
:1032E000BDFD40F27C01C2F200010891C86040F2CD
:1032F000CE00C2F20000B0F9000002F0AFFB079967
:10330000DDF820C0099A86460A9840F27803C2F296
:103310000003C3F800E0C968DCF80CC08C4440F23C
:103320007401C2F20001C1F800C0D1F800C0D3F8A6
:1033300000E0ACEB0E0CC0F818C009681B6819441B
:103340009161806910F5E15F06DCFFE74EF2E03045
:10335000CFF6FF70049016E040F2CC20C2F20000DD
:103360008069B0F5E15F04DBFFE74FF4E1500390C3
:1033700006E040F2CC20C2F2000080690390FFE733
:1033800003980490FFE7049840F2CC21C2F20001B8
:10339000886140F2E820C2F20000806910F5E15F28
:1033A00006DCFFE74EF2E030CFF6FF70029016E049
:1033B00040F2E820C2F200008069B0F5E15F04DB72
:1033C000FFE74FF4E150019006E040F2E820C2F23E
:1033D000000080690190FFE701980290FFE70298E2
:1033E00040F2E821C2F200018861FFE740F2CC2000
:1033F000C2F20000806940F2E821C2F2000189694E
:1034000001F064FFFFE70EB080BD000081B00090C6
:1034100001B0704782B00190ADF8021002B0704761
:1034200081B0009001B0704780B588B007900798D0
:1034300000680068069007980068C06805900798C3
:10344000006840690490002003900290069800F004
:103450000F000390039888B9FFE79DF818008006D5
:1034600000280AD5FFE79DF814008006002804D53F
:10347000FFE7079802F04CFB76E1FFE7039800288E
:1034800000F0B480FFE79DF81000C00738B9FFE7EF
:10349000BDF8140010F4907F00F0A880FFE79DF8BD
:1034A0001800C00758B1FFE79DF81500C00730B1FC
:1034B000FFE70799086C40F001000864FFE79DF8FA
:1034C0001800400700280BD5FFE79DF81000C00743
:1034D00030B1FFE70799086C40F002000864FFE78D
:1034E0009DF81800800700280BD5FFE79DF8100015
:1034F000C00730B1FFE70799086C40F0040008648A
:10350000FFE79DF818000007002811D5FFE79DF898
:1035100014008006002805D4FFE79DF81000C007BE
:1035200030B1FFE70799086C40F008000864FFE736
:103530000798006C002858D0FFE79DF81800800617
:1035400000280AD5FFE79DF814008006002804D55E
:10355000FFE7079802F0DCFAFFE707980068406988
:10356000C0F3801002900798006C0007002803D475
:10357000FFE7029888B3FFE7079802F091FA0798EF
:10358000006840694006002822D5FFE707980168D7
:10359000486920F0400048610798806B98B1FFE7C8
:1035A0000798816B45F68120C0F6000048630798B4
:1035B000806BFDF731FB28B1FFE70798806B416B0B
:1035C0008847FFE703E00798FFF72AFFFFE703E0DC
:1035D0000798FFF725FFFFE706E00798FFF720FFB2
:1035E000079900200864FFE7FFE7BDE00798006B3C
:1035F000012840F09980FFE79DF81800C0060028D8
:1036000040F19280FFE79DF81400C006002840F1C9
:103610008B80FFE7FFE700200190079800680068B3
:10362000019007980068406801900198FFE70798AB
:10363000006840694006002848D5FFE70798806B7E
:1036400000684068ADF80200BDF80200E8B3FFE78B
:10365000BDF802000799898D884236DAFFE7BDF888
:1036600002000799C8850798806B8069202824D0BC
:10367000FFE707980168C86820F48070C860079861
:103680000168486920F001004861079801684869AD
:1036900020F0400048610799202081F83E000799FA
:1036A0000020086307980168C86820F01000C8600F
:1036B0000798806BFDF772FAFFE70798818DC28D3E
:1036C000891A89B2FFF7A6FEFFE74DE00799888DBA
:1036D000C98D401AADF800000798C08D18B3FFE7F8
:1036E000BDF80000F8B1FFE707980168C86820F44A
:1036F0009070C86007980168486920F0010048612F
:103700000799202081F83E00079900200863079858
:103710000168C86820F01000C8600798BDF8001064
:10372000FFF778FEFFE71FE09DF81800000600286D
:103730000AD5FFE79DF814000006002804D5FFE72E
:10374000079802F0E9FA0FE09DF8180040060028FB
:103750000AD5FFE79DF814004006002804D5FFE7CE
:10376000079802F0C1F9FFE708B080BD80B582B0CC
:103770000090009820B9FFE701208DF807003EE097
:103780000098806908B1FFE700E0FFE7009890F833
:103790003D0040B9FFE70099002081F83C00009807
:1037A00000F032F8FFE70099242081F83D000098EE
:1037B0000168C86820F40050C860009802F04EFA12
:1037C00000980168086920F4904008610098016839
:1037D000486920F02A00486100980168C86840F4F0
:1037E0000050C860009900200864009A202182F8E7
:1037F0003D10009A82F83E108DF80700FFE79DF813
:10380000070002B080BD000080B590B00F9000208E
:103810000E900D900C900B900F98006843F60001ED
:10382000C4F20101884243D1FFE7FFE741F21800EB
:10383000C4F20200016841F480410160006800F4B4
:1038400080400A900A98FFE7FFE741F21800C4F2AF
:103850000200016841F004010160006800F004000A
:1038600009900998FFE74FF400700B9002200C902C
:1038700003200E9040F60000C4F2010003900BA953
:103880000491FDF79BFA039804994FF480620B9220
:10389000002205920C920D92FDF790FA059A2520D0
:1038A00006901146FDF792FF0698FDF785FF40E070
:1038B0000F98006844F20041C4F20001884237D1F9
:1038C000FFE7FFE741F21C00C4F20200016841F487
:1038D00000310160006800F4003008900898FFE7AC
:1038E000FFE741F21800C4F20200016841F0040150
:1038F0000160006800F0040007900798FFE70420CB
:103900000B9002200C9003200E9040F60000C4F2B1
:10391000010001900BA90291FDF750FA019802995C
:1039200008220B9200220C920D92FDF747FAFFE756
:10393000FFE710B080BD000081B0009001B070477B
:1039400080B58AB008900791ADF81A200593002041
:103950000290089890F83D00202840F09080FFE702
:10396000079820B1FFE7BDF81A0020B9FFE7012052
:103970008DF8270087E0FFE7089890F83C000128C1
:1039800004D1FFE702208DF827007CE00899012090
:1039900081F83C00FFE7FFE70899002008640899D8
:1039A000212081F83D00FDF7C9FB0290BDF81A0007
:1039B00008998884BDF81A000899C8840898806816
:1039C000B0F5805F09D1FFE70898006928B9FFE7E3
:1039D000002004900798039004E0079804900020CA
:1039E0000390FFE7FFE70899002081F83C00FFE71C
:1039F000FFE70898C08C58B3FFE70898029B059929
:103A00006A4611608021002202F0D0F920B1FFE760
:103A100003208DF8270036E0049858B9FFE7039893
:103A200000886FF35F2008990968486003980230A6
:103A3000039008E0049800780899096848600498A1
:103A400001300490FFE70899C88C0138C884D0E79A
:103A50000898029B05996A4611604021002202F0F5
:103A6000A5F920B1FFE703208DF827000BE00899A6
:103A7000202081F83D0000208DF8270003E002207F
:103A80008DF82700FFE79DF827000AB080BD0000F1
:103A900081B0009001B07047FFE7FEE782B0009070
:103AA00000980068406900F480610120B0EB912F1C
:103AB0001ED1FFE7009801686FF4806048610099AB
:103AC00000200863009A202182F83D10009981F8B7
:103AD0003E000099086C40F004000864FFE700997C
:103AE000002081F83C00FFE701208DF8070003E08B
:103AF00000208DF80700FFE79DF8070002B070472F
:103B000080B586B0DDF824C0DDF820C00490ADF8A3
:103B10000E10ADF80C20ADF80A3004980168086862
:103B200040F4807008600498089B09996A46116007
:103B30004FF00111002200F0CDF880B1FFE70498AA
:103B400000680068C005002805D5FFE704994FF418
:103B500000700864FFE703208DF8170069E0BDF8E6
:103B60000E0000F0FE000499096808610498089AA4
:103B7000099B0221C0F2010100F00CF920B1FFE71E
:103B800001208DF8170054E0FFE700200190049811
:103B9000006840690190049800688069019001986C
:103BA000FFE704980899099A00F07CF980B1FFE7D3
:103BB0000498006C042807D1FFE70498016808689E
:103BC00040F400700860FFE701208DF8170030E036
:103BD000BDF80A00012806D1FFE79DF80C00049902
:103BE0000968086121E09DF80D00049909680861E1
:103BF00004980899099A00F055F980B1FFE70498F4
:103C0000006C042807D1FFE704980168086840F4B5
:103C100000700860FFE701208DF8170009E09DF8AB
:103C20000C00049909680861FFE700208DF817006F
:103C3000FFE79DF8170006B080BD000080B584B096
:103C4000029001910092FFE702980068406900F03D
:103C500004010020B0EB910F33D1FFE70298FFF78A
:103C60001DFF20B1FFE701208DF80F002DE0019826
:103C7000013028B3FFE7FDF761FA0099401A019976
:103C8000884203D8FFE70198C8B9FFE702990020EE
:103C90000863029A202182F83D10029981F83E00C3
:103CA0000299086C40F020000864FFE702990020A8
:103CB00081F83C00FFE701208DF80F0005E0FFE7E9
:103CC000C2E700208DF80F00FFE79DF80F0004B059
:103CD00080BD000080B586B0DDF820C0049003915F
:103CE0008DF80B200193FFE79DF80E0001280CD101
:103CF000FFE7049800684069BDF80C100840401ABE
:103D0000B0FA80F0400900900BE0049800688069E8
:103D1000BDF80C100840401AB0FA80F0400900903D
:103D2000FFE700989DF80B1088422AD1FFE7019821
:103D3000013028B3FFE7FDF701FA0899401A01990D
:103D4000884203D8FFE70198C8B9FFE7049900202B
:103D50000863049A202182F83D10049981F83E00FE
:103D60000499086C40F020000864FFE704990020E3
:103D700081F83C00FFE701208DF8170005E0FFE720
:103D8000B2E700208DF81700FFE79DF8170006B096
:103D900080BD000080B586B004900391029201932B
:103DA000FFE79DF80E0001280CD1FFE7049800689A
:103DB0004069BDF80C100840401AB0FA80F0400984
:103DC00000900BE0049800688069BDF80C10084072
:103DD000401AB0FA80F040090090FFE700980028F0
:103DE00058D1FFE704980068406900F48061012021
:103DF000B0EB912F24D1FFE704980168086840F4E4
:103E000000700860049801686FF48060486104994C
:103E100000200863049A202182F83D10049981F85B
:103E20003E000499086C40F004000864FFE7049920
:103E3000002081F83C00FFE701208DF817002DE0FD
:103E40000298013028B3FFE7FDF778F90199401A8D
:103E50000299884203D8FFE70298C8B9FFE704999E
:103E600000200863049A202182F83D10049981F80B
:103E70003E000499086C40F020000864FFE70499B4
:103E8000002081F83C00FFE701208DF8170005E0D5
:103E9000FFE786E700208DF81700FFE79DF8170081
:103EA00006B080BD80B584B0029001910092FFE71A
:103EB000029800684069C1B20020B0EBD11F33D135
:103EC000FFE70298FFF7EAFD20B1FFE701208DF838
:103ED0000F002DE00198013028B3FFE7FDF72EF920
:103EE0000099401A0199884203D8FFE70198C8B9A0
:103EF000FFE7029900200863029A202182F83D1012
:103F0000029981F83E000299086C40F02000086494
:103F1000FFE70299002081F83C00FFE701208DF8BF
:103F20000F0005E0FFE7C3E700208DF80F00FFE773
:103F30009DF80F0004B080BD80B586B040F600400B
:103F4000C4F2010003904FF4006104910022029238
:103F5000FDF7DCF800F018F803984FF48061019148
:103F600001220592FDF7D2F800F00EF80199029AAD
:103F70000398FDF7CBF800F007F803980499059A29
:103F8000FDF7C4F806B080BD81B000208DF80300B5
:103F9000FFE79DF80300092807DCFFE7FFE79DF82E
:103FA000030001308DF80300F3E701B07047000013
:103FB00080B58AB0FFE741F21800C4F20200016840
:103FC00041F008010160006800F0080005900598C4
:103FD000FFE74FF4806006900320019009901120C4
:103FE0000290079040F60040C4F20100039006A939
:103FF0000491FCF7E3FE019B029A039804994FF4A5
:10400000006CCDF818C009930792FCF7D7FE00F0BA
:10401000F5F80AB080BD000080B584B040F60040DD
:10402000C4F2010002904FF4006101220192FDF7F9
:104030006DF8FFF7A9FF019A02984FF48061039190
:10404000FDF764F8FFF7A0FF029803990022FDF73F
:104050005DF8FFF799FF04B080BD000080B582B025
:104060008DF8070000208DF805008DF80600FFE7A9
:104070009DF80600072830DCFFE79DF805004000AA
:104080008DF8050040F60040C4F2010000904FF4A6
:1040900080610122FDF73AF8FFF776FF00984FF4B0
:1040A0000061FDF71BF830B1FFE79DF80500013016
:1040B0008DF80500FFE740F60040C4F201004FF420
:1040C00080610022FDF722F8FFF75EFFFFE79DF811
:1040D000060001308DF80600CAE79DF8070018B900
:1040E000FFE7FFF799FF02E0FFF726FFFFE79DF8E4
:1040F000050002B080BD000080B584B08DF80F00CF
:1041000000208DF80E00FFE79DF80E0007284BDC1D
:10411000FFE79DF80F00000600280AD5FFE740F6EC
:104120000040C4F201004FF400610122FCF7EEFFF1
:1041300009E040F60040C4F201004FF400610022A3
:10414000FCF7E4FFFFE7FFF71FFF40F60040C4F273
:10415000010001904FF4806102910122FCF7D6FF2B
:10416000FFF712FF019802990022FCF7CFFF9DF89C
:104170000E0007280AD1FFE740F60040C4F2010014
:104180004FF400610122FCF7C1FFFFE79DF80F002B
:1041900040008DF80F00FFF7F7FEFFE79DF80E00D7
:1041A00001308DF80E00AFE704B080BD80B586B059
:1041B00040F60040C4F2010003904FF40061029108
:1041C00001220192FCF7A2FF019A03984FF480614B
:1041D0000491FCF79BFFFFF7D7FE0299039800229A
:1041E0000592FCF793FFFFF7CFFE03980499059A19
:1041F000FCF78CFFFFF7C8FE06B080BD80B584B029
:1042000040F60040C4F2010001904FF400610291B9
:104210000022FCF77BFF01984FF48061012203929A
:10422000FCF774FFFFF7B0FE01980299039AFCF7C0
:104230006DFF04B080BD000080B584B040F6004042
:10424000C4F2010001904FF400610291012200923A
:10425000FCF75CFFFFF798FE009A01984FF480612D
:10426000FCF754FFFFF790FE01980299FCF736FF28
:1042700020B1FFE701208DF80F0003E000208DF84A
:104280000F00FFE740F60040C4F201004FF48061E8
:104290000022FCF73BFFFFF777FE9DF80F0004B00C
:1042A00080BD000080B582B040F20C30C2F2000048
:1042B000006840F25401C2F200010968401A312836
:1042C00001D8FFE741E040F20C30C2F20000006884
:1042D00040F25401C2F20001086000F039F88DF894
:1042E00007009DF8070040F25001C2F200010A7871
:1042F000424010408DF806009DF807200878504095
:1043000090438DF805009DF8070008709DF80600A1
:1043100001460091012804D0FFE7009803280AD045
:1043200013E040F2C801C2F2000108780A300870B8
:1043300000F086FD09E040F2C801C2F200010878F1
:104340000A38087000F07CFDFFE702B080BD000075
:1043500080B540F60040C4F201000121FCF7BEFE2A
:1043600038B9FFE740F25801C2F20001012008709D
:1043700017E040F60040C4F201000221FCF7AEFE57
:1043800038B9FFE740F25801C2F20001032008707B
:1043900006E040F25801C2F2000100200870FFE779
:1043A000FFE740F25800C2F20000007880BD000034
:1043B00080B586B005900491039268203B210622C7
:1043C0000DF1060300F0C6F88DF805009DF8050014
:1043D000C8B9FFE79DF806109DF8070040EA0120E4
:1043E000059908809DF808109DF8090040EA012011
:1043F000049908809DF80A109DF80B0040EA0120FE
:1044000003990880FFE79DF8050006B080BD000015
:1044100080B586B00590049103926820432106225E
:104420000DF1060300F096F88DF805009DF80500E3
:10443000C8B9FFE79DF806109DF8070040EA012083
:10444000059908809DF808109DF8090040EA0120B0
:10445000049908809DF80A109DF80B0040EA01209D
:1044600003990880FFE79DF8050006B080BD0000B5
:1044700080B584B0FFF79CFD6B20009080210291F5
:1044800000F04EF96420FCF755FC009800210191E2
:1044900000F046F9032000F0C1F8019800F0B0F8F0
:1044A000322000F00DF90199382000F039F9019916
:1044B0006A2000F035F90199232000F031F90299C2
:1044C000372000F02DF9752000F020F88DF80E004F
:1044D0009DF80E0068280CD1FFE76B20012100F049
:1044E0001FF96C20002100F01BF9322000F0E8F8E1
:1044F00003E001208DF80F0003E000208DF80F008D
:10450000FFE79DF80F0004B080BD000080B582B0C9
:104510008DF80700FFF74AFED020FFF7EDFDFFF70B
:104520008BFE9DF80700FFF7E7FDFFF785FEFFF71D
:104530003DFED120FFF7E0FDFFF77EFE0020FFF7F4
:104540008DFD8DF80600FFF759FE9DF8060002B0BC
:1045500080BD000080B582B08DF806008DF8051092
:104560008DF804200093FFF721FE9DF8060040001F
:10457000C0B2FFF7C1FDFFF75FFE30B1FFE7FFF705
:104580003DFE01208DF8070035E09DF80500FFF79E
:10459000B3FDFFF751FEFFF709FE9DF8060040004E
:1045A0000130C0B2FFF7A8FDFFF746FEFFE79DF818
:1045B0000400D0B1FFE79DF80400012806D1FFE711
:1045C0000020FFF74BFD0099087005E00120FFF780
:1045D00045FD00990870FFE79DF8040001388DF84B
:1045E0000400009801300090E1E7FFF707FE00208B
:1045F0008DF80700FFE79DF8070002B080BD0000BE
:1046000080B582B08DF807009DF80700C000C1B2E8
:104610001C2000F085F802B080BD000080B582B09B
:104620008DF807009DF80700C000C1B21B2000F004
:1046300077F802B080BD000080B582B0ADF806000A
:1046400000208DF80500BDF80600BC2804DBFFE75C
:1046500001208DF805002BE0BDF80600622804DB80
:10466000FFE702208DF8050021E0BDF806002A28AA
:1046700004DBFFE703208DF8050017E0BDF8060016
:10468000142804DBFFE704208DF805000DE0BDF8D9
:1046900006000A2804DBFFE705208DF8050003E08B
:1046A00006208DF80500FFE7FFE7FFE7FFE7FFE7DC
:1046B0009DF805101A2000F033F802B080BD00000C
:1046C00080B582B0ADF80600BDF80600B0F57A7F7F
:1046D00005DDFFE74FF47A70ADF80600FFE7BDF89F
:1046E0000600032804DCFFE70420ADF80600FFE71E
:1046F000BDF806104FF47A70B0FBF1F001388DF878
:1047000005009DF80510192000F00AF88DF8050045
:10471000BDF806004008FFF78FFF02B080BD000023
:1047200080B582B08DF806008DF80510FFF73EFDCC
:10473000D020FFF7E1FCFFF77FFD30B1FFE7FFF787
:104740005DFD01208DF8070019E09DF80600FFF7D8
:10475000D3FCFFF771FD9DF80500FFF7CDFCFFF7D7
:104760006BFD30B1FFE7FFF749FD01208DF8070031
:1047700005E0FFF743FD00208DF80700FFE79DF8F7
:10478000070002B080BD000080B584B08DF80E0037
:104790008DF80D108DF80C200293FFF707FD9DF8A2
:1047A0000E004000C0B2FFF7A7FCFFF745FD30B197
:1047B000FFE7FFF723FD01208DF80F002DE09DF8A6
:1047C0000D00FFF799FCFFF737FD00208DF807007B
:1047D000FFE79DF807009DF80C10884217DAFFE705
:1047E00002989DF80710405CFFF786FCFFF724FD58
:1047F00030B1FFE7FFF702FD01208DF80F000CE05C
:10480000FFE79DF8070001308DF80700E1E7FFF7AB
:10481000F5FC00208DF80F00FFE79DF80F0004B0B5
:1048200080BD000080B596B00020159014901390C4
:104830001290FFE741F21800C4F20200016841F053
:1048400010010160006800F0100011901198FFE75E
:10485000FFE741F21800C4F20200016841F02001B4
:104860000160006800F0200010901098FFE7FFE75B
:1048700041F21800C4F20200016841F00401016035
:10488000006800F004000F900F98FFE7FFE741F287
:104890001800C4F20200016841F0080101600068DC
:1048A00000F008000E900E98FFE741F20000C4F2FD
:1048B000010002904FF40051019101220792FCF790
:1048C00025FC40F60000C4F201000390722104911F
:1048D00000220C92FCF71AFC079A40F60040C4F242
:1048E000010009904FF44061FCF710FC09980C9A04
:1048F0004FF410410B91FCF709FC019B0298079AB9
:104900000C9912931392149102210891159112A9F6
:104910000A91FCF753FA0398079A0A991292002316
:10492000C1F2210313931492FCF748FA0398DDF8BF
:104930001CC0089A0A990C9BDDF810E0CDF848E0FD
:10494000CDF84CC014931592FCF738FA079A0998E1
:104950000A990C9B4FF0030CCDF818C0CDF848C055
:1049600013931492FCF72AFA079A09980A994FF4BC
:104970008063129311230593139314921592FCF7FD
:104980001DFADDF814C0069A079B09980A994FF49E
:10499000006ECDF848E0CDF84CC014931592FCF7AA
:1049A0000DFADDF81CC0089A09980A990C9BDDF8ED
:1049B0002CE0CDF848E0CDF84CC014931592FCF7EC
:1049C000FDF90C9A06200D901146FCF7FFFE0D989C
:1049D000FCF7F2FE16B080BD80B582B040F2D00088
:1049E000C2F20000019045F20041C4F200010160F2
:1049F00041F68021C0F20601416000218160C16062
:104A00004FF48042026141618161C1610162FCF742
:104A10009BFB18B1FFE7FCF7B9F8FFE702B080BDD8
:104A200080B598B0002101911791169115911491BC
:104A300013911291119110910F910E910D910C9172
:104A40000B910A91099108910791069105910491A2
:104A5000039140F22410C2F20000029042F600429C
:104A6000C4F2010202604160816041F61F42C260EF
:104A70000161416180218161FDF7A8FC18B1FFE768
:104A8000FCF784F8FFE74FF48050149040F22410B4
:104A9000C2F2000014A9FDF7B3FD18B1FFE7FCF75F
:104AA00075F8FFE740F22410C2F20000FEF74CFA5E
:104AB00018B1FFE7FCF76AF8FFE7002012901390A7
:104AC00040F22410C2F2000012A9FDF711FC18B147
:104AD000FFE7FCF75BF8FFE760200B9000220C92E9
:104AE0000D920E920F921092119240F22410C2F287
:104AF00000000BA9FEF78EF918B1FFE7FCF746F8A6
:104B0000FFE740F22410C2F200000BA90C22FEF7CE
:104B100081F918B1FFE7FCF739F8FFE700200390AF
:104B200004900590069007904FF4005108910A9068
:104B300040F22410C2F2000003A9FDF77FFB18B178
:104B4000FFE7FCF723F8FFE740F22410C2F2000071
:104B5000FEF72CF918B080BD80B588B00021019116
:104B600007910691059104910391029140F26C1016
:104B7000C2F200004FF08042026047224260816032
:104B800042F20F72C260016180218161FDF71EFC5B
:104B900018B1FFE7FBF7FAFFFFE74FF480500490EE
:104BA00040F26C10C2F2000004A9FDF729FD18B113
:104BB000FFE7FBF7EBFFFFE700200290039040F2D6
:104BC0006C10C2F2000002A9FDF792FB18B1FFE7DA
:104BD000FBF7DCFFFFE708B080BD000080B58EB0BA
:104BE00005A801902421FBF7D9FA0199002202922D
:104BF0000492039240F2B410C2F2000040F200436B
:104C0000C4F200030360426082604FF6FF73C3602A
:104C100002618261032305930692012307930892A0
:104C200009920A920B930C920D92FDF7A5FD18B113
:104C3000FFE7FBF7ABFFFFE700200390049040F293
:104C4000B410C2F2000003A9FDF752FB18B1FFE750
:104C5000FBF79CFFFFE70EB080BD000080B58EB073
:104C600005A801902421FBF799FA019900220292EC
:104C70000492039240F2FC10C2F2000040F60003DE
:104C8000C4F200030360426082604FF6FF73C360AA
:104C90000261826103230593069201230793089220
:104CA00009920A920B930C920D92FDF765FD18B1D3
:104CB000FFE7FBF76BFFFFE700200390049040F253
:104CC000FC10C2F2000003A9FDF712FB18B1FFE7C8
:104CD000FBF75CFFFFE70EB080BD000080B582B03F
:104CE00040F24420C2F20000019043F60001C4F2F9
:104CF000010101604FF4E131416000218160C16038
:104D000001610C2242618161C161FEF72FFD18B182
:104D1000FFE7FBF73BFFFFE702B080BD80B582B045
:104D200040F28820C2F20000019044F20041C4F237
:104D3000000101604FF4E131416000218160C160F8
:104D400001610C2242618161C161FEF70FFD18B162
:104D5000FFE7FBF71BFFFFE702B080BDFFE7FEE7C1
:104D600080B586B040F2B410C2F20000039000217A
:104D70000591FDF731FE039804210191FDF72CFE0A
:104D8000059940F2FC10C2F200000490FDF724FEE9
:104D900001990498FDF720FE40F26C10C2F2000069
:104DA000FDF7D6FB059940F22410C2F200000290F4
:104DB000FEF720F902980C21FEF71CF9039A0499DA
:104DC0000598126850620968486206B080BD00000C
:104DD000FFE7FEE788B0079006910592079800F07C
:104DE000070004900498C0F10700052803D3FFE7EB
:104DF0000420019004E00498C0F107000190FFE74F
:104E00000198039004980430062803D8FFE7002097
:104E1000009003E0049803380090FFE700980290A8
:104E200006980399012202FA01F101390840029B18
:104E3000984005999A40013A1140084308B07047DC
:104E400080B5002000F002F880BD000080B582B07F
:104E50008DF8070000208DF80600FFE79DF806009A
:104E6000072828DCFFE79DF80600B030C0B201F04B
:104E7000DFF80020009001F0DBF8102001F0D8F8F6
:104E800000988DF80500FFE79DF805007F280BDCF2
:104E9000FFE79DF8070001F0E1F8FFE79DF8050046
:104EA00001308DF80500EFE7FFE79DF806000130BF
:104EB0008DF80600D2E702B080BD000080B584B056
:104EC0006420FBF737FFAE2001F0B2F820200390FA
:104ED00001F0AEF81020019001F0AAF8B02001F026
:104EE000A7F8C82001F0A4F80020029001F0A0F873
:104EF000019801F09DF8402001F09AF8812001F01E
:104F000097F8FF2001F094F8A12001F091F8A62075
:104F100001F08EF8A82001F08BF83F2001F088F80E
:104F2000A42001F085F8D32001F082F8029801F066
:104F30007FF8D52001F07CF8F02001F079F8D92035
:104F400001F076F8222001F073F8DA2001F070F811
:104F5000122001F06DF8DB2001F06AF8039801F0EF
:104F600067F88D2001F064F8142001F061F8AF209B
:104F700001F05EF8FFF764FF04B080BD80B584B037
:104F800040F20C30C2F20000006840F27001C2F240
:104F900000010968401A632801D8FFE772E040F277
:104FA0000C30C2F20000006840F27001C2F2000151
:104FB000086040F20430C2F200000068FBF7DEFB3C
:104FC00002460B4640F25900C2F2000001904BF637
:104FD0006551C0F6000104F0A7FB019A002103917E
:104FE00001230293084600F06BF840F2A000C2F2E1
:104FF00000000068FBF7C2FB024601980B464BF627
:105000007851C0F6000104F08FFB019A029B0398CF
:10501000194600F055F8019840F2C801C2F20001AB
:105020000A784BF65B51C0F6000104F07DFB019A53
:10503000029B0398022100F043F8019840F2E82116
:10504000C2F20001CA684BF63751C0F6000104F005
:105050006BFB019A029B0398042100F031F8019840
:1050600040F2CC21C2F20001CA684BF62251C0F6D0
:10507000000104F059FB019A029B0398062100F0FD
:105080001FF8FFE704B080BD80B582B08DF807003F
:105090008DF806109DF80600B030C0B200F0C8FFD1
:1050A0009DF807000009103000F0C2FF9DF80700CE
:1050B00040F0010000F00F0000F0BAFF02B080BD28
:1050C00080B584B08DF80F008DF80E1002928DF827
:1050D000073000208DF806008DF805008DF80400DB
:1050E0009DF8070001460091012804D0FFE70098D1
:1050F00002284ED0BFE0FFE702989DF80410405C04
:10510000002845D0FFE702989DF80410405C203845
:105110008DF806009DF80F007F2809DBFFE70020CF
:105120008DF80F009DF80E0001308DF80E00FFE79E
:105130009DF80F009DF80E10FFF7A6FF00208DF8D8
:105140000500FFE79DF80500052816DCFFE79DF840
:10515000060000EB40014AF6E800C0F6000000EB54
:1051600041009DF80510405C00F078FFFFE79DF8D6
:10517000050001308DF80500E4E79DF80F000630CA
:105180008DF80F009DF8040001308DF80400B3E79E
:1051900071E0FFE702989DF80410405C002869D098
:1051A000FFE702989DF80410405C20388DF8060057
:1051B0009DF80F00792809DBFFE700208DF80F002C
:1051C0009DF80E0001308DF80E00FFE79DF80F00EE
:1051D0009DF80E10FFF758FF00208DF80500FFE73F
:1051E0009DF80500072814DCFFE79DF806109DF8E0
:1051F000050000EB01114AF61030C0F60000405CDB
:1052000000F02CFFFFE79DF8050001308DF8050048
:10521000E6E79DF80F009DF80E100131C9B2FFF7C7
:1052200033FF00208DF80500FFE79DF805000728F3
:1052300015DCFFE79DF806109DF8050000EB011056
:105240004AF61031C0F600010844007A00F006FF6B
:10525000FFE79DF8050001308DF80500E5E79DF8B2
:105260000F0008308DF80F009DF8040001308DF814
:1052700004008FE7FFE704B080BD000080B582B076
:1052800040F2A001C2F200010020C4F29630086092
:1052900046F26660C3F6A670886040F27C00C2F2F7
:1052A000000001900021CCF26C2101600068FBF746
:1052B00065FA00224BF20003C4F27203FBF76EF9A9
:1052C000FBF76FFA0199486002B080BD80B586B0E7
:1052D00005900491059801280FDBFFE740F60000D8
:1052E000C4F20100039002210022FBF70FFF039894
:1052F00010210122FBF70AFF0EE040F60000C4F285
:105300000100029002210122FBF700FF0298102108
:105310000022FBF7FBFEFFE7059802F059FA40F286
:105320002411C2F2000109684863049801280FDBC8
:10533000FFE740F60000C4F2010001904021002286
:10534000FBF7E4FE019820210122FBF7DFFE0EE0CF
:1053500040F60000C4F20100009040210122FBF75A
:10536000D5FE009820210022FBF7D0FEFFE704982D
:1053700002F02EFA40F22411C2F20001096808641A
:1053800006B080BD7047000082B00190019840F2E5
:105390000C01C2F200010968C90844F6D352C1F2F7
:1053A0006202A1FB0221890948430090FFE700BF88
:1053B000FFE70098411E00910028F8D1FFE702B0F6
:1053C0007047000083B0029002980090032804D038
:1053D000FFE7009804280CD017E040F2B410C2F2A6
:1053E00000000168496A09B2019101680020486221
:1053F0000EE040F2FC10C2F200000168496A09B2F6
:10540000019101680020486202E000200190FFE75E
:10541000019803B0704700007047000080B582B06B
:10542000009000980138B0F1807F03D3FFE701209E
:10543000019019E0009801384EF21401CEF20001FB
:1054400008604FF0FF300F2100F03EFE4EF21801D1
:10545000CEF20001002008604EF21002CEF20002EF
:10546000072111600190FFE7019802B080BD0000A4
:1054700080B5FCF715F980BD80B590B006A8009006
:105480002821FAF78BFE00980023059304930393D9
:1054900002930193012206924FF480310791089301
:1054A0000A9202220D920E914FF4E0110F91FCF737
:1054B00077FB18B1FFE7FBF769FBFFE70F200190CF
:1054C00002210291002003904FF480620492059023
:1054D00001A8FCF79DF918B1FFE7FBF757FBFFE7C1
:1054E00010B080BD7047000080B540F26C10C2F271
:1054F0000000FDF71DFB80BD80B540F2B410C2F284
:105500000000FDF715FB80BD80B540F2FC10C2F233
:105510000000FDF70DFB80BD83B002900191029861
:1055200000680090029842F60041C4F201018842EE
:1055300015D0FFE70298B0F1804F10D0FFE7029836
:1055400040F20041C4F20001884208D0FFE702980F
:1055500040F60001C4F2000188420AD1FFE700983A
:1055600020F0700000900198416800980843009076
:10557000FFE7029842F60041C4F20101884215D0CB
:10558000FFE70298B0F1804F10D0FFE7029840F299
:105590000041C4F20001884208D0FFE7029840F6BB
:1055A0000001C4F2000188420AD1FFE7009820F40C
:1055B000407000900198C168009808430090FFE790
:1055C000009820F0800001994969084300900098F4
:1055D00002990860019880680299C8620198006881
:1055E00002998862029842F60041C4F201018842A1
:1055F00005D1FFE70198006902990863FFE7029966
:105600000120486103B0704784B003900291019279
:10561000029800F01F01012088400090009A039931
:10562000086A904308620198029901F01F0100FA8C
:1056300001F20399086A1043086204B07047000041
:1056400085B00490039102920193049880680090C1
:10565000009820F47F40009003980299019A41EA53
:105660000221014300980843009000980499886043
:1056700005B0704783B00290019102988068009055
:10568000009820F07000009001980099084340F0C5
:105690000700009000980299886003B070470000EE
:1056A00085B0049003910499086A20F00100086213
:1056B0000498006A019004984068009004988069FA
:1056C0000290029820F070000290029820F00300EF
:1056D000029003980168029808430290019820F014
:1056E0000200019003988168019808430190049892
:1056F00042F60041C4F2010188420ED1FFE7019851
:1057000020F0080001900398C168019808430190B7
:10571000019820F004000190FFE7049842F6004150
:10572000C4F20101884213D1FFE7009820F4807091
:105730000090009820F40070009003984169009850
:105740000843009003988169009808430090FFE7A0
:105750000098049948600298049988610398406809
:105760000499486301980499086205B070470000E5
:1057700085B0049003910499086A20F01000086233
:105780000498006A01900498406800900498806929
:105790000290029820F4E0400290029820F44070B9
:1057A000029003980168029840EA01200290019853
:1057B00020F02000019003988168019840EA0110D0
:1057C0000190049842F60041C4F2010188420FD1D1
:1057D000FFE7019820F0800001900398C1680198CC
:1057E00040EA01100190019820F040000190FFE78D
:1057F000049842F60041C4F20101884215D1FFE746
:10580000009820F480600090009820F400600090E0
:1058100003984169009840EA8100009003988169EB
:10582000009840EA81000090FFE7009804994860E2
:1058300002980499886103984068049988630198E4
:105840000499086205B0704785B0049003910499EB
:10585000086A20F4807008620498006A0190049835
:10586000406800900498C0690290029820F070008F
:105870000290029820F003000290039801680298B9
:1058800008430290019820F4007001900398816809
:10589000019840EA01200190049842F60041C4F2C8
:1058A000010188420FD1FFE7019820F400600190C8
:1058B0000398C168019840EA01200190019820F402
:1058C00080600190FFE7049842F60041C4F20101B4
:1058D000884215D1FFE7009820F48050009000988E
:1058E00020F40050009003984169009840EA0110AC
:1058F000009003988169009840EA01100090FFE74A
:1059000000980499486002980499C8610398406817
:105910000499C86301980499086205B070470000B3
:1059200085B0049003910499086A20F480500862BD
:105930000498006A01900498406800900498C06937
:105940000290029820F4E0400290029820F4407007
:10595000029003980168029840EA012002900198A1
:1059600020F40050019003988168019840EA0130CA
:105970000190049842F60041C4F2010188420BD123
:10598000FFE7009820F48040009003984169009858
:1059900040EA81100090FFE700980499486002985F
:1059A0000499C861039840680499086401980499AF
:1059B000086205B07047000085B004900391029220
:1059C0000498006A00900499086A20F001000862B7
:1059D000049880690190019820F0F00001900299EC
:1059E000019840EA01100190009820F00A00009010
:1059F00003990098084300900198049988610098E1
:105A00000499086205B0704785B004900391029232
:105A10000499086A20F010000862049880690190D7
:105A20000498006A0090019820F470400190029957
:105A3000019840EA01300190009820F0A000009009
:105A40000399009840EA0110009001980499886138
:105A500000980499086205B07047000080B582B0D4
:105A600001900198FAF741FE00220023CBF6D07393
:105A7000FAF722FDFAF763FE0090009802B080BDAD
:105A800080B582B001900198406A00900099002092
:105A9000C8850099C8840098FDF7C2FC02B080BD9B
:105AA00081B0009000980168C86820F49070C860C8
:105AB00000980168486920F0010048610098006B77
:105AC000012807D1FFE700980168C86820F010009E
:105AD000C860FFE70099202081F83E00009900206F
