:020000040800F2
:10000000D8090020910100082D2D0008DD250008E9
:10001000AD2C000829060008ED340008000000009F
:10002000000000000000000000000000C92F0008D0
:100030001507000800000000312F00088D3000086F
:10004000AB010008AB010008AB010008AB010008E0
:10005000AB010008AB010008AB010008AB010008D0
:10006000AB010008AB010008AB010008AB010008C0
:10007000AB010008AB010008AB010008AB010008B0
:10008000AB010008AB010008AB010008AB010008A0
:10009000AB010008AB010008AB010008AB01000890
:1000A000AB010008AB010008AB010008AB01000880
:1000B000AB010008AB0100080D310008AB010008DE
:1000C000AB010008AB010008AB010008AB01000860
:1000D000AB010008AB010008AB010008AB01000850
:1000E000AB010008AB010008AB01000800F002F80A
:1000F00000F03FF80AA090E8000C82448344AAF183
:100100000107DA4501D100F034F8AFF2090EBAE880
:100110000F0013F0010F18BFFB1A43F0010318473B
:100120005046000070460000103A24BF78C878C1DD
:10013000FAD8520724BF30C830C144BF04680C60ED
:10014000704700000023002400250026103A28BF35
:1001500078C1FBD8520728BF30C148BF0B60704739
:10016000642900F04B80002070471FB51FBD10B5FB
:1001700010BD00F0C1F91146FFF7F7FF03F0F8F9E1
:1001800000F0DFF903B4FFF7F2FF03BC03F0EBF973
:100190000948804709480047FEE7FEE7FEE7FEE71B
:1001A000FEE7FEE7FEE7FEE7FEE7FEE70448054957
:1001B000054A064B704700000B310008ED000008AF
:1001C000D8030020D8090020D8050020D805002039
:1001D000704700000FB41CB5074B06AA7B44694664
:1001E0000090059800F06BF90020694600F07AF95C
:1001F0001CBC5DF814FB0000050300002DE9F04174
:100200000646002410687529314616A510D0AFF3B4
:100210000080002802DA404213A507E031688A070F
:1002200001D512A502E0490704D511A5012401E07A
:10023000AFF3008000210A2206F1240709E0B0FB99
:10024000F2FCB0FBF2F302FB1C003030785418468D
:10025000491C0028F3D123462A463046BDE8F04128
:1002600000F0CFB8000000002D0000002B000000BF
:10027000200000002DE9F05F894604464FF0000A97
:10028000DFF824B1FB44C0F820A02046E16888478D
:1002900000287DD0252806D0D4E901219047206A86
:1002A000401C2062F1E700255F462046E168884750
:1002B0002028064607DB312E05D2B81910F8200C8D
:1002C00008B10543F1E7A80701D525F00405C4F8F6
:1002D0001CA00027C4F818A02A2E09D0304603F02D
:1002E0003BF938B304EB8708303EC8F8186019E0D2
:1002F00059F8041B204604EB87029161E1688847A6
:10030000012F064618D1E069002820DA25F02005E3
:100310001DE0D8F8180000EB800006EB40003038F4
:10032000C8F818002046E1688847064603F014F92B
:100330000028EED1012F0AD02E2E08D12046E168E8
:1003400088477F1C0646022F45F02005C4DBA069C4
:10035000002803DA404245F00105A061E80701D01A
:1003600025F01005A6B1A6F14100192802D82036C3
:1003700045F400654A463146204625604D46FFF764
:10038000EFFE60B1012807D0ED1D25F0070000E069
:1003900007E000F1080978E705F1040975E7304640
:1003A0007AE7206ABDE8F09FD64400004FF00002D3
:1003B00000B5134694469646203922BFA0E80C505B
:1003C000A0E80C50B1F12001BFF4F7AF090728BF36
:1003D000A0E80C5048BF0CC05DF804EB890028BFB2
:1003E00040F8042B08BF704748BF20F8022B11F0DB
:1003F000804F18BF00F8012B704770477047704757
:1004000070472DE9F0470D4699469246044600F1A3
:1004100024080168880604D5E06921F010012160F4
:1004200000E00120A84201DD471B00E00027A16990
:100430007A1902EB0900081AA0612078C00602D4DC
:100440002046AFF30080002608E0D4E901211AF825
:1004500006009047206A401C761C20624E45F4DB63
:100460002078C0060AD52046AFF3008006E0D4E924
:10047000012130209047206A401C2062381EA7F1DD
:100480000107F4DC07E0D4E9012118F805009047E2
:10049000206A401C2062281EA5F10105F3DC2046DD
:1004A000AFF300802078000602D50220BDE8F08777
:1004B0000120FBE701694A1C02610878704700B51A
:1004C0008FB0CDE901310021059105497944CDE98D
:1004D000031011466846FFF7CDFE0FB000BD0000C7
:1004E000E5FFFFFF0A6802F8010B0A607047000091
:1004F00000487047780300207546FFF7F9FFAE46C5
:1005000005006946534620F00700854618B020B51F
:10051000FFF74CFEBDE820404FF000064FF000070B
:100520004FF000084FF0000B21F00701AC46ACE89B
:10053000C009ACE8C009ACE8C009ACE8C0098D4608
:10054000704710B50446AFF300802046BDE8104068
:10055000FFF718BE70B5044620688168C943C90713
:1005600016D1816821F00101816000F03BFD054654
:1005700009E000F037FD401B022804D9206880689C
:10058000C043C00706D020688068C043C007F0D0D1
:10059000002070BDA06A40F01000A062E06A40F048
:1005A0000100E062012070BDF8B504460026009607
:1005B00020688168C943C9072FD0816841F00101D3
:1005C0008160174817490068B0FBF1F0009002E025
:1005D0000098401E009000980028F9D100F002FD1C
:1005E000054615E000F0FEFC401B022810D92068EB
:1005F0008068C043C0070BD0A06A40F01000A06222
:10060000E06A40F00100E06284F824600120F8BD57
:1006100020688068C043C007E4D10020F8BD000016
:100620000C00002040420F00FEE7000070B50446B9
:100630000D4613481149006803F0EAFA06461149CD
:10064000284603F0E5FA314603F0B8F903F078FAEA
:1006500003F092FA0546204603F08EFA294602F08E
:1006600069FC03F06DFA41F29411884201DD0846FD
:1006700070BD05498842FBDA084670BD0000C842DB
:10068000100000200000C3446CEEFFFF70B504466C
:100690000D4613481149006803F0BAFA064611499D
:1006A000284603F0B5FA314603F088F903F048FA1A
:1006B00003F062FA0546204603F05EFA294602F08E
:1006C00039FC03F03DFA41F29411884201DD0846FD
:1006D00070BD05498842FBDA084670BD0000C8427B
:1006E000100000200000C3446CEEFFFF10B503F0C3
:1006F00043FA02F083FE03F023FA41F29411884298
:1007000001DD084610BD02498842FBDA084610BDEB
:100710006CEEFFFF7047000010B50021084801F0A3
:1007200015FC0421064801F011FC0021054801F0E8
:100730000DFCBDE810400421024801F007BC000098
:100740002C010020BC01002072B6FEE70022012827
:1007500003D0032807D00020704706480168486A84
:1007600000B24A62704704480168486A00B24A62AF
:10077000704700002C010020BC0100202DE9F04151
:1007800086B0DFF83481052000F09EF8C0F5805572
:10079000042000F099F8C0F58057012000F094F88B
:1007A000C0F58056D8F80C0003F0E6F90446304650
:1007B00003F0E2F9214603F0F7FA1CD8D8F8140048
:1007C00003F0DAF90446384603F0D6F9214603F07F
:1007D000EBFA10D8D8F8100003F0CEF904462846FA
:1007E00003F0CAF9214603F0DFFA04D847F230508B
:1007F00006B0BDE8F081D8F80810701B4418D8F88E
:100800004400844203DD012188F8001005E04142E4
:100810008C4202DA002188F80010D8F818108F42B4
:1008200018DA844208DDD8F80C10D8F82020C6EB7E
:100830004101C2EB41040DE00CDA98F8001049B90F
:10084000D8F80C10D8F82020C6EB4101D2EB4104B7
:1008500000D56442D8F81C108F421EDA4042844210
:100860000ADAD8F81000D8F82410C0F1000005EB1F
:100870004000C1EB400410E00FDD98F800000128B3
:100880000BD1D8F81000D8F82410404205EB4000F6
:10089000D1EB400000D54042444298F8002007A127
:1008A0006846FFF797FC01236A460621002002F004
:1008B000CBFA20469CE7000060000020506F734692
:1008C0006C61673A256420000EB50090012001900C
:1008D000052002906946094800F012F808B1FFF7B8
:1008E00033FF064800F004FA4FF0FF31034800F0F0
:1008F00059F9024800F088F880B20EBDA800002027
:10090000F8B500230025009590F82420012A12D084
:10091000012280F824204A681F26072A0DD2046885
:10092000676B521E02EB82029640B7430E689640F8
:10093000374367631AE00220F8BD0D2A0BD2046822
:10094000276BD21F02EB82029640B7430E68964097
:10095000374327630AE00468E76A0D3A02EB820234
:100960009640B7430E6896403743E7620A68072609
:100970000A2A0BD30468E7680A3A02EB420296405F
:10098000B7438E6896403743E76009E004682769FB
:1009900002EB42029640B7438E6896403743276188
:1009A0000A68102A01D0112A23D1144C0268A242ED
:1009B0001AD1946824021CD4946844F4000494600E
:1009C0000968102915D10E490E4A0968B1FBF2F1E8
:1009D00001EB81014900009102E00099491E00915C
:1009E00000990029F9D104E0816A41F02001816277
:1009F000012380F824501846F8BD0000002401406F
:100A00000C00002040420F000068C06C70470000DE
:100A10002DE9F041044600270025002C03D0A06AF0
:100A2000002618B108E00120BDE8F081E66284F8F4
:100A30002460204600F078F82046FFF78BFDA16A7D
:100A4000C90600D428B1A06A40F01000A0620120BD
:100A5000EAE7A16A21F4885141F00201A1626268CB
:100A6000E169237B0A4347EA43010A43A1684FF443
:100A70008077B94208D0012906D0002194F814C02B
:100A8000BCF1010F02D00AE03946F7E7F3B1A36ADF
:100A900043F02003A362E36A43F00103E3622368A7
:100AA000D3F804C02CF4694C4CEA010CC3F804C020
:100AB00021688B68DFF868C003EA0C0313438B607E
:100AC000A168B94209D0012907D009E0A3695B1EDA
:100AD00041EA433141F40061E1E7218A491E0D05F5
:100AE0002168CB6A23F470032B43CB6221688968A9
:100AF0000C4B1940914207D1E662A16A21F0020134
:100B000041F00101A1628FE7A06A20F0020040F0ED
:100B10001000A062E06A40F00100E062012083E77B
:100B2000FDF7E1FFFE0E1FFF10B586B00021029118
:100B300003910491059100681649884227D116480F
:100B4000816941F400718161816901F40071019151
:100B5000816941F004018161816901F00401019121
:100B6000816941F008018161806900F0080001900D
:100B7000332002900324039402A9084800F032F9BC
:100B800001200290039402A9054800F02BF906B059
:100B900010BD000000240140001002400008014088
:100BA000000C01402DE9F84304460D464FF00008C3
:100BB000CDF8008000F016FA064620688168C90565
:100BC00008D5A06A40F02000A06284F824800120AB
:100BD000BDE8F8834168C90503D4C06A10F4700FFA
:100BE00031D0022000F044FC3E490968B1FBF0F727
:100BF000206801693C4A11424FEA62024FEAA2139F
:100C000026D1C1684FEA621C11EA0C0F20D101699C
:100C100011422CD1C068184229D114202AE0681C46
:100C200011D025B100F0DEF9801BA8420BD9206855
:100C30000068800707D4A06A40F00400A06284F82E
:100C400024800320C4E7206800688007E7D52CE0F3
:100C50000169114202D1C168194206D002692349D3
:100C60000A4206D1C068084203D1542002E029207C
:100C700000E0FC20474315E0681C10D025B100F0CF
:100C8000B1F9801BA8420AD90098B84207D2A06ADD
:100C900040F00400A06284F82480032098E70098C4
:100CA000401C00900098B842E6D321686FF0120013
:100CB0000860A06A40F40070A06220688068C0F3F9
:100CC000424007280CD1207B50B9A06A20F48070E4
:100CD000A062A06AC00403D4A06A40F00100A06230
:100CE000002075E70C00002024499224499224003A
:100CF00070B5044694F8240001280CD0012084F833
:100D000024002046FFF750FC0146002229B184F858
:100D10002420084670BD022070BDA06A40F2012365
:100D2000984340F48070A062234D2068234BA84272
:100D300018D11E6816F4702F14D0A66A46F48016D7
:100D4000A6621E68760505D5A66A26F4005646F406
:100D50008056A662A66AF60412D5E66A26F0060652
:100D6000E6620EE0A66A26F48016A662466876055C
:100D7000F0D5A66A26F4005646F48056A662E9E746
:100D8000E26284F824206FF0020202602068826828
:100D9000C2F34242072A05D1A84208D11A6812F4C8
:100DA000702F04D0826842F480128260B1E78268BA
:100DB00042F4A0028260ACE7002801400424014014
:100DC00070B5044600F00EF90546601C02D00448D8
:100DD0000078044400F006F9401BA042FAD370BD2D
:100DE000000000202DE9F84F00240023DFF8C49113
:100DF0004FF00F08A9F1040B09F1040AABF1040E3E
:100E0000D1E00127A7403A40BA4275D1DFF8A8C126
:100E10004D68A5EB0C0665452BD00DDC032D34D0B9
:100E200005DC35B3012D19D0022D2FD11BE0112D7A
:100E300016D0122D2AD119E0B6F5881F19D006DC7C
:100E4000B6F5803F15D0B6F5801F1FD111E0B6F57D
:100E5000001F0ED0B6F5041F18D10AE0CB6815E0CC
:100E6000CB681B1D12E0CB6808330FE0CB680C3356
:100E70000CE08B6823B1012B04D00823476105E007
:100E8000042303E00823076100E00023FF2A01D8C0
:100E9000054601E000F1040502D84FEA840603E0AC
:100EA000A4F108064FEA86062F6808FA06FC27EA2E
:100EB0000C0703FA06F647EA06072F604D68ED00B7
:100EC00070D53E4DAE6946F00106AE61AD6905F0E4
:100ED000010500953A4D24F003067719BE68A50771
:100EE0002D0F08FA05FC26EA0C06DFF8D8C060458D
:100EF00003D14FF0000C17E054E0DFF8CCC06045A0
:100F000002D14FF0010C0FE0DFF8C0C0604502D104
:100F10004FF0020C08E0DFF8B8C0604502D14FF096
:100F2000030C01E04FF0040C0CFA05FC4CEA060C33
:100F3000C7F808C04D68ED0205D5D9F80050154333
:100F4000C9F8005004E0D9F800509543C9F80050A2
:100F50004D68AD0205D5DAF800501543CAF80050C7
:100F600004E0DAF800509543CAF800504D68AD032C
:100F700005D5DBF800501543CBF8005004E0DBF852
:100F800000509543CBF800504D68ED0305D5DEF8D1
:100F900000501543CEF8005004E0DEF800509543B1
:100FA000CEF80050641C0A6832FA04F57FF429AFC9
:100FB000BDE8F88F08040140000011100010024045
:100FC0000000014000080140000C014000100140F9
:100FD00000140140002A01D0016170470904016139
:100FE0007047000001488068704700000000002042
:100FF00070B50446002C04D094F83D00002510B1D3
:1010000006E0012070BD84F83C50204600F05EF9F7
:10101000242084F83D002068016821F0010101606E
:101020002068016841F4004101602068016821F4F2
:101030000041016000F0A6FB4F4B6168994203D864
:101040004E49884203D304E04D49884201D2012031
:1010500070BD4C49B0FBF1F12268566826F03F069E
:101060000E43566062689A4201D8491C07E04FF46B
:10107000967251434FF47A72B1FBF2F1491C226827
:10108000166A26F03F06314311626168994210D812
:101090004900401EB0FBF1F2521CC2F30B02042ABD
:1010A00001D2042022E0B0FBF1F0401CC0F30B00A1
:1010B0001CE0A268F2B301EBC10303EB0116431E6F
:1010C000B3FBF6F35B1C43F480431B0549D092B39A
:1010D00001EBC10202EB0111401EB0FBF1F0401C1C
:1010E000C0F30B0040F4804040F400402168CA691E
:1010F0004CF6FF739A431043C861D4E907100143CB
:101100002068026822F0C00211430160D4E90301A3
:1011100001432068826848F2FF339A43114381609B
:10112000D4E9051001432068C26822F0FF02114390
:10113000C16001E00EE016E02068016841F00101A5
:1011400001602564202084F83D00256384F83E502A
:10115000002070BD01EB4106431EB3FBF6F35B1CA0
:10116000B3E70120C2E701EB4101401EB0FBF1F003
:10117000401CC0F30B00B7E7A086010080841E006E
:1011800000093D0040420F002DE9FF4F83B00446A7
:10119000DDE911988A469346109DFFF723FF064626
:1011A00094F83D00202803D0022007B0BDE8F08F5E
:1011B0001923012243492046009601F0B5FA08B1EF
:1011C0000220F2E794F83C00012807D0012084F8BF
:1011D0003C0020680168C90702D005E00220E4E76E
:1011E000016841F0010101602068016821F400619B
:1011F0000160212084F83D00402084F83E00002753
:1012000027646562A4F82A90608D20852E48E062EC
:10121000CDE900865A4651462046069B01F0F6F974
:1012200080B30120C1E732464146204601F036FB3B
:1012300048B1206C042804D12068016841F4007191
:1012400001600120B1E7606A216800780861656A81
:101250006D1C6562208D401E80B22085618D491E07
:10126000618523685969C94349070BD450B128786F
:101270001861606A401C6062208D401E2085608D70
:10128000401E6085208D0028CDD132464146204643
:1012900001F01EFA48B1206C042804D120680168CE
:1012A00041F40071016001207FE71F3454F81F0CE6
:1012B000016841F4007101602020A077E77767772B
:1012C000002072E7020010000000FFFF10B586B09A
:1012D000002102910391049105910068134988420D
:1012E00022D1134CA06940F00800A061A06900F071
:1012F000080001904FF440700290122003900320E8
:10130000059002A90B48FFF76DFD0B49486840F0B6
:10131000E06040F002004860E06940F40010E061E5
:10132000E06900F40010019006B010BD00540040C8
:1013300000100240000C014000000140024881689A
:1013400002781144816070470000002010B5074802
:10135000016841F010010160032000F077F80F20D0
:1013600000F006F800F026F8002010BD0020024032
:1013700070B504460D4D4FF47A712878B1FBF0F04A
:101380000B490968B1FBF0F000F004FC08B1012042
:1013900070BD102C07D200222146501E00F036F8F6
:1013A0006C60002070BD012070BD000000000020B6
:1013B0000C00002008B50C48816941F001018161F1
:1013C000816901F001010091C16941F08051C16161
:1013D000C06900F0805000900449486820F0E06047
:1013E00040F00070486008BD00100240000001405D
:1013F000002809DB00F01F02012191404009800014
:1014000000F1E020C0F8001170470000F0B40D4674
:101410000D4B1B68C3F30223C3F10704042C00D94E
:101420000424191D072901D2002300E0DB1E012638
:1014300006FA04F1491E294099409E40761E164046
:101440003143F0BC02F078B80CED00E000F0070189
:10145000054A10684FF6FF03184040EA012003498F
:1014600008431060704700000CED00E00000FA0532
:1014700010B501460020244C012922D0022939D080
:1014800010291DD161682268D20119D51F48C1F306
:101490008342805CC9030AD561681C4AC1F340419C
:1014A000921E515C1A4AB2FBF1F1484301E019491E
:1014B00048436168490203D440000321B0FBF1F0C6
:1014C00010BD226AC2F30121012903D1920701D57F
:1014D000C80310BD022905D1626A920702D549F6F8
:1014E000404010BD0329FCD121688903F9D54FF292
:1014F000244010BD00F056F96168C1F38131491CE8
:101500004900B0FBF1F010BD001002401E3F000882
:1015100000127A0000093D002DE9F8430446DFF887
:10152000F8802078C0075FD00027D8F81C00C000E2
:101530000BD4D8F81C0040F08050C8F81C00D8F834
:101540001C0000F0805000900127344D2868C00531
:1015500012D4286840F480702860FFF743FD0646E7
:1015600007E0FFF73FFD801B642802D90320BDE898
:10157000F8832868C005F4D5D8F8200000F440703E
:1015800010B3A18801F4407181421DD0D8F8200029
:1015900020F44070224901220A6000220A60C8F843
:1015A0002000C00710D0FFF71DFD054641F2883628
:1015B00006E0FFF717FD401BB04201D90320D6E734
:1015C000D8F820008007F4D5D8F82000616820F40E
:1015D00040700843C8F82000012F05D1D8F81C003E
:1015E00020F08050C8F81C002078800707D5D8F874
:1015F0000400A16820F440400843C8F804002078A3
:10160000C00607D5D8F80400E16820F4800008433C
:10161000C8F804000020AAE7001002400070004053
:10162000400442422DE9F04704460D46002C17D0F5
:10163000DFF83081D8F8000000F00700A84211D28E
:10164000D8F8000020F007002843C8F80000D8F8B8
:10165000000000F00700A84204D00120BDE8F08798
:101660000120FBE72068404E810712D5400703D5D3
:10167000706840F4E06070602078000703D57068FF
:1016800040F4605070607068A16820F0F00008437A
:1016900070602078C0072CD06068012806D002282E
:1016A00009D0316889070BD40120D7E73168890355
:1016B00006D40120D2E73168890101D40120CDE7A9
:1016C000716821F0030101437160FFF78BFC07464D
:1016D00041F2883906E0FFF785FCC01B484501D977
:1016E0000320BBE77068616800F00C00B0EB810F6D
:1016F000F1D1D8F8000000F00700A8420ED9D8F8C0
:10170000000020F007002843C8F80000D8F80000C7
:1017100000F00700A84201D001209FE72078400791
:1017200005D57068E16820F4E060084370602078B7
:10173000000706D57068216920F4605040EAC100B6
:10174000706000F03FF87168084AC1F30311515C02
:10175000C8400749086007480068FFF709FE0020F5
:101760007CE7000000200240001002402E3F0008ED
:101770000C000020040000200148006870470000B1
:101780000C00002000B5FFF7F7FF04494968044A40
:10179000C1F30221515CC84000BD000000100240AE
:1017A0003E3F000800B5FFF7E7FF04494968044AD7
:1017B000C1F3C221515CC84000BD000000100240CE
:1017C0003E3F00080E4B59680E4801F00C02042AF7
:1017D00011D0082A0FD10C48C1F38342805CC903A1
:1017E0000AD55968084AC1F34041921E515C054A26
:1017F0005043B0FBF1F07047044948437047000084
:101800000010024000127A000C3F000800093D0061
:101810002DE9F84F0446002C0ED02078D94DC00792
:101820005ED06868C0F3810001280BD06868C0F3FF
:101830008100022803D00CE00120BDE8F88F686821
:10184000C00306D5286880034AD56068A8BB01207C
:10185000F3E76068B0F5803F11D0A8B1B0F5A02FD4
:101860001BD0286820F480302860286820F480206D
:101870002860606830B3FFF7B5FB06461EE02868B5
:1018800040F480302860F4E7286820F48030286035
:10189000286820F480202860EBE7286840F4802046
:1018A0002860286840F480302860E2E7FFF79AFB60
:1018B000801B642802D90320BFE711E02868800359
:1018C000F4D50DE0FFF78EFB064606E0FFF78AFB36
:1018D000801B642801D90320AFE728688003F5D472
:1018E0002078DFF8A48280074FF0010A4FF000094A
:1018F00045D5686810F00C0F07D06868C0F3810008
:10190000022812D16868C0030FD42868800704D564
:101910002069012801D001208FE72868616920F043
:10192000F80040EAC100286029E02069B8B1C8F891
:1019300000A0FFF757FB064606E0FFF753FB801BAE
:10194000022801D9032078E728688007F5D52868A0
:10195000616920F0F80040EAC10028600FE0C8F893
:101960000090FFF73FFB064606E0FFF73BFB801BBE
:10197000022801D9032060E728688007F5D4207881
:10198000000726D58148A16999B1C0F800A0FFF7EA
:1019900029FB064606E0FFF725FB801B022801D93C
:1019A00003204AE7686A8007F5D5012001F0FAFABA
:1019B0000FE0C0F80090FFF715FB064606E0FFF7C2
:1019C00011FB801B022801D9032036E7686A8007D3
:1019D000F5D42078400773D50026E869C00008D404
:1019E000E86940F08050E861E86900F080500090BC
:1019F0000126DFF89CB1DBF80000C00514D4DBF849
:101A0000000040F48070CBF80000FFF7EBFA0746C7
:101A100006E0FFF7E7FAC01B642801D903200CE7B2
:101A2000DBF80000C005F4D5E068012812D0B0B1A1
:101A300005281DD0286A20F001002862286A20F0BD
:101A400004002862E06841F2883B28B3FFF7CAFA35
:101A500007461DE0286A40F001002862F2E7286A84
:101A600020F001002862286A20F004002862E9E7DB
:101A7000286A40F004002862286A40F001002862C9
:101A8000E0E7FFF7AFFAC01B584501D90320D4E6C1
:101A9000286A8007F5D50DE0FFF7A4FA074606E0AF
:101AA000FFF7A0FAC01B584501D90320C5E6286AF4
:101AB0008007F5D4012E03D1E86920F08050E86159
:101AC000E069A0B36968C1F38101022946D0022808
:101AD00005D0C8F86090FFF785FA04463AE0C8F8E8
:101AE0006090FFF77FFA064606E0FFF77BFA801B5F
:101AF000022801D90320A0E628688001F5D4206AD5
:101B0000B0F5803F05D16868A16820F40030084333
:101B10006860D4E908010843696821F47411084336
:101B20006860C8F860A0FFF75DFA044607E026E0A9
:101B3000FFF758FA001B022801D903207DE6286828
:101B40008001F5D51BE0FFF74DFA001B022801D9F3
:101B5000032072E628688001F5D410E001280CD03B
:101B60006868226A00F48031914204D1616A00F40D
:101B70007010884203D001205FE601205DE600205E
:101B80005BE6000000100240000042428004424236
:101B90000070004010B5401EB0F1807F01D30120DD
:101BA00010BD4FF0E02460610F21601701F0C4FC0C
:101BB0000020A06107202061002010BD7047704701
:101BC00070B590F83C20012A25D0012680F83C60B1
:101BD000022280F83D2002685468936824F0700562
:101BE0000C682C4354600D4C0268A24208D0B2F13C
:101BF000804F05D00A4CA24202D00A4CA24204D126
:101C000023F080034968194391603C3046700021FD
:101C10000170002070BD022070BD0000002C01404A
:101C2000000400400008004010B50446002C03D01A
:101C300094F83D0010B107E0012010BD002084F8A9
:101C40003C00204600F016F8022084F83D00211DDB
:101C5000206801F061FA01203D3460726070A0706C
:101C6000E07020716071A071E0712072207000201E
:101C700010BD000008B500681049B0F1804F14D0C5
:101C80000F4A904219D1C86940F00400C861C86980
:101C900000F004000090002211461E20FFF7B6FB62
:101CA000BDE808401E20FFF7A3BBC86940F0010053
:101CB000C861C86900F00100009008BD0010024032
:101CC0000008004090F83D10012901D00120704724
:101CD000022180F83D100168CA6842F00102CA6022
:101CE00000680E49884208D0B0F1804F05D00C49F9
:101CF000884202D00B49884209D1816801F007016E
:101D0000062908D0016841F00101016003E0016883
:101D100041F001010160002070470000002C0140EB
:101D2000000400400008004070B50446002594F807
:101D30003C00012817D0012684F83C60022084F87A
:101D40003D002068826822F0770222F47F428260A0
:101D50000868502838D00DDC202853D005DC90B31B
:101D6000102811D14EE0022070BD30284AD0402802
:101D70000AD13DE0602831D070280CD0B0F5805FEA
:101D800003D0B0F5005F12D001253C34667000200E
:101D90002070284670BDCB68D1E90121206801F090
:101DA000FEF92068816841F077018160EDE7CB683A
:101DB000D1E90121206801F0F2F92068816841F43D
:101DC00080418160E1E71DE0CA684968206801F050
:101DD000AFFA5021206801F0ECF9D6E7CA684968EB
:101DE000206801F0B6FA6021206801F0E2F9CCE742
:101DF000CA684968206801F09BFA4021206801F018
:101E0000D8F9C2E722680146104601F0D2F9BCE7D2
:101E10002DE9F04104460D46002C03D094F83D0016
:101E200018B108E00120BDE8F081002084F83C00F2
:101E3000204600F045F8022084F83D0020688168C3
:101E400044F2070291438160211D206801F064F98A
:101E5000273454F8270C82688169066A2B6813437B
:101E600040F203329143AF69AA6841EA07210A436D
:101E700040F60C418A434FF2F0018A43EF69E9686A
:101E800042EA072211432A692F6A120142EA073205
:101E90000A4326F0220669686D6946EA051529435A
:101EA000836054F8270C826154F8270C01620120EA
:101EB000E077E0752076E0762077A0750020B2E725
:101EC00000B585B0002101910291039104911B4B53
:101ED00002681B491B489A4217D18A6942F4006282
:101EE0008A618A6902F4006200928A6942F00402FF
:101EF0008A61896901F0040100914FF440710191F8
:101F000001A9FEF76FFF05B000BD0F4B9A42FAD151
:101F1000CA6942F00202CA61CA6902F00202009272
:101F20008A6942F004028A61896901F00401009122
:101F3000C021019101A9FEF755FFE4E7002C014003
:101F400000100240000801400004004070B5044643
:101F500014F83E0F6278237965793E3C0226002909
:101F600004D004290DD001281CD115E0012801D18D
:101F7000012B01D0012070BD84F83E6084F84260DE
:101F800018E0012A01D1012D01D0012070BD84F893
:101F90003F6084F843600DE0012A03D1012B01D199
:101FA000012D01D0012070BD04F83E6F66702671CE
:101FB00066713E3C91B1042916D0012200212068AF
:101FC00001F0E0F801220421206801F0DBF820682C
:101FD000016841F001010160002070BD0122002173
:101FE000206801F0CFF8F2E701220421206801F017
:101FF000C9F8ECE7704770B50446206801694FF0F6
:102000000005C943890716D4C168C943890712D49A
:10201000E91E01610120207720688069800703D0D4
:102020002046FFF7E7FF05E0204600F0CBF820460A
:1020300000F05BF9257720680169C943490718D486
:10204000C168C943490714D46FF00401016102203B
:1020500020772068806910F4407F03D02046FFF786
:10206000C9FF05E0204600F0ADF8204600F03DF93C
:10207000257720680169C943090717D4C168C94396
:10208000090713D46FF0080101610420207720684C
:10209000C069800703D02046FFF7ACFF05E020466B
:1020A00000F090F8204600F020F9257720680169BB
:1020B000C943C90618D4C168C943C90614D46FF00E
:1020C00010010161082020772068C06910F4407F6A
:1020D00003D02046FFF78EFF05E0204600F072F89F
:1020E000204600F002F9257720680169C943C90735
:1020F00008D1C168C943C90704D1891E01612046BE
:1021000000F04AF920680169C943090609D4C16889
:10211000C943090605D46FF0800101612046FFF72D
:102120004DFD20680169C943490609D4C168C94306
:10213000490605D46FF040010161204600F0B0F976
:1021400020680169C94389060BD4C168C94389065F
:1021500007D46FF0200101612046BDE87040FFF711
:102160002EBD70BD00B585B0002101910291039193
:1021700004910068B0F1804F1BD10F48816941F094
:1021800008018161806900F0080000904FF4406010
:10219000019002200290049001A90848FEF722FE57
:1021A0000749486820F4407040F0E06040F4007057
:1021B000486005B000BD000000100240000C014066
:1021C00000000140704770B504460D46002694F8A3
:1021D0003C0001280FD0012084F83C006AB1042A99
:1021E0001FD0082A32D00C2A44D00126002084F8BF
:1021F0003C00304670BD022070BD2946206800F0CA
:10220000E1FF2068816941F00801816120688169EE
:1022100021F004018161206881692A69114381618B
:10222000E4E72946206800F0FDFF2068816941F459
:10223000006181612068816921F480618161206889
:1022400081692A6941EA02218161CFE72946206834
:1022500001F01AF82068C16941F00801C1612068E5
:10226000C16921F00401C1612068C1692A69114373
:10227000C161BBE72946206801F036F82068C169D2
:1022800041F40061C1612068C16921F48061C161CC
:102290002068C1692A6941EA0221C161A6E710B537
:1022A0000446002C03D094F83D0010B107E0012053
:1022B00010BD002084F83C00204600F015F80220F4
:1022C00084F83D00211D206800F026FF01203D34E8
:1022D00060726070A070E07020716071A071E07138
:1022E00020722070002010BD7047704710B5044662
:1022F000002909D004290AD008290BD094F84100FC
:1023000001280AD0012010BD94F83E00F8E794F8A7
:102310003F00F5E794F84000F2E7022039B30429C2
:1023200028D0082929D084F841000122206800F033
:1023300029FF16492068884203D1426C42F40042CA
:1023400042642068884208D0B0F1804F05D010491F
:10235000884202D00F49884212D1816801F00701FA
:10236000062911D0016841F0010101600CE084F8F8
:102370003E00DAE784F83F00D7E784F84000D4E76E
:10238000016841F001010160002010BD002C0140F6
:1023900000040040000800402DE9F05F0068384963
:1023A00088426BD10120FEF7D1F9364C40422061C2
:1023B0000320FEF7CBF9344D46422E61D4E90308E1
:1023C0004044E060E9688F19EF604FF4C36990FB07
:1023D000F9F001F044F9DFF8B4A0DFF8B4B05246E8
:1023E0005B4601F053F94FF060422A4B01F04EF981
:1023F00001F004F9606197FBF9F001F030F9524601
:102400005B4601F043F94FF06042224B01F03EF988
:1024100001F0F4F86861404601F0AEFB1E4F39460A
:1024200001F0CCFA01F030FA52465B4601F02EF989
:102430004FF06042174B01F029F9DFF8608000226D
:10244000434601F023F901F0D9F82060304601F04D
:1024500093FB394601F0B2FA01F016FA52465B4698
:1024600001F014F94FF060420A4B01F00FF900221D
:10247000434601F00BF901F0C1F82860BDE8F09F78
:1024800000080040DC020020F80200204AD8124D6B
:10249000FB21094051B8AE3F0000C3440000594041
:1024A000704770B50446002C04D094F84100002514
:1024B00010B106E0012070BD84F84050204600F0C5
:1024C00023F8242084F841002068C16821F40051D9
:1024D000C160204600F0AEFF2068016921F4904100
:1024E00001612068416921F02A0141612068C168C9
:1024F00041F40051C1606564202084F8410084F8F3
:1025000042006563002070BD30B585B000240194A1
:102510000294039404942B4D01682B480223032258
:10252000A94229D1816941F480418161816901F425
:1025300080410091816941F008018161806900F06A
:102540000800009040200190029304921F4D01A9C1
:102550002846FEF747FC802101910294039401A9CB
:102560002846FEF73FFC1A49486840F0E06040F01A
:102570000400486005B030BD164DA942FAD1C169CA
:1025800041F40031C161C16901F4003100918169F8
:1025900041F004018161806900F004000090042092
:1025A0000190029304920C4D01A92846FEF71AFCF3
:1025B000082101910294039401A92846FEF712FC18
:1025C000D8E700000038014000100240000C014034
:1025D000000001400044004000080140FEE701689F
:1025E0004A69D24352050FD46FF480624A610021D8
:1025F00040F8301F202242738173026942F00402C6
:102600000261017301207047002070472DE9F843F3
:102610000446DDE908970D4616469846206801688D
:1026200041F4807101604B4600224FF001112046B9
:10263000009700F079F848B120680068C00502D51D
:102640004FF4007020640320BDE8F883216805F092
:10265000FE0008613B464A461C49204600F0BAF895
:1026600008B10120F0E720684169806900903A468E
:102670004946204600F012F948B1206C042804D1E4
:102680002068016841F4007101600120DCE7F5B2C7
:10269000B8F1010F0CD02168300A08613A4649466A
:1026A000204600F0FBF868B1206C042803D007E056
:1026B0002068056108E02068016841F4007101604C
:1026C0000120C1E7206805610020BDE7020001008C
:1026D00070B504460D4616461FE02046FFF77FFF03
:1026E00008B1012070BD681C17D0FEF77BFC801B71
:1026F000A84200D88DB920684069C04340070CD576
:10270000002044F8300F20216173A073216941F04B
:10271000200121612073012070BD20684069C04301
:102720004007DAD4002070BD2DE9F0470446DDF8FB
:1027300020900D4690461E46C5F307472FE0701CBB
:102740002DD0FEF74FFCA0EB0900B04200D836BBFD
:10275000012F17D02068806925EA00000004000CD2
:102760001BD0002040451AD1002044F8300F202112
:102770006173A073216941F0200121612073012060
:10278000BDE8F0872068406925EA00000004000CDD
:1027900001D00020E6E70120E4E70120E2E7012F75
:1027A0000BD02068806925EA00000004000C0FD0DF
:1027B00000204045C3D00020E2E72068406925EAB8
:1027C00000000004000C01D00020F2E70120F0E737
:1027D0000120EEE72DE9F04704460D4616469846DF
:1027E0004FF000094FF0200AC5F3074743E0206887
:1027F0004069C043400517D42068016841F4007166
:10280000016021686FF480604861C4F8309084F8FA
:102810003DA084F83E90206C40F00400206484F8D1
:102820003C900120BDE8F087701C24D0FEF7DAFB55
:10283000A0EB0800B04200D8EEB9012F14D02068F8
:10284000806925EA00000004000C14D0C4F8309020
:1028500084F83DA084F83E90206C40F02000206475
:1028600084F83C900120DDE72068406925EA0000FB
:102870000004000CEAD1012F08D02068806925EA05
:1028800000000004000CB2D10020CBE720684069B2
:1028900025EA00000004000CF6D0A8E770B5044655
:1028A0000D4616461FE02046FFF799FE08B10120AD
:1028B00070BD681C17D0FEF795FB801BA84200D89E
:1028C0008DB920684069C04300060CD5002044F84B
:1028D000300F20216173A073216941F02001216133
:1028E0002073012070BD20684069C0430006DAD41F
:1028F000002070BD3EB5002400940194029410485D
:102900000E4901608460047304754FF46021C16155
:10291000446001250561FEF77BF808B1FDF714FF5F
:10292000009401950520029069460548FDF7E8FFEF
:10293000002801D0FDF708FF3EBD00000024014043
:10294000A80000202DE9F04786B0002402940394EB
:10295000049405942B48816941F0100181618169DB
:1029600001F010010191816941F0200181618169CB
:1029700001F020010191816941F0040181618169C7
:1029800001F004010191816941F0080181618069D0
:1029900000F0080001900122DFF86C9055032946F1
:1029A0004846FEF717FB4FF4404700223946484699
:1029B000FEF710FBDFF854A04FF4406800224146B8
:1029C0005046FEF707FB0295012503950495022664
:1029D000059602A94846FEF705FA02970395049466
:1029E000059602A94846FEF7FDF9CDF80880039543
:1029F0000494059602A95046FEF7F4F906B0BDE826
:102A0000F087000000100240001001400008014063
:102A100010B50D480B4901600C49416000218160EF
:102A2000C1604FF48042026141618161C161016214
:102A3000FEF7DEFA002803D0BDE81040FDF784BEA3
:102A400010BD000000540040D8000020801A06008D
:102A500010B58CB0242103A8FDF7A8FC0024019434
:102A60000294164814490160446084604FF6FF7177
:102A7000C16004614461802181610320039004945A
:102A80000120059006940794089409900A940B94E9
:102A900003A90A48FFF7BCF908B1FDF755FE0194F8
:102AA000029401A90548FFF78BF8002801D0FDF733
:102AB0004BFE0CB010BD0000002C01402C0100208A
:102AC00010B58EB000240A940B940C940D940894C5
:102AD00009941C2101A8FDF769FC22484FF08041B0
:102AE00001604460846041F61F41C160046180213F
:102AF0008161FFF799F808B1FDF726FE4FF4805089
:102B00000A900AA91748FFF70FF908B1FDF71CFE54
:102B10001448FFF7C4FB08B1FDF716FE08940994AA
:102B200008A91048FFF74CF808B1FDF70DFE60202A
:102B30000190029403940594082201A90948FFF723
:102B400042FB08B1FDF700FE0C2201A90548FFF782
:102B50003AFB08B1FDF7F8FD0248FFF703FB0EB0A2
:102B600010BD00007401002010B58CB0242103A812
:102B7000FDF71CFC002401940294154813490160E0
:102B8000446084604FF6FF71C160046180218161FF
:102B90000320039004940120059006940794089460
:102BA00009900A940B9403A90948FFF731F908B179
:102BB000FDF7CAFD0194029401A90548FFF700F84A
:102BC000002801D0FDF7C0FD0CB010BD000400408E
:102BD000BC01002010B586B0002402940394049434
:102BE00005940094019414481249016041F61F4174
:102BF000416084606321C160046180218161FFF7CD
:102C000013F808B1FDF7A0FD4FF48050029002A91F
:102C10000948FFF789F808B1FDF796FD0094019483
:102C200069460548FEF7CCFF002801D0FDF78CFD72
:102C300006B010BD000800400402002010B50C488A
:102C40000A4901604FF4E131416000218160C160B7
:102C500001610C2242618161C161FFF722FC002801
:102C600003D0BDE81040FDF76FBD10BD0038014036
:102C70004C02002010B50C480A4901604FF4E131C4
:102C8000416000218160C16001610C22426181616B
:102C9000C161FFF706FC002803D0BDE81040FDF736
:102CA00053BD10BD0044004094020020FEE7000028
:102CB00010B50848FFF706F808210748FFF716FB8C
:102CC0000C210548FFF712FB0021BDE81040084623
:102CD00000F07CB9040200207401002010B5104CF3
:102CE00000224FF480612046FEF774F90022E114BF
:102CF0002046FEF76FF90B4C00224FF4804120462E
:102D0000FEF768F900224FF400412046FEF762F911
:102D1000054800210268D1630068016410BD00000D
:102D2000000801400010014074010020FEE700206F
:102D3000AFF3008070B50646002505F1B000C0B2C3
:102D400000F0D6FB002000F0D3FB102000F0D0FBF9
:102D50000024304600F0DEFB641CE4B2802CF8D383
:102D60006D1CEDB2082DE8D370BD10B56420FEF7E0
:102D700027F8AE2000F0BCFB202000F0B9FB1020AB
:102D800000F0B6FBB02000F0B3FBC82000F0B0FBB1
:102D9000002000F0ADFB102000F0AAFB402000F066
:102DA000A7FB812000F0A4FBFF2000F0A1FBA120E5
:102DB00000F09EFBA62000F09BFBA82000F098FBF3
:102DC0003F2000F095FBA42000F092FBD32000F000
:102DD0008FFB002000F08CFBD52000F089FBF02059
:102DE00000F086FBD92000F083FB222000F080FB5E
:102DF000DA2000F07DFB122000F07AFBDB2000F0EF
:102E000077FB202000F074FB8D2000F071FB142074
:102E100000F06EFBAF2000F06BFBBDE81040FFF749
:102E200086BF10B50446B031C8B200F061FB102077
:102E300040EA141000F05CFB04F00F00BDE8104005
:102E400040F0010000F054BB2DE9F04704460F4666
:102E500091460026012B22D0022B24D1DFF8ACA012
:102E60004EE0203800F0FF087E2C02D900247F1CA1
:102E7000FFB239462046FFF7D4FF0025244908EB6E
:102E8000480001EB400818F8050000F043FB6D1CFA
:102E9000EDB2062DF7D3A41DE4B2761CF6B219F8F4
:102EA00006000028DDD1BDE8F087203800F0FF08DB
:102EB000782C02D900247F1CFFB239462046FFF748
:102EC000B0FF002505EB08101AF8000000F022FB07
:102ED0006D1CEDB2082DF5D3781CC1B22046FFF76A
:102EE000A0FF002505EB08105044007A00F012FB0B
:102EF0006D1CEDB2082DF5D30834E4B2761CF6B2A1
:102F000019F806000028D0D1CDE700006E41000876
:102F1000463F000805490020086048608860143179
:102F20004FF000400860486088607047140300203C
:102F3000704700002DE9F04100F067FF0746154C8F
:102F40003946E06A00F0CCFCE0621349884200DDBB
:102F5000E1621248E16A814200D9E0623846A16A22
:102F600000F05EFF0E4DA96800F052FE064668684C
:102F7000E16A00F04DFE80463946286800F048FEC0
:102F8000414600F0ADFC314600F0AAFC6062A76249
:102F9000BDE8F0811800002000409C4500409CC521
:102FA0005003002008B507494FF4FA520968B1FBF5
:102FB000F2F14143009100BF0098411E0091FAD206
:102FC00008BD00000C000020704700002DE9F04112
:102FD00005460C464FF480611E4E4F00002D09DD62
:102FE00001223046FDF7F6FF002239463046FDF754
:102FF000F1FF08E000223046FDF7ECFF01223946E0
:103000003046FDF7E7FF284600F0AEFA124D2A6879
:10301000D0634FF48041114E4F00002C09DD002297
:103020003046FDF7D7FF012239463046FDF7D2FF83
:1030300008E001223046FDF7CDFF00223946304638
:10304000FDF7C8FF204600F08FFA29680864BDE844
:10305000F0810000000801407401002000100140D0
:10306000074806490160074941600021816014302A
:103070000549016089078160704700000000F0C1C8
:1030800050030020666626C09A9999BFFEF756B98C
:1030900030B593B0282109A8FDF788F9142104A8B8
:1030A000FDF784F900240094019402940394012113
:1030B000099108040A900B940D9102251095119026
:1030C0004FF4E010129009A8FEF7A2FB08B1FDF73B
:1030D0003BFB0F200490059506944FF48060079009
:1030E0000894022104A8FEF79DFA08B1FDF72CFB15
:1030F00000954FF4004002906846FEF70DFA002854
:1031000001D0FDF721FB13B030BD70470148FEF739
:1031100072BF000004020020F0B50268164C174D83
:10312000174E4FF08047A04205D0B84203D0A842C6
:1031300001D0B04203D122F070034A681A43A04282
:1031400005D0B84203D0A84201D0B04203D122F446
:103150004073CA681A434B6922F080021A43026026
:103160008A68C2620A688262A04201D10969016369
:1031700001214161F0BD0000002C0140000400402D
:103180000008004010B501F01F0101238B40046AC4
:103190009C430462036A8A401343036210BD10B566
:1031A000846824F47F4442EA03220A432243826073
:1031B00010BD826822F070020A4342F0070181606C
:1031C0007047000030B5026A036A23F0010303620E
:1031D0004368846924F0700424F003050C682C43D0
:1031E00022F002058A682A430D4DA84206D122F03A
:1031F0000802CD6845EA020525F0040209D123F44E
:10320000807323F400734D6945EA03058B6943EA33
:1032100005034360846149684163026230BD000078
:10322000002C014030B5036A026A22F010020262EB
:103230004268846924F4E04424F440740D6844EA4C
:10324000052423F020038D6843EA05130D4DA842A1
:1032500006D123F08003CD6843EA051323F0400331
:1032600009D122F4806222F400624D6942EA8502AB
:103270008D6942EA85024260846149688163036224
:1032800030BD0000002C014030B5026A036A23F40F
:10329000807303624368C46924F0700424F003055A
:1032A0000C682C4322F400728D6842EA05220D4D11
:1032B000A84206D122F40062CD6842EA052222F437
:1032C000806209D123F4805323F400534D6943EA0B
:1032D00005138D6943EA05134360C4614968C163FE
:1032E000026230BD002C014030B5036A026A22F44C
:1032F000805202624268C46924F4E04424F44074B9
:103300000D6844EA052423F400538D6843EA05332D
:10331000064DA84204D122F480424D6942EA85124A
:103320004260C46149680164036230BD002C014001
:1033300010B5036A046A24F001040462846924F06D
:10334000F00444EA021423F00A020A438461026290
:1033500010BD10B5036A046A24F010040462846985
:1033600024F4704444EA023223F0A00343EA01113A
:103370008261016210BD000070B50E46FDF7B6F91E
:103380000446114831460069FDF750F905460F48DB
:1033900031460069FDF77AF9211841F2941253423F
:1033A000914201DD114602E0994200DA1946281BDC
:1033B000904201DD104602E0984200DA1846BDE86E
:1033C0007040FFF703BE0000F8020020DC0200207E
:1033D00010B5084CD4E903010844A169401AE16919
:1033E000401A00F0C9FB044900F0E8FA00F0A8FB1D
:1033F000606410BD60000020000040402DE9F041F5
:1034000006460A4D3046696C00F0FFFC084FB9686B
:1034100000F0FEFB04463046396800F0F9FB214617
:1034200000F05EFA6E64BDE8F08100001800002034
:103430006403002070B5044620680169E26821F445
:10344000405111430161A168206901436069014352
:103450002068C26841F20C639A430A43C260206844
:103460004169A26921F44071114341611E492068FC
:10347000884202D1FEF796F901E0FEF783F900EBEE
:10348000C00101EB0010616864228900B0FBF1F318
:10349000B3FBF2F36FF018067343B0FBF1F5B0FB2A
:1034A000F1F605EB8305322303EB0515B5FBF2F5C9
:1034B000B6FBF2F605F0F00505EB0615B0FBF1F6EC
:1034C000B0FBF1F0B0FBF2F06FF01801484306EBEF
:1034D000800003EB0010B0FBF2F0216800F00F0059
:1034E0002844886070BD000000380140FEE70000FD
:1034F00001B584B0012104AACDE9002164200B4666
:103500000290002278210248FDF73EFE05B000BD82
:10351000D800002001B584B0012104AACDE9002122
:1035200064200B460290402278210248FDF72CFED1
:1035300005B000BDD80000200907090E002804DBF3
:1035400000F1E02080F80014704700F00F0000F157
:10355000E02080F8141D704730380A2801D201207D
:103560007047002070477047002800DC40427047D9
:1035700086B0FDF7EBFEFFF78BFDFFF7E3F9FFF7F2
:10358000B9F9FFF745FAFFF763FAFFF799FAFFF782
:10359000EBFAFFF71FFBFFF751FBFFF76BFBFFF7A2
:1035A000E4FBFFF715FFFFF7B5FCFFF781FBFDF725
:1035B000B3F8FFF755FD47F230550C4EFDF7DEF836
:1035C000044622460AA16846FCF704FE00210123B6
:1035D0006A460846FFF738FCAC4202D1FFF77EFB93
:1035E000ECE731462046FFF7C7FEE7E7CDCC4C3E7F
:1035F00054726163653A20256420000021F0004286
:10360000A2F16052B2F5801F01F0004328BFD2F151
:103610007F6C0BD95FEA001C43EAC20242EB507098
:1036200018BF704728BF20F001007047B2F5801F17
:10363000BCBF184670474FEA410C1CF5001F02D270
:10364000084600F0ACBB70B500F0CAF80000008975
:10365000FFF7F6BF4FF00040A0F58000704710F074
:10366000004248BF4042B0FA80F310FA03F10AD09A
:10367000C3F11D0303F580634FEA415002EB03528F
:1036800002EBD12170474FF000007047DFF848C1CE
:1036900070B51CEA111E1EBF1CEA13159EEA0C0F22
:1036A00095EA0C0F00F06F8081EA030423EA4C13C3
:1036B0004EEAD47E21EA4C1141F4801143F4801388
:1036C000AE44A1FB024CA0FB0365AEF17F7E361930
:1036D00055EB0C05A1FB034C4CF10003A0FB021CB5
:1036E00016EB0C06654153F10003094218BF46F082
:1036F000010613F4007F0BD14FEA03314FEA053086
:10370000340341EA155140EA16506FF003020AE013
:103710004FEAC3214FEAC520F40241EA555140EA7D
:1037200056506FF0020202EB2E4201EB025585EA81
:10373000CE710AD05FEA440C18BF24F0004450F167
:10374000000041F1000120EAD47040F2FE7C6245A5
:1037500000D270BDA84214BF4FF080444FF04044E7
:10376000002E08BF0024BEF1806FA8BFA1F1C041A8
:10377000BDE8704080F282804FF0000001F1C0414E
:1037800001F0004170479EEA0C0F0CEA131518BFB8
:1037900095EA0C0F06D04FF0000081EA030E0EF000
:1037A000004170BD00F01CF88900013E00F007B830
:1037B00000F009B84FEA430C5FEA5C5C08D081EA8C
:1037C000030100F05BB84FEA410C5FEA5C5CF6D1A4
:1037D0004FF00000014970470000FF070000F87F2C
:1037E0000EF1020E2EF0030E5EF8046B364205D485
:1037F000012A43EB030515F5001F12D8012841EB00
:10380000010C1CF5001F0CD80ED14FEAD17C15F528
:10381000001F0CEB4C0C0CF1020C08BF4CEBD37CE2
:1038200004E04FF0080C01E04FEAD37C0CEB4C05B0
:1038300026FA05F606F00706B6F1040C06D20EEBE2
:10384000860CBDE870404CF0010C6047DFE80CF0DE
:10385000090B02024FF000414FF00000A1F50021DA
:1038600070BD19461046012851EB010418BFD4F56C
:10387000001484BF002001F0004170BD0808A0F5CD
:1038800000114FEA3101704743004FEAD30C4FEA71
:103890003C0C43401FBF40070CF1605113F0FE4F3A
:1038A00070471CF0006F03D100200CF000417047FE
:1038B0000CF0004343EA507010B540EACC0000F031
:1038C00028FA00BF000000924FEA0001FFF7D6BFC0
:1038D0004FF000414FF00000A1F5002170470000BB
:1038E00090EA010F48BF81F0004100F1A082421A26
:1038F0003CBF801A89184FEAD0524FF07F4C1CEA27
:10390000410FA2EBD15318BF9CEA026F00F03B803D
:103910004FF0004C4CEA00204CEA012121FA03FC54
:1039200010EB0C0C1ED202F1FF325FEA1C2040EBC0
:10393000C25038BF70471CF07F0F4FEA400C18BFD1
:10394000BCF17F4F38BF7047C3F12003994008BFD7
:1039500020F00100BCF17F4F38BF7047A0F1C0409C
:1039600000F01DBA4FEA3C00000A40EBC25028BFED
:103970001CF0FF0F4FEA400CE6D018BFBCF17F4FA0
:1039800038BF7047EAE79CEA026F05D010EA5C0F87
:1039900008BF00F00040704710B500F0BAF900BF52
:1039A00064FBBE3E401058BFC0F14040491058BFB4
:1039B000C1F140418142EFF3008070474FF47F0C2A
:1039C0001CEAD0121EBF1CEAD11392EA0C0F93EA34
:1039D0000C0F00F0858090EA010F48BF42F480721E
:1039E00040F4000C41F400002CF07F4120F07F40B7
:1039F00000B58142A2EB03020FF2081CACEB504E63
:103A0000C0F100009EF800E04FEA4E0E00FB0EFCF5
:103A100038BF49004FEA2C1C02F5FA020CFB0EF3EA
:103A20004FEACE1E4FEA112C4FEAC1210EEB635E26
:103A300042EB22420EFB0CFC4FEA1C5300FB03112D
:103A40004FEA112C4FEA01310EFB0CFC4FEADC4C23
:103A500000FB0C11C14228BF09184CEB03335DF881
:103A600004EB10EB410143EBC250B2F57C0F38BFC1
:103A7000704729D512F0F00F1CBF00F1C04000F0D4
:103A800000407047008182838485868788898B8C7B
:103A90008D8E8F919293959697999A9C9D9FA0A2B7
:103AA000A3A5A7A8AAACAEB0B2B3B5B7B9BCBEC007
:103AB000C2C5C7C9CCCED1D4D7D9DCDFE2E6E9ECA8
:103AC000F0F3F7FAFE0000004FEA400C0CF1807CA6
:103AD000BCF17E4F28BF7047B0F1C04000F05FB925
:103AE00090EA010F0CEAD11348BF42F4807262459C
:103AF00038BF634507D213F47F0F16D080EA010068
:103B000000F00040704710B500F003F9097EFC3E5C
:103B100000F005B880EA010000F00040704780EA3C
:103B2000010000F0004000F03AB912F47F0F04BF2A
:103B30000248704780EA010000F031B90000C07F00
:103B400041000B0ED3F19E0208D950F400034FEA56
:103B5000032323FA02F048BF4042704710B500F03B
:103B6000D8F800BF49922480002070476FF00042CF
:103B700082EA20007047000010F0004148BF404238
:103B8000B0FA80F310FA03F2C3F19D030BD051EAAF
:103B9000C35101EB1220530638BF704700F10100FA
:103BA00008BF20F00100704750EA010C00F11380BB
:103BB0001CF5000F58BFBCF5000F01D488427047B8
:103BC00007D710F5000F58BF11F5000F15D4884224
:103BD0007047894270471CF5000F04D5BCF5000FF3
:103BE000F7D5814270474FF0807C1CEB400F38BF07
:103BF0001CEB410F01D28142704710B500F089F8EB
:103C0000922449004FF000504FF08051FFF7CABE98
:103C10004FF47F0C1CEAD0121EBF1CEAD11392EAAB
:103C20000C0F93EA0C0F00F0478090EA010F48BF99
:103C300042F480724FF0004C4CEA00204CEA012123
:103C400002EB0302A0FB0113A2F50002002918BF3A
:103C500043F001035B0028BF4FEA330342EB2242EB
:103C60005FEA132C4CEBC2502EBFBCEB436FB2F596
:103C70007C0F70474FEA036CBCF1004F08BF20F087
:103C80000100B2F57C0F38BF70470BD582F0FF0200
:103C900012F5803FC8BF704700F1C040D8BF00F0A8
:103CA0000040704700F5000C5FEA4C0C48BF7047BD
:103CB000B0F1C04000F073B890EA010F0CEAD113E4
:103CC00048BF42F48072624538BF634504D280EA3F
:103CD000010000F00040704710B500F01AF800BF76
:103CE0008900013E00F007B800F009B85FEA410C16
:103CF0005FEA1C6C08D080EA010000F050B85FEA6F
:103D0000400C5FEA1C6CF6D14FF00040A0F580003B
:103D100070470EF1020E2EF0030E5EF8044B2442A3
:103D200004D44FEA4102B2F17F4F11D84FEA400369
:103D3000B3F17F4F0CD80ED14FEAD07CB2F17F4F58
:103D40000CEB4C0C0CF1020C08BF4CEBD17C04E0EA
:103D50004FF0080C01E04FEAD17C0CEB4C0324FA45
:103D600003F404F00704B4F1040C06D20EEB840C47
:103D7000BDE810404CF0010C6047DFE80CF007088C
:103D800002024FF00040A0F5800010BD084642003E
:103D900018BFD2F1807288BF00F0004010BDFF2133
:103DA00041EAD050C005704751EA000C00F1138081
:103DB0001CF5000F58BFBCF5000F01D481427047BD
:103DC00007D711F5000F58BF10F5000F15D4814229
:103DD0007047894270471CF5000F04D5BCF5000FF1
:103DE000F7D5884270474FF0807C1CEB410F38BFFD
:103DF0001CEB400F01D28842704780EA010081EA43
:103E0000000180EA0100FFF7F8BE80F0004090EA70
:103E1000010F7FF56CAD81F0004100F008B80000A3
:103E200090EA010F48BF81F000413FF560AD421AB2
:103E300004D882F00042A0EB020011444FEAD052B5
:103E40004FF07F4C1CEA410FA2EBD15318BF9CEA04
:103E5000026F4AD04FF0004C4CEA00204CEA01219E
:103E600021FA03FCB0EB0C0C0FD412F0FE0F36D08D
:103E70005FEA4C001DD5001240EBC25038BF7047BE
:103E80001CF03F0F18BF70470BE0A2F101025FEA80
:103E90001C2040EBC25038BF70471CF07F0F18BF8A
:103EA0007047C3F12003994014BF401E20F0010069
:103EB000704780084FEA122308BF7047B0FA80FCB1
:103EC000A2EB0C02CCF1280C60FA0CF093EA122F52
:103ED00004BF00EBC25070474FEAC3707047130A2B
:103EE0005FEADC1008BF7047F6E79CEA026F04D077
:103EF00010EA5C0F08BF0020704710B5FFF709FFFC
:103F000040DFF63E81F000407047010202030405E5
:103F1000060708090A0B0C0D0E0F10100102020310
:103F20000405060708090A0B0C0D0E0F10100000FF
:103F30000000000000000102030406070809000059
:103F40000000010203040000000000000000002F38
:103F5000000000000700070000147F147F140024F5
:103F60002A7F2A1200626408132300364955225022
:103F700000000503000000001C2241000000412257
:103F80001C000014083E08140008083E0808000041
:103F900000A0600000080808080800006060000039
:103FA000002010080402003E5149453E0000427FB7
:103FB0004000004261514946002141454B31001803
:103FC00014127F10002745454539003C4A494930C5
:103FD000000171090503003649494936000649497F
:103FE000291E00003636000000005636000000088A
:103FF0001422410000141414141400004122140867
:1040000000020151090600324959513E007C12114B
:10401000127C007F49494936003E41414122007FE0
:104020004141221C007F49494941007F090909019A
:10403000003E4149497A007F0808087F0000417F1F
:104040004100002040413F01007F08142241007FD1
:1040500040404040007F020C027F007F0408107F38
:10406000003E4141413E007F09090906003E4151A1
:10407000215E007F0919294600464949493100015E
:10408000017F0101003F4040403F001F2040201FB2
:10409000003F4038403F0063140814630007087075
:1040A000080700615149454300007F414100005528
:1040B0002A552A55000041417F00000402010204F4
:1040C00000404040404000000102040000205454E1
:1040D0005478007F48444438003844444420003831
:1040E0004444487F00385454541800087E090102A3
:1040F0000018A4A4A47C007F080404780000447D78
:104100004000004080847D00007F102844000000B3
:10411000417F4000007C04180478007C0804047887
:1041200000384444443800FC242424180018242473
:1041300018FC007C0804040800485454542000046F
:104140003F444020003C4040207C001C2040201C7C
:10415000003C4030403C004428102844001CA0A0F3
:10416000A07C004464544C4414141414141400002F
:10417000000000000000000000000000000000003F
:1041800000F80000000000000033300000000010C4
:104190000C06100C0600000000000000000040C0EB
:1041A0007840C0784000043F04043F0404000070DD
:1041B00088FC08300000001820FF211E0000F008D5
:1041C000F000E018000000211C031E211E0000F07A
:1041D0000888700000001E212324192721101016C2
:1041E0000E000000000000000000000000000000C1
:1041F00000E0180402000000000718204000000240
:104200000418E000000000402018070000004040B3
:1042100080F0804040000202010F01020200000015
:1042200000F0000000000101011F01010100000079
:1042300000000000000080B07000000000000000DE
:104240000000000000000001010101010101000067
:1042500000000000000000303000000000000000FE
:10426000000080601804006018060100000000E0F3
:1042700010080810E000000F102020100F000010A0
:1042800010F8000000000020203F202000000070F7
:1042900008080888700000302824222130000030EF
:1042A0000888884830000018202020110E000000E7
:1042B000C02010F8000000070424243F240000F868
:1042C0000888880808000019212020110E0000E04D
:1042D000108888180000000F112020110E000038EF
:1042E0000808C83808000000003F00000000007007
:1042F000880808887000001C222121221C0000E090
:1043000010080810E0000000312222110F00000008
:1043100000C0C000000000000030300000000000BD
:10432000008000000000000080600000000000002D
:1043300080402010080000010204081020004040C6
:104340004040404040000404040404040400000809
:1043500010204080000000201008040201000070BE
:1043600048080808F0000000003036010000C030A6
:10437000C828E810E0000718272423140B000000C9
:10438000C038E0000000203C23020227382008F853
:10439000888888700000203F202020110E00C03047
:1043A000080808083800071820202010080008F81E
:1043B00008080810E000203F202020100F0008F817
:1043C0008888E8081000203F20202320180008F8E3
:1043D0008888E8081000203F200003000000C0305B
:1043E00008080838000007182020221E020008F8DC
:1043F00008000008F808203F210101213F200008A3
:1044000008F8080800000020203F202000000000DD
:104410000808F8080800C08080807F00000008F8C5
:1044200088C028180800203F20012638200008F8FE
:10443000080000000000203F20202020300008F865
:10444000F800F8F80800203F003F003F200008F87F
:1044500030C00008F808203F200007183F00E01097
:1044600008080810E0000F10202020100F0008F8A6
:1044700008080808F000203F210101010000E010B9
:1044800008080810E0000F18242438504F0008F8DE
:10449000888888887000203F2000030C302000703E
:1044A0008808080838000038202121221C0018083C
:1044B00008F8080818000000203F2000000008F855
:1044C00008000008F808001F202020201F0008789E
:1044D000880000C83808000007380E010000F808FE
:1044E00000F80008F800033C0700073C0300081828
:1044F00068808068180820302C03032C302008388E
:10450000C800C83808000000203F20000000100844
:104510000808C8380800203826212020180000008C
:1045200000FE020202000000007F40404000000C3C
:1045300030C000000000000000010638C00000028A
:104540000202FE000000004040407F00000000002A
:10455000040202020400000000000000000000004D
:104560000000000000008080808080808080000249
:104570000204000000000000000000000000000035
:104580008080808000000019242222223F2008F829
:10459000008080000000003F112020110E0000006C
:1045A000008080800000000E1120202011000000FB
:1045B00000808088F800000E112020103F200000AD
:1045C000808080800000001F2222222213000080B1
:1045D00080F0888888180020203F202000000000FC
:1045E000808080808000006B94949493600008F831
:1045F000008080800000203F210000203F200080BC
:104600009898000000000020203F202000000000BB
:1046100000809898000000C08080807F000008F82B
:10462000000080808000203F24022D302000000800
:1046300008F8000000000020203F202000008080BB
:10464000808080808000203F20003F20003F8080CD
:10465000008080800000203F210000203F200000DB
:10466000808080800000001F202020201F0080808C
:1046700000808000000080FFA12020110E000000BB
:10468000008080808000000E112020A0FF808080AC
:1046900080008080800020203F2120000100000059
:1046A000808080808000003324242424190000802E
:1046B00080E0808000000000001F2020000080803B
:1046C000000000808000001F202020103F208080FC
:1046D00080000080808000010E300806010080808C
:1046E0000080008080800F300C030C300F000080B1
:1046F0008000808080000020312E0E3120008080DC
:1047000080000080808080818E701806010000800B
:104710008080808080000021302C22213000000029
:104720000000807C020200000000003F40400000CA
:104730000000FF00000000000000FF000000000279
:10474000027C800000000040403F000000000006A6
:104750000101020204040000000000000000040047
:10476000000800000000000000020001000010002E
:104770009047000800000020A80000002801000861
:1047800038480008A8000020300900004401000853
:104790000100000010000000000000000024F400F0
:1047A000FA04413E0000000000000000000000008C
:1047B00000000000000000000000000000000000F9
:1047C00000000000000000000000000000000000E9
:1047D00000000000000000000000000000000000D9
:1047E00000000000000000000000000000000000C9
:1047F00000000000000000008DFFFFFFA40E00007D
:10480000680E0000680E00004B07000091070000D2
:104810006817000070E8FFFF0000000000000000C3
:104820000000000000000000000000000000000088
:08483000000000000000000080
:04000005080000ED02
:00000001FF
