:020000040800F2
:100000002008002001010008ED4600080D3400081A
:1000100081460008A90B00089D540008000000005C
:10002000000000000000000000000000FD5000087B
:10003000C50B000800000000C9500008015100086D
:100040001B0100081B0100081B0100081B01000820
:100050001B0100081B010008C90B00081B01000858
:100060001B0100081B0100081B0100081B01000800
:100070001B0100081B0100081B0100081B010008F0
:10008000AD0B0008B90B00081B0100081B0100089C
:100090001B0100081B0100081B0100081B010008D0
:1000A0001B0100081B0100081B0100081B010008C0
:1000B0000951000815510008215100081B010008D2
:1000C0001B0100081B0100081B0100081B010008A0
:1000D0001B01000885540008915400081B0100080A
:1000E0001B0100081B0100081B010008DFF80CD0F1
:1000F00000F0F6FC00480047696200082008002074
:100100000648804706480047FEE7FEE7FEE7FEE7B1
:10011000FEE7FEE7FEE7FEE7FEE7FEE70551000823
:10012000ED0000082DE9F0410024061B254671F181
:10013000000605DA01240027D0EB070067EB010178
:10014000161E73F1000605DA0027D2EB070201251F
:1001500067EB030300F06EFB86460E4617469C468F
:10016000AC4204D00025D0EB050E65EB010624B1AE
:100170000020D2EB000760EB030C704631463A4694
:100180006346BDE8F081D2B201E000F8012B491EC0
:10019000FBD270470022F6E710B513460A46044624
:1001A0001946FFF7F0FF204610BD421C10F8011B56
:1001B0000029FBD1801A704730B504460020034661
:1001C00000E05B1C934203D2E05CCD5C401BF8D0A6
:1001D00030BDF0B480EA0102D40F4200B2EB410F0F
:1001E00002D20246084611464A0042D0C30DDDB293
:1001F000C1F3C752AD1A202D35DAC1F3160141F40F
:10020000000204B15242C5F1200602FA06F12A4169
:100210001044B3EBD05F23D0C4B1012DA0EBC35089
:1002200009DCF0BC4FF0004202EAC352DBB200F539
:10023000000000F06ABB400000F1807000EBC3508A
:10024000A0F1807040EAD170490009E0490841EA14
:10025000C071A0EBC35000F50000400800EBC35094
:10026000F0BC00F049BB6142012202EB4101001BDE
:10027000F6E7F0BC704781F00041AAE780F000404B
:10028000A7E780EA010210B502F00043400022D047
:100290004A001FD0010E01EB1261C0F35600C2F3F9
:1002A000560240F4000042F40002A0FB02200004C9
:1002B0007F39140400D0401C50EA124001D44000A1
:1002C000491EC2B20C0604EBD010401C4008802A24
:1002D00002D003E0002010BD20F00100002900DA68
:1002E0000020184310BD30B480EA010202F000453E
:1002F00030F0004221F0004013D090B1C30DD40D76
:10030000C2F31601C0F31600E41A41F4000140F4F0
:1003100000027D34914201D3641C00E04900002CAE
:1003200002DA30BC002070474FF4000000239142F5
:1003300001D3891A034340084FEA4101F7D151B173
:10034000914202D14FF0004105E002D24FF001018D
:1003500001E06FF0010103EBC450284430BC00F011
:10036000CBBA2DE9FE4F804681EA0300C00F0C4650
:10037000009021F0004123F00045B8EB0200A941B4
:1003800005D24046214690461C460B46024623F0C5
:100390000040104347D0270DC7F30A00C3F30A51AA
:1003A0000290401A019040286BDAC3F3130040F426
:1003B000801B0098924620B10023D2EB030A63EB26
:1003C0000B0B01985946C0F14002504600F063FA09
:1003D00006460D4650465946019A00F07BFA10EB4E
:1003E00008006141002487EA115284EAE7731A4346
:1003F00040D0009A62B3019A012A4FEA075215DCF5
:10040000001B61EB02014FF0004202EA0752CDE906
:100410000042001C41F5801132462B4600F0B2FA32
:1004200003B0BDE8F08F40462146F9E7001B61EBC1
:100430000201001C41F5801300185B412018A2F551
:10044000001747EB030140EAD570B6196D4111E082
:100450006D084FEA360645EAC0754FEA0752001BA1
:1004600061EB0201001C41F5801149084FEA3000A0
:100470000019514132462B4603B0BDE8F04F00F061
:1004800072BA0098012240000023D0EB020263EB15
:10049000E073009821464FEAE074B8EB000061EB8E
:1004A0000401E9E783F000435BE781F0004158E78E
:1004B0002DE9FE4F81EA030404F0004421F00041DD
:1004C00000944FF0000B23F0004350EA01045ED08B
:1004D00052EA03045BD0C3F30A54C1F30A552C4417
:1004E000A4F2F3340194A0FB0254C1F3130141F4CC
:1004F0008011C3F3130343F4801301FB024400FB98
:10050000034E840A970A44EA815447EA8357A4FBBE
:10051000076802958D0A05FB07854FEA932C04FBBB
:100520000C542705029D4FEA065847EA1637B5EBEB
:1005300008056EEB070C870E920E47EA811742EA18
:100540008312A7FB0201B6EB0B0164EB00042B0D39
:1005500043EA0C335E1844EB1C50DA465146E7FB85
:100560000201C5F313044FEA0B3343EA14534FEA75
:100570000432019C43EA0603A4F10C040294009C9B
:10058000CDE900B400F0FEF903B0BDE8F08F002023
:100590000146F9E72DE9F04D81EA030404F0004B30
:1005A00021F0004514464FF0000A23F0004150EAC4
:1005B000050220D054EA01021DD0C5F30A570246B5
:1005C000C5F31303C1F31300C1F30A5640F48015B9
:1005D00043F48013A7EB0608101BD64608F2FD383B
:1005E00073EB050002D308F1010801E092185B41AA
:1005F000B8F1000F03DA00200146BDE8F08D0020BD
:100600004FF48011064684460EE0171B73EB050776
:1006100005D3121B63EB050306434CEA010C4908A2
:100620004FEA300092185B4150EA0107EDD152EADF
:10063000030012D082EA040083EA0501084305D0D2
:10064000101BAB4106D20122002306E000224FF02E
:10065000004302E06FF0010253101AEB06004CEB6E
:10066000085110EB0A0041EB0B01BDE8F04D00F022
:100670007AB9002801DBC0F10040002901DBC1F19B
:100680000041814201D801207047002070470028B6
:1006900001DBC0F10040002901DBC1F100418142D2
:1006A00001D20120704700207047002801DBC0F113
:1006B0000040002901DBC1F10041814201D9012044
:1006C000704700207047002801DBC0F1004000297E
:1006D00001DBC1F10041814201D1012070470020BE
:1006E0007047C10F80EAE0700844CA0796230021D2
:1006F00000F00BB996230022114600F006B90EB5A2
:10070000C10F80EAE0700844CA07002140F2334379
:100710008DE80E000A460B4600F034F903B000BD28
:100720000EB540F2334102910021CDE900110A4695
:100730000B4600F027F903B000BD00F0004220F0A6
:100740000040C10DC0F3160040F400007F2901DA1B
:1007500000207047962903DCC1F19601C84001E0F2
:1007600096398840002AF4D04042704770B5C1F3F2
:100770000A5201F000450024C1F3130140F2FF3397
:1007800041F480119A4201DA002070BD40F23343F7
:100790009A42A2F2334203DC524200F08BF800E0AE
:1007A00090402C43F1D0404270BD00F0004230F048
:1007B00000400AD0C10D01F56071C0F3160042EA95
:1007C0000151C2084007114370470020014670479D
:1007D00001F0004330B421F0004150EA010206D09C
:1007E0000A0DA2F56072C1F31301002A02DC30BCCD
:1007F00000207047440F44EAC104C100E01830BC37
:1008000000EBC25000F078B830B50B46014600202E
:100810002022012409E021FA02F59D4205D303FAC2
:1008200002F5491B04FA02F52844151EA2F1010243
:10083000F1DC30BD2DE9F05F0546002092469B4675
:1008400088460646814640241BE0284641464746E6
:10085000224600F02FF853465A46C01A914110D351
:1008600011461846224600F016F82D1A67EB0108CB
:100870004F4622460120002100F00DF817EB000939
:100880004E41201EA4F10104DFDC484631462A46D1
:100890004346BDE8F09F202A04DB203A00FA02F12B
:1008A000002070479140C2F1200320FA03F319435E
:1008B00090407047202A04DB203A21FA02F0002100
:1008C000704721FA02F3D040C2F120029140084360
:1008D00019467047202A06DBCB17203A41FA02F06E
:1008E00043EAE07306E041FA02F3D040C2F120028D
:1008F00091400843194670470029A8BF7047401C23
:10090000490008BF20F00100704710B4B0FA80FC25
:1009100000FA0CF050EA010404BF10BC704749B162
:10092000CCF1200421FA04F411FA0CF118BF0121D2
:1009300021430843A3EB0C01CB1D4FEA00614FEAB2
:10094000102042BF002010BC704700EBC350104481
:100950000029A4BF10BC7047401C490008BF20F00C
:10096000010010BC704710B5141E73F1000408DAC2
:10097000401C41F1000192185B411A4301D120F063
:10098000010010BD2DE9F04D92469B4611B1B1FA20
:1009900081F202E0B0FA80F220329046FFF77BFF4E
:1009A00004460F4640EA0A0041EA0B0153465A4604
:1009B000084313D0114653EA010019D0C8F1400290
:1009C0005046FFF777FF05460E46504659464246C9
:1009D000FFF761FF084305D0012004E020463946B7
:1009E000BDE8F08D0020054346EAE0762C4337430E
:1009F0000A986305E40AA0EB08000022FD0A44EA15
:100A000047540A3002D500200146E9E701051019D4
:100A10006941DDE9084500196941BDE8F04DA2E7EB
:100A200070B521F0004303430CD0C1F30A550024F4
:100A3000D5EB040564EB0403D617AD1AB34102DB12
:100A40000020014670BD201841EB025170BDC1F37A
:100A50000A52C1F3130140F2FF3341F480119A426C
:100A600002DA00200146704740F233439A42A2F274
:100A7000334202DC5242FFF71DBFFFF70CBF0000FC
:100A800030B5041E71F1000404DB4FF00044404215
:100A900064EB0101141E73F1000405DB1C464FF0EA
:100AA0000043524263EB04038B4208BF824230BDD5
:100AB00030B5041E71F1000404DB4FF000444042E5
:100AC00064EB0101141E73F1000405DB1C464FF0BA
:100AD0000043524263EB0403994208BF904230BD89
:100AE000064C074D06E0E06840F0010394E807007B
:100AF00098471034AC42F6D3FFF7FCFAE8A500089B
:100B000008A600082DE9F04D00231A461B1A8A4159
:100B100003DB00200146BDE8F08DC1F30A52C1F3AA
:100B2000130141F480154FF0000BD10702D10018DA
:100B30006D41521E0027044640F2FF11384601EB7A
:100B4000620A3E468046024600204FF48011FFF7BD
:100B5000B1FEC2197141BB1846EB0100B4EB030CA6
:100B600075EB000C04D3E41A65EB000517460E463E
:100B7000241908F101006D4180463428E3DDF9199C
:100B800046EB0600091BA84103D24FF0FF32134683
:100B900001E0002213461BEB070046EB0A51BDE8BB
:100BA000F04DFFF7E0BE0000FEE7000040F24C1001
:100BB000C2F2000000F090B840F29010C2F20000C3
:100BC00000F08AB870470000012000F0C7BA0000AA
:100BD000EFF3108072B600BFFEE70000014690F808
:100BE0002100022816D10868D1E90FC3026822F05B
:100BF0000E020260026822F001020260012000FA87
:100C000003F2CCF8042081F821000020002281F8B2
:100C100020207047042088630120002281F82020D2
:100C20007047000080B590F82110022924D1026895
:100C3000116821F00E0111602F211368C4F2020126
:100C40008A4240F20401C4F2020123F0010313605E
:100C500016DD3023C4F202039A421DD04423C4F2AD
:100C600002039A421CD05823C4F202039A421DD1B7
:100C70004FF4803322E000BF04218163012080BD56
:100C80000823C4F202039A420ED01C23C4F20203CA
:100C90009A420BD1102311E04FF480730EE000BF95
:100CA0004FF480530AE000BF012307E001F1680C14
:100CB0004FF08073624508BF4FF480130B60012131
:100CC00080F82110426B002180F820100AB1904773
:100CD0000021084680BD000010B5D0E90FCE0168A4
:100CE000DCF800300A6823FA0EF35C072AD512F00C
:100CF000040427D00A68920603D40A6822F004028A
:100D00000A602F22C4F20202914240F20402C4F2AD
:100D100002025BDD3023C4F20203994272D0442305
:100D2000C4F20203994273D05823C4F202039942D9
:100D300040F07A804FF480231360C16A002940F0AC
:100D400098806FE09C0727D512F0020424D00A682F
:100D5000920606D40A6822F00A020A60012280F88C
:100D600021202F22C4F20202914240F20402C4F276
:100D700002023BDD3023C4F20203994260D04423D7
:100D8000C4F2020399425FD05823C4F2020399428D
:100D900060D14FF4003365E01B0743D512F0080221
:100DA00008BF10BD0A6822F00E020A60012101FA94
:100DB0000EF2CCF80420816380F82110016B002230
:100DC000002980F8202054D12CE000BF0823C4F271
:100DD0000203994222D01C23C4F20203994223D178
:100DE00040231360C16A002943D11BE00823C4F2E9
:100DF000020399422CD01C23C4F20203994229D148
:100E000020232FE04FF480631360C16A89BB09E09F
:100E10004FF480431360C16A59BB03E0042313609D
:100E2000C16A31BB10BD00BF02F168044FF080639E
:100E3000A14208BF4FF480031360C16AC9B9F1E74A
:100E40004FF400730EE000BF4FF400530AE000BF00
:100E5000022307E002F168044FF00073A14208BFCB
:100E60004FF400131360816A0022002980F82020CB
:100E7000D8D0BDE810400847014600284FF00100D7
:100E800008BF70472DE9F043D1F800C04FF6F87362
:100E9000CBF6FD734CF6CD426344CCF6CC42A3FBBB
:100EA00002236FF0030707EA93030027C4F2020747
:100EB00001F10C09C1E90F730223D1E9012E99E870
:100EC0007002D1F81C8081F82130DCF8003043F644
:100ED000F077BB431A4342EA0E0222432A433243CD
:100EE00042EA090242EA0802CCF8002000228A63A2
:100EF00081F8210081F820200020BDE8F0437047F0
:100F0000F0B590F820C0BCF1010F32D04FF0010EC7
:100F100080F820E090F821C0BCF1010F26D14FF0FD
:100F2000020C80F821C04FF0000CC0F838C0D0E9A6
:100F300000C4C56AC66BDCF80070102C27F00107EE
:100F4000CCF80070006C0EFA00F070600846CCF827
:100F5000043004BF10460A46CCF80800CCF80C2038
:100F6000DCF8000045B140F00E000DE0002180F8F3
:100F700020100220F0BD00BF20F00400CCF80000DB
:100F8000DCF8000040F00A00CCF80000DCF80000BB
:100F900040F00100CCF800000020F0BDB0B50446E0
:100FA00000F002FA054640F20800C2F200000078A4
:100FB000611C18BF044400BF00F0F6F9401BA042BA
:100FC000FAD3B0BD012818BF70472DE9F04381B0B6
:100FD000032004F07BF840F2D8384042C2F2000807
:100FE000C8F80C00042004F071F840F2F43940F223
:100FF0001045C2F20009C2F2000540F2144140F26D
:101000001C42C9F80C00C2F20001C2F200022846DC
:1010100005F040FA40F2021640F2041440F20010CB
:10102000C2F20006C2F20004C2F2000031462246BB
:1010300002F092FF40F2F00040F2F20140F2F402BE
:10104000C2F20000C2F20001C2F2000202F062FF2E
:10105000D8F80C10D9F80C000129A8BF002807DC2B
:10106000B1F1FF3FDEBFB0F1FF3F0138C9F80C001E
:10107000286840F60047C4F20107FFF75EFB05F061
:1010800081F8292812DB38464FF400410022002461
:1010900000F084F9C9F81840C8F81840002021462B
:1010A00001B0BDE8F04303F0CBBF00BF38464FF4BA
:1010B0000041012200F072F9B6F9000040F2480642
:1010C000C2F20006FFF70DFB32682968034610469E
:1010D0001A4604F049FA40F2E005D8F80C20C2F2B2
:1010E0000005D9F80C10E860104604F0D9F940F278
:1010F0009406B4F90010C2F20006F060084604F04D
:1011000015F80146E868F26840F26C030244501A90
:10111000C2F20003B0F5E15FC3E9001211444FF4DD
:10112000E154A8BF20464EF2E03210F5E15FCFF661
:10113000FF72D8BF1046C8F81800B1F5E15FB8BF1C
:101140000C4614F5E15FD8BF1446C9F81840214693
:1011500001B0BDE8F04303F073BF000040F214415A
:10116000C4F201010A68024214BF08607047FFF729
:1011700029BF00002DE9F04F82B00E68002E00F06C
:10118000038141F20042C4F20102042340F2004E06
:10119000904208BF03234FF6FF7CC4F2010E009378
:1011A00000240123C1F2100C4FF0000A4FF0000997
:1011B00049E000BF012704F00C030F229A402BEAFC
:1011C000020207FA03F34FEA9A051A4346F825206C
:1011D000D1F804B040F20C455FEACB22DEF80820DB
:1011E00054BF22EA080242EA0802C4F20105CEF81E
:1011F00008202A685FEA8B2354BF22EA080242EAE9
:1012000008022A605FEA8B33DEF8042054BF22EA2A
:10121000080242EA08025FEACB33CEF80420DEF887
:1012200000204FF0010354BF22EA080242EA0802FC
:10123000CEF800200E680AF1010A36FA0AF204F12B
:10124000040400F0A18003FA0AF816EA080FF1D0AE
:101250004E68664512DC122E56D8DFE806F0350BD4
:101260004549555555555555555555555555554D52
:10127000510000BFD1F80C9046E000BF4FF6FF725E
:10128000C1F2210296420FDC0022C1F21102964205
:101290001AD00022C1F21202964215D00022C1F2E9
:1012A0002102964210D02FE00022C1F22202964283
:1012B0000AD00022C1F23102964205D00022C1F2CA
:1012C0003202964220D100BF8A684AB1012A14BF77
:1012D000C0F81480C0F810804FF0080914E000BF77
:1012E0004FF0040910E000BFCA6802F108090BE0E2
:1012F0004FF0000908E000BFCA6802F1040903E0EA
:10130000CA6802F10C0900BF22460646BAF1080F6E
:1013100024BF203A043637680F25954027EA050593
:1013200009FA02F22A433260CA79D2067FF582AF07
:1013300041F21803C4F202031A68AEF57E7642F059
:1013400001021A601A6802F001020192019A2AF061
:10135000030256F802B040F60002C4F201029042C5
:1013600010D040F60042C4F2010290423FF422AF96
:1013700041F20002C4F20102009F904208BF02271E
:1013800019E700BF002716E702B0BDE8F08F0000A4
:101390008068084018BF012070470000002A08BF7D
:1013A000090401617047000040F21840C2F20000D9
:1013B0000068704770B5B8B3044690F83D0028B98E
:1013C000002084F83C00204600F05CF9242084F8DA
:1013D0003D002068016821F001010160016841F4CD
:1013E00000410160016821F40041016000F038FB18
:1013F00048F28041C0F21E0140F60013D4F804E028
:1014000088424FF00001C0F23D0348F2A16C4FF05A
:10141000000238BF01219842C0F2010C38BF0122FE
:10142000E64538BF0A460AB1012070BD4DF683611A
:10143000C4F21B31A0FB01122168950C4B684FF4DC
:10144000967623F03F0343EA9243754344F6D3561E
:101450004B60C1F262060B6AA5FB0656B50923F084
:101460003F03E64538BF950C6A1C1A430A62CA69F5
:1014700048F2A0664CF6FF73C0F20106B64522EAB8
:1014800003020BD801384FEA4E03B0FBF3F00130F2
:101490006FF31F30042898BF04201EE0A3680138B2
:1014A00063B119230EFB03F3B0FBF3F001306FF3CC
:1014B0001F3078B100F5804008E000BF0EEB4E030E
:1014C000B0FBF3F001306FF31F3028B100F500409E
:1014D00003E000BF012000E001201043C86108685C
:1014E000D4E9072320F0C00010431843086088683F
:1014F00048F2FF3204F10C0690434CCE18431043DF
:10150000A5698860C86820F0FF0030432843C860A0
:10151000086840F00100086000202021206484F861
:101520003D10206384F83E0070BD00002DE9F043BB
:1015300083B0994616460F460446FFF735FF94F8E8
:101540003D10202920D10546206800BF8169890708
:1015500016D5FFF729FF411B20681A29F6D38169A8
:101560008907F3D500202021206384F83D1084F8FA
:101570003E00216C41F02001216484F83C0003E02E
:1015800094F83C10012903D1022003B0BDE8F08398
:10159000012284F83C200368DDE90B180A9ADB0776
:1015A00003D1036843F001030360036823F400637D
:1015B0000360212084F83D00402084F83E00002094
:1015C000206462626185608D394620850020CFF6F7
:1015D000FF70E062204632464B46CDF80080019510
:1015E00001F0A4FF20B1012003B0BDE8F08300BFEB
:1015F000208D98B9204641462A4601F0FBFF88B36A
:10160000206C0428EFD12068016841F4007101606A
:10161000012003B0BDE8F0830004EBD02046414632
:101620002A4602F0A1F90028EAD1616A2268084638
:1016300010F8013B1361238D6062581E2085678D71
:10164000013F678557697F07E6D50704E4D04878EE
:101650001061881C6062981E2085618D013961854A
:10166000DAE700BF2068016841F4007101602020C2
:1016700084F83D00002084F83E0084F83C0003B06C
:10168000BDE8F08310B586B0006845F20042C4F2B0
:10169000000200219042049102D006B010BD00BFAC
:1016A00041F21804C4F20204206802A940F00800C4
:1016B0002060206800F00800019001984FF440700D
:1016C0000290122003900320059040F60040C4F2DF
:1016D0000100FFF74FFD0420C4F20100016841F052
:1016E000E06141F002010160606840F40010606058
:1016F000606800F400100190019806B010BD000071
:1017000040F2080040F21841C2F20000C2F20001AB
:1017100000780A68104408607047000080B542F203
:101720000000C4F20200016841F0100101600320D2
:1017300000F0A6F80F2000F005F800F027F80020D0
:1017400080BD000070B540F20806C2F2000640F20B
:101750004C013278C2F200014FF47A730968B3FB8E
:10176000F2F20446B1FBF2F1084600F07BFB0F2CCD
:101770004FF0010508D838B94FF0FF30214600225C
:10178000002500F051F87460284670BD82B041F227
:101790001800C4F202000168022241F00101016058
:1017A000016801F0010101910199416841F0805106
:1017B0004160406800F08050009000980420C4F21E
:1017C0000100016862F31A61016002B07047000015
:1017D000002848BF7047C1B200F01F00012202FA82
:1017E00000F04EF28012CEF2000242EAD10121F066
:1017F00003010860BFF34F8FBFF36F8F7047000086
:10180000002848BF7047C1B200F01F00012202FA51
:1018100000F04EF20012CEF2000242EAD10121F0B5
:10182000030108607047000010B54EF60C5CCEF264
:10183000000CDCF80030C3F3022E8EF00704042CF9
:1018400028BF0424BEF103034FF0FF3E0EFA04F458
:1018500038BF0023A14399400EFA03F39A43114382
:1018600000F00F0200F160430901043A03F56443FC
:101870006244002848BF02F10C03197010BD00003B
:101880004EF60C51CEF200010A684FF6FF031A40E3
:1018900060F30A2242F0806040F0FD7008607047FB
:1018A0002DE9F04381B0002800F0858042F2000865
:1018B000C4F202080446D8F800000D4600F0070004
:1018C00088420CD2D8F8000020F007002843C8F85E
:1018D0000000D8F8000000F00700A8426BD1206893
:1018E00041F204098107C4F2020917D5410705D561
:1018F000D9F8001041F4E061C9F80010010705D5DE
:10190000D9F8001041F46051C9F80010D9F800105E
:10191000A26821F0F0011143C9F80010C00741D1BD
:10192000D8F8000000F00700A8420CD9D8F8000051
:1019300020F007002843C8F80000D8F8000000F0A5
:101940000700A84237D12068410707D5D9F8001011
:10195000E26821F4E0611143C9F80010000708D5DE
:10196000D9F80000216920F4605040EAC100C9F8AC
:101970000000D9F8002002F00C00082841F20020F5
:10198000C0F27A0050D149F64013C2F38341C0F649
:101990000003595CD2033BD440F60010C0F23D0076
:1019A000484341E0606802280AD001282AD159F84A
:1019B000041C890308D4012001B0BDE8F08300BFF6
:1019C00059F8041C8901F6D5D9F8001021F003015B
:1019D0000843C9F80000FFF7E7FC064641F28837E4
:1019E000D9F80000616800F00C00B0EB810F97D0CF
:1019F000FFF7DAFC801BB842F2D9032001B0BDE842
:101A0000F08300BF59F8041C8907D4D5DCE700BF78
:101A1000D9F8002049F63E13C2F34042C0F6000355
:101A20009A5C4843B0FBF2F0D9F8001049F20E126C
:101A3000C1F30311C0F60002515C40F24C0220FADF
:101A400001F140F20C00C2F200000068C2F2000294
:101A50001160FFF777FE002001B0BDE8F0830000C1
:101A600040F24C0041F20401C2F20000C4F2020153
:101A70000068096849F21E12C1F30221C0F6000293
:101A8000515CC8407047000040F24C0041F2040134
:101A9000C2F20000C4F202010068096849F21E1295
:101AA000C1F3C221C0F60002515CC840704700007B
:101AB0002DE9F04182B0002868D00446007841F258
:101AC0000006C007C4F2020625D0706800F00C00C2
:101AD00004281BD0706800F00C00082802D1706840
:101AE000C00313D46068002800F06881B0F5A02F0F
:101AF00000F07C81B0F5803F00F07C81306820F4FC
:101B000080303060306820F4802076E130688003D7
:101B100001D56068D0B32078800718D5706810F0C0
:101B20000C0F07D0706800F00C0008286ED17068A8
:101B3000C0036BD43068800702D52069012825D105
:101B40003068616920F0F80040EAC1003060207818
:101B500000071FD42078400732D4E56995B170683A
:101B600000F00C00082840F08F80012D0ED0706826
:101B7000216A00F480328A4208D1616A00F4701050
:101B8000884203D1002002B0BDE8F081012002B0FC
:101B9000BDE8F081A069002862D00020C4F2422094
:101BA0000121C0F88014FFF7FFFB0546706A80072B
:101BB00000F18C80FFF7F8FB401B0228F6D92AE1E0
:101BC000F06910F0805808D1F06940F08050F06161
:101BD000F06900F080500090009847F20007C4F2CE
:101BE00000073868C00529D4386840F48070386030
:101BF000FFF7DAFB054600BF3868C0051ED4FFF7C3
:101C0000D3FB401B6428F7D905E100BF20690028F9
:101C100040F20000C4F2422000F082800121016005
:101C2000FFF7C2FB054600BF306880073FF588AF6D
:101C3000FFF7BAFB401B0228F6D9ECE0E068002869
:101C400000F08080052800F09780012800F098803F
:101C5000306A20F001003062306A20F0040092E027
:101C60000020C4F242200021C0F88014FFF79CFB42
:101C7000054600BF706A80077FF56CAFFFF794FBE5
:101C8000401B0228F6D9C6E00027C4F242270020F4
:101C90003866FFF789FB022D05460BD130688001BD
:101CA00040F1BE80FFF780FB401B02284FF003008D
:101CB000F4D968E7306880017FF564AFFFF774FB03
:101CC000401B02284FF00300F4D95CE740F24C00BF
:101CD000C2F20000006844F6D351C1F26201A0FBD9
:101CE0000101480A019000BF00BF0198411E002871
:101CF00001913FF42FAF00BF0198411E00280191D0
:101D00003FF428AF00BF0198411E002801913FF425
:101D100021AF00BF0198411E00280191E4D119E7CD
:101D200000210160FFF740FB054600BF30688007D7
:101D30007FF50DAFFFF738FB401B02284FF0030083
:101D4000F4D920E7306A20F001003062306A20F0D8
:101D500004003062FFF728FB054641F2883700BFD8
:101D6000306A800720D5FFF71FFB401BB8424FF0B9
:101D70000300F5D907E700BF306A40F00400306285
:101D8000306A40F001003062FFF70EFB054641F279
:101D9000883700BF306A800706D4FFF705FB401B79
:101DA000B842F7D937E000BFB8F1000F7FF4D5AEE5
:101DB000F06920F08050F061CFE600BF306820F479
:101DC00080303060306820F480203060FFF7ECFA1B
:101DD000054600BF306880037FF59DAEFFF7E4FA4B
:101DE000401B64284FF00300F4D9CCE6306840F47F
:101DF00080203060306840F480303060FFF7D4FAE3
:101E0000054600BF306880033FF585AEFFF7CCFA8A
:101E1000401B6428F6D9032002B0BDE8F08100BF62
:101E2000206AB0F5803F05D17168A26821F40031C5
:101E3000114371607168626A21F47411114308439F
:101E4000706001203866FFF7AFFA04463068800101
:101E50003FF598AEFFF7A8FA001B02284FF00300E9
:101E6000F4D990E6411E0020B0EB116F1CBF012099
:101E700070474EF21002CEF2000251604EF623512E
:101E8000CEF20001F0230B700721906011607047C3
:101E90007047000070470000B0B590F83C20012A60
:101EA00004BF0220B0BD01F108053CCDD1E900CE50
:101EB00023F47C5322F470521A432EF4F0431A4355
:101EC0002CF4E0431A4324F4C0431A432A43C9695B
:101ED00022F48042036811435964002180F83C10C9
:101EE0000846B0BD10B590F83C20012A4FF0020220
:101EF00033D080F83D200268D2F804E0D2F808C060
:101F00000C682EF07003234340F2FF74C4F2000407
:101F1000A24253600ADCB2F1804F13D040F200437A
:101F2000C4F200039A420DD011E000BF42F6004314
:101F3000C4F201039A4205D040F60003C4F2000344
:101F40009A4204D149682CF0800319439160012121
:101F5000002280F83D1080F83C20104610BD0000A3
:101F6000002804BF0120704710B5044690F83D00DA
:101F700028B9002084F83C00204600F067F80220D1
:101F800084F83D00206840F2FF730268C4F2000349
:101F900042F6004C9842C4F2010C15DCB0F1804FBF
:101FA0001AD040F20041C4F20001884214D0984295
:101FB00018DCB0F1804F1DD040F20041C4F20001A6
:101FC000884217D01AE000BF604505D040F60001F6
:101FD000C4F200018842EAD1A16822F070020A43EB
:101FE0009842E6DD604505D040F60001C4F20001EC
:101FF000884203D1216922F440720A43A36922F086
:102000008001D4F804E0E268194360450160C262CF
:10201000C0F828E002D16169CCF83010012141619B
:10202000002084F8461084F83E1084F83F1084F8AD
:10203000401084F8411084F8421084F8431084F86A
:10204000441084F8451084F83D1010BD80B586B06A
:1020500000680021B0F1804F049115D042F6004194
:10206000C4F20101884247D141F21800C4F20200D3
:10207000016841F400610160006800F400600190B3
:10208000019806B080BD00BF41F21800C4F2020002
:10209000416841F001014160416801F00101019195
:1020A0000199016841F008010160006802A900F08F
:1020B00008000190019808200290022003900590EA
:1020C00040F60040C4F20100FFF754F80420C4F2C7
:1020D000010001684FF6FF42CFF6FF02114041F0C8
:1020E000E06141F4807101601C2000210022FFF7B3
:1020F0009BFB1C20FFF784FB06B080BD90F83D10D1
:1021000001291CBF01207047022180F83D100068A2
:1021100040F2FF72C168C4F20002904241F0010136
:10212000C16009DCB0F1804F12D040F20041C4F22E
:10213000000188420CD012E042F60041C4F20101D5
:10214000884205D040F60001C4F20001884206D161
:10215000816801F00701062904BF0020704701686B
:1021600041F00101016000207047000080B590F847
:102170003C20012A4FF0020200F0C28080F83D208E
:10218000D0F800C04FF67772DCF8083023EA02027C
:10219000CCF808200B684F2B28DC1F2B44DD202BAC
:1021A00045D0302B43D0402B40F0AC80D1F804E038
:1021B000C968DCF82030DCF8202022F00102CCF8DD
:1021C0002020DCF8182022F0F00242EA011123F06E
:1021D0000A0242EA0E02CCF81810CCF82020DCF8F3
:1021E000081041F0470121F0300180E06F2B27DD1E
:1021F000B3F5005F48D0B3F5805F7AD0702B40F024
:102200008180D1E901E3C968DCF8082043EA0E03C4
:1022100022F47F4243EA01211143CCF80810DCF894
:10222000081041F0770162E00BB1102B6AD1DCF8A5
:10223000081021F07001194341F0070157E000BF79
:10224000502B35D0602B5DD1D1F804E0C968DCF8A3
:102250002030DCF8202022F01002CCF82020DCF81E
:10226000182022F4704242EA013123F0A00242EA2F
:102270000E12CCF81810CCF82020DCF8081041F031
:10228000670121F0100132E0D1E901E3C968DCF80F
:10229000082043EA0E0322F47F4243EA012111435E
:1022A000CCF80810DCF8081041F480411FE000BFB2
:1022B000D1F804E0C968DCF82030DCF8202022F0F6
:1022C0000102CCF82020DCF8182022F0F00242EACB
:1022D000011123F00A0242EA0E02CCF81810CCF8E1
:1022E0002020DCF8081041F0570121F02001CCF843
:1022F00008100022012180F83D10002180F83C10D8
:10230000104680BD0122F5E7002804BF0120704778
:102310002DE9F04F81B0044690F83D000D4628B9F4
:10232000002084F83C00204600F094F8022084F855
:102330003D00206844F20702816840F2FF73914338
:1023400081600268C4F2000342F6004C9842C4F275
:10235000010C15DCB0F1804F1AD040F20041C4F2FC
:102360000001884214D0984218DCB0F1804F1DD093
:1023700040F20041C4F20001884217D01AE000BFC9
:10238000604505D040F60001C4F200018842EAD160
:10239000A16822F070020A439842E6DD604505D04C
:1023A00040F60001C4F20001884203D1216922F401
:1023B00040720A43A36922F08001D4F804E0E26885
:1023C000194360450160C262C0F828E002D161692A
:1023D000CCF830104FF00109C0F814908268D0F8A2
:1023E00018E0D0F820C0D5E90038D5E9027B43EAEF
:1023F000020AAB694FF6FF712EEA010E47EA03238A
:102400004FF6FC47BB43D5E907724BEA0E012E6934
:10241000194341EA072141EA061141EA02312CF051
:1024200022026B6942EA080242EA0312C0F808A0DD
:102430008161026284F8469084F83E9084F83F906F
:1024400084F8429084F8439084F83D90002001B0D5
:10245000BDE8F08F10B586B0006840F60002C4F207
:102460000002002190420591CDE90311029139D07B
:1024700040F20041C4F2000188425DD141F21800EF
:10248000C4F20200416841F002014160416801F07C
:10249000020101910199016841F0080101600068A1
:1024A00002A900F00800019001983020029000205D
:1024B00003900120049040F60040C4F20100FEF7B2
:1024C00059FE0420C4F2010001684FF2FF32CFF63A
:1024D000FF02114041F0E06141F4006101601D2400
:1024E00022E000BF41F21800C4F20200426842F04C
:1024F00004024260426802F004020192019A0268FA
:1025000042F008020260006800F0080001900198A3
:10251000C020CDE9020140F600400491C4F2010060
:1025200002A9FEF727FE1E24204601210022FFF704
:102530007BF92046FFF764F906B010BD80B590F82E
:102540003E2090F83F3090F842E090F843C00429D4
:102550000AD0B9B9012A4FF0010208BFBEF1010F3C
:1025600034D0104680BD00BF012B4FF0010208BFE0
:10257000BCF1010FF5D1022180F83F1080F8431023
:1025800000681EE0012A4FF0010208BF012BE8D1CC
:10259000BEF1010FE5D1BCF1010FE2D1022280F8BA
:1025A0003E2080F83F2080F8422080F8432091B1FF
:1025B0000068016A21F001010162016A41F0010134
:1025C000016210216FF0100209E000BF022180F8C3
:1025D0003E1080F84210006801216FF00102036A8A
:1025E0001A400262026A114301620168002241F04E
:1025F00001010160104680BD00F00ABF10B50168FE
:1026000004460869800744BFC8685FEA807039D40F
:102610000869400744BFC8685FEA40703ED4086953
:10262000000744BFC8685FEA007045D40869C00667
:1026300044BFC8685FEAC0604AD40869C0071CBFCD
:10264000C8685FEAC07051D10869000644BFC86815
:102650005FEA006052D40869400644BFC8685FEA78
:10266000406053D40869800646BFC8685FEA80604E
:1026700010BD6FF0200220460A61BDE81040FFF750
:1026800009BC00BF6FF00200086101202077886953
:10269000800743D02046FFF7AFFF45E06FF004000E
:1026A000086102202077886910F4407F40D02046DE
:1026B000FFF7A2FF42E000BF6FF0080008610420AE
:1026C0002077C86980073DD02046FFF795FF3FE09F
:1026D0006FF01000086108202077C86910F4407F6F
:1026E0003AD02046FFF788FF3CE000BF6FF00100C2
:1026F0000861204600F02CFA2168A5E76FF0800001
:1027000008612046FFF7C4FB2168A4E76FF0400092
:102710000861204600F038FA2168A3E7204600F05F
:1027200025F8204600F0A2F92168002020776FE705
:10273000204600F01BF8204600F098F921680020A0
:1027400020776CE7204600F011F8204600F08EF963
:1027500021680020207769E7204600F007F820462E
:1027600000F084F921680020207766E770470000B8
:102770002DE9F04390F83C30012B04BF0220BDE866
:10278000F0834FEAB202032A3CD8DFE802F00343A9
:1027900081BD00BF036842F600461D6A1A6AC4F292
:1027A000010622F001021A621A465C6852F818CF3C
:1027B000B3428E68D1F800E025F0020545EA06052F
:1027C0000CD1CE68D1E9057824F4407425F00C05CD
:1027D00026F004063C43354344EA08042CF0730712
:1027E00047EA0E075C609F614F6809695F631D627D
:1027F0009F6947F008079F619F6927F004079F6161
:10280000B2E000BF0121002280F83C200846BDE86C
:10281000F08300BF036842F600461D6A1A6AC4F2DC
:10282000010622F010021A621A46D3F804C052F8C8
:10283000184FB3428E68D1F800E025F0200545EA34
:10284000061510D1CE68D1E9058725F0C0096FF0D3
:10285000400505EA06152CF4406647EA080745EAF4
:10286000090546EA870C24F4E64444EA0E27C3F837
:1028700004C09F614F6809699F631D629F6947F4A7
:1028800000679F619F6927F480679F616BE000BFCD
:10289000036842F600461D6A1A6AC4F2010622F471
:1028A00080721A621A46D3F804C052F81CEFB34281
:1028B0008E680C6825F4007545EA062511D1CE68AE
:1028C000D1E9058725F44069360240F2FF4526EA42
:1028D00005052CF4405647EA080745EA090546EA8B
:1028E000071C2EF073072743C3F804C0DF614F684D
:1028F0000969DF631D62DF6947F00807DF61DF698F
:1029000027F00407DF612FE0036842F60047D3F8A1
:1029100020C01A6AC4F2010722F480521A621A46D1
:102920005C6852F81C5FD1F800E08E68BB4204D1AD
:102930004F6924F4804444EA87142CF4005747EA92
:10294000063725F4E64646EA0E265C60DE614E68F0
:1029500009691E641F62DF6947F40067DF61DF6990
:1029600027F48067DF6109021368194311600021B1
:10297000002280F83C200846BDE8F083002804BF10
:102980000120704710B5044690F83D0028B900209A
:1029900084F83C00204600F067F8022084F83D00EF
:1029A000206840F2FF730268C4F2000342F6004C54
:1029B0009842C4F2010C15DCB0F1804F1AD040F2FD
:1029C0000041C4F20001884214D0984218DCB0F1F2
:1029D000804F1DD040F20041C4F20001884217D060
:1029E0001AE000BF604505D040F60001C4F20001C6
:1029F0008842EAD1A16822F070020A439842E6DDDB
:102A0000604505D040F60001C4F20001884203D1C0
:102A1000216922F440720A43A36922F08001D4F8AC
:102A200004E0E268194360450160C262C0F828E032
:102A300002D16169CCF8301001214161002084F895
:102A4000461084F83E1084F83F1084F8401084F853
:102A5000411084F8421084F8431084F8441084F83C
:102A6000451084F83D1010BD70470000704700000D
:102A700041B1082910D0042914BF00F1410200F12E
:102A80003F020BE090F83E20012A1CBF0120704756
:102A9000022280F83E2013E000F140021278012A61
:102AA0001CBF012070470222082907D0042914BF47
:102AB00080F8412080F83F2002E000BF80F84020ED
:102AC000006801F01F010122036A8A4023EA020123
:102AD0000162036A42F64441C4F201011A43A1F1C2
:102AE0004403984202620FD040F2FF71C4F2000129
:102AF000884213DCB0F1804F1CD040F20041C4F298
:102B00000001884216D01CE00A6842F400420A60C4
:102B100040F2FF71C4F200018842EBDD42F6004151
:102B2000C4F20101884205D040F60001C4F2000160
:102B3000884206D1816801F00701062904BF002000
:102B40007047016841F001010160002070470000FA
:102B5000704700004FEAB101032984BF002070478D
:102B6000DFE801F0020E060A0068343000687047A2
:102B700000683C300068704700684030006870476B
:102B800000683830006870477047000070470000E8
:102B900070470000B0B582B0044600680168C368A1
:102BA000426901F02F05202D03F0200506D12DB13B
:102BB000204602B0BDE8B04002F0E4BB5FEA017C11
:102BC0001EBF02F0010E03F4907212EB0E0253D1FD
:102BD000226B012A05D111F0100218BF13F0100268
:102BE00036D10A0622D513F080021FD094F8411086
:102BF00021293FD1A168B1F5805F03D12169002966
:102C000000F07082216A4A1C226209784160E18CDE
:102C100001390A04E1842DD1C16821F08001C1602D
:102C2000C16841F04001C16002B0B0BD490621D584
:102C300013F040011ED0C16821F04001C160202185
:102C4000204684F8411002B0BDE8B04000F0DABB85
:102C50000021019101680191416801910199406948
:102C6000400613D4A08DE18DE28D002A18BF884262
:102C700040F0BA8102B0B0BDCA0718BF13F4807229
:102C800040F0B6804A0700F1B980BEE0E06B016811
:102C900049688AB2002AEDD0A38D9A42EAD2E18532
:102CA0008069202800F09C80206850E8030F21688C
:102CB00020F4807041E80302DAB1206850E8030F85
:102CC000216820F4807041E8030292B1206850E846
:102CD000030F216820F4807041E803024AB12068A4
:102CE00050E8030F216820F4807041E80302002AB5
:102CF000DAD1206850E8050F216820F0010041E892
:102D00000502DAB1206850E8050F216820F00100C3
:102D100041E8050292B1206850E8050F216820F0D3
:102D2000010041E805024AB1206850E8050F21681A
:102D300020F0010041E80502002ADAD1206850E8BD
:102D4000050F216820F0400041E80502DAB1206853
:102D500050E8050F216820F0400041E8050292B1DB
:102D6000206850E8050F216820F0400041E8050286
:102D70004AB1206850E8050F216820F0400041E882
:102D80000502002ADAD1202084F8420000202063C6
:102D9000206850E8030F216820F0100041E803028A
:102DA000DAB1206850E8030F216820F0100041E8F4
:102DB000030292B1206850E8030F216820F0100050
:102DC00041E803024AB1206850E8030F216820F06F
:102DD000100041E80302002ADAD1E06BFDF7FEFEA5
:102DE00002206063A08DE18D401A81B2204674E11B
:102DF000626C42F0010262644A0706D5BEF1000F20
:102E000003D0626C42F0020262648A0706D5BEF10A
:102E1000000F03D0626C42F004026264BCF1000F48
:102E200009D545EA0E02B2FA82F2520903D1626C68
:102E300042F008026264626C002A3FF41BAF11F09A
:102E4000200118BF002D03D0204602F09BFA206815
:102E50004069616C00F0400001F00801401800F08A
:102E6000B58000BF206850E8030F216820F49070FF
:102E700041E80302BAB3206850E8030F216820F448
:102E8000907041E8030272B3206850E8030F216894
:102E900020F4907041E803022AB3206850E8030F41
:102EA000216820F4907041E80302002ADAD11AE088
:102EB000206850E8050F216820F0010041E8050274
:102EC000DAB1206850E8050F216820F0010041E8E0
:102ED000050292B1206850E8050F216820F001003A
:102EE00041E805024AB1206850E8050F216820F04A
:102EF000010041E80502002ADAD1206B012824D123
:102F0000206850E8030F216820F0100041E8030218
:102F1000DAB1206850E8030F216820F0100041E882
:102F2000030292B1206850E8030F216820F01000DE
:102F300041E803024AB1206850E8030F216820F0FD
:102F4000100041E80302002ADAD1202084F8420070
:102F5000002020632068406940063FD5206850E883
:102F6000050F216820F0400041E80502DAB1206831
:102F700050E8050F216820F0400041E8050292B1B9
:102F8000206850E8050F216820F0400041E8050264
:102F90004AB1206850E8050F216820F0400041E860
:102FA0000502002ADAD1E06BC0B145F24511C0F646
:102FB00000014163FDF736FE00283FF45BAEE06B95
:102FC000416B02B0BDE8B040084700BF2046FFF7A4
:102FD000DFFD0020606402B0B0BD00BF204602B03B
:102FE000BDE8B040FFF7D4BD401A216851E8031F87
:102FF000226821F4907142E80313DBB1216851E8A3
:10300000031F226821F4907142E8031393B12168F1
:1030100051E8031F226821F4907142E803134BB179
:10302000216851E8031F226821F4907142E80313DC
:10303000002BDAD1216851E8051F226821F0010137
:1030400042E80513DBB1216851E8051F226821F031
:10305000010142E8051393B1216851E8051F226878
:1030600021F0010142E805134BB1216851E8051F29
:10307000226821F0010142E80513002BDAD120215A
:1030800084F8421000212163216851E8031F22685F
:1030900021F0100142E80313DBB1216851E8031F5E
:1030A000226821F0100142E8031393B1216851E82E
:1030B000031F226821F0100142E803134BB121687D
:1030C00051E8031F226821F0100142E80313002B8E
:1030D000DAD1022281B22046626302B0BDE8B0407C
:1030E000FFF754BD216A31F8022B6FF35F22426073
:1030F00021628CE5002804BF0120704710B504460A
:1031000090F8410028B9002084F84000204600F0E3
:1031100063F8242084F841002068D4E90212C368CF
:1031200023F40053C360036923F440531A4302613C
:10313000D4E904231143C268194341F20C639A4352
:103140001143C1604169A26921F44071114343F602
:103150000002C4F201029042416103D0FEF780FCFC
:1031600002E000BFFEF790FC62681921484391001D
:10317000B0FBF1F048F21F51C5F2EB11A0FB0123A7
:103180005A094FF69C73C0F6FF7302FB030032230B
:1031900003EB0010A0FB0101F02303EA51132068A8
:1031A00003EB0212C1F3431111448160016921F460
:1031B00090410161416921F02A014161C16841F4F6
:1031C0000051C16000202021606484F8411084F81F
:1031D0004210606310BD00002DE9F04385B0044645
:1031E000006844F20041C4F20001002788420497BD
:1031F000CDE90277019739D043F60001C4F201010D
:10320000884240F09C8041F21800C4F2020001683C
:1032100040F6000441F4804101600168C4F20104F9
:1032200001F4804100910099016801AD41F0040171
:1032300001600068294600F00400009000984FF4F7
:103240000070019002200290032004902046FDF7B8
:1032500091FF4FF4806001900020CDE902002046EC
:103260002946FDF787FF252461E000BF41F21800E1
:10327000C4F20200416840F6000541F400314160AB
:103280004168C4F2010501F4003100910099016820
:1032900001AE41F004010160006840F26C0800F0EA
:1032A0000400009000980420019002200290032066
:1032B000049028463146C4F20208FDF75BFF08205F
:1032C000CDE90107284631460397FDF753FF40F249
:1032D0004C15C2F2000580264FF480592846C5E9F6
:1032E0000087C5E90276C5E90477C5E90679FDF7E7
:1032F000C3FD002818BFFDF76BFCE5636C6240F26C
:10330000901508F11400C2F200051021002285E892
:1033100047002846C5E90422C5E90629FDF7ACFDAA
:10332000002818BFFDF754FCA5636C6226242046D4
:1033300000210022FEF778FA2046FEF761FA05B078
:10334000BDE8F0837047000070B5044690F8410076
:1033500020281CBF022070BD00294FF001004DD075
:10336000002A134608BF70BD4FF0000C21202162D7
:10337000A384E384C4F844C084F841002268A06BAD
:1033800045F2CD2E45F27D3545F25116C0F6000EC0
:10339000C0F60005C0F600060432C0E90AE5C0E93F
:1033A0000C6CFDF7ADFD20686FF04001016000BFBF
:1033B000206850E8050F216840F0800041E80502D0
:1033C000F2B1206850E8050F216840F0800041E824
:1033D0000502AAB1206850E8050F216840F080007E
:1033E00041E8050262B1206850E8050F216840F00D
:1033F000800041E80502002ADAD1002070BD00BF3C
:10340000002070BD7047000070470000FEE700001C
:10341000F0B581B040F2A805C2F20005044600688C
:10342000E96A88421CD1207F95F83410884217D170
:10343000287C012816D098B9296B2046FFF78AFB13
:10344000296BE861002945D0082947D0042919BF14
:103450004FF400506FF4005120206FF0A00141E0C4
:1034600001B0F0BD296B2046FFF774FB698AD5E9EE
:1034700006232E6B02FB0101C81AC5E90810FDF7EF
:103480004FF948F28043C4F22E1300220027FDF7C3
:1034900081F844F20003C4F275030022FDF708F836
:1034A0000023C3F6E0730022FDF702F80023C4F204
:1034B00059030022FCF7FCFFFDF78AF9082EA862E9
:1034C0002F741DD0042E21D036BB2068016A21F054
:1034D0000A0125E002206FF00A0103E04FF40070BA
:1034E0006FF400712268136A19401162116A08436F
:1034F0001062002068820120287401B0F0BD00BF76
:103500002068016A21F400710AE000BF2068016AA6
:1035100021F0A00104E000BF2068016A21F40051FD
:103520000162016A016201B0F0BD00002DE9F043C3
:1035300083B0044600680D4601680A9F0B9E41F463
:10354000807199469046016020464FF0011100229B
:103550003B46009600F0AEF850B120680068C00508
:1035600044BF4FF400702064032003B0BDE8F08333
:10357000206805F0FE0101610221C0F20101204630
:103580003A46334600F080F920B1012003B0BDE88F
:10359000F08300BF0020029020683246416902910A
:1035A0008069394602900298204600F0DDF958B152
:1035B000206C0428E9D12068016841F400710160A1
:1035C000012003B0BDE8F0832068B9F1010F0AD0F3
:1035D0004FEA1821016120463946324600F0C4F90D
:1035E0000028E5D120685FFA88F10161002003B06E
:1035F000BDE8F08370B50368044653F8140F400724
:1036000011D40E46481C29D086BB00BF186840055F
:1036100027D4FDF7C9FE236853F8140F400739D5A6
:1036200018684007F2D5002070BD00BF1868400739
:10363000F9D41868400514D418684007F3D4186802
:1036400040050ED418684007EDD41868400508D42A
:10365000186840074FF0000048BF70BD186840056B
:10366000E4D56FF480601860042014E0154603E090
:1036700053F8140F4007D6D418684005F1D4FDF76D
:1036800093FE401B2368B042F2D958694007EFD43B
:10369000202000E0202000212022216384F83D200A
:1036A00084F83E10226C10432064012084F83C1002
:1036B00070BD00002DE9F041054600681E46144625
:1036C00001F47F0201338FB242D0DDF81880B2F5E9
:1036D000803F40F0878040693840C01BB0FA80F0DE
:1036E0004009A04240F0C8804EB924E0406938400B
:1036F000C01BB0FA80F04009A04240F0BD80FDF749
:1037000053FEA0EB08012868B142EFD94169394066
:10371000C91BB1FA81F14909A142E7D19BE000BF81
:1037200040693840C01BB0FA80F04009A0424FF019
:10373000000040F0A680FDF737FE28684169394057
:10374000C91BB1FA81F14909A142E9D183E000BF67
:10375000B2F5803F24D100BF41693940C91BB1FA9D
:1037600081F14909A14240F0878041693940C91B74
:10377000B1FA81F14909A14240F07E8041693940A6
:10378000C91BB1FA81F14909A14275D1416939409A
:10379000C91BB1FA81F14909A142DDD06CE000BF3B
:1037A00081693940C91BB1FA81F14909A14263D14C
:1037B00081693940C91BB1FA81F14909A1425BD144
:1037C00081693940C91BB1FA81F14909A14253D13C
:1037D00081693940C91BB1FA81F14909A142DFD0A1
:1037E0004AE000BF80693840C01BB0FA80F0400951
:1037F000A04241D146B923E080693840C01BB0FAED
:1038000080F04009A0423BD1FDF7CEFDA0EB0801BE
:103810002868B142F0D981693940C91BB1FA81F1F8
:103820004909A142E8D116E080693840C01BB0FACE
:1038300080F04009A0424FF0000018BFBDE8F081C1
:10384000FDF7B2FD286881693940C91BB1FA81F1E1
:103850004909A142E8D100202021286385F83D10C4
:1038600085F83E00296C41F02001296485F83C0070
:103870000120BDE8F08100BF0020BDE8F08100BF5D
:103880000020BDE8F0810000F0B581B0044600687A
:103890001D4643698FB203EA0701B94202D10020F5
:1038A00001B0F0BD41691646013201F4806125D0B6
:1038B000002940D1CEB100BFFDF776FD411B206845
:1038C000B14203D941693940B9424BD141693940CC
:1038D000B942E4D041694905EED52CE0416939404F
:1038E000B942DCD04169490525D4FDF75DFD20686A
:1038F00041693940B942F1D0202024E0D9B9416969
:103900003940B942CBD04169490514D441693940A5
:10391000B942C4D0416949050DD441693940B94221
:10392000BDD04169490506D441693940B942B6D094
:1039300041694905E3D5016841F4007101606FF404
:1039400080614161042000212022216384F83D2010
:1039500084F83E10226C1043206484F83C1001204F
:1039600001B0F0BD2020EEE770B50368044653F8BF
:10397000140F000611D40E46481C29D086BB00BF88
:103980001868400527D4FDF70FFD236853F8140F7E
:10399000000639D518680006F2D5002070BD00BFBA
:1039A00018680006F9D41868400514D41868000691
:1039B000F3D4186840050ED418680006EDD41868D2
:1039C000400508D4186800064FF0000048BF70BDDD
:1039D00018684005E4D56FF480601860042014E096
:1039E000154603E053F8140F0006D6D418684005B6
:1039F000F1D4FDF7D9FC401B2368B042F2D95869D5
:103A00000006EFD4202000E02020002120222163A6
:103A100084F83D2084F83E10226C1043206401207D
:103A200084F83C1070BD0000F0B585B041F218007C
:103A3000C4F20200016840F6004441F00801016050
:103A40000068C4F2010400F00800019001984FF4EE
:103A5000806001AD01900326112720462946049677
:103A60000297FDF787FB4FF40060CDE90107204680
:103A700029460496FDF77EFB20464FF400610022A4
:103A8000FDF78CFC20464FF480610122FDF786FC97
:103A900020464FF400610122FDF780FC05B0F0BD27
:103AA0002DE9F04F83B040F60045C4F201050190C6
:103AB00028464FF480610122FDF770FC28464FF440
:103AC0000061FDF765FC029028464FF480610022FA
:103AD000FDF764FC28464FF480610122FDF75EFC8F
:103AE00028464FF40061FDF753FC824628464FF408
:103AF00080610022FDF752FC28464FF480610122CC
:103B0000FDF74CFC28464FF40061FDF741FC83466D
:103B100028464FF480610022FDF740FC28464FF410
:103B200080610122FDF73AFC28464FF40061FDF761
:103B30002FFC044628464FF480610022FDF72EFC3E
:103B400028464FF480610122FDF728FC28464FF4F7
:103B50000061FDF71DFC064628464FF480610022F7
:103B6000FDF71CFC28464FF480610122FDF716FC8E
:103B700028464FF40061FDF70BFC074628464FF43A
:103B800080610022FDF70AFC28464FF48061012283
:103B9000FDF704FC28464FF40061FDF7F9FB804671
:103BA00028464FF480610022FDF7F8FB28464FF4C9
:103BB00080610122FDF7F2FB28464FF40061FDF71A
:103BC000E7FB814628464FF480610022FDF7E6FBC3
:103BD0000198C8B128464FF400610022FDF7DEFBD2
:103BE00028464FF480610122FDF7D8FB28464FF4A8
:103BF00080610022FDF7D2FB28464FF400610122CC
:103C0000FDF7CCFB12E000BF28464FF40061012213
:103C1000FDF7C4FB28464FF480610122FDF7BEFB8F
:103C200028464FF480610022FDF7B8FB0298002877
:103C300018BF0120BAF1000F18BF4FF0010A4AEA7D
:103C400040008000BBF1000F18BF4FF0010B40EAAD
:103C50004B00002C18BF012420448000002E18BF08
:103C6000012640EA4600002F18BF01273844800093
:103C7000B8F1000F18BF4FF0010840EA4800B9F151
:103C8000000F18BF4FF001094844C0B203B0BDE8AF
:103C9000F08F0000B0B540F60044C4F201040546C0
:103CA000C20920464FF40061FDF778FB20464FF42F
:103CB00080610122FDF772FB20464FF480610022F3
:103CC000FDF76CFBC5F3801220464FF40061FDF751
:103CD00065FB20464FF480610122FDF75FFB204623
:103CE0004FF480610022FDF759FBC5F340122046D6
:103CF0004FF40061FDF752FB20464FF48061012232
:103D0000FDF74CFB20464FF480610022FDF746FB97
:103D1000C5F3001220464FF40061FDF73FFB20463B
:103D20004FF480610122FDF739FB20464FF480619A
:103D30000022FDF733FBC5F3C00220464FF40061BB
:103D4000FDF72CFB20464FF480610122FDF726FB96
:103D500020464FF480610022FDF720FBC5F380026E
:103D600020464FF40061FDF719FB20464FF48061B7
:103D70000122FDF713FB20464FF480610022FDF77E
:103D80000DFBC5F3400220464FF40061FDF706FB32
:103D900020464FF480610122FDF700FB20464FF4DE
:103DA00080610022FDF7FAFA05F0010220464FF487
:103DB0000061FDF7F3FA20464FF480610122FDF720
:103DC000EDFA20464FF480610022FDF7E7FA204625
:103DD0004FF400610122BDE8B040FDF7DFBA0000FA
:103DE00010B540F60044C4F2010420464FF40061CF
:103DF0000122FDF7D3FA20464FF480610122FDF73E
:103E0000CDFA20464FF400610022FDF7C7FA2046A4
:103E10004FF480610022BDE81040FDF7BFBA0000FA
:103E200010B540F60044C4F2010420464FF400618E
:103E30000022FDF7B3FA20464FF480610122FDF71E
:103E4000ADFA20464FF400610122BDE81040FDF7B5
:103E5000A5BA0000B0B540F60044C4F20104204603
:103E60004FF400610122FDF799FA20464FF480617A
:103E70000122FDF793FA20464FF40061FDF788FA1E
:103E80000546002820464FF480614FF0000218BF1D
:103E90000125FDF783FA2846B0BD000070B540F259
:103EA000184040F28405C2F20000C2F20005016829
:103EB000EA68891A322901D270BD00BF006840F655
:103EC0000044C4F20104E860204601210126FDF708
:103ED0005FFA38B120460221FDF75AFA0026002881
:103EE00008BF032628782E7026EA0000012805D096
:103EF000032818BF70BDF62001E000BF0A2040F281
:103F0000FE01C2F200010A7810440870BDE870405A
:103F100000F0EEBB70B582B014460D4606460DF1BA
:103F2000020368203B21062200F096F810B102B08F
:103F300070BD00BFBDF80210BDF8042009BA090C1D
:103F4000318011BABDF80620090C298011BA090C7C
:103F5000218002B070BD000070B582B014460D46DD
:103F600006460DF1020368204321062200F074F892
:103F700010B102B070BD00BFBDF80210BDF8042042
:103F800009BA090C318011BABDF80620090C298044
:103F900011BA090C218002B070BD000010B5FFF706
:103FA00043FD6B20802100F08FF86420FCF7F6FFC2
:103FB0006B20002100F088F81B20182100F084F805
:103FC0001C20002100F080F81920092100F07CF865
:103FD0001A20032100F078F83820002100F074F84E
:103FE0006A20002100F070F82320002100F06CF816
:103FF0003720802100F068F8FFF7F2FED020FFF7AD
:1040000049FEFFF727FF7520FFF744FEFFF722FF69
:10401000FFF7E6FED120FFF73DFEFFF71BFF002074
:10402000FFF73EFD0446FFF7FBFE682C1CBF012096
:1040300010BD6B20012100F047F86C200021002406
:1040400000F042F81920092100F03EF81A2003215F
:1040500000F03AF8204610BDF0B581B01C46154678
:104060000E460746FFF7BCFE7F00F8B2FFF712FED0
:10407000FFF7F0FE30B10124FFF7D2FE204601B079
:10408000F0BD00BF3046FFF705FEFFF7E3FEFFF788
:10409000A7FE47F00100C0B2FFF7FCFDFFF7DAFE14
:1040A00006E000BF0020FFF7FBFC04F8010B013D18
:1040B000E8B20128F6D008B10120F4E70024FFF7A8
:1040C000AFFE204601B0F0BDB0B50C460546FFF787
:1040D00087FED020FFF7DEFDFFF7BCFE20B1FFF723
:1040E0009FFE0120B0BD00BF2846FFF7D3FDFFF7BC
:1040F000B1FE2046FFF7CEFDFFF7ACFE04460028D8
:1041000018BF0124FFF78CFE2046B0BDF0B581B08A
:104110001C4615460E460746FFF762FE7800C0B201
:10412000FFF7B8FDFFF796FE30B10124FFF778FEE8
:10413000204601B0F0BD00BF3046FFF7ABFDFFF7F2
:1041400089FE55B12078FFF7A5FDFFF783FE002813
:10415000EBD1013D04F10104F4D10024FFF760FE2E
:10416000204601B0F0BD000080B582B041F21400DD
:10417000C4F20200016840F2080E41F00101016042
:104180000068C4F2020E00F001000190019840F2B4
:104190000810C2F200004FF4804240234FF0800C20
:1041A0000021C0E900E2C0E9023CC0E90411C0E915
:1041B0000611FCF761FE002818BFFCF709FD10206E
:1041C00000210022FDF730FB1020FDF719FB112024
:1041D00000210022FDF728FB112002B0BDE880403D
:1041E000FDF70EBB2DE9F04F85B041F21800C4F287
:1041F0000200016840F6004841F0100101600168CA
:10420000C4F2010801F0100101910199016808F55B
:10421000806741F0200101600168012201F0200166
:104220000191019901684FF4005541F004010160CA
:104230000168012401F0040101910199016841F034
:104240000801016000684FF4005100F0080001907F
:1042500001983846FDF7A2F8A8F58066304672212D
:1042600000224FF0720A4FF00009FDF797F8404620
:104270004FF440610122FDF791F840464FF41041A0
:104280000022FDF78BF8CDE9015401AD4FF0020B90
:1042900038462946CDF80C90CDF810B0FCF76AFFEF
:1042A0000020C1F22100CDE90204304629460194E4
:1042B000FCF760FF30462946CDE901A4CDE9039B18
:1042C000FCF758FF032640462946CDE901690394CF
:1042D000FCF750FF4FF480600190112740462946BB
:1042E000CDE902740494FCF745FF4FF40060CDE97A
:1042F000010740462946CDE90346FCF73BFF4FF452
:10430000104001A981E8110A40462946FCF732FF16
:10431000062000210022FDF787FA0620FDF770FA3B
:1043200005B0BDE8F08F000080B540F2D41045F232
:104330000041C2F20000C4F2000141F680220023D5
:104340004FF4804CC0F2060280E80E00C0E9033C46
:10435000C0E90533C0E90733FDF72CF8002808BF92
:1043600080BDBDE88040FCF733BC000070B59CB058
:1043700042F6004540F22820C4F201050021C2F2B5
:10438000000041F61F4280231691CDE914111191CE
:10439000CDE90F11CDE90D11CDE90B11CDE90911D1
:1043A000CDE90711CDE90511CDE90311CDE90111E1
:1043B000C0E90051C0E90212C0E904118361FDF7B0
:1043C000CFFD002818BFFCF703FC4FF4805013907A
:1043D00040F22820C2F2000013A9FDF7C7FE002812
:1043E00018BFFCF7F5FB40F22820C2F20000FEF7F0
:1043F000C5FA002818BFFCF7EBFB40F22820002488
:10440000C2F2000010A9CDE91044FDF76BFD0028B1
:1044100018BFFCF7DDFB6020CDE9090440F228203D
:10442000C2F2000009A90022CDE90B44CDE90D44F8
:104430000F94FEF79DF9002818BFFCF7C9FB40F266
:104440002820C2F2000009A90C22FEF791F90028E9
:1044500018BFFCF7BDFB40F228244FF40050C2F215
:1044600000040026069001A920460596CDE90366C2
:10447000CDE901660896FDF70FFD002818BFFCF78F
:10448000A7FB20681A96A84202D01CB070BD00BFDE
:1044900041F21800C4F20200016841F00401016019
:1044A000006818A900F00400179017984FF41060E6
:1044B0001890022019901B90A5F51050FCF75AFE99
:1044C0001CB070BD80B586B040F270200021C2F2F1
:1044D000000042F20F7C0591CDE90311CDE90011F6
:1044E0004FF080424723C0E9021C01618021C0E9EE
:1044F00000238161FDF734FD002818BFFCF768FB3D
:104500004FF48050029040F27020C2F2000002A9E5
:10451000FDF72CFE002818BFFCF75AFB40F2702074
:10452000C2F200006946FDF7DDFC002818BFFCF769
:104530004FFB06B080BD000080B58CB040F2B820C3
:1045400040F200420021C2F20000C4F20002C0E9C1
:10455000002103224FF6FF73CDE903210122CDE9AB
:104560000011C0E9021301618161CDE90521CDE9A6
:104570000711CDE909210B9103A9FDF7C5FE00281C
:1045800018BFFCF725FB40F2B820C2F200006946D4
:10459000FDF7A8FC002818BFFCF71AFB0CB080BD83
:1045A00080B58CB040F2003040F600020021C2F22B
:1045B0000000C4F20002C0E9002103224FF6FF739D
:1045C000CDE903210122CDE90011C0E90213016107
:1045D0008161CDE90521CDE90711CDE909210B91D3
:1045E00003A9FDF791FE002818BFFCF7F1FA40F28D
:1045F0000030C2F200006946FDF774FC002818BFC5
:10460000FCF7E6FA0CB080BD80B540F2483043F6C6
:104610000001C2F20000C4F2010100234FF00C0CB3
:104620004FF4E13280E80E00C0E90333C0E905C36E
:10463000C361FEF75FFD002808BF80BDBDE8804074
:10464000FCF7C6BA80B540F2903044F20041C2F2A5
:104650000000C4F2000100234FF00C0C4FF4E132D3
:1046600080E80E00C0E90333C0E905C3C361FEF76B
:1046700041FD002808BF80BDBDE88040FCF7A8BA16
:10468000FEE70000F0B581B040F2B824C2F20004A9
:10469000204600210027FDF751FF20460421FDF7A9
:1046A0004DFF40F20035C2F2000528460021FDF71B
:1046B00045FF28460421FDF741FF40F27020C2F279
:1046C0000000FDF71BFD40F22826C2F2000630462E
:1046D0000021FEF7CDF930460C21FEF7C9F920681C
:1046E00047622868476201B0F0BD0000FEE70000A5
:1046F000002000F001B800002DE9F04F85B040F235
:10470000D415044664270126C2F200050DF11208F3
:104710000DF113094FF0000A0AF1B0008DF81000F6
:1047200004A8CDE90006284678210022012302973B
:10473000FCF7FCFE00208DF811000DF11100CDE911
:10474000000628467821002201230297FCF7EEFE9E
:1047500010208DF812002846782100220123CDE98F
:1047600000860297FCF7E2FE4FF0000B2846782106
:10477000402201238DF81340CDE900960297FCF703
:10478000D5FE0BF101004FFA80FBBBF1FF3FEDDCE2
:10479000BAF1070F0AF1010ABED305B0BDE8F08FE8
:1047A0002DE9F04784B064206425FCF7F7FB40F264
:1047B000D414AE20C2F200048DF80F0001260DF1D2
:1047C0000F072046782100220123CDE900760295CB
:1047D0004FF00009FCF7AAFE4FF020082046782190
:1047E000002201238DF80F80CDE900760295FCF7B9
:1047F0009DFE4FF0100A20467821002201238DF8FB
:104800000FA0CDE900760295FCF790FEB0208DF860
:104810000F002046782100220123CDE90076029581
:10482000FCF784FEC8208DF80F0020467821002276
:104830000123CDE900760295FCF778FE2046782129
:10484000002201238DF80F90CDE900760295FCF748
:104850006DFE20467821002201238DF80FA0CDE9BE
:1048600000760295FCF762FE40208DF80F0020468E
:10487000782100220123CDE900760295FCF756FE4F
:1048800081208DF80F002046782100220123CDE9F8
:1048900000760295FCF74AFEFF208DF80F002046B7
:1048A000782100220123CDE900760295FCF73EFE37
:1048B000A1208DF80F002046782100220123CDE9A8
:1048C00000760295FCF732FEA6208DF80F002046F8
:1048D000782100220123CDE900760295FCF726FE1F
:1048E000A8208DF80F002046782100220123CDE971
:1048F00000760295FCF71AFE3F208DF80F00204647
:10490000782100220123CDE900760295FCF70EFE06
:10491000A4208DF80F002046782100220123CDE944
:1049200000760295FCF702FED3208DF80F0020469A
:10493000782100220123CDE900760295FCF7F6FDEF
:1049400020467821002201238DF80F90CDE90076D2
:104950000295FCF7EBFDD5208DF80F00204678215D
:1049600000220123CDE900760295FCF7DFFDF0205F
:104970008DF80F002046782100220123CDE9007632
:104980000295FCF7D3FDD9208DF80F002046782141
:1049900000220123CDE900760295FCF7C7FD222015
:1049A0008DF80F002046782100220123CDE9007602
:1049B0000295FCF7BBFDDA208DF80F002046782128
:1049C00000220123CDE900760295FCF7AFFD12200D
:1049D0008DF80F002046782100220123CDE90076D2
:1049E0000295FCF7A3FDDB208DF80F00204678210F
:1049F00000220123CDE900760295FCF797FD2046C1
:104A00007821002201238DF80F80CDE900760295F0
:104A1000FCF78CFD8D208DF80F00204678210022B8
:104A20000123CDE900760295FCF780FD14208DF876
:104A30000F002046782100220123CDE9007602955F
:104A4000FCF774FDAF208DF80F002046782100227E
:104A50000123CDE900760295FCF768FD0020FFF701
:104A60004BFE04B0BDE8F08710B540F2184040F2AC
:104A70005004C2F20000C2F2000401682268891AE0
:104A8000642938BF10BD006844F8040B40F21040A0
:104A9000C2F200000068FBF788FE02460B4628A120
:104AA000204603F04BFA002000212246012300F0AB
:104AB0007DF840F21440C2F200000068FBF775FE7A
:104AC00002460B4623A1204603F038FA00200121BC
:104AD0002246012300F06AF840F21C40C2F20000B6
:104AE0000068FBF762FE02460B461FA1204603F05A
:104AF00025FA002002212246012300F057F840F257
:104B0000F430C2F20000C2681CA1204603F016FA7D
:104B1000002004212246012300F048F840F2D8305A
:104B2000C2F20000C2681BA1204603F007FA002071
:104B3000062122460123BDE8104000F037B800BF2F
:104B40002020207069746368203D202530342E3287
:104B500066200000202020726F6C6C203D202530E4
:104B6000342E326620000000202020796177203D1D
:104B7000202530342E326620000000005370656519
:104B80006432203D20256420202020202020202069
:104B900000000000537065656431203D20256420CD
:104BA0002020202020202020000000002DE9F04FB0
:104BB0008BB00F46012B0646079200F07381022B43
:104BC00040F02C8207980078002800F0278240F2FD
:104BD000D4180021C2F200080691A0F1200B782E13
:104BE00088BF0137A7F15000059788BF00268DF8D0
:104BF000240009A80090012001904046782100225D
:104C000001236427012502976424FCF78FFC102000
:104C100040EA161004908DF825000DF12500CDE92D
:104C200000054046782100220123012502946424D6
:104C3000FCF77CFC06F00E00013003908DF8260096
:104C40000DF12600CDE90005404678210022012320
:104C5000012702946424FCF769FC5FFA8BF049F2A7
:104C60004E320101C0F60002515C02EB001B8DF8D0
:104C700027100DF127054046782140220123CDE978
:104C8000005702946424FCF751FC9BF801009BF848
:104C900002908DF8270001209BF803A09BF8047078
:104CA0000190404678214022012300950294FCF7B0
:104CB0003DFC0120019040467821402201238DF8DF
:104CC000279000954FF001090294FCF72FFC404615
:104CD0007821402201238DF827A0CDE900594FF01B
:104CE00001090294FCF722FC8DF82770059F4046CD
:104CF000782140220123CDE900590294FCF716FCEB
:104D00009BF8050078218DF82700404640220123BA
:104D1000CDE900590294FCF709FC9BF806007821C4
:104D20008DF82700404640220123CDE90059029426
:104D3000FCF7FCFB9BF8070078218DF82700404624
:104D400040220123CDE900590294FCF7EFFBA7F1C3
:104D50004F008DF828000AA8CDE9000940467821C7
:104D6000002201230294FCF7E1FB049878218DF8DE
:104D700029000DF12900CDE9000940460022012358
:104D80000294FCF7D3FB039878218DF82A000DF1EB
:104D90002A00CDE9000940460022012302944FF089
:104DA0006409FCF7C3FB9BF808000DF12B058DF897
:104DB0002B000124404678214022012300950194D4
:104DC000CDF80890FCF7B2FB9BF8090078218DF82C
:104DD0002B00404640220123CDE900544FF0010A48
:104DE000CDF80890FCF7A2FB9BF80A0078218DF81B
:104DF0002B00404640220123CDE9005ACDF808900F
:104E0000FCF794FB9BF80B0078218DF82B004046B3
:104E100040220123CDE9005ACDF80890FCF786FB2B
:104E20009BF80C0078218DF82B004046402201238E
:104E3000CDE9005ACDF80890FCF778FB9BF80D00FF
:104E400078218DF82B00404640220123CDE9005AFD
:104E5000CDF80890FCF76AFB9BF80E0078218DF8DE
:104E60002B00404640220123CDE9005ACDF808909E
:104E7000FCF75CFB9BF80F0078218DF82B00404677
:104E800040220123CDE9005ACDF80890FCF74EFBF3
:104E90000699079A0131C8B2105C083600287FF4E1
:104EA0009BAEBBE007980078002800F0B780002296
:104EB0000692A0F120087E2E84BF01370026A7F1BC
:104EC00050008DF8200008A840F2D41B009001206B
:104ED000C2F2000B0190584678210022012364247D
:104EE000012502946424FCF721FB102040EA1610EF
:104EF0008DF821000DF12100CDE9000558467821FB
:104F000000220123012502946424FCF70FFB06F024
:104F10000E0001308DF822000DF12200CDE90005D0
:104F2000584678210022012302946424FCF7FEFAFB
:104F30005FFA88F049F2261200EB4000C0F600024A
:104F400012F8101002EB400901208DF823100DF12A
:104F5000230A01905846782140220123CDF800A071
:104F60005D4602946424FCF7E1FA99F8010099F88F
:104F700004108DF82300012099F8028099F803B0FD
:104F8000059101902846782140220123CDF800A008
:104F90000294FCF7CBFA8DF8238001242846A8461A
:104FA0007821402201236425CDF800A001940295C8
:104FB000FCF7BCFACDE900A4404678214022012349
:104FC00064248DF823B04FF0010B45460294FCF7A2
:104FD000ADFA059878218DF8230028464022012358
:104FE000CDE900AB4FF0010802946424FCF79EFA6F
:104FF00099F8050078218DF82300284640220123E6
:10500000CDE900A80294FCF791FA069A07990132BB
:10501000D0B2085C063600287FF44AAF0BB0BDE87A
:10502000F08F000040F2E0000021C2F20000C4F264
:105030009631016046F26661C3F6A67181607047E1
:105040002DE9F04381B040F6000800284FF000063B
:10505000C4F201080C460746C8BF012601284FF0DC
:10506000000240464FF002014FF00005B8BF012298
:10507000FCF794F9404610213246FCF78FF940F2D4
:105080002829C2F20009002F48BF7F42D9F800004A
:10509000002C4FF000064763C8BF0126012CB8BFA3
:1050A0000125404640212A46FCF778F94046202158
:1050B0003246FCF773F9002C48BF6442D9F800006F
:1050C000046401B0BDE8F083704700000146032886
:1050D0004FF0000008D0042918BF704740F200319B
:1050E000C2F2000104E000BF40F2B821C2F20001A8
:1050F00009684A6A486210B27047000070470000B1
:10510000FCF7FEBA7047000040F27020C2F20000C7
:10511000FDF774BA40F2B820C2F20000FDF76EBA93
:1051200040F20030C2F20000FDF768BA80B5FBF72C
:10513000E6FA0023CBF6D0730022FBF7B9F9FBF7B0
:1051400015FB80BD406A0021C185C184FDF720BDEB
:10515000406A01684A6990F84130212B2DD112F044
:1051600080022AD00021C184016851E8031F02682F
:1051700021F0C00142E80313DBB1016851E8031FCD
:10518000026821F0C00142E8031393B1016851E8BD
:10519000031F026821F0C00142E803134BB101680C
:1051A00051E8031F026821F0C00142E80313002BFD
:1051B000DAD1202180F841100168496990F8422035
:1051C000222A40F07D8011F0400179D00021C18574
:1051D000016851E8031F026821F4907142E803134B
:1051E000BBB3016851E8031F026821F4907142E8E3
:1051F000031373B3016851E8031F026821F490712F
:1052000042E803132BB3016851E8031F026821F43D
:10521000907142E80313002BDAD11AE0016851E8DB
:10522000051F026821F0010142E80513DBB10168A6
:1052300051E8051F026821F0010142E8051393B10E
:10524000016851E8051F026821F0010142E80513D9
:105250004BB1016851E8051F026821F0010142E8E5
:105260000513002BDAD1016B012924D1016851E823
:10527000031F026821F0100142E80313DBB101684B
:1052800051E8031F026821F0100142E8031393B1B3
:10529000016851E8031F026821F0100142E803137E
:1052A0004BB1016851E8031F026821F0100142E888
:1052B0000313002BDAD1202180F842100021016372
:1052C000416C41F010014164FDF762BC0168406A25
:1052D0000968890648BFFEF795B80021C18400BF60
:1052E000016851E8051F026821F0800142E80513BA
:1052F00083B3016851E8051F026821F0800142E88C
:1053000005133BB3016851E8051F026821F08001D5
:1053100042E80513F3B1016851E8051F026821F066
:10532000800142E80513002BDAD113E0016851E84F
:10533000031F026841F0400142E80313002B08BF3D
:105340007047016851E8031F026841F0400142E8DC
:10535000031393B1016851E8031F026841F0400153
:1053600042E803134BB1016851E8031F026841F0A2
:10537000400142E80313002BD8D17047406AFEF782
:1053800043B8000081B090F84210222921D18368EF
:105390000246B3F5805F09D152F8281F52F8183C35
:1053A000002B63D003685B680AE000BF52F8281F37
:1053B00013B90369002BF5D003685B6803F07F0322
:1053C0000B70116801311160C18D01390A04C1856A
:1053D00002D001B0704700BF0168CA6822F0200205
:1053E000CA60CA6822F48072CA604A6922F0010267
:1053F0004A61202180F8421000214163026B012A9A
:105400003CD10163016851E8031F026821F01001DB
:1054100042E80313DBB1016851E8031F026821F081
:10542000100142E8031393B1016851E8031F0268B9
:1054300021F0100142E803134BB1016851E8031F4A
:10544000026821F0100142E80313002BDAD1016851
:105450000A68D20606D5002200920A6800924968BE
:1054600000910099818D01B0FDF790BB02685268F0
:105470006FF35F2221F8022B8162A5E701B0FDF7EF
:1054800061BF000040F24830C2F20000FDF782BB6D
:1054900040F29030C2F20000FDF77CBBFEE7000056
:1054A0002DE9F04381B00844FBF71BF940F2840575
:1054B000C2F200050646D5E90104D5E90489FBF7E7
:1054C00010F943F23331C3F63371FAF7DAFE49F6D5
:1054D0009A110746C3F699613046FAF7D2FE39466B
:1054E000FAF777FEFBF729F90746204442F21076D7
:1054F000B042B8BF06464DF6F000CFF6FF708642C8
:10550000D8BF064640F21040C2F2000004680021F5
:10551000C4F2202120466F60FBF7C7F80021002865
:10552000CCF22021204618BF0026FBF7B0F8002857
:10553000384618BF0026AE60FBF7D3F80446304665
:10554000FBF7CFF801464846FAF79BFE0546404672
:105550002146FAF796FE2946FAF73BFEFBF7EDF8EF
:1055600001B0BDE8F083000070B51446024640F279
:10557000E00608461146C2F20006FAF77CFEB16862
:105580003568064608462146FAF77BFE044628465B
:105590003146FAF776FE2146FAF71BFEFBF7CDF807
:1055A00070BD00002DE9F04186B004464CF60220A3
:1055B000C0F6E3100DF10205CDF8020068200421C9
:1055C0002A4602F0FFFBA3206FF03F018DF8020096
:1055D00014F0400608BF6FF05C016FF037026FF007
:1055E0003D0308BF6FF05C0208BF6FF05C038DF8ED
:1055F00003106FF03B018DF804208DF8053014F492
:10560000C07708BF6FF05C016FF033026FF03903B1
:1056100008BF6FF05C0208BF6FF05C038DF80610E6
:105620004AF2A3318DF80720ADF809108DF80B0070
:1056300040F6A7200A212A468DF8083002F0C2FB66
:10564000202014F0030808BF6FF027008DF8020037
:1056500040F6B62001212A4602F0B4FBA0060BD486
:10566000C720059048F6B000CCF2C35004904AF62B
:10567000B820CAF6AA200AE05D20059049F6B400D9
:10568000C3F20D5004904AF6B820C8F6B350039008
:1056900003AA4FF49760092102F094FB2FB36FF037
:1056A0004D016FF0740214F4807008BF6FF04F0169
:1056B00008BF6FF07F026FF049036FF0640508BF09
:1056C0006FF04B03002808BF6FF06F058DF80210D4
:1056D0008DF803200DF1020240F6A22004218DF87E
:1056E00004308DF8055002F06DFBE00708D1D8209A
:1056F0008DF802000DF102024FF40B60012150E021
:10570000F8208DF802000DF102024FF40B60012128
:1057100002F058FB0720FA2100F006FB3F208DF82D
:105720000C0003AA4FF4A470012102F04BFB0020EF
:105730008DF80C0003AA40F24F10012102F042FB49
:105740004FF4A050ADF80C0003AA4FF4EF70022103
:1057500002F038FB4FF4C840ADF80C0003AA4FF438
:10576000ED70022102F02EFB48F60060C9F2F9004C
:10577000039003AA4FF4AE70042102F023FB4FF410
:105780000060ADF80C0003AA4FF4AD70022102F0E6
:1057900019FB4FF40070ADF80C0003AA4FF4AC7085
:1057A000022102F00FFBA0076FF0260058BF6FF038
:1057B00027008DF802000DF1020240F23D70012138
:1057C00002F000FB600752BF4FF08B304CF2C0205C
:1057D000CCF2C460039003AA40F69820042102F0A2
:1057E000F1FA01F0F3FAE00652BF4FF0A33042F6AF
:1057F0002000C3F63000039003AA40F69E20042147
:1058000002F0E0FA01F0E2FA40F2740544F0080018
:10581000C2F20005A88001F0D9FA002E18BF0626B2
:10582000002F18BF063614F0140F18BF46F01006EC
:10583000B8F1000F18BF043600202E7006B0BDE886
:10584000F081000049F65011C0F6000140F6F63034
:105850004FF48062C82301F0A7B800002DE9F04F93
:1058600089B01446DDE912A20F46002140F2740906
:10587000AAF80010C2F2000999F800100DF1040B0B
:105880008046084659461E4601F040FA20B14FF0C6
:10589000FF3009B0BDE8F08FB9F804C01CF0140F58
:1058A00052D09DF80520B6469DF80410BDF806605C
:1058B00012049DF8095042EA016132BA9DF808309D
:1058C00041EA1242BDF80A6022602A0442EA0362F9
:1058D00033BA42EA134363609DF80D309DF80C60C3
:1058E000BDF80E501B0443EA06632EBA43EA16467F
:1058F0001214A6609DF81160091452439DF81050CF
:1059000001FB012136041A1446EA056602FB021166
:10591000321402FB0211BDF812006FF088521144DC
:105920004FF6FE7200BACFF6FF5246EA104091429F
:10593000E06071D801F04AFA0020AAF800004FF0A8
:10594000FF3009B0BDE8F08F00215FEA4C6026D53A
:1059500041F001021BF801001BF8022041F0030393
:1059600042EA002041F002021BF802201BF803303B
:10597000388043EA022041F0040241F005031BF89D
:1059800002201BF80330788043EA0220B880BAF87E
:10599000000041F0060140F00800AAF800001CF4E5
:1059A000C07F18D03BF801000BEB010200BA53880E
:1059B000000CA8F8000018BA9288000CA8F80200A1
:1059C00010BA000CA8F80400BAF80000063140F044
:1059D0007000AAF800005FEA8C7016D00BEB01058E
:1059E0006878EC78C10709D0D9F8082032B104F002
:1059F0000700411CC4F3C20090476878000704D533
:105A0000D9F80C1009B1A0098847304600F0E8FC2D
:105A1000002009B0BDE8F08FBAF80000102140F472
:105A200080707646AAF800005FEA4C6090D4B6E732
:105A300010B584B004460DF1020000F0AFFE40F254
:105A4000F800C2F200000088BDF802C000F00302B6
:105A5000430754F822204FF00C0348BF524203EA98
:105A600050038106E358C0F3811148BF5B4254F8EC
:105A70002110C00548BF49424FEACC3080FB02C428
:105A800080FB03E280FB01014FEA9C73800F43EA35
:105A9000840C4FEA9E7340EA810EA00D8DF804003D
:105AA000A00B8DF80500A0098DF80600900D8DF86B
:105AB0000800900B8DF8090090098DF80A00880DF8
:105AC0008DF80C00880B8DF80D00880943EA8203DD
:105AD0008DF80E0001AA4FF425700C218DF807C037
