:020000040800F2
:1000000068080020010100088D520008ED46000834
:100010000D520008FD0A00083967000800000000C2
:100020000000000000000000000000003161000836
:1000300075130008000000008D600008F5610008DD
:100040001B0100081B0100081B0100081B01000820
:100050001B0100081B0100081B0100081B01000810
:100060001B0100081B0100081B0100081B01000800
:100070001B0100081B0100085D130008691300083C
:100080001B0100081B0100081B0100081B010008E0
:100090001B0100081B0100081B0100081B010008D0
:1000A0001B0100081B0100081B0100081B010008C0
:1000B000FD6100081B010008096200081B0100081F
:1000C0001B0100081B0100081B0100081B010008A0
:1000D0001B010008216700082D6700081B010008AC
:1000E0001B0100081B0100081B010008DFF80CD0F1
:1000F00000F096FC00480047D5680008680800201A
:100100000648804706480047FEE7FEE7FEE7FEE7B1
:10011000FEE7FEE7FEE7FEE7FEE7FEE7F96100081F
:10012000ED000008D2B201E000F8012B491EFBD21D
:1001300070470022F6E710B513460A4604461946F2
:10014000FFF7F0FF204610BD30B505462A460B46A6
:1001500012F8010B13F8014B08B1A042F8D01CB102
:10016000002802D06D1CF1E7284630BD421C10F873
:10017000011B0029FBD1801A7047F0B480EA01020C
:10018000D40F4200B2EB410F02D20246084611469C
:100190004A0042D0C30DDDB2C1F3C752AD1A202DC3
:1001A00035DAC1F3160141F4000204B15242C5F13F
:1001B000200602FA06F12A411044B3EBD05F23D0A7
:1001C000C4B1012DA0EBC35009DCF0BC4FF00042DC
:1001D00002EAC352DBB200F5000000F065BB40004C
:1001E00000F1807000EBC350A0F1807040EAD17044
:1001F000490009E0490841EAC071A0EBC35000F58D
:100200000000400800EBC350F0BC00F044BB61426A
:10021000012202EB4101001BF6E7F0BC704781F0C0
:100220000041AAE780F00040A7E780EA010210B58C
:1002300002F00043400022D04A001FD0010E01EB23
:100240001261C0F35600C2F3560240F4000042F4BB
:100250000002A0FB022000047F39140400D0401CDF
:1002600050EA124001D44000491EC2B20C0604EB11
:10027000D010401C4008802A02D003E0002010BDAE
:1002800020F00100002900DA0020184310BD30B42E
:1002900080EA010202F0004530F0004221F0004007
:1002A00013D090B1C30DD40DC2F31601C0F31600E4
:1002B000E41A41F4000140F400027D34914201D37C
:1002C000641C00E04900002C02DA30BC00207047BA
:1002D0004FF400000023914201D3891A03434008E0
:1002E0004FEA4101F7D151B1914202D14FF00041A3
:1002F00005E002D24FF0010101E06FF0010103EBD4
:10030000C450284430BC00F0C6BA2DE9FE4F8046E8
:1003100081EA0300C00F0C46009021F0004123F059
:100320000045B8EB0200A94105D24046214690465F
:100330001C460B46024623F00040104347D0270DD1
:10034000C7F30A00C3F30A510290401A01904028F3
:100350006BDAC3F3130040F4801B0098924620B17F
:100360000023D2EB030A63EB0B0B01985946C0F153
:100370004002504600F05EFA06460D465046594689
:10038000019A00F076FA10EB08006141002487EA38
:10039000115284EAE7731A4340D0009A62B3019A7B
:1003A000012A4FEA075215DC001B61EB02014FF0F6
:1003B000004202EA0752CDE90042001C41F58011DB
:1003C00032462B4600F0ADFA03B0BDE8F08F404650
:1003D0002146F9E7001B61EB0201001C41F5801387
:1003E00000185B412018A2F5001747EB030140EA13
:1003F000D570B6196D4111E06D084FEA360645EA31
:10040000C0754FEA0752001B61EB0201001C41F569
:10041000801149084FEA30000019514132462B46FD
:1004200003B0BDE8F04F00F06DBA00980122400023
:100430000023D0EB020263EBE073009821464FEA01
:10044000E074B8EB000061EB0401E9E783F00043DE
:100450005BE781F0004158E72DE9FE4F81EA030494
:1004600004F0004421F0004100944FF0000B23F011
:10047000004350EA01045ED052EA03045BD0C3F3A8
:100480000A54C1F30A552C44A4F2F3340194A0FB9E
:100490000254C1F3130141F48011C3F3130343F475
:1004A000801301FB024400FB034E840A970A44EACE
:1004B000815447EA8357A4FB076802958D0A05FB20
:1004C00007854FEA932C04FB0C542705029D4FEA45
:1004D000065847EA1637B5EB08056EEB070C870E92
:1004E000920E47EA811742EA8312A7FB0201B6EB9C
:1004F0000B0164EB00042B0D43EA0C335E1844EB54
:100500001C50DA465146E7FB0201C5F313044FEADB
:100510000B3343EA14534FEA0432019C43EA0603C7
:10052000A4F10C040294009CCDE900B400F0F9F9A8
:1005300003B0BDE8F08F00200146F9E72DE9F04D4A
:1005400081EA030404F0004B21F0004514464FF00B
:10055000000A23F0004150EA050220D054EA0102CB
:100560001DD0C5F30A570246C5F31303C1F31300A8
:10057000C1F30A5640F4801543F48013A7EB060834
:10058000101BD64608F2FD3873EB050002D308F1C4
:10059000010801E092185B41B8F1000F03DA002076
:1005A0000146BDE8F08D00204FF4801106468446D8
:1005B0000EE0171B73EB050705D3121B63EB050356
:1005C00006434CEA010C49084FEA300092185B419F
:1005D00050EA0107EDD152EA030012D082EA04008A
:1005E00083EA0501084305D0101BAB4106D2012266
:1005F000002306E000224FF0004302E06FF001020A
:1006000053101AEB06004CEB085110EB0A0041EBBB
:100610000B01BDE8F04D00F075B9002801DBC0F119
:100620000040002901DBC1F10041814201D20120DB
:10063000704700207047002801DBC0F1004000290E
:1006400001DBC1F10041814201D30120704700204C
:100650007047002801DBC0F10040002901DBC1F137
:100660000041814201D9012070470020704730B518
:10067000041E71F1000404DB4FF00044404264EBBF
:100680000101141E73F1000405DB1C464FF000430A
:10069000524263EB0403101A8B4101D3012030BD99
:1006A000002030BDC10F80EAE0700844CA079623DD
:1006B000002100F0F9B80EB5C10F80EAE0700844DF
:1006C000CA07002140F233438DE80E000A460B466C
:1006D00000F027F903B000BD00F0004220F0004018
:1006E000C10DC0F3160040F400007F2901DA00209C
:1006F0007047962903DCC1F19601C84001E09639A4
:100700008840002AF4D04042704770B5C1F30A52C5
:1007100001F000450024C1F3130140F2FF3341F41E
:1007200080119A4201DA002070BD40F233439A42B0
:10073000A2F2334203DC524200F08BF800E090401A
:100740002C43F1D0404270BD00F0004230F0004038
:100750000AD0C10D01F56071C0F3160042EA0151E3
:10076000C20840071143704700200146704701F05E
:10077000004330B421F0004150EA010206D00A0DD6
:10078000A2F56072C1F31301002A02DC30BC002024
:100790007047440F44EAC104C100E01830BC00EBCC
:1007A000C25000F078B830B50B4601460020202238
:1007B000012409E021FA02F59D4205D303FA02F56E
:1007C000491B04FA02F52844151EA2F10102F1DCCE
:1007D00030BD2DE9F05F0546002092469B468846D5
:1007E0000646814640241BE02846414647462246AD
:1007F00000F02FF853465A46C01A914110D31146C3
:100800001846224600F016F82D1A67EB01084F46ED
:1008100022460120002100F00DF817EB00094E419F
:10082000201EA4F10104DFDC484631462A46434637
:10083000BDE8F09F202A04DB203A00FA02F10020F4
:1008400070479140C2F1200320FA03F3194390400E
:100850007047202A04DB203A21FA02F00021704779
:1008600021FA02F3D040C2F1200291400843194618
:100870007047202A06DBCB17203A41FA02F043EA00
:10088000E07306E041FA02F3D040C2F12002914049
:100890000843194670470029A8BF7047401C49000B
:1008A00008BF20F00100704710B4B0FA80FC00FAD5
:1008B0000CF050EA010404BF10BC704749B1CCF100
:1008C000200421FA04F411FA0CF118BF012121438C
:1008D0000843A3EB0C01CB1D4FEA00614FEA102047
:1008E00042BF002010BC704700EBC35010440029E9
:1008F000A4BF10BC7047401C490008BF20F0010095
:1009000010BC704710B5141E73F1000408DA401CC7
:1009100041F1000192185B411A4301D120F001001E
:1009200010BD2DE9F04D92469B4611B1B1FA81F20E
:1009300002E0B0FA80F220329046FFF77BFF0446D7
:100940000F4640EA0A0041EA0B0153465A46084363
:1009500013D0114653EA010019D0C8F140025046A5
:10096000FFF777FF05460E46504659464246FFF7C9
:1009700061FF084305D0012004E020463946BDE868
:10098000F08D0020054346EAE0762C4337430A9871
:100990006305E40AA0EB08000022FD0A44EA47547C
:1009A0000A3002D500200146E9E701051019694126
:1009B000DDE9084500196941BDE8F04DA2E7C1F342
:1009C0000A52C1F3130140F2FF3341F480119A42FD
:1009D00002DA00200146704740F233439A42A2F205
:1009E000334202DC5242FFF734BFFFF723BF00005F
:1009F00030B5041E71F1000404DB4FF000444042A6
:100A000064EB0101141E73F1000405DB1C464FF07A
:100A10000043524263EB0403994208BF904230BD49
:100A2000064C074D06E0E06840F0010394E807003B
:100A300098471034AC42F6D3FFF75CFB8C7C00087F
:100A4000AC7C0008B0B582B004460020019021685B
:100A50008A68D2074FD1886840F00100886040F270
:100A60002800C2F2000000684DF68361C4F21B3119
:100A7000A0FB0101880C01900198A0B101980138F8
:100A80000190019878B1019801380190019850B116
:100A9000019801380190019828B10198013801901E
:100AA00001980028EAD101F0C9FB21688968C907CB
:100AB0001CD1054603E000BF8068C0071AD101F0D1
:100AC000BDFB411B20680329F6D38168C907F3D118
:100AD000A06A40F01000A062E06A40F00100E0620D
:100AE000002084F82400012002B0B0BD002002B034
:100AF000B0BD00BF002002B0B0BD0000FEE70000A6
:100B0000F0B581B040F2A405C2F20005287A0C28A5
:100B100000F22883DFE810F00E001C006A00760067
:100B2000AC00E200220134015601260326037A01BB
:100B3000A40100BFE87E012840F01483E97F012072
:100B40000129A87640F0CA810021E9776877CFE1D2
:100B5000A87E012840F0068340F29C10C2F20000FB
:100B6000006847F23051884200F08781E96805F05B
:100B700051FB287F012840F0F5820220287240F2C4
:100B80005C10C2F200000021816040F27C10C2F2D1
:100B900000008160E87EA9760128A5F81F1040F0CA
:100BA000E182E868FFF7D0FD41F6B8624BF65103E9
:100BB000CEF68532CBF6DE73FFF7A7FB49F69A1225
:100BC00049F6991321F00041C9F69912C3F6B97399
:100BD000FFF74DFD002840F0C58240F60000C4F24A
:100BE000010000F580604FF40041C2E0697F002001
:100BF0000129287740F0468185F821006877032095
:100C000049E100BF287E012840F0AC826FF0590016
:100C100000F0AAFA40F25C14C2F20004E0615A202B
:100C200000F0A2FA40F27C16C2F20006F0614FF426
:100C3000FA7001F0D5F9012085F82D00A876287208
:100C400095F82F00002101282976A160B160F1619B
:100C5000E16140F0258195F83200002800F0028221
:100C6000002085F832004BF65200C3F6CE7003E246
:100C7000287E012840F076825A2000F075FA40F272
:100C80005C14C2F20004E0616FF0590000F06CFAED
:100C900040F27C16C2F20006F0614FF4FA7001F0E7
:100CA0009FF9012085F82E00A876287295F830006B
:100CB000002101282976A160B160F161E16140F075
:100CC000EF8095F83200002800F0D281002085F8EE
:100CD00032004BF65200C3F6CE70CDE1B42000F0E6
:100CE00043FA40F25C16C2F20006F0616FF0590060
:100CF0005A3800F039FA40F27C17C2F20007F86166
:100D00004FF42F7001F06CF9082000F00FFC04463E
:100D1000042000F00BFC201A05F0D8FD40F225213C
:100D2000884200F31F824CF28F22C3F6F562EA601C
:100D300095F82D2000200121012A2876A976297214
:100D4000B060B860F861F06140F0DA8085F82D009D
:100D5000A97785F8301001B0F0BD00BF00202876DB
:100D6000A87604F06BFA40F60000C4F201004FF4DC
:100D70008051012201B0BDE8F04001F059BA00BF36
:100D8000012085F82C006FF059004B3000F0ECF991
:100D900040F25C14C2F20004E0610F2000F0E4F9BC
:100DA00040F27C16C2F20006F0614FF4FA6001F0E6
:100DB00017F995F8270001287AD1284610F8221F44
:100DC0002FE100BF012085F82C00232000F0CCF992
:100DD00040F25C14C2F20004E0616FF05900373059
:100DE00000F0C2F940F27C16C2F20006F0614FF446
:100DF000FA6001F0F5F895F82700012862D128463D
:100E000010F8221F012940F023811CE16FF05900E6
:100E1000463000F0A9F940F25C14C2F20004E0612F
:100E2000142000F0A1F940F27C16C2F20006F06135
:100E30004FF42F7001F0D4F80020A060B060F06192
:100E4000E06185F82C0028760120A8760C20287215
:100E500048F65C70C3F6C260E86001B0F0BD00BF48
:100E6000A87E012840F07E8140F29C10C2F2000072
:100E7000006847F2305188424CD101B0BDE8F040E3
:100E800004F0DCB9A87F012840F08480002085F8B8
:100E90002100A877042028720120287601B0F0BD37
:100EA0004CF28F20C3F6F560E86001B0F0BD00BFE2
:100EB00095F82800012840F08180284610F8231F6B
:100EC000AFE000BF95F82800012840F07F80284659
:100ED00010F8231F012900F0B680B9E095F8200032
:100EE000012840F07D80002085F820000120A877AF
:100EF00049F69A11C3F65971E960287201B0F0BD44
:100F000095F82E00012840F02D814FF48070E8857F
:100F10003BE000BFE96805F07DF9297F0020012949
:100F200085F8210040F01E810221297240F25C11F7
:100F3000C2F20001886095F8271040F27C12C2F2DC
:100F4000000203299060A87600F0D68002291CD008
:100F500095F82800032800F0CF80022815D095F8D6
:100F60002900032800F0C88002280ED095F82A0036
:100F7000032800F0C180022807D095F82B00032831
:100F800000F0EE80022840F0ED800120687701B08B
:100F9000F0BD00BFE87E002874D095F8210001283C
:100FA00040F08080002085F821000120072128766C
:100FB000297285F82C0001B0F0BD00BF95F829001A
:100FC000012827D1284610F8241F2AE095F8290087
:100FD00001282FD1284610F8241F012933D037E0EB
:100FE00095F82100012840F0BD804FF2C35095F8DC
:100FF0002210C3F6B870E8600120012985F832009C
:10100000287240F07D80002185F8221085F82700A5
:1010100001B0F0BD95F82A0001284FD1284610F8FC
:10102000251F012904D1411D02220A7000210170EF
:1010300008200EE095F82A00012851D1284610F822
:10104000251F012904D1411D03220A7000210170CE
:101050000B2028720020A060B060F061E06101B058
:10106000F0BD00BF49F69A10C3F6597004E000BF06
:1010700049F69A10C3F65970E860012085F83100EE
:1010800001B0F0BD002085F8210095F83000012165
:10109000297678B995F82F0060B90520287201B03B
:1010A000F0BD00BF95F8310001285BD1002085F824
:1010B000210028760620287201B0F0BD95F82B108B
:1010C0000129B5D195F826100129B1D102210228B4
:1010D00085F82B1002D105F12600A7E7FEE700BF37
:1010E000294611F82B0F0128B2D1084610F8052D1A
:1010F000012AA9D0ACE700BF0120A87701B0F0BD5C
:1011000095F82300012807D1002085F8230001204D
:1011100085F8280001B0F0BD95F82400012807D11A
:10112000002085F82400012085F8290001B0F0BDD9
:1011300095F82500012807D1002085F82500012019
:1011400085F82A0001B0F0BD95F82600012809D1E4
:10115000002085F82600012085F82B0001B0F0BDA5
:101160000120A87701B0F0BD014610F13D0F4EF20D
:101170008E30C3F6F85040F3878001F13C02782AA4
:1011800000F28E80DFE812F07A008A008A008A007E
:101190008A008A008A008A008A008A008A008A00FF
:1011A0008A008A008A0096008A008A008A008A00E3
:1011B0009C008A008A008A008A00A2008A008A00B5
:1011C0008A008A00A8008A008A008A008A008A00B1
:1011D0008A008A008A008A00AE008A008A008A009B
:1011E0008A00B4008A008A008A008A008A008A0085
:1011F0008A008A008A008A008A008A008A008A009F
:101200008A008A008A008A008A008A008A008A008E
:101210008A008A008A008A008A008A008A008A007E
:101220008A008A008A008A00BA008A008A008A003E
:101230008A008A008A008A008A008A00C0008A0028
:101240008A008A008A00C6008A008A008A008A0012
:10125000CC008A008A008A008A00D2008A008A00B4
:101260008A008A008A008A008A008A008A008A002E
:101270008A008A008A008A00D80000BF4EF28E30B1
:10128000CBF6F860704700BF11F1B4025AD05A3162
:1012900002BF4AF6AB20CBF63A707047704700BFEA
:1012A0005A2955D0B42902BF4AF6AB20C3F6BA700A
:1012B0007047F3E74AF6AB20CBF6BA60704700BF41
:1012C0004EF60A50CBF6A560704700BF42F6687034
:1012D000CBF69160704700BF4EF28E30CBF678604F
:1012E000704700BF4EF60A50CBF62560704700BF2E
:1012F0004EF28E30CBF6F850704700BF4EF60A50D3
:10130000C3F62560704700BF4EF28E30C3F678609A
:10131000704700BF42F66870C3F69160704700BF27
:101320004EF60A50C3F6A560704700BF4AF6AB20E0
:10133000C3F6BA60704700BF4EF28E30C3F6F86055
:10134000704700BF4AF6AB20CBF6BA70704700BFBB
:101350004AF6AB20C3F63A707047000040F21820FE
:10136000C2F2000000F0DABC40F2D410C2F2000079
:1013700000F0D4BC7047000010B540F2B024C2F2B7
:1013800000042046002102F0A1F82046042102F0CA
:101390009DF840F24034C2F200042046002102F0E1
:1013A00095F820460421BDE8104002F08FB80000F7
:1013B000EFF3108072B600BFFEE70000014601287F
:1013C0004FF0000008D0032918BF704740F24031A9
:1013D000C2F2000104E000BF40F2B021C2F20001FD
:1013E00009684A6A486210B2704700002DE9F0436C
:1013F00081B0052000F09AF8C0F58058042000F074
:1014000095F8C0F58055012000F090F8C0F58056A1
:101410003046FFF747F940F20809C2F20009D9F84F
:10142000047004463846FFF73DF901462046FFF7B1
:10143000F4F8E0B92846FFF735F9D9F80C1004465E
:101440000846FFF72FF901462046FFF7E6F870B986
:101450004046FFF727F9D9F8081004460846FFF779
:1014600021F901462046FFF7E6F800284AD140F26C
:101470003411D9F80030C2F20001A6EB08008A68E6
:10148000184490420CDDD9F8103001249D420C70B4
:1014900011DAD9F81800C6EB4703C0EB43000AE0A5
:1014A00053429842BCBF00230B70D9F810309D42C4
:1014B000B8BF90422CDBD9F814309D421EDA52425C
:1014C00090420BDAD9F80800D9F81C10A8EB4000BC
:1014D000C1EB400001B0BDE8F08300BF0EDD09782C
:1014E00001290BD1D9F80800D9F81C10A8EB40004D
:1014F000C1EB400080EAE071C1EBE07001B0BDE8F3
:10150000F08300BF47F2305001B0BDE8F08300BF68
:101510000B78002BCFD1D9F81800C6EB4703C0EBEE
:101520004300002848BF4042C5E7000010B584B022
:101530000190012002900520039040F2A410C2F215
:10154000000001A900F016F8002818BFFFF730FFCF
:1015500040F2A414C2F20004204600F0FBFA204638
:101560004FF0FF3100F0C2F9204600F0C9F880B218
:1015700004B010BD10B581B00022009290F8242074
:10158000012A03D10221084601B010BD4B68012297
:10159000062B80F8242017D8D0F800C003EB830373
:1015A0005A1F1F23DCF834E003FA02F40B682EEA1A
:1015B000040403FA02F22243CCF83420092B03EB93
:1015C000430219D936E000BFD0F800C00C2B03EB62
:1015D00083021DD8233A1F23DCF830E003FA02F41B
:1015E0000B682EEA040403FA02F22243CCF83020FE
:1015F000092B03EB43021DD8DCF81030072489685F
:101600009440A34391401943CCF81010002130E0DE
:10161000413A1F23DCF82CE003FA02F40B682EEAAF
:10162000040403FA02F22243CCF82C20092B03EB2A
:101630004302E1D9DCF80CE01E3A072489689440A3
:101640002EEA0404914023F001022143102ACCF831
:101650000C100DD142F20841C4F20101A1F10802BF
:1016600094450DD0816A41F020018162012100E0A2
:101670000021002280F82420084601B010BD00BFE0
:101680000A68120230D40A68102B42F400020A6081
:101690002CD140F22801C2F2000109684DF68362A4
:1016A000C4F21B32A1FB0212910C01EB8101490033
:1016B00000910099E1B10099013900910099C9B1F7
:1016C0000099013900910099B1B100990139009157
:1016D000009999B1009901390091009900294FF0C2
:1016E0000001E8D1C5E700BF0021C2E70021C0E743
:1016F0000021BEE70021BCE70021BAE70021B8E7DE
:101700000068C06C70470000B0B5002800F0A880E9
:101710000446806A20B121688868C0070BD114E0B4
:101720000020E06284F82400204600F09BF8216845
:101730008868C00709D0886820F00100886000F040
:101740007DFD21688A68D20726D1A06AC0063AD4F6
:10175000A06A41F2021290430230A062E069D4E92B
:10176000013240EA030C531EB3FA83F35D091346BA
:10177000B2F5807F18BF2B02207D257B01284CEA23
:10178000450030D135B3A56A45F02005A562E56A6C
:1017900045F00105E56226E0054602E08868C007DD
:1017A000D3D000F04BFD401B21680328F6D3886896
:1017B000C007F3D0A06A40F01000A062E06A40F0D9
:1017C0000100E062A06AA06A40F01000A06201205F
:1017D000B0BD00BFD4F818C04EF60005CFF6FF75B7
:1017E00005EB4C352B434D68B2F5807F25F46945F8
:1017F00043EA05034B608B684FF2FD75CFF6E17548
:1018000003EA050343EA00038B6001D0012A07D1F4
:1018100022690023CFF6F07303EB025201E000BF10
:101820000022CB6A23F470031A43CA62896840F627
:10183000FE62CFF61F721140814207D10020E062A4
:10184000A16A012262F30101A162B0BDA06A40F069
:10185000100020F00200A062E06A40F00100E062A7
:101860000120B0BD70B586B040F60004C4F201049A
:10187000006804F5E05188424FF00000CDE9040013
:1018800002D006B070BD00BF41F21800C4F20200E1
:10189000016802AD41F4007101600168032601F4A2
:1018A000007101910199016841F004010160016832
:1018B00001F0040101910199016841F00801016002
:1018C0000068294600F0080001900198332002903A
:1018D0002046039600F098FB0120CDE9020604F5AE
:1018E0008060294600F090FB06B070BDF0B581B075
:1018F00000270D460446009700F0A0FC21688A6886
:10190000D20543D406464868C00503D4C86A10F41B
:10191000700F45D040F22800C2F200000768022094
:1019200000F0F0FE216844F624130A69B7FBF0F0DA
:10193000C2F292431A4206D1CA6844F62413C0F296
:1019400092031A425ED00A6942F29243C1F24923DD
:101950001A4207D1CA6842F29243C0F249031A42BE
:1019600000F0C0800A6949F24923C0F224031A42F8
:101970004FF0FC0257D1CF681F4208BF5422009B92
:1019800002FB00F7BB4253D3C3E000BFA06A40F0A4
:101990002000A06284F82470012001B0F0BD00BFD7
:1019A0000868800700F1B580681C00F0A880FDB9C8
:1019B0000868800772D50868800700F1AA80086867
:1019C00080076BD50868800700F1A380086880074E
:1019D00064D50868800700F19C80086880075DD5A1
:1019E00008688007E4D594E00868800700F19180DA
:1019F00000F024FC801B2168A842F5D90868800704
:101A0000F2D44BE00A6942F29243C1F249231A42EE
:101A10004FF0290207D1CB6842F29247C0F2490742
:101A20003B4208BF1422009B02FB00F7BB4270D26E
:101A3000681C4FD055BB0098B8422FD30098013096
:101A400000900098B84264D20098B84226D300981B
:101A5000013000900098B8425BD20098B8421DD384
:101A60000098013000900098B84252D20098B842D5
:101A700014D30098013000900098B842DBD348E0BE
:101A80000098013000900098B84233D200F0D6FBA5
:101A9000801BA842F4D90098B842F1D2A06A40F065
:101AA0000400A062002084F82400032001B0F0BDEF
:101AB0000098013000900098B8422AD20098013076
:101AC00000900098B84224D200980130009000980D
:101AD000B8421ED20098013000900098B842E7D377
:101AE00017E000BF5422009B02FB00F7BB429FD3CC
:101AF0000FE000BF21680CE00868800709D408687F
:101B0000800706D4086880075CBF08685FEA8070B9
:101B1000F2D56FF012000860A06A40F40070A06275
:101B2000886800F46020B0F5602F01D1207B18B1E7
:101B3000002001B0F0BD00BFA06A20F48070A06258
:101B4000A06AC004F4D4A06A40F00100A0620020A2
:101B500001B0F0BD10B5044690F82400012804BF80
:101B6000022010BD012084F824002046FEF76AFF01
:101B700020B1002184F8241010BD00BF42F2044CB3
:101B80002068A16AC4F2010C40F2013291430CF5C5
:101B90007F7201F580719042A16233D0A16A21F475
:101BA0008011A1624168490504D5A16A012363F34C
:101BB0000D31A162A16A0023C9044FF0000144BFA6
:101BC000E16A21F00601E1626FF0020184F824303D
:101BD0000160816801F46021B1F5602F06D1904267
:101BE0000AD1DCF8001011F4702F05D0816841F49F
:101BF00080118160002010BD816841F4A0018160E6
:101C0000002010BDDCF8001011F4702FC6D0A16ABE
:101C100041F48011A162DCF800104905C5D4C9E780
:101C2000014690F82100022816D10868D1E90FC3B7
:101C3000026822F00E020260026822F001020260D5
:101C4000012000FA03F2CCF8042081F821000020E2
:101C5000002281F8202070470420886301200022A0
:101C600081F820207047000080B590F821100229EB
:101C700024D10268116821F00E0111602F21136830
:101C8000C4F202018A4240F20401C4F2020123F0CC
:101C90000103136016DD3023C4F202039A421DD003
:101CA0004423C4F202039A421CD05823C4F2020314
:101CB0009A421DD14FF4803322E000BF042181639A
:101CC000012080BD0823C4F202039A420ED01C23D7
:101CD000C4F202039A420BD1102311E04FF4807337
:101CE0000EE000BF4FF480530AE000BF012307E07D
:101CF00001F1680C4FF08073624508BF4FF4801308
:101D00000B60012180F82110426B002180F8201027
:101D10000AB190470021084680BD000010B5D0E907
:101D20000FCE0168DCF800300A6823FA0EF35C0776
:101D30002AD512F0040427D00A68920603D40A6850
:101D400022F004020A602F22C4F20202914240F201
:101D50000402C4F202025BDD3023C4F202039942A2
:101D600072D04423C4F20203994273D05823C4F2C0
:101D70000203994240F07A804FF480231360C16AD5
:101D8000002940F098806FE09C0727D512F00204EC
:101D900024D00A68920606D40A6822F00A020A6071
:101DA000012280F821202F22C4F20202914240F247
:101DB0000402C4F202023BDD3023C4F20203994262
:101DC00060D04423C4F2020399425FD05823C4F286
:101DD0000203994260D14FF4003365E01B0743D5FD
:101DE00012F0080208BF10BD0A6822F00E020A6055
:101DF000012101FA0EF2CCF80420816380F8211051
:101E0000016B0022002980F8202054D12CE000BF73
:101E10000823C4F20203994222D01C23C4F2020315
:101E2000994223D140231360C16A002943D11BE0AA
:101E30000823C4F2020399422CD01C23C4F20203EB
:101E4000994229D120232FE04FF480631360C16AA7
:101E500089BB09E04FF480431360C16A59BB03E0BA
:101E600004231360C16A31BB10BD00BF02F16804D6
:101E70004FF08063A14208BF4FF480031360C16A32
:101E8000C9B9F1E74FF400730EE000BF4FF40053FF
:101E90000AE000BF022307E002F168044FF000737C
:101EA000A14208BF4FF400131360816A0022002989
:101EB00080F82020D8D0BDE810400847014600280F
:101EC0004FF0010008BF70472DE9F043D1F800C082
:101ED0004FF6F873CBF6FD734CF6CD426344CCF667
:101EE000CC42A3FB02236FF0030707EA930300270A
:101EF000C4F2020701F10C09C1E90F730223D1E911
:101F0000012E99E87002D1F81C8081F82130DCF8AC
:101F1000003043F6F077BB431A4342EA0E022243F5
:101F20002A43324342EA090242EA0802CCF800207E
:101F300000228A6381F8210081F820200020BDE87A
:101F4000F0437047F0B590F820C0BCF1010F32D0DB
:101F50004FF0010E80F820E090F821C0BCF1010F95
:101F600026D14FF0020C80F821C04FF0000CC0F8D1
:101F700038C0D0E900C4C56AC66BDCF80070102C0C
:101F800027F00107CCF80070006C0EFA00F07060CA
:101F90000846CCF8043004BF10460A46CCF80800C6
:101FA000CCF80C20DCF8000045B140F00E000DE04C
:101FB000002180F820100220F0BD00BF20F00400B6
:101FC000CCF80000DCF8000040F00A00CCF800007B
:101FD000DCF8000040F00100CCF800000020F0BD6B
:101FE000B0B5044600F02AF9054640F20000C2F2FE
:101FF00000000078611C18BF044400BF00F01EF907
:10200000401BA042FAD3B0BD2DE9F04F82B00E685C
:10201000002E00F0038141F20042C4F201020423C9
:1020200040F2004E904208BF03234FF6FF7CC4F2FB
:10203000010E009300240123C1F2100C4FF0000A9E
:102040004FF0000949E000BF012704F00C030F2204
:102050009A402BEA020207FA03F34FEA9A051A4361
:1020600046F82520D1F804B040F20C455FEACB22B7
:10207000DEF8082054BF22EA080242EA0802C4F24D
:102080000105CEF808202A685FEA8B2354BF22EAB4
:10209000080242EA08022A605FEA8B33DEF8042075
:1020A00054BF22EA080242EA08025FEACB33CEF8C4
:1020B0000420DEF800204FF0010354BF22EA08029A
:1020C00042EA0802CEF800200E680AF1010A36FA48
:1020D0000AF204F1040400F0A18003FA0AF816EAF7
:1020E000080FF1D04E68664512DC122E56D8DFE894
:1020F00006F0350B454955555555555555555555CA
:102100005555554D510000BFD1F80C9046E000BF29
:102110004FF6FF72C1F2210296420FDC0022C1F29B
:10212000110296421AD00022C1F21202964215D034
:102130000022C1F22102964210D02FE00022C1F20B
:10214000220296420AD00022C1F23102964205D004
:102150000022C1F23202964220D100BF8A684AB101
:10216000012A14BFC0F81480C0F810804FF008098D
:1021700014E000BF4FF0040910E000BFCA6802F18C
:1021800008090BE04FF0000908E000BFCA6802F13F
:10219000040903E0CA6802F10C0900BF22460646A2
:1021A000BAF1080F24BF203A043637680F2595404E
:1021B00027EA050509FA02F22A433260CA79D206F3
:1021C0007FF582AF41F21803C4F202031A68AEF53C
:1021D0007E7642F001021A601A6802F00102019252
:1021E000019A2AF0030256F802B040F60002C4F247
:1021F0000102904210D040F60042C4F20102904227
:102200003FF422AF41F20002C4F20102009F90426B
:1022100008BF022719E700BF002716E702B0BDE894
:10222000F08F00008068084018BF01207047000050
:10223000002A08BF090401617047000040F26040B5
:10224000C2F200000068704770B5B8B3044690F859
:102250003D0028B9002084F83C00204600F05CF9DD
:10226000242084F83D002068016821F0010101600C
:10227000016841F400410160016821F400410160FE
:1022800000F01EFC48F28041C0F21E0140F600132F
:10229000D4F804E088424FF00001C0F23D0348F258
:1022A000A16C4FF0000238BF01219842C0F2010C2E
:1022B00038BF0122E64538BF0A460AB1012070BD89
:1022C0004DF68361C4F21B31A0FB01122168950C0D
:1022D0004B684FF4967623F03F0343EA92437543ED
:1022E00044F6D3564B60C1F262060B6AA5FB065654
:1022F000B50923F03F03E64538BF950C6A1C1A4325
:102300000A62CA6948F2A0664CF6FF73C0F2010681
:10231000B64522EA03020BD801384FEA4E03B0FB60
:10232000F3F001306FF31F30042898BF04201EE043
:10233000A368013863B119230EFB03F3B0FBF3F07C
:1023400001306FF31F3078B100F5804008E000BF26
:102350000EEB4E03B0FBF3F001306FF31F3028B1EA
:1023600000F5004003E000BF012000E00120104321
:10237000C8610868D4E9072320F0C000104318435F
:102380000860886848F2FF3204F10C0690434CCE96
:1023900018431043A5698860C86820F0FF003043E7
:1023A0002843C860086840F0010008600020202130
:1023B000206484F83D10206384F83E0070BD000066
:1023C0002DE9F04383B0994616460F460446FFF7C1
:1023D00035FF94F83D10202920D10546206800BF24
:1023E0008169890716D5FFF729FF411B20681A2943
:1023F000F6D381698907F3D500202021206384F872
:102400003D1084F83E00216C41F02001216484F8E5
:102410003C0003E094F83C10012903D1022003B0F2
:10242000BDE8F083012284F83C200368DDE90B1845
:102430000A9ADB0703D1036843F0010303600368D2
:1024400023F400630360212084F83D00402084F8D9
:102450003E000020206462626185608D39462085DF
:102460000020CFF6FF70E062204632464B46CDF8A2
:102470000080019502F03CF920B1012003B0BDE8D5
:10248000F08300BF208D98B9204641462A4602F0CD
:1024900093F988B3206C0428EFD12068016841F4D7
:1024A00000710160012003B0BDE8F0830004EBD0AF
:1024B000204641462A4602F039FB0028EAD1616AEB
:1024C0002268084610F8013B1361238D6062581E94
:1024D0002085678D013F678557697F07E6D507042B
:1024E000E4D048781061881C6062981E2085618D58
:1024F00001396185DAE700BF2068016841F40071A5
:102500000160202084F83D00002084F83E0084F81B
:102510003C0003B0BDE8F08310B586B0006845F21A
:102520000042C4F2000200219042049102D006B0A1
:1025300010BD00BF41F21804C4F20204206802A9D1
:1025400040F008002060206800F008000190019829
:102550004FF440700290122003900320059040F643
:102560000040C4F20100FFF74FFD0420C4F2010057
:10257000016841F0E06141F002010160606840F4EF
:1025800000106060606800F400100190019806B0CF
:1025900010BD000040F2000040F26041C2F20000B5
:1025A000C2F2000100780A68104408607047000019
:1025B00080B542F20000C4F20200016841F010014F
:1025C0000160032000F08EF80F2000F005F800F005
:1025D00027F8002080BD000070B540F20006C2F26E
:1025E000000640F228013278C2F200014FF47A73FB
:1025F0000968B3FBF2F20446B1FBF2F1084600F0C1
:1026000061FC0F2C4FF0010508D838B94FF0FF30AE
:1026100021460022002500F039F87460284670BD7C
:1026200082B041F21800C4F202000168022241F0B7
:1026300001010160016801F0010101910199416806
:1026400041F080514160406800F080500090009857
:102650000420C4F20100016862F31A61016002B053
:1026600070470000002848BF7047C1B200F01F004B
:10267000012202FA00F04EF20012CEF2000242EA0B
:10268000D10121F0030108607047000010B54EF63B
:102690000C5CCEF2000CDCF80030C3F3022E8EF09E
:1026A0000704042C28BF0424BEF103034FF0FF3EAF
:1026B0000EFA04F438BF0023A14399400EFA03F345
:1026C0009A43114300F00F0200F160430901043AFC
:1026D00003F564436244002848BF02F10C031970FB
:1026E00010BD00004EF60C51CEF200010A684FF604
:1026F000FF031A4060F30A2242F0806040F0FD7050
:102700000860704780B5012818D0022836D01028FC
:1027100032D141F20401C4F202010A6851F8040CFA
:10272000C00129D5C2F383402DA3185CD2033DD448
:1027300040F60012C0F23D02504343E041F2040073
:10274000C4F20200C16940F202320A40B2F5817F50
:1027500004BF4FF4004080BD01F44071B1F5407FEB
:102760001CD0B1F5007F07D1006A49F640418007CF
:1027700001EAE07080BD00BF002080BD00F0B4F928
:1027800041F20401C4F2020109680222C1F381315D
:1027900002EB4101B0FBF1F080BD00BF50F8040C2A
:1027A0004FF22441800301EAE07080BD0A6810A363
:1027B000C2F340429A5C41F20023C0F27A03B3FBB9
:1027C000F2F250430968490248BF80BD4AF6AB2186
:1027D0004000CAF6AA21A0FB0101480880BD00BF45
:1027E00002030405060708090A0B0C0D0E0F101052
:1027F000010200002DE9F04182B00446007841F268
:102800001C06C007C4F202064AD0306810F0805897
:1028100008D1306840F080503060306800F080505F
:102820000190019847F20007C4F200073868C0051C
:1028300012D4386840F480703860FFF7FFFC05461A
:102840003868C00508D4FFF7F9FC401B6428F7D9A5
:10285000032002B0BDE8F081706810F4407012D01F
:10286000616801F4407188420DD0706840F24042C6
:10287000C4F24222012320F4407113600023C007F8
:10288000136071602AD17068616820F44070084359
:10289000B8F1000F706003D1306820F080503060D4
:1028A0002068810707D556F8181CA26821F440411A
:1028B000114346F8181CC00604D4002002B0BDE83D
:1028C000F08100BF56F8180CE16820F4800008433E
:1028D00046F8180C002002B0BDE8F081FFF7AEFC0E
:1028E000054641F2883700BF70688007CBD4FFF7F8
:1028F000A5FC401BB8424FF00300F5D9EBE7000000
:102900002DE9F04381B0002800F0858042F20008F4
:10291000C4F202080446D8F800000D4600F0070093
:1029200088420CD2D8F8000020F007002843C8F8ED
:102930000000D8F8000000F00700A8426BD1206822
:1029400041F204098107C4F2020917D5410705D5F0
:10295000D9F8001041F4E061C9F80010010705D56D
:10296000D9F8001041F46051C9F80010D9F80010EE
:10297000A26821F0F0011143C9F80010C00741D14D
:10298000D8F8000000F00700A8420CD9D8F80000E1
:1029900020F007002843C8F80000D8F8000000F035
:1029A0000700A84237D12068410707D5D9F80010A1
:1029B000E26821F4E0611143C9F80010000708D56E
:1029C000D9F80000216920F4605040EAC100C9F83C
:1029D0000000D9F8002002F00C00082841F2002085
:1029E000C0F27A0050D147F67A33C2F38341C0F681
:1029F0000003595CD2033BD440F60010C0F23D0006
:102A0000484341E0606802280AD001282AD159F8D9
:102A1000041C890308D4012001B0BDE8F08300BF85
:102A200059F8041C8901F6D5D9F8001021F00301EA
:102A30000843C9F80000FFF701FC064641F2883759
:102A4000D9F80000616800F00C00B0EB810F97D05E
:102A5000FFF7F4FB801BB842F2D9032001B0BDE8B8
:102A6000F08300BF59F8041C8907D4D5DCE700BF08
:102A7000D9F8002047F67833C2F34042C0F600038D
:102A80009A5C4843B0FBF2F0D9F8001047F24832A4
:102A9000C1F30311C0F60002515C40F2280220FA93
:102AA00001F140F20400C2F200000068C2F200022C
:102AB0001160FFF791FD002001B0BDE8F083000038
:102AC00040F2280041F20401C2F20000C4F2020107
:102AD0000068096847F25832C1F30221C0F60002CB
:102AE000515CC8407047000040F2280041F20401E8
:102AF000C2F20000C4F202010068096847F25832CD
:102B0000C1F3C221C0F60002515CC840704700000A
:102B10002DE9F04182B0002868D00446007841F2E7
:102B20000006C007C4F2020625D0706800F00C0051
:102B300004281BD0706800F00C00082802D17068CF
:102B4000C00313D46068002800F06881B0F5A02F9E
:102B500000F07C81B0F5803F00F07C81306820F48B
:102B600080303060306820F4802076E13068800367
:102B700001D56068D0B32078800718D5706810F050
:102B80000C0F07D0706800F00C0008286ED1706838
:102B9000C0036BD43068800702D52069012825D195
:102BA0003068616920F0F80040EAC10030602078A8
:102BB00000071FD42078400732D4E56995B17068CA
:102BC00000F00C00082840F08F80012D0ED07068B6
:102BD000216A00F480328A4208D1616A00F47010E0
:102BE000884203D1002002B0BDE8F081012002B08C
:102BF000BDE8F081A069002862D00020C4F2422024
:102C00000121C0F88014FFF719FB0546706A8007A0
:102C100000F18C80FFF712FB401B0228F6D92AE155
:102C2000F06910F0805808D1F06940F08050F061F0
:102C3000F06900F080500090009847F20007C4F25D
:102C400000073868C00529D4386840F480703860BF
:102C5000FFF7F4FA054600BF3868C0051ED4FFF739
:102C6000EDFA401B6428F7D905E100BF2069002870
:102C700040F20000C4F2422000F082800121016095
:102C8000FFF7DCFA054600BF306880073FF588AFE4
:102C9000FFF7D4FA401B0228F6D9ECE0E0680028E0
:102CA00000F08080052800F09780012800F09880CF
:102CB000306A20F001003062306A20F0040092E0B7
:102CC0000020C4F242200021C0F88014FFF7B6FAB9
:102CD000054600BF706A80077FF56CAFFFF7AEFA5C
:102CE000401B0228F6D9C6E00027C4F24227002084
:102CF0003866FFF7A3FA022D05460BD13068800134
:102D000040F1BE80FFF79AFA401B02284FF0030003
:102D1000F4D968E7306880017FF564AFFFF78EFA79
:102D2000401B02284FF00300F4D95CE740F2280072
:102D3000C2F20000006844F6D351C1F26201A0FB68
:102D40000101480A019000BF00BF0198411E002800
:102D500001913FF42FAF00BF0198411E002801915F
:102D60003FF428AF00BF0198411E002801913FF4B5
:102D700021AF00BF0198411E00280191E4D119E75D
:102D800000210160FFF75AFA054600BF306880074E
:102D90007FF50DAFFFF752FA401B02284FF00300FA
:102DA000F4D920E7306A20F001003062306A20F068
:102DB00004003062FFF742FA054641F2883700BF4F
:102DC000306A800720D5FFF739FA401BB8424FF030
:102DD0000300F5D907E700BF306A40F00400306215
:102DE000306A40F001003062FFF728FA054641F2F0
:102DF000883700BF306A800706D4FFF71FFA401BF0
:102E0000B842F7D937E000BFB8F1000F7FF4D5AE74
:102E1000F06920F08050F061CFE600BF306820F408
:102E200080303060306820F480203060FFF706FA90
:102E3000054600BF306880037FF59DAEFFF7FEF9C1
:102E4000401B64284FF00300F4D9CCE6306840F40E
:102E500080203060306840F480303060FFF7EEF959
:102E6000054600BF306880033FF585AEFFF7E6F901
:102E7000401B6428F6D9032002B0BDE8F08100BFF2
:102E8000206AB0F5803F05D17168A26821F4003155
:102E9000114371607168626A21F47411114308432F
:102EA000706001203866FFF7C9F904463068800178
:102EB0003FF598AEFFF7C2F9001B02284FF0030060
:102EC000F4D990E6411E0020B0EB116F1CBF012029
:102ED00070474EF21002CEF2000251604EF62351BE
:102EE000CEF20001F0230B70072190601160704753
:102EF000704700007047000010B590F83C20012A90
:102F00004FF0020233D080F83D200268D2F804E08E
:102F1000D2F808C00C682EF07003234340F2FF740F
:102F2000C4F20004A24253600ADCB2F1804F13D015
:102F300040F20043C4F200039A420DD011E000BFFA
:102F400042F60043C4F201039A4205D040F6000362
:102F5000C4F200039A4204D149682CF0800319435B
:102F600091600121002280F83D1080F83C2010463D
:102F700010BD0000002804BF0120704710B50446B2
:102F800090F83D0028B9002084F83C00204600F06D
:102F900067F8022084F83D00206840F2FF73026861
:102FA000C4F2000342F6004C9842C4F2010C15DC56
:102FB000B0F1804F1AD040F20041C4F200018842C3
:102FC00014D0984218DCB0F1804F1DD040F200417F
:102FD000C4F20001884217D01AE000BF604505D056
:102FE00040F60001C4F200018842EAD1A16822F053
:102FF00070020A439842E6DD604505D040F60001C4
:10300000C4F20001884203D1216922F440720A43CC
:10301000A36922F08001D4F804E0E2681943604516
:103020000160C262C0F828E002D16169CCF83010BA
:1030300001214161002084F8461084F83E1084F894
:103040003F1084F8401084F8411084F8421084F84E
:10305000431084F8441084F8451084F83D1010BDE6
:1030600010B582B0006840F60001C4F20001884249
:1030700012D0B0F1804F29D141F21C00C4F20200FD
:1030800001681C2441F001010160006800F00100AA
:10309000019001980EE000BF41F21C00C4F2020052
:1030A00001681E2441F004010160006800F0040082
:1030B00000900098204600210022FFF7E7FA204602
:1030C00002B0BDE81040FFF7CDBA00BF02B010BD9E
:1030D00090F83D1001291CBF01207047022180F8A3
:1030E0003D10006840F2FF72C168C4F200029042D5
:1030F00041F00101C16009DCB0F1804F12D040F213
:103100000041C4F2000188420CD012E042F60041B6
:10311000C4F20101884205D040F60001C4F200016A
:10312000884206D1816801F00701062904BF00200A
:103130007047016841F00101016000207047000004
:1031400080B590F83C20012A4FF0020200F0C280C6
:1031500080F83D20D0F800C04FF67772DCF80830D8
:1031600023EA0202CCF808200B684F2B28DC1F2B27
:1031700044DD202B45D0302B43D0402B40F0AC8099
:10318000D1F804E0C968DCF82030DCF8202022F017
:103190000102CCF82020DCF8182022F0F00242EAEC
:1031A000011123F00A0242EA0E02CCF81810CCF802
:1031B0002020DCF8081041F0470121F0300180E0C8
:1031C0006F2B27DDB3F5005F48D0B3F5805F7AD071
:1031D000702B40F08180D1E901E3C968DCF8082058
:1031E00043EA0E0322F47F4243EA01211143CCF863
:1031F0000810DCF8081041F0770162E00BB1102BE9
:103200006AD1DCF8081021F07001194341F0070180
:1032100057E000BF502B35D0602B5DD1D1F804E0D2
:10322000C968DCF82030DCF8202022F01002CCF84D
:103230002020DCF8182022F4704242EA013123F009
:10324000A00242EA0E12CCF81810CCF82020DCF8CC
:10325000081041F0670121F0100132E0D1E901E3EB
:10326000C968DCF8082043EA0E0322F47F4243EAEF
:1032700001211143CCF80810DCF8081041F480411A
:103280001FE000BFD1F804E0C968DCF82030DCF8AA
:10329000202022F00102CCF82020DCF8182022F0B7
:1032A000F00242EA011123F00A0242EA0E02CCF8CF
:1032B0001810CCF82020DCF8081041F0570121F05C
:1032C0002001CCF808100022012180F83D100021D7
:1032D00080F83C10104680BD0122F5E7002804BFAD
:1032E000012070472DE9F04F81B0044690F83D0071
:1032F0000D4628B9002084F83C00204600F094F8E0
:10330000022084F83D00206844F20702816840F200
:10331000FF73914381600268C4F2000342F6004CDF
:103320009842C4F2010C15DCB0F1804F1AD040F283
:103330000041C4F20001884214D0984218DCB0F178
:10334000804F1DD040F20041C4F20001884217D0E6
:103350001AE000BF604505D040F60001C4F200014C
:103360008842EAD1A16822F070020A439842E6DD61
:10337000604505D040F60001C4F20001884203D147
:10338000216922F440720A43A36922F08001D4F833
:1033900004E0E268194360450160C262C0F828E0B9
:1033A00002D16169CCF830104FF00109C0F81490D7
:1033B0008268D0F818E0D0F820C0D5E90038D5E907
:1033C000027B43EA020AAB694FF6FF712EEA010E57
:1033D00047EA03234FF6FC47BB43D5E907724BEAA4
:1033E0000E012E69194341EA072141EA061141EA1B
:1033F00002312CF022026B6942EA080242EA03120F
:10340000C0F808A08161026284F8469084F83E907A
:1034100084F83F9084F8429084F8439084F83D907B
:10342000002001B0BDE8F08F80B586B0006840F2A2
:103430000041C4F2000188424FF00001CDE90411BF
:10344000CDE902111ED042F60041C4F201018842CA
:103450003AD141F21800C4F20200016841F400615F
:103460000160016801F4006101910199016841F076
:1034700004010160006800F00400019001984FF41D
:10348000407016E041F21800C4F20200416841F0B9
:1034900002014160416801F0020101910199016856
:1034A00041F004010160006800F0040001900198FF
:1034B000C02002900020CDE9030040F60000C4F2D5
:1034C000010002A9FEF7A0FD06B080BD80B590F80E
:1034D0003E2090F83F3090F842E090F843C0042935
:1034E0000AD0B9B9012A4FF0010208BFBEF1010F9D
:1034F00034D0104680BD00BF012B4FF0010208BF41
:10350000BCF1010FF5D1022180F83F1080F8431083
:1035100000681EE0012A4FF0010208BF012BE8D12C
:10352000BEF1010FE5D1BCF1010FE2D1022280F81A
:103530003E2080F83F2080F8422080F8432091B15F
:103540000068016A21F001010162016A41F0010194
:10355000016210216FF0100209E000BF022180F823
:103560003E1080F84210006801216FF00102036AEA
:103570001A400262026A114301620168002241F0AE
:1035800001010160104680BD7047000010B5016860
:1035900004460869800744BFC8685FEA807039D470
:1035A0000869400744BFC8685FEA40703ED40869B4
:1035B000000744BFC8685FEA007045D40869C006C8
:1035C00044BFC8685FEAC0604AD40869C0071CBF2E
:1035D000C8685FEAC07051D10869000644BFC86876
:1035E0005FEA006052D40869400644BFC8685FEAD9
:1035F000406053D40869800646BFC8685FEA8060AF
:1036000010BD6FF0200220460A61BDE81040FFF7B0
:1036100071BC00BF6FF0020008610120207788694B
:10362000800743D02046FFF7AFFF45E06FF004006E
:10363000086102202077886910F4407F40D020463E
:10364000FFF7A2FF42E000BF6FF00800086104200E
:103650002077C86980073DD02046FFF795FF3FE0FF
:103660006FF01000086108202077C86910F4407FCF
:103670003AD02046FFF788FF3CE000BF6FF0010022
:103680000861204600F02CFA2168A5E76FF0800061
:1036900008612046FFF72CFC2168A4E76FF040008A
:1036A0000861204600F016FB2168A3E7204600F0E1
:1036B00025F8204600F0A2F92168002020776FE766
:1036C000204600F01BF8204600F098F92168002001
:1036D00020776CE7204600F011F8204600F08EF9C4
:1036E00021680020207769E7204600F007F820468F
:1036F00000F084F921680020207766E77047000019
:103700002DE9F04390F83C30012B04BF0220BDE8C6
:10371000F0834FEAB202032A3CD8DFE802F0034309
:1037200081BD00BF036842F600461D6A1A6AC4F2F2
:10373000010622F001021A621A465C6852F818CF9C
:10374000B3428E68D1F800E025F0020545EA06058F
:103750000CD1CE68D1E9057824F4407425F00C052D
:1037600026F004063C43354344EA08042CF0730772
:1037700047EA0E075C609F614F6809695F631D62DD
:103780009F6947F008079F619F6927F004079F61C1
:10379000B2E000BF0121002280F83C200846BDE8CD
:1037A000F08300BF036842F600461D6A1A6AC4F23D
:1037B000010622F010021A621A46D3F804C052F829
:1037C000184FB3428E68D1F800E025F0200545EA95
:1037D000061510D1CE68D1E9058725F0C0096FF034
:1037E000400505EA06152CF4406647EA080745EA55
:1037F000090546EA870C24F4E64444EA0E27C3F898
:1038000004C09F614F6809699F631D629F6947F407
:1038100000679F619F6927F480679F616BE000BF2D
:10382000036842F600461D6A1A6AC4F2010622F4D1
:1038300080721A621A46D3F804C052F81CEFB342E1
:103840008E680C6825F4007545EA062511D1CE680E
:10385000D1E9058725F44069360240F2FF4526EAA2
:1038600005052CF4405647EA080745EA090546EAEB
:10387000071C2EF073072743C3F804C0DF614F68AD
:103880000969DF631D62DF6947F00807DF61DF69EF
:1038900027F00407DF612FE0036842F60047D3F802
:1038A00020C01A6AC4F2010722F480521A621A4632
:1038B0005C6852F81C5FD1F800E08E68BB4204D10E
:1038C0004F6924F4804444EA87142CF4005747EAF3
:1038D000063725F4E64646EA0E265C60DE614E6851
:1038E00009691E641F62DF6947F40067DF61DF69F1
:1038F00027F48067DF610902136819431160002112
:10390000002280F83C200846BDE8F083002804BF70
:103910000120704710B5044690F83D0028B90020FA
:1039200084F83C00204600F067F8022084F83D004F
:10393000206840F2FF730268C4F2000342F6004CB4
:103940009842C4F2010C15DCB0F1804F1AD040F25D
:103950000041C4F20001884214D0984218DCB0F152
:10396000804F1DD040F20041C4F20001884217D0C0
:103970001AE000BF604505D040F60001C4F2000126
:103980008842EAD1A16822F070020A439842E6DD3B
:10399000604505D040F60001C4F20001884203D121
:1039A000216922F440720A43A36922F08001D4F80D
:1039B00004E0E268194360450160C262C0F828E093
:1039C00002D16169CCF8301001214161002084F8F6
:1039D000461084F83E1084F83F1084F8401084F8B4
:1039E000411084F8421084F8431084F8441084F89D
:1039F000451084F83D1010BD70470000704700006E
:103A000041B1082910D0042914BF00F1410200F18E
:103A10003F020BE090F83E20012A1CBF01207047B6
:103A2000022280F83E2013E000F140021278012AC1
:103A30001CBF012070470222082907D0042914BFA7
:103A400080F8412080F83F2002E000BF80F840204D
:103A5000006801F01F010122036A8A4023EA020183
:103A60000162036A42F64441C4F201011A43A1F122
:103A70004403984202620FD040F2FF71C4F2000189
:103A8000884213DCB0F1804F1CD040F20041C4F2F8
:103A90000001884216D01CE00A6842F400420A6025
:103AA00040F2FF71C4F200018842EBDD42F60041B2
:103AB000C4F20101884205D040F60001C4F20001C1
:103AC000884206D1816801F00701062904BF002061
:103AD0007047016841F0010101600020704700005B
:103AE0002DE9F04F81B0006840F60001C4F20001FA
:103AF000884240F091800120FDF760FC40F25C1AA2
:103B0000C2F2000ACAF80C000320FDF757FC40F28D
:103B10007C19DAE902B5C2F200090446C9F80C00C2
:103B20002846FCF7C8FD47F60008C4F2CE0800227C
:103B30004346FCF703FDFCF71AFEFCF705FE44F2D2
:103B40000007C4F28F0700223B46FCF785FC0026E5
:103B5000C4F24E0600223346FCF77EFCFCF707FE5B
:103B6000CAF800002046FCF7A6FD00224346FCF7F9
:103B7000E5FCFCF7FCFDFCF7E7FD00223B46FCF70B
:103B80006BFC00223346FCF767FCFCF7F0FD40F2CB
:103B9000A401C9F800000BEB0500C2F20001CAF84D
:103BA0000800D9F80800097E20440129C9F8080056
:103BB00032D1DAF81C0001F06BFBFCF773FDD9F889
:103BC0001C10CAF81800084601F062FBFCF76AFDF9
:103BD000C9F81800DAF80800DAF81840FCF762FDB6
:103BE000214601F047F8FCF777FD40F26805C2F284
:103BF0000005E860D9F80800D9F81840FCF752FD34
:103C0000214601F037F8FCF767FDE9682861DC29F7
:103C100006DDDC2109E000BF01B0BDE8F08F00BF88
:103C200011F1DD0F02DC6FF0DB01E960DC2801DD62
:103C3000DC2004E010F1DD0F02DC6FF0DB00286116
:103C40000846FCF72FFDDAF8001002460846114638
:103C500002F074FDFCF740FD40F27C042969C2F2D9
:103C60000004E0600846FCF71DFDD9F8001002468C
:103C70000846114602F0AEFDFCF72EFDE16841F268
:103C800094124EF66C639142CFF6FF73A8BF1146B3
:103C90009942D8BF19469042B8BF024608469A4298
:103CA000D8BF1A46C4E9031202F010FEB0F5967FA1
:103CB000DCBF0020E060206902F008FEB0F5967FCE
:103CC000DABF002121612169E06801B0BDE8F04F51
:103CD00002F030BA704700007047000070470000E3
:103CE000B0B582B0044600680168C368426901F05B
:103CF0002F05202D03F0200506D12DB1204602B05E
:103D0000BDE8B04002F08CBC5FEA017C1EBF02F04F
:103D1000010E03F4907212EB0E0253D1226B012AB2
:103D200005D111F0100218BF13F0100236D10A06A7
:103D300022D513F080021FD094F8411021293FD1E1
:103D4000A168B1F5805F03D12169002900F070827C
:103D5000216A4A1C226209784160E18C01390A0417
:103D6000E1842DD1C16821F08001C160C16841F0BA
:103D70004001C16002B0B0BD490621D513F0400139
:103D80001ED0C16821F04001C1602021204684F886
:103D9000411002B0BDE8B04000F0A4BC0021019188
:103DA000016801914168019101994069400613D46D
:103DB000A08DE18DE28D002A18BF884240F0BA81C3
:103DC00002B0B0BDCA0718BF13F4807240F0B680CD
:103DD0004A0700F1B980BEE0E06B016849688AB229
:103DE000002AEDD0A38D9A42EAD2E185806920288D
:103DF00000F09C80206850E8030F216820F4807058
:103E000041E80302DAB1206850E8030F216820F48A
:103E1000807041E8030292B1206850E8030F2168E6
:103E200020F4807041E803024AB1206850E8030F93
:103E3000216820F4807041E80302002ADAD120686A
:103E400050E8050F216820F0010041E80502DAB1D1
:103E5000206850E8050F216820F0010041E80502C4
:103E600092B1206850E8050F216820F0010041E878
:103E700005024AB1206850E8050F216820F00100D2
:103E800041E80502002ADAD1206850E8050F2168D0
:103E900020F0400041E80502DAB1206850E8050F43
:103EA000216820F0400041E8050292B1206850E806
:103EB000050F216820F0400041E805024AB1206862
:103EC00050E8050F216820F0400041E80502002A73
:103ED000DAD1202084F8420000202063206850E8D6
:103EE000030F216820F0100041E80302DAB12068D6
:103EF00050E8030F216820F0100041E8030292B15E
:103F0000206850E8030F216820F0100041E8030208
:103F10004AB1206850E8030F216820F0100041E802
:103F20000302002ADAD1E06BFDF77AFE022060631B
:103F3000A08DE18D401A81B2204674E1626C42F09E
:103F4000010262644A0706D5BEF1000F03D0626C1D
:103F500042F0020262648A0706D5BEF1000F03D068
:103F6000626C42F004026264BCF1000F09D545EABC
:103F70000E02B2FA82F2520903D1626C42F00802D8
:103F80006264626C002A3FF41BAF11F0200118BF7D
:103F9000002D03D0204602F043FB20684069616C8D
:103FA00000F0400001F00801401800F0B58000BFAB
:103FB000206850E8030F216820F4907041E8030264
:103FC000BAB3206850E8030F216820F4907041E8EC
:103FD000030272B3206850E8030F216820F4907048
:103FE00041E803022AB3206850E8030F216820F457
:103FF000907041E80302002ADAD11AE0206850E804
:10400000050F216820F0010041E80502DAB12068BF
:1040100050E8050F216820F0010041E8050292B147
:10402000206850E8050F216820F0010041E80502F2
:104030004AB1206850E8050F216820F0010041E8EE
:104040000502002ADAD1206B012824D1206850E82B
:10405000030F216820F0100041E80302DAB1206864
:1040600050E8030F216820F0100041E8030292B1EC
:10407000206850E8030F216820F0100041E8030297
:104080004AB1206850E8030F216820F0100041E891
:104090000302002ADAD1202084F8420000202063A5
:1040A0002068406940063FD5206850E8050F216828
:1040B00020F0400041E80502DAB1206850E8050F21
:1040C000216820F0400041E8050292B1206850E8E4
:1040D000050F216820F0400041E805024AB1206840
:1040E00050E8050F216820F0400041E80502002A51
:1040F000DAD1E06BC0B146F2E131C0F600014163B4
:10410000FDF7B2FD00283FF45BAEE06B416B02B0FF
:10411000BDE8B040084700BF2046FFF7DFFD0020A4
:10412000606402B0B0BD00BF204602B0BDE8B04040
:10413000FFF7D4BD401A216851E8031F226821F41B
:10414000907142E80313DBB1216851E8031F226834
:1041500021F4907142E8031393B1216851E8031FE1
:10416000226821F4907142E803134BB1216851E8B1
:10417000031F226821F4907142E80313002BDAD167
:10418000216851E8051F226821F0010142E805136A
:10419000DBB1216851E8051F226821F0010142E8E6
:1041A000051393B1216851E8051F226821F0010130
:1041B00042E805134BB1216851E8051F226821F040
:1041C000010142E80513002BDAD1202184F84210C6
:1041D00000212163216851E8031F226821F01001AA
:1041E00042E80313DBB1216851E8031F226821F084
:1041F000100142E8031393B1216851E8031F2268BC
:1042000021F0100142E803134BB1216851E8031F6C
:10421000226821F0100142E80313002BDAD10222B8
:1042200081B22046626302B0BDE8B040FFF754BDE2
:10423000216A31F8022B6FF35F22426021628CE524
:10424000002804BF0120704710B5044690F84100D3
:1042500028B9002084F84000204600F063F82420AC
:1042600084F841002068D4E90212C36823F40053A3
:10427000C360036923F440531A430261D4E9042361
:104280001143C268194341F20C639A431143C16060
:104290004169A26921F44071114343F60002C4F25E
:1042A00001029042416103D0FEF70AFC02E000BF28
:1042B000FEF71AFC6268192148439100B0FBF1F047
:1042C00048F21F51C5F2EB11A0FB01235A094FF62A
:1042D0009C73C0F6FF7302FB0300322303EB001054
:1042E000A0FB0101F02303EA5113206803EB021243
:1042F000C1F3431111448160016921F490410161CE
:10430000416921F02A014161C16841F40051C16055
:1043100000202021606484F8411084F8421060631A
:1043200010BD00002DE9F04385B00446006844F25A
:104330000041C4F20001002688420496CDE90266DD
:10434000019677D043F60001C4F20101884240F0A3
:10435000A78041F21800C4F20200016801AE41F4E6
:1043600080410160016840F2440801F480410091FD
:1043700000990168C4F2020841F008010160006878
:10438000314600F008000090009840200190022083
:1043900002900320049040F60000C4F2010000F5F2
:1043A00080652846FDF730FE4FF08009002728463B
:1043B0003146CDF80490CDE90277FDF725FE0420C3
:1043C000C4F20100016840F2D41541F0E06141F00F
:1043D0000401016008F11400C2F200054FF4805698
:1043E000C5E900072846C5E90279C5E90477C5E9AA
:1043F0000676FDF763FD002818BFFCF7D9FFE563DB
:104400006C6240F21825C2F200051020C5E9008058
:104410002846C5E90279C5E90477C5E90676FDF7BE
:104420004DFD002818BFFCF7C3FFA5636C6225246F
:104430002EE000BF41F21800C4F20200416840F6CD
:10444000000441F4003141604168C4F2010401F408
:10445000003100910099016801AD41F00401016053
:104460000068294600F004000090009804200190A4
:1044700002200290032004902046FDF7C5FD08208D
:10448000CDE90106204629460396FDF7BDFD262409
:10449000204600210022FEF7F9F82046FEF7E2F858
:1044A00005B0BDE8F083000090F84230202B1CBF1F
:1044B0000220704700294FF0010318BF002A01D1E4
:1044C0001846704700230363816222218285C285DA
:1044D000436480F842100169006819B1C16841F471
:1044E0008071C1604169002341F001014161C168EF
:1044F00041F02001C16018467047000070B50068A7
:1045000044F20041C4F2000140F2D8058842C2F2F0
:10451000000564D1A8686978421C28440A29AA6069
:1045200001735CD140F2BC060020C2F20006A86014
:10453000307D297B0028A1F13000A8704FD005F113
:104540000C042CA12046FBF7FFFD28B10520E870E4
:104550000120F07143E000BF28A12046FBF7F4FDE5
:1045600020B10620E8700120307238E025A12046F5
:10457000FBF7EAFD20B101207072B0732FE000BF9D
:1045800022A12046FBF7E0FD20B10120707270737C
:1045900025E000BF1EA12046FBF7D6FD20B101207B
:1045A000707230731BE000BF1BA12046FBF7CCFDEF
:1045B00020B101207072F07211E000BF18A12046F6
:1045C000FBF7C2FD20B140F20110A6F8090006E099
:1045D0000020A6F80700C6F80A00B073E87040F2A1
:1045E0001840691CC2F200000122BDE87040FFF7CC
:1045F0005BBF00BF4C45465400000000524947488D
:1046000054000000536576656E0000005369780021
:104610004669766500000000466F75720000000074
:10462000546872656500000070B5044690F841005A
:1046300020281CBF022070BD00294FF001004DD082
:10464000002A134608BF70BD4FF0000C21202162E4
:10465000A384E384C4F844C084F841002268A06BBA
:1046600046F2695E46F2196546F2ED36C0F6000E76
:10467000C0F60005C0F600060432C0E90AE5C0E94C
:104680000C6CFDF75FFC20686FF04001016000BF1B
:10469000206850E8050F216840F0800041E80502DD
:1046A000F2B1206850E8050F216840F0800041E831
:1046B0000502AAB1206850E8050F216840F080008B
:1046C00041E8050262B1206850E8050F216840F01A
:1046D000800041E80502002ADAD1002070BD00BF49
:1046E000002070BD7047000070470000FEE700002A
:1046F0002DE9F04383B0044600680D4601680A9F27
:104700000B9E41F4807199469046016020464FF01F
:10471000011100223B46009600F0AEF850B120682F
:104720000068C00544BF4FF400702064032003B04C
:10473000BDE8F083206805F0FE0101610221C0F2AE
:10474000010120463A46334600F080F920B10120AD
:1047500003B0BDE8F08300BF00200290206832461D
:10476000416902918069394602900298204600F022
:10477000DDF958B1206C0428E9D12068016841F4C2
:1047800000710160012003B0BDE8F0832068B9F139
:10479000010F0AD04FEA18210161204639463246FE
:1047A00000F0C4F90028E5D120685FFA88F10161C2
:1047B000002003B0BDE8F08370B50368044653F8E9
:1047C000140F400711D40E46481C29D086BB00BFE9
:1047D0001868400527D4FDF731FD236853F8140FFE
:1047E000400739D518684007F2D5002070BD00BFDA
:1047F00018684007F9D41868400514D418684007B1
:10480000F3D4186840050ED418684007EDD4186832
:10481000400508D4186840074FF0000048BF70BD3D
:1048200018684005E4D56FF480601860042014E037
:10483000154603E053F8140F4007D6D41868400516
:10484000F1D4FDF7FBFC401B2368B042F2D9586954
:104850004007EFD4202000E0202000212022216307
:1048600084F83D2084F83E10226C1043206401201F
:1048700084F83C1070BD00002DE9F0410546006849
:104880001E46144601F47F0201338FB242D0DDF898
:104890001880B2F5803F40F0878040693840C01BE7
:1048A000B0FA80F04009A04240F0C8804EB924E040
:1048B00040693840C01BB0FA80F04009A04240F087
:1048C000BD80FDF7BBFCA0EB08012868B142EFD921
:1048D00041693940C91BB1FA81F14909A142E7D1C7
:1048E0009BE000BF40693840C01BB0FA80F040092F
:1048F000A0424FF0000040F0A680FDF79FFC286822
:1049000041693940C91BB1FA81F14909A142E9D194
:1049100083E000BFB2F5803F24D100BF4169394038
:10492000C91BB1FA81F14909A14240F08780416970
:104930003940C91BB1FA81F14909A14240F07E809A
:1049400041693940C91BB1FA81F14909A14275D1C8
:1049500041693940C91BB1FA81F14909A142DDD051
:104960006CE000BF81693940C91BB1FA81F1490986
:10497000A14263D181693940C91BB1FA81F149096A
:10498000A1425BD181693940C91BB1FA81F1490962
:10499000A14253D181693940C91BB1FA81F149095A
:1049A000A142DFD04AE000BF80693840C01BB0FAA6
:1049B00080F04009A04241D146B923E080693840E7
:1049C000C01BB0FA80F04009A0423BD1FDF736FC95
:1049D000A0EB08012868B142F0D981693940C91BB0
:1049E000B1FA81F14909A142E8D116E08069384065
:1049F000C01BB0FA80F04009A0424FF0000018BF81
:104A0000BDE8F081FDF71AFC286881693940C91BAF
:104A1000B1FA81F14909A142E8D10020202128639F
:104A200085F83D1085F83E00296C41F0200129648D
:104A300085F83C000120BDE8F08100BF0020BDE802
:104A4000F08100BF0020BDE8F0810000F0B581B02A
:104A5000044600681D4643698FB203EA0701B94264
:104A600002D1002001B0F0BD41691646013201F4C7
:104A7000806125D0002940D1CEB100BFFDF7DEFB1B
:104A8000411B2068B14203D941693940B9424BD139
:104A900041693940B942E4D041694905EED52CE07D
:104AA00041693940B942DCD04169490525D4FDF757
:104AB000C5FB206841693940B942F1D0202024E08B
:104AC000D9B941693940B942CBD04169490514D4BB
:104AD00041693940B942C4D0416949050DD44169A1
:104AE0003940B942BDD04169490506D441693940D0
:104AF000B942B6D041694905E3D5016841F4007176
:104B000001606FF480614161042000212022216353
:104B100084F83D2084F83E10226C1043206484F811
:104B20003C10012001B0F0BD2020EEE770B5036815
:104B3000044653F8140F000611D40E46481C29D021
:104B400086BB00BF1868400527D4FDF777FB2368B4
:104B500053F8140F000639D518680006F2D5002066
:104B600070BD00BF18680006F9D41868400514D459
:104B700018680006F3D4186840050ED418680006BB
:104B8000EDD41868400508D4186800064FF00000FE
:104B900048BF70BD18684005E4D56FF480601860A8
:104BA000042014E0154603E053F8140F0006D6D491
:104BB00018684005F1D4FDF741FB401B2368B04263
:104BC000F2D958690006EFD4202000E0202000210F
:104BD0002022216384F83D2084F83E10226C10438B
:104BE0002064012084F83C1070BD0000B0B540F294
:104BF000604040F2D805C2F20000C2F20005016830
:104C00006A68891A322925D3006840F60044C4F244
:104C10000104686020464FF48051FDF703FB48B162
:104C200020464FF40051FDF7FDFAB0FA80F040093C
:104C3000400000E001202978287020EA01010229C3
:104C40000AD0012918BFB0BD40F2BC00C2F200007A
:104C50000121C170B0BD00BF40F2BC03C2F200032D
:104C6000002520464FF400410022DD70BDE8B04031
:104C7000FDF7DEBA2DE9F04381B002460846114641
:104C8000FBF7CDFA40F23007C2F20007D7E9008106
:104C9000D7E90E960446FBF770FA44F20001C4F21D
:104CA0009C510546FBF7D5FC44F2000100281CBFCF
:104CB00044F20005C4F29C55CCF29C512846FBF707
:104CC000ACFC00281CBF44F20005CCF29C553046D9
:104CD00029467D60FBF7A9FA054648462146FBF7C1
:104CE000A4FA2946FBF749FA3D6C064620464146A0
:104CF000FBF795FA01462846FBF797FA3146FBF792
:104D00003CFA3C6001B0BDE8F0830000B0B584B06F
:104D100040F2A41042F20041C2F20000C4F20101CC
:104D200000244FF46022012504730475C261C0E9B8
:104D3000001484600561FCF7E7FC002818BFFCF74D
:104D400037FB0520039040F2A410C2F2000001A935
:104D5000CDE90145FCF70EFC002818BFFCF728FB45
:104D600004B0B0BD80B582B041F21400C4F20200BC
:104D70000168002241F0010101600068002100F09B
:104D80000100019001980E20FDF780FC0E20FDF738
:104D900069FC0F2000210022FDF778FC0F2002B0F3
:104DA000BDE88040FDF75EBC2DE9F04F85B041F2D3
:104DB0001800C4F20200016841F2000741F010013E
:104DC00001600168C4F2010701F01001019101992D
:104DD0000168012241F02001016001684FF4005692
:104DE00001F02001019101990168012441F00401C1
:104DF0000160016801F0040101910199016841F02D
:104E00000801016000684FF4005100F008000190B3
:104E100001983846FDF70CFA38464FF4404100221D
:104E20004FF4404AFDF704FAA7F5806528464FF491
:104E3000004100224FF4004BFDF7FAF9A7F5006896
:104E400040464FF4E0510022FDF7F2F9CDE901644C
:104E500001AE4FF00209384631460394CDF8109068
:104E6000FDF7D2F838463146CDE901A4CDE9034437
:104E7000FDF7CAF84FF4405001900020CDE902043C
:104E800028463146FDF7C0F828463146CDE901B441
:104E9000CDE90399FDF7B8F84FF44060CDE901047E
:104EA00040463146CDE90344FDF7AEF84FF480505B
:104EB00001A981E8110240463146CDF81090FDF776
:104EC000A3F805B0BDE8F08F80B540F25C2045F254
:104ED0000041C2F20000C4F2000141F6802200232A
:104EE0004FF4804CC0F2060280E80E00C0E9033C9B
:104EF000C0E90533C0E90733FDF7A6F9002808BF6C
:104F000080BDBDE88040FCF753BA000010B58CB0FE
:104F100040F2B02042F600410024C2F20000C4F288
:104F20000101C0E900140321CDE9031401214FF66A
:104F3000FF728023CDE90514CDE9091403A9CDE959
:104F40000044C0E90242C0E904448361CDE907445A
:104F50000B94FEF7C3F9002818BFFCF729FA40F2BA
:104F6000B020C2F200006946CDE90044FDF7C4FF5D
:104F7000002818BFFCF71CFA0CB010BD10B594B097
:104F800040F2F8200021C2F200004FF0804241F6CA
:104F90001F430E91CDE90C110991CDE90711CDE91F
:104FA0000511CDE90311CDE90111C0E90021C0E9E6
:104FB0000213016180218161FDF7DCFF002818BF29
:104FC000FCF7F6F94FF480500B9040F2F820C2F253
:104FD00000000BA9FEF7B4F8002818BFFCF7E8F9A9
:104FE00040F2F820C2F20000FEF790FC002818BF43
:104FF000FCF7DEF940F2F8200024C2F2000008A914
:10500000CDE90844FDF778FF002818BFFCF7D0F978
:105010006020CDE9010440F2F820C2F2000001A9AD
:10502000082203940594FEF76BFB002818BFFCF7D9
:10503000BFF940F2F824C2F2000401A920460C2274
:10504000FEF75EFB002818BFFCF7B2F920680021CC
:10505000B0F1804F129101D014B010BD41F2180090
:10506000C4F20200016841F008010160006810A963
:1050700000F008000F900F984FF44060109002204D
:105080001190139040F60040C4F20100FCF7BCFF01
:105090000420C4F2010001684FF6FF42CFF6FF0280
:1050A000114041F0E06141F40071016014B010BDA5
:1050B00080B58CB040F2403040F200420021C2F294
:1050C0000000C4F20002C0E90021802282610322B4
:1050D0004FF6FF73CDE903210122CDE90011C0E9AC
:1050E00002130161CDE90521CDE90711CDE90921BF
:1050F0000B9103A9FEF7F2F8002818BFFCF758F946
:1051000040F24030C2F200006946FDF7F5FE00288B
:1051100018BFFCF74DF90CB080BD000080B586B01B
:1051200040F288300021C2F2000040F600024FF049
:10513000630C0591CDE90311CDE90011C4F2000221
:1051400041F61F43C0E9021C01618021C0E9002330
:105150008161FDF70FFF002818BFFCF729F94FF414
:105160008050029040F28830C2F2000002A9FDF7A0
:10517000E7FF002818BFFCF71BF940F28830C2F2A5
:1051800000006946FDF7B8FE002818BFFCF710F9CB
:1051900006B080BD80B540F2D03043F60001C2F2C7
:1051A0000000C4F2010100234FF00C0C4FF4E13277
:1051B00080E80E00C0E90333C0E905C3C361FFF70F
:1051C0003FF8002808BF80BDBDE88040FCF7F0B87C
:1051D00080B540F2184044F20041C2F20000C4F22F
:1051E000000100234FF00C0C4FF4E13280E80E0078
:1051F000C0E90333C0E905C3C361FFF721F8002804
:1052000008BF80BDBDE88040FCF7D2B8FEE70000D3
:1052100010B540F28830C2F20000FDF759FF40F2AD
:10522000F824C2F2000420460821FEF7E9FB2046DC
:105230000C21BDE81040FEF7E3BB0000B0B540F61E
:105240000004C4F2010420464FF40061002200254E
:10525000FCF7EEFF20464FF480610022FCF7E8FFE8
:1052600004F5006420464FF480410022FCF7E0FF83
:1052700020464FF400410022FCF7DAFF40F2F8200C
:10528000C2F200000068C5630564B0BDFEE700001F
:1052900080B50021C4F2C341FAF7C7FFFBF71CFA3F
:1052A00080BD000070B584B0012825D0002845D10C
:1052B000C82040F25C248DF80C00012603A8C2F23D
:1052C00000046425CDE90006204678210022012350
:1052D0000295FDF775F8A1208DF80D000DF10D0078
:1052E000CDE9000620467821002201230295FDF732
:1052F00067F804B070BD00BFC02040F25C248DF898
:105300000E0001260DF10E00C2F200046425CDE965
:10531000000620467821002201230295FDF750F86F
:10532000A0208DF80F000DF10F00CDE900062046FA
:105330007821002201230295FDF742F804B070BDE8
:105340002DE9F04F85B040F25C2504466427012624
:10535000C2F200050DF112080DF113094FF0000A19
:105360000AF1B0008DF8100004A8CDE90006284627
:105370007821002201230297FDF722F800208DF802
:1053800011000DF11100CDE9000628467821002218
:1053900001230297FDF714F810208DF8120028461B
:1053A000782100220123CDE900860297FDF708F855
:1053B0004FF0000B28467821402201238DF813403E
:1053C000CDE900960297FCF7FBFF0BF101004FFAC5
:1053D00080FBBBF1FF3FEDDCBAF1070F0AF1010AD8
:1053E000BED305B0BDE8F08F2DE9F04784B064204E
:1053F0006425FCF7F5FD40F25C24AE20C2F2000407
:105400008DF80F0001260DF10F07204678210022AC
:105410000123CDE9007602954FF00009FCF7D0FF9B
:105420004FF0200820467821002201238DF80F80BC
:10543000CDE900760295FCF7C3FF4FF0100A204635
:105440007821002201238DF80FA0CDE90076029586
:10545000FCF7B6FFB0208DF80F002046782100221F
:105460000123CDE900760295FCF7AAFFC8208DF84C
:105470000F002046782100220123CDE90076029515
:10548000FCF79EFF20467821002201238DF80F9023
:10549000CDE900760295FCF793FF204678210022A3
:1054A00001238DF80FA0CDE900760295FCF788FF67
:1054B00040208DF80F002046782100220123CDE9FD
:1054C00000760295FCF77CFF81208DF80F002046C6
:1054D000782100220123CDE900760295FCF770FFC8
:1054E000FF208DF80F002046782100220123CDE90E
:1054F00000760295FCF764FFA1208DF80F0020468E
:10550000782100220123CDE900760295FCF758FFAF
:10551000A6208DF80F002046782100220123CDE936
:1055200000760295FCF74CFFA8208DF80F0020466E
:10553000782100220123CDE900760295FCF740FF97
:105540003F208DF80F002046782100220123CDE96D
:1055500000760295FCF734FFA4208DF80F0020465A
:10556000782100220123CDE900760295FCF728FF7F
:10557000D3208DF80F002046782100220123CDE9A9
:1055800000760295FCF71CFF2046782100220123BB
:105590008DF80F90CDE900760295FCF711FFD5202C
:1055A0008DF80F002046782100220123CDE90076F6
:1055B0000295FCF705FFF0208DF80F0020467821BA
:1055C00000220123CDE900760295FCF7F9FED920EF
:1055D0008DF80F002046782100220123CDE90076C6
:1055E0000295FCF7EDFE22208DF80F002046782171
:1055F00000220123CDE900760295FCF7E1FEDA20D6
:105600008DF80F002046782100220123CDE9007695
:105610000295FCF7D5FE12208DF80F002046782168
:1056200000220123CDE900760295FCF7C9FEDB20BC
:105630008DF80F002046782100220123CDE9007665
:105640000295FCF7BDFE20467821002201238DF84B
:105650000F80CDE900760295FCF7B2FE8D208DF823
:105660000F002046782100220123CDE90076029523
:10567000FCF7A6FE14208DF80F00204678210022AA
:105680000123CDE900760295FCF79AFEAF208DF854
:105690000F002046782100220123CDE900760295F3
:1056A000FCF78EFE0020FFF74BFE04B0BDE8F0874C
:1056B0002DE9F04389B040F2604040F2A406C2F206
:1056C0000000C2F2000601683268891A6429C0F03D
:1056D0001F8200683060707E042800F21982DFE8C3
:1056E00010F0050095002D018301C10140F25C1905
:1056F000C2F20009D9F80C2047F6E13103ACC0F63C
:105700000001204601F08CF90020002122460123EF
:1057100000F050FA40F27C18C2F20008D8F80C20D1
:1057200047F6E931C0F60001204601F079F9002082
:1057300001212246012300F03DFA40F26807C2F23F
:105740000007D9F81800FD68FAF7FEFF0B4647F688
:1057500069410090C0F6000120462A46019301F0FD
:105760005FF9002002212246012300F023FAD8F835
:1057700018003D69FAF7E8FF0B4647F679410090BB
:10578000C0F6000120462A46019301F049F90020A5
:1057900003212246012300F00DFAD9F80000FAF7A0
:1057A000D3FF40F27C05C2F20005EF680B4647F6D6
:1057B0009F310246C0F600012046009701F030F903
:1057C000002004212246012300F0F4F9D8F800005B
:1057D000FAF7BAFF2F690B4647F68A310246C0F640
:1057E00000012046009701F01BF900200521224608
:1057F000012300F0DFF9726847F6F131C0F60001CD
:10580000204601F00DF906217DE100BF40F22C0099
:10581000C2F200000068FAF797FF0B4643F23331FB
:105820000246C3F6D3714FF03330FAF787FE46F2E3
:105830000003C4F298030022FAF70EFEFAF765FFA0
:1058400047F6E13103AC0246C0F60001204601F004
:10585000E7F8002000212246012300F0ABF940F2D6
:105860005C1040F27C11C2F20000C2F200018068BC
:105870008968084400EBD07047F6E9314210C0F661
:105880000001204601F0CCF800200121224601232E
:1058900000F090F9B27F96F8303047F6B431C0F698
:1058A0000001204601F0BCF800200221224601231D
:1058B00000F080F9327F47F61C41C0F60001204617
:1058C00001F0AEF8002003212246012300F072F916
:1058D000B27E47F62F41C0F60001204601F0A0F845
:1058E000002004212246012300F064F996F83120BB
:1058F00047F64B41C0F60001204601F091F8002028
:1059000005212246012300F055F9F27F47F60F41A9
:10591000C0F60001204601F083F80020062122464F
:10592000012300F047F996F8202047F63E41C0F6E3
:105930000001204601F074F80721E4E00020002572
:10594000FBF7F4FD47F6E13103AC0246C0F6000177
:10595000204601F065F8002000212246012300F0D6
:1059600029F90820FBF7E2FD47F6E9310246C0F6C7
:105970000001204601F054F80020012122460123B5
:1059800000F018F90420FBF7D1FD47F6C4310246B8
:10599000C0F60001204601F043F800200221224613
:1059A000012300F007F9327F47F61C41C0F60001E1
:1059B000204601F035F8002003212246012300F0A3
:1059C000F9F843F62050C0F2200003900020042193
:1059D0002246012300F0EEF842F23500C2F23D000B
:1059E0008DF8105003908DE096F8282047F6F93195
:1059F00003ACC0F60001204601F012F8002000219F
:105A00002246012300F0D6F896F8232060A1204614
:105A100001F006F8002001212246012300F0CAF817
:105A200096F8292047F6CD31C0F60001204600F057
:105A3000F7FF002002212246012300F0BBF896F870
:105A4000252056A1204600F0EBFF0020032122462E
:105A5000012300F0AFF896F8262053A1204600F06D
:105A6000DFFF40E096F8223096F8272003AC2AA109
:105A7000204600F0D5FF002000212246012300F03F
:105A800099F896F8233096F8282029A1204600F0AE
:105A9000C7FF002001212246012300F08BF896F871
:105AA000243096F8292028A1204600F0B9FF0020D4
:105AB00002212246012300F07DF896F8253096F861
:105AC0002A2027A1204600F0ABFF00200321224618
:105AD000012300F06FF896F8263096F82B2026A1C7
