:020000040800F2
:10000000C00A002035020008A95E0008254000084B
:10001000514B0008951500084D79000800000000BC
:10002000000000000000000000000000796D0008E2
:10003000B115000800000000056C0008A57000085C
:100040004F0200084F0200084F0200084F0200084C
:100050004F0200084F0200084F0200084F0200083C
:100060004F0200084F0200084F0200084F0200082C
:100070004F0200084F0200084F0200084F0200081C
:1000800099150008A51500084F0200084F02000846
:100090004F0200084F0200084F0200084F020008FC
:1000A0004F0200084F0200084F0200084F020008EC
:1000B0004F020008AD700008B97000084F02000838
:1000C0004F0200084F0200084F0200084F020008CC
:1000D0004F0200087D750008897500084F0200086E
:1000E0004F0200084F0200084F02000800F002F81B
:1000F00000F090F80AA090E8000C82448344AAF132
:100100000107DA4501D100F085F8AFF2090EBAE82F
:100110000F0013F0010F18BFFB1A43F0010318473B
:10012000F89C0000189D0000103A24BF78C878C1E0
:10013000FAD8520724BF30C830C144BF04680C60ED
:10014000704700000023002400250026103A28BF35
:1001500078C1FBD8520728BF30C148BF0B60704739
:100160006E2900F0D782702900F02786662909F0F1
:100170003081652909F02D81672909F02A816129DB
:1001800009F0298103681B0A28BF41F08001692911
:1001900000F0C080642900F0BD80752900F0BA80AD
:1001A0006F2900F0B585782900F0F385E92900F082
:1001B0004F85E42900F04C85F52900F04985EF29A9
:1001C00000F0B285F82900F0F2850368DB0928BF4A
:1001D00041F08001632901F05180732901F05680BC
:1001E000E32901F06180F32901F066800020704767
:1001F0001FB500F031FE04000020002108F0BAF81D
:10020000401C60600020002108F09EF8E0601FBDE7
:1002100010B510BD01F03AF91146FFF7E9FF07F0FC
:10022000DDFB01F066F903B4FFF7F2FF03BC01F058
:10023000A9F900000948804709480047FEE7FEE7A2
:10024000FEE7FEE7FEE7FEE7FEE7FEE7FEE7FEE786
:1002500004480549054A064B70470000A97000088C
:10026000ED000008C0040020C00A0020C0060020E5
:10027000C00600201CB50C46064B7B446946009026
:10028000204600F06EFC04460020694600F07CFC2D
:1002900020461CBD0B0900000FB41CB5084B06AA74
:1002A0007B4469460090059800F05BFC0446002002
:1002B000694600F069FC20461CBC5DF814FB000098
:1002C000E508000070B5044685690068C10601D5DF
:1002D000302600E02026C00707D070BDD4E90121F8
:1002E00030469047206A401C20626D1EF6D570BDD6
:1002F00070B5044685690078C00707D170BDD4E9A0
:10030000012120209047206A401C20626D1EF6D5F6
:1003100070BD00002DE9F0410646002410687529E3
:10032000314616A510D000F061F9002802DA4042EB
:1003300013A507E031688A0701D512A502E0490735
:1003400004D511A5012401E000F059F900210A2289
:1003500006F1240709E0B0FBF2FCB0FBF2F302FB6C
:100360001C00303078541846491C0028F3D123462D
:100370002A463046BDE8F04100F073B900000000A5
:100380002D0000002B000000200000002DE9F05F90
:10039000894604464FF0000ADFF874B1FB44C0F808
:1003A00020A02046E1688847002874D0252806D080
:1003B000D4E901219047206A401C2062F1E7002621
:1003C0005F462046E16888472028054607DB312D37
:1003D00005D2781910F8200C08B10643F1E7B007F0
:1003E00001D526F00406C4F81CA00027C4F818A004
:1003F0002A2D09D0284607F09FFF38B304EB870861
:10040000303DC8F8185019E059F8041B204604EB99
:1004100087029161E1688847012F054618D1E0699C
:10042000002820DA26F020061DE0D8F8180000EB9E
:10043000800005EB40003038C8F818002046E1681D
:100440008847054607F078FF0028EED1012F0AD033
:100450002E2D08D12046E16888477F1C0546022FD3
:1004600046F02006C4DBA069002803DA404246F0CB
:100470000106A061F00701D026F010066C2D0BD00C
:10048000682D09D04C2D39D06A2D35D0742D35D03A
:100490007A2D33D016E038E0E1682F4620468847B1
:1004A000B842054609D16C2F26D04FF48060E16830
:1004B000064320468847054604E06C2F1AD04FF4C7
:1004C000807006430DB3A5F14100192802D82035EC
:1004D00046F400664A462946204626604E46FFF707
:1004E0003FFE80B101280BD0F61D26F0070000F179
:1004F000080956E74020E4E78020D8E70020D6E747
:1005000006F104094DE7284652E7206ABDE8F09F4E
:100510003A90000070B5064600F064F8046805469D
:1005200030460A22002100F053FC2C6070BD30B52B
:1005300005460B462A4613F8014B12F8010B08B189
:10054000A042F8D01CB1002802D06D1CF1E728466B
:1005500030BD10B5431C02E010F8011B71B18107DA
:10056000FAD14FF0013202C88C1A8C4314EAC2113E
:10057000F9D0C01A0A0603D0C01E10BDC01A10BDA3
:100580000A0401D0801E10BD0902FCD0401E10BD1F
:100590004FF0000200B5134694469646203922BF1C
:1005A000A0E80C50A0E80C50B1F12001BFF4F7AF67
:1005B000090728BFA0E80C5048BF0CC05DF804EB49
:1005C000890028BF40F8042B08BF704748BF20F8B7
:1005D000022B11F0804F18BF00F8012B70477047B5
:1005E00070477047004870475800002009684A0566
:1005F00001D540B27047C905FCD500B27047096803
:100600004A0501D5C0B27047C905FCD580B2704714
:1006100070B50C460546012A05D02878800600D51D
:10062000EA69002302E0012305E05B1C934202D249
:10063000E05C0028F9D1A869E618C01AA861286A08
:10064000184428622846FFF73DFE04E0D5E9012161
:1006500014F8010B9047B442F8D32846FFF748FE40
:1006600070BD2DE9F0470D4699469246044600F1CB
:1006700024080168880604D5E06921F01001216092
:1006800000E00120A84201DD471B00E00027A1692E
:100690007A1902EB0900081AA0612078C00602D47A
:1006A0002046FFF70FFE002608E0D4E901211AF8E2
:1006B00006009047206A401C761C20624E45F4DB01
:1006C0002078C0060AD52046FFF7FCFD06E0D4E9F5
:1006D000012130209047206A401C2062381EA7F17B
:1006E0000107F4DC07E0D4E9012118F80500904780
:1006F000206A401C2062281EA5F10105F3DC20467B
:10070000FFF7F6FD2078000602D50220BDE8F0874D
:100710000120FBE711680268006A530501D50870E3
:100720000AE0D30501D5088006E0130603D5C217F9
:10073000C1E9000200E00860012070472DE9FF4F89
:100740000C461E464FF0FF378BB0D2E90001DDF8B2
:1007500060800A908A46C1F30A5505B93D460021DA
:1007600008464FF00000BAF1000F00F4400005DA2F
:1007700000EB80004FF4400101EA50004FEA90592D
:10078000B9F1010F00DDB9460A9850EA4A000ED0CF
:1007900044F61050A5F2FF3545432F14B8F1000F71
:1007A0001ED07542291E1EDDC9F100021CE0B8F101
:1007B000010F4FF0000001D0302103E0F24305E0CB
:1007C0002154401CB042FBDB304600220021215462
:1007D0000B99C1F80880C1E900200FB0BDE8F08F87
:1007E000BD1B6D1CDEE74A4600DA694206A800F030
:1007F000B7FD06AB93E8070003AB83E8070050465C
:100800000A9907F0BCF98DE80700A0F500501F38E1
:1008100000900398002D0ADD42F21F014A46084469
:10082000002303A90390684607F026FC09E0A0F521
:1008300000504A461F38002303A90390684607F07A
:1008400030FC8DE807000004000C03D04FF0FF30AF
:10085000410800E01046B8F1000F03D000220092DA
:1008600015461EE0751E05D400F0FAFA30326255C6
:100870006D1EF9D5B3460122084302D000227F1C29
:1008800004E02078302801D100227F1E002A099739
:1008900084D01DE0112D07DA00F0E2FA3032625503
:1008A0006D1C50EA0102F5D1084302D00098C8B18E
:1008B0000EE00021681E05E0235C625C6354225454
:1008C000401E491C8142F7DBAB46A81B401E099025
:1008D000002004F80B000B98099AC0F80880C0E9C2
:1008E000002B7AE711264FF0000857E72DE9F04F6B
:1008F00088460446D21D22F0070191B0D1E90001DB
:10090000CDE90A0107F004FD02460B98C00F01D0A3
:100910002D2007E02068810701D52B2002E020214F
:1009200001EAC000032A099001D0072A05DB03462B
:100930004146204600F058FC0BE12078800601D5A6
:10094000E06900E00620B8F1650F814606D0B8F1F5
:10095000660F18D0B8F1670F70D131E00020B9F1FF
:10096000110F009001DB112301E009F101030AAA34
:1009700001A90CA8FFF7E2FEDDE90C70002609F1E1
:100980000105834647E001204B4600904FF00047A9
:100990000AAA01A90CA8FFF7D1FEDDE90DB00C9958
:1009A0005D46002610B909F101000D18B9EB0500EC
:1009B00003D4C0F1FF3609F10105A5EB09002BE0D6
:1009C000B9F1010F01DA4FF001090020B9F1110F5F
:1009D0000090484601DD112300E003460AAA01A960
:1009E0000CA8FFF7ABFEDDE90C704D4600268346F0
:1009F000207800070AD4AB4500DA5D4601A8012D36
:100A000004DD411911F8011C302907D04F4502DAE5
:100A100017F1040F04DA012082460FE06D1EEEE7A5
:100A2000002F02DCED1B3E4403E0781CA84200DDF1
:100A30007D1CB81B00F1010A4FF000472078000729
:100A400003D4AA4501DB4FF0FF3A0021B7F1004F74
:100A50000DF143088DF8431024D002202B23002FE2
:100A600001DA7F422D230A21021EA0F1010000DCE1
:100A70005FB197FBF1FC97FBF1F201FB1C7C174681
:100A80000CF1300C08F801CDEEE7A8F1010003707D
:100A90002188090501D5452100E06521A0F1010863
:100AA00000F8011C09980FA9A1EB0807FF1D00B170
:100AB0000120411901EBEA70A1693844081A401E6F
:100AC000A0612078C00602D42046FFF7FBFB0998FE
:100AD00028B1D4E901219047206A401C2062207887
:100AE000C00622D52046FFF7EDFB1EE0002E04DBFA
:100AF000B34502DD01A8805D00E03020D4E901218A
:100B00009047206A401C2062761CAAF101005FEA2F
:100B1000000A0AD100F0A0F9C0680168405CD4E97D
:100B200001219047206A401C2062281EA5F1010582
:100B3000DCDC07E0D4E9012118F8010B9047206ABA
:100B4000401C2062381EA7F10107F3DC2046FFF7A6
:100B5000CFFB032011B041E601694A1C026108780D
:100B6000704700B58FB0CDE90131002105910549ED
:100B70007944CDE9031011466846FFF707FC0FB032
:100B800000BD0000E5FFFFFF0A6802F8010B0A60E4
:100B9000704700002DE9FF5F15468A460446DFF8DE
:100BA000AC80F8440027D8E900103E46CDE900109B
:100BB00010E03AF816106A4602A800F043FC411C07
:100BC00007D02178890603D5E269391891420DD8FA
:100BD0000744761C2078800602D5E069B84205DD1E
:100BE000AE42E6DB3AF816000028E2D1A069C01B4D
:100BF000A0612046FFF766FBD8E90010CDE90010A0
:100C0000002017E03AF818106A4602A800F01AFC13
:100C1000B0F1FF3F81460BD000250DF1080B05E038
:100C2000D4E901211BF8050090476D1C4D45F7D311
:100C300008F10100B0428046E4DB206A38442062BB
:100C40002046FFF755FBBDE8FF9F000046880000E7
:100C50002DE9F0418046D21D22F007020025D2E99D
:100C60000002F52915A614D0011E72F1000106DA62
:100C70000023D0EB030063EB020211A608E0D8F8D2
:100C800000108B0701D50FA602E0490701D50EA67B
:100C900001251146002408F1240704E000F0E0F8E3
:100CA00030323A55641C50EA0102F7D12B463246E5
:100CB00021464046BDE8F041FFF7D3BC00000000EC
:100CC0002D0000002B0000002000000030B40021A7
:100CD00000F1240408E002F00705D208303542EAAA
:100CE0004372DB086554491C52EA0305F3D10468DA
:100CF000002310A2250708D504F020040C4304D0DB
:100D0000C46901230CA2641EC46130BCFFF7A9BCF6
:100D100010B5044621461068FFF771FC02462046D4
:100D2000BDE810400023D1E7D21D22F00701D1E930
:100D30000023CBE70000000030000000F0B40D46B7
:100D40000188090502D5214C7C4402E01F4C7C44FB
:100D50000E34002100F1240608E002F00F0712090A
:100D6000E75D42EA03721B097754491C52EA030704
:100D7000F3D102780023120704D5702D06D009B1F3
:100D8000022311342246F0BCFFF76BBC0123103460
:100D9000F8E770B504460D4621461068FFF72FFCB2
:100DA000024629462046BDE870400023C6E7D21D12
:100DB00022F00703D3E90023C0E70368126843F079
:100DC000200303600823C3610023B7E7A88600005F
:100DD0002DE9F04791460F4680460446002614F858
:100DE000015B2DB100F030F80068405DC007F6D11E
:100DF0002B2D02D02D2D18D0641E4A463946204690
:100E000000F05EFA27B13968A14201D1C7F800802D
:100E10004FF0020471050BD54042002803DDFFF7B7
:100E2000E1FB0460A007BDE8F08746F48066E4E7D4
:100E30000028F8DAFFF7D6FB04606FF00040F2E715
:100E4000004870475800002010B500F005F8001D5C
:100E500010BD00BF217500000048704778000020D9
:100E600030B5B0F10A0271F100034FEA900E4EEA7C
:100E7000817EB0EB0E0061EB91014FEA101E4EEA4D
:100E8000017E10EB0E0041EB11114FEA102E4EEADD
:100E9000016E10EB0E0041EB11214FEA104E4EEAAD
:100EA000014E10EB0E0041EB1141401841F10001E1
:100EB0004FEAD00040EA41704FEAD1014FEA810485
:100EC00044EA907410EB800544EB01046D1944EB87
:100ED0000404521BA3414FF0000348BF0A3200D55F
:100EE00030BD401C41F1000130BD00002DE9F04F44
:100EF00004460D46D21D22F0070089B0D0E90097C4
:100F00004846394607F004FA0246F80F01D02D236F
:100F100007E02068810701D52B2302E0202101EAA8
:100F2000C0038DF820300BB1012000E00020032A1F
:100F3000824601D0072A04DB2946204600F054F9F6
:100F40003FE12078800601D40D2500E0E569C7F374
:100F50000A560D2D49DA00214FEA175B08464FF07B
:100F60000000002F00F4400007DA00EB80004FF48F
:100F7000400100EBD07001EA60008115012901DD1C
:100F80004FF0FF3100224FEA850CBCF1180F06D359
:100F90001346ACF118004FF08052C24003E04FF40A
:100FA000801323FA0CF30CF10C0CBCF1200F04D3CA
:100FB000ACF1200C09FA0CF001E007FA0CF0002962
:100FC0004FF0004801DD18B90FE00ED140450CD3B9
:100FD00019EB02095F4121B9404502D19F4329EA3B
:100FE0000209BBEB175F00D0761C2088000502D5F4
:100FF0007B48784402E07A487844193808AA3023BC
:1010000002F80A30037C0AF10101002E0AF1020AFB
:1010100053546A4602DC4FF0300101E04FF03101D9
:101020004FF001088DF8001002D0A6F2FF3603E061
:1010300059EA470100D06B4E002D02DC21780907E8
:1010400004D54FF002082E218DF80110C44600216E
:101050000BE0C7F303433F01C35C491C6D1E02F85C
:101060000830052908F1010801DA002DF1DC002122
:101070000CE000EB1973491C1B786D1E082902F85F
:1010800008304FEA091908F1010801DA002DF0DCF7
:1010900021688B0602D516E0A8F10108E04505DDC0
:1010A00002EB080313F8013C302BF5D0B8F1000F28
:1010B00009DD02EB080313F8013C2E2B03D10907CD
:1010C00001D4A8F10108002D05DD3E2102F8081029
:1010D0006D1E08F10108407C002E02F8080008F19E
:1010E000010804DA2D20764202F8080002E02B20E5
:1010F00002F808000A214FF47A70864208F10108CC
:101100000BDB96FBF0F3303302F8083096FBF0F37C
:1011100008F1010800FB136601E0642E0CDB64207B
:1011200096FBF0F3303302F8083096FBF0F308F149
:10113000010800FB136601E00A2E06DB96FBF1F0C6
:10114000303002F8080008F1010896FBF1F001FBCD
:101150001060303002F80800A16908F1010808EBBE
:10116000050202EB0A00081AA0612078C00602D42A
:101170002046FFF7A7F8216A08AE01EB0A002062BB
:1011800004E0D4E9012116F8010B9047BAF1010AF5
:10119000F7D22078C00602D52046FFF793F86E46B6
:1011A00009E016F8010B3E280FD0D4E90121904741
:1011B000206A401C2062B8F10108F2D22046FFF7F5
:1011C00097F809B00320BDE8F08F206A2844206218
:1011D00003E0D4E90121302090476D1EEBD3F8E7FE
:1011E0003984000002FCFFFF2DE9F0411F46044650
:1011F00003260168072A01F4006004DB08B116A584
:1012000005E016A503E008B115A500E015A521F03D
:1012100010002060A069C01EA0610FB1401EA06137
:101220002046FFF74FF84FB1D4E9012138469047E7
:10123000206A401C2062C01C206206E0206AFAE797
:10124000D4E9012115F8010B9047761EF8D220460B
:10125000FFF74EF8BDE8F0814E414E006E616E0022
:10126000494E4600696E660010B5436913B1AFF38D
:10127000008001E0FFF7CCF9012010BD127800F1E9
:1012800024010A7000224A700122EDE711684FF034
:10129000FF32E9E710B5436913B1AFF3008001E015
:1012A000FFF778FC012010BD128800F12401828430
:1012B0000022C2840122EDE711684FF0FF32E9E716
:1012C0002DE9F05F824615468B4600270AF101049E
:1012D000B9460078302801D09DB113E014F8010B15
:1012E0000127782803D0582801D045B10AE00DB174
:1012F000102D07D1002714F8010B102502E0082556
:1013000000E00A250026B0460EE005FB080005FBBC
:1013100006F101271FFA80F801EB1046B6F5803F71
:1013200000D3B94614F8010B294600F0D4F8002880
:10133000EBDABBF1000F05D00FB1641E00E054469C
:10134000CBF80040B9F1000F06D0FFF74BF90221AE
:101350000160C81EBDE8F09F48EA0640FAE70000B9
:101360002DE9F047814616468AB0354878440DC8C5
:101370008DE80D0032487844801C03AC0DC884E829
:101380000D0041F69B300844372190FBF1F290FBB1
:10139000F1F5A5F1800501FB12041B3C02D5644266
:1013A000012000E00020DFF898A080460027FA44E2
:1013B000AAF1BE0A0EE0E0070AD03246684607EB03
:1013C000470101230AEB810106F06BFE8DE807005F
:1013D00064107F1C002CEED1194F7F44AE3F19E002
:1013E000E80715D007EB04100DF1180A90E80E007D
:1013F0008AE80E00C068F04201D198190890324680
:10140000012306A903A806F04CFE03AB83E80700FE
:101410006D10641C002DE3D14FF001033246694684
:10142000B8F1000F03A802D006F026FE01E006F096
:1014300038FEC9E90001C9F808200AB0BDE8F08704
:10144000508100002DE9F04116460C460546FFF795
:10145000FBFC036893F80101012807D0FF2C12D888
:10146000185D80B101202C70BDE8F081D3F8070130
:101470003246214603F20713C7182846BC46BDE88A
:10148000F041002360474FF0FF30EDE77546FFF76E
:10149000D7FCAE4605006946534620F00700854656
:1014A00018B020B5FEF7D4FEBDE820404FF000068E
:1014B0004FF000074FF000084FF0000BAC46ACE8CF
:1014C000C009ACE8C009ACE8C009ACE8C00921F02B
:1014D00007018D4670473A2800D2303820F02002AC
:1014E000412A01D3A2F13700884201D34FF0FF30E7
:1014F000704710B50446AFF300802046BDE81040A9
:10150000FEF791BE4FF0013C50F8042B51F8043B1C
:101510009A4221D1A2EB0C03934313EACC1317D1C7
:1015200050F8042B51F8043B9A4215D1A2EB0C035E
:10153000934313EACC130BD150F8042B51F8043B1E
:101540009A4209D1A2EB0C03934313EACC13DBD0EC
:101550004FF00000704700BFD01A01BAB1FA81F114
:1015600001F0180122FA01F0CB40DBB2C0B2C01A80
:10157000C1F120012CFA01F3D11A914311EAC311F0
:10158000E6D1704701491820ABBEFEE726000200F5
:1015900070470000FEE7000040F2B010C2F2000009
:1015A00000F08CB840F2F410C2F2000000F086B8EF
:1015B00070470000EFF3108072B600BFFEE7000036
:1015C000014690F82100022816D10868D1E90FC31E
:1015D000026822F00E020260026822F0010202603C
:1015E000012000FA03F2CCF8042081F82100002049
:1015F000002281F820207047042088630120002207
:1016000081F820207047000080B590F82110022951
:1016100024D10268116821F00E0111602F21136896
:10162000C4F202018A4240F20401C4F2020123F032
:101630000103136016DD3023C4F202039A421DD069
:101640004423C4F202039A421CD05823C4F202037A
:101650009A421DD14FF4803322E000BF0421816300
:10166000012080BD0823C4F202039A420ED01C233D
:10167000C4F202039A420BD1102311E04FF480739D
:101680000EE000BF4FF480530AE000BF012307E0E3
:1016900001F1680C4FF08073624508BF4FF480136E
:1016A0000B60012180F82110426B002180F820108E
:1016B0000AB190470021084680BD000010B5D0E96E
:1016C0000FCE0168DCF800300A6823FA0EF35C07DD
:1016D0002AD512F0040427D00A68920603D40A68B7
:1016E00022F004020A602F22C4F20202914240F268
:1016F0000402C4F202025BDD3023C4F20203994209
:1017000072D04423C4F20203994273D05823C4F226
:101710000203994240F07A804FF480231360C16A3B
:10172000002940F098806FE09C0727D512F0020452
:1017300024D00A68920606D40A6822F00A020A60D7
:10174000012280F821202F22C4F20202914240F2AD
:101750000402C4F202023BDD3023C4F202039942C8
:1017600060D04423C4F2020399425FD05823C4F2EC
:101770000203994260D14FF4003365E01B0743D563
:1017800012F0080208BF10BD0A6822F00E020A60BB
:10179000012101FA0EF2CCF80420816380F82110B7
:1017A000016B0022002980F8202054D12CE000BFDA
:1017B0000823C4F20203994222D01C23C4F202037C
:1017C000994223D140231360C16A002943D11BE011
:1017D0000823C4F2020399422CD01C23C4F2020352
:1017E000994229D120232FE04FF480631360C16A0E
:1017F00089BB09E04FF480431360C16A59BB03E021
:1018000004231360C16A31BB10BD00BF02F168043C
:101810004FF08063A14208BF4FF480031360C16A98
:10182000C9B9F1E74FF400730EE000BF4FF4005365
:101830000AE000BF022307E002F168044FF00073E2
:10184000A14208BF4FF400131360816A00220029EF
:1018500080F82020D8D0BDE8104008470146002875
:101860004FF0010008BF70472DE9F043D1F800C0E8
:101870004FF6F873CBF6FD734CF6CD426344CCF6CD
:10188000CC42A3FB02236FF0030707EA9303002770
:10189000C4F2020701F10C09C1E90F730223D1E977
:1018A000012E99E87002D1F81C8081F82130DCF813
:1018B000003043F6F077BB431A4342EA0E0222435C
:1018C0002A43324342EA090242EA0802CCF80020E5
:1018D00000228A6381F8210081F820200020BDE8E1
:1018E000F0437047F0B590F820C0BCF1010F32D042
:1018F0004FF0010E80F820E090F821C0BCF1010FFC
:1019000026D14FF0020C80F821C04FF0000CC0F837
:1019100038C0D0E900C4C56AC66BDCF80070102C72
:1019200027F00107CCF80070006C0EFA00F0706030
:101930000846CCF8043004BF10460A46CCF808002C
:10194000CCF80C20DCF8000045B140F00E000DE0B2
:10195000002180F820100220F0BD00BF20F004001C
:10196000CCF80000DCF8000040F00A00CCF80000E1
:10197000DCF8000040F00100CCF800000020F0BDD1
:10198000B0B5044600F02AF9054640F20000C2F264
:1019900000000078611C18BF044400BF00F01EF96D
:1019A000401BA042FAD3B0BD2DE9F04F82B00E68C3
:1019B000002E00F0038141F20042C4F20102042330
:1019C00040F2004E904208BF03234FF6FF7CC4F262
:1019D000010E009300240123C1F2100C4FF0000A05
:1019E0004FF0000949E000BF012704F00C030F226B
:1019F0009A402BEA020207FA03F34FEA9A051A43C8
:101A000046F82520D1F804B040F20C455FEACB221D
:101A1000DEF8082054BF22EA080242EA0802C4F2B3
:101A20000105CEF808202A685FEA8B2354BF22EA1A
:101A3000080242EA08022A605FEA8B33DEF80420DB
:101A400054BF22EA080242EA08025FEACB33CEF82A
:101A50000420DEF800204FF0010354BF22EA080200
:101A600042EA0802CEF800200E680AF1010A36FAAE
:101A70000AF204F1040400F0A18003FA0AF816EA5D
:101A8000080FF1D04E68664512DC122E56D8DFE8FA
:101A900006F0350B45495555555555555555555530
:101AA0005555554D510000BFD1F80C9046E000BF90
:101AB0004FF6FF72C1F2210296420FDC0022C1F202
:101AC000110296421AD00022C1F21202964215D09B
:101AD0000022C1F22102964210D02FE00022C1F272
:101AE000220296420AD00022C1F23102964205D06B
:101AF0000022C1F23202964220D100BF8A684AB168
:101B0000012A14BFC0F81480C0F810804FF00809F3
:101B100014E000BF4FF0040910E000BFCA6802F1F2
:101B200008090BE04FF0000908E000BFCA6802F1A5
:101B3000040903E0CA6802F10C0900BF2246064608
:101B4000BAF1080F24BF203A043637680F259540B4
:101B500027EA050509FA02F22A433260CA79D20659
:101B60007FF582AF41F21803C4F202031A68AEF5A2
:101B70007E7642F001021A601A6802F001020192B8
:101B8000019A2AF0030256F802B040F60002C4F2AD
:101B90000102904210D040F60042C4F2010290428D
:101BA0003FF422AF41F20002C4F20102009F9042D2
:101BB00008BF022719E700BF002716E702B0BDE8FB
:101BC000F08F00008068084018BF012070470000B7
:101BD000002A08BF090401617047000040F2BC40C0
:101BE000C2F200000068704770B5B8B3044690F8C0
:101BF0003D0028B9002084F83C00204600F05CF944
:101C0000242084F83D002068016821F00101016072
:101C1000016841F400410160016821F40041016064
:101C200000F020FB48F28041C0F21E0140F6001394
:101C3000D4F804E088424FF00001C0F23D0348F2BE
:101C4000A16C4FF0000238BF01219842C0F2010C94
:101C500038BF0122E64538BF0A460AB1012070BDEF
:101C60004DF68361C4F21B31A0FB01122168950C73
:101C70004B684FF4967623F03F0343EA9243754353
:101C800044F6D3564B60C1F262060B6AA5FB0656BA
:101C9000B50923F03F03E64538BF950C6A1C1A438B
:101CA0000A62CA6948F2A0664CF6FF73C0F20106E8
:101CB000B64522EA03020BD801384FEA4E03B0FBC7
:101CC000F3F001306FF31F30042898BF04201EE0AA
:101CD000A368013863B119230EFB03F3B0FBF3F0E3
:101CE00001306FF31F3078B100F5804008E000BF8D
:101CF0000EEB4E03B0FBF3F001306FF31F3028B151
:101D000000F5004003E000BF012000E00120104387
:101D1000C8610868D4E9072320F0C00010431843C5
:101D20000860886848F2FF3204F10C0690434CCEFC
:101D300018431043A5698860C86820F0FF0030434D
:101D40002843C860086840F0010008600020202196
:101D5000206484F83D10206384F83E0070BD0000CC
:101D60002DE9F04383B0994616460F460446FFF727
:101D700035FF94F83D10202920D10546206800BF8A
:101D80008169890716D5FFF729FF411B20681A29A9
:101D9000F6D381698907F3D500202021206384F8D8
:101DA0003D1084F83E00216C41F02001216484F84C
:101DB0003C0003E094F83C10012903D1022003B059
:101DC000BDE8F083012284F83C200368DDE90B18AC
:101DD0000A9ADB0703D1036843F001030360036839
:101DE00023F400630360212084F83D00402084F840
:101DF0003E000020206462626185608D3946208546
:101E00000020CFF6FF70E062204632464B46CDF808
:101E10000080019502F008F920B1012003B0BDE86F
:101E2000F08300BF208D98B9204641462A4602F033
:101E30005FF988B3206C0428EFD12068016841F471
:101E400000710160012003B0BDE8F0830004EBD015
:101E5000204641462A4602F005FB0028EAD1616A85
:101E60002268084610F8013B1361238D6062581EFA
:101E70002085678D013F678557697F07E6D5070491
:101E8000E4D048781061881C6062981E2085618DBE
:101E900001396185DAE700BF2068016841F400710B
:101EA0000160202084F83D00002084F83E0084F882
:101EB0003C0003B0BDE8F08310B586B0006845F281
:101EC0000042C4F2000200219042049102D006B008
:101ED00010BD00BF41F21804C4F20204206802A938
:101EE00040F008002060206800F008000190019890
:101EF0004FF440700290122003900320059040F6AA
:101F00000040C4F20100FFF74FFD0420C4F20100BD
:101F1000016841F0E06141F002010160606840F455
:101F200000106060606800F400100190019806B035
:101F300010BD000040F2000040F2BC41C2F20000BF
:101F4000C2F2000100780A6810440860704700007F
:101F500080B542F20000C4F20200016841F01001B5
:101F60000160032000F08EF80F2000F005F800F06B
:101F700027F8002080BD000070B540F20006C2F2D4
:101F8000000640F250013278C2F200014FF47A7339
:101F90000968B3FBF2F20446B1FBF2F1084600F027
:101FA00063FB0F2C4FF0010508D838B94FF0FF3014
:101FB00021460022002500F039F87460284670BDE3
:101FC00082B041F21800C4F202000168022241F01E
:101FD00001010160016801F001010191019941686D
:101FE00041F080514160406800F0805000900098BE
:101FF0000420C4F20100016862F31A61016002B0BA
:1020000070470000002848BF7047C1B200F01F00B1
:10201000012202FA00F04EF20012CEF2000242EA71
:10202000D10121F0030108607047000010B54EF6A1
:102030000C5CCEF2000CDCF80030C3F3022E8EF004
:102040000704042C28BF0424BEF103034FF0FF3E15
:102050000EFA04F438BF0023A14399400EFA03F3AB
:102060009A43114300F00F0200F160430901043A62
:1020700003F564436244002848BF02F10C03197061
:1020800010BD00004EF60C51CEF200010A684FF66A
:10209000FF031A4060F30A2242F0806040F0FD70B6
:1020A000086070472DE9F04381B0002800F085807A
:1020B00042F20008C4F202080446D8F800000D46B7
:1020C00000F0070088420CD2D8F8000020F007008A
:1020D0002843C8F80000D8F8000000F00700A84224
:1020E0006BD1206841F204098107C4F2020917D5B7
:1020F000410705D5D9F8001041F4E061C9F8001096
:10210000010705D5D9F8001041F46051C9F8001055
:10211000D9F80010A26821F0F0011143C9F80010AD
:10212000C00741D1D8F8000000F00700A8420CD940
:10213000D8F8000020F007002843C8F80000D8F8BD
:10214000000000F00700A84237D12068410707D5FA
:10215000D9F80010E26821F4E0611143C9F80010D9
:10216000000708D5D9F80000216920F4605040EA42
:10217000C100C9F80000D9F8002002F00C000828BE
:1021800041F20020C0F27A0050D149F60A53C2F35E
:102190008341C0F60003595CD2033BD440F60010E3
:1021A000C0F23D00484341E0606802280AD001289F
:1021B0002AD159F8041C890308D4012001B0BDE8D4
:1021C000F08300BF59F8041C8901F6D5D9F8001036
:1021D00021F003010843C9F80000FFF7FFFC0646A1
:1021E00041F28837D9F80000616800F00C00B0EBCC
:1021F000810F97D0FFF7F2FC801BB842F2D9032081
:1022000001B0BDE8F08300BF59F8041C8907D4D59C
:10221000DCE700BFD9F8002049F60853C2F340427A
:10222000C0F600039A5C4843B0FBF2F0D9F8001006
:1022300049F2D842C1F30311C0F60002515C40F2EA
:10224000500220FA01F140F20400C2F200000068DE
:10225000C2F200021160FFF78FFE002001B0BDE85E
:10226000F083000040F2500041F20401C2F200008D
:10227000C4F202010068096849F2E842C1F3022190
:10228000C0F60002515CC8407047000040F25000A8
:1022900041F20401C2F20000C4F2020100680968C0
:1022A00049F2E842C1F3C221C0F60002515CC840C5
:1022B000704700002DE9F04182B0002868D0044644
:1022C000007841F20006C007C4F2020625D070680B
:1022D00000F00C0004281BD0706800F00C000828E7
:1022E00002D17068C00313D46068002800F06881D0
:1022F000B0F5A02F00F07C81B0F5803F00F07C812C
:10230000306820F480303060306820F4802076E13E
:102310003068800301D56068D0B32078800718D575
:10232000706810F00C0F07D0706800F00C000828DF
:102330006ED17068C0036BD43068800702D5206905
:10234000012825D13068616920F0F80040EAC10019
:102350003060207800071FD42078400732D4E56928
:1023600095B1706800F00C00082840F08F80012DB6
:102370000ED07068216A00F480328A4208D1616A06
:1023800000F47010884203D1002002B0BDE8F08153
:10239000012002B0BDE8F081A069002862D00020D1
:1023A000C4F242200121C0F88014FFF717FC054653
:1023B000706A800700F18C80FFF710FC401B022838
:1023C000F6D92AE1F06910F0805808D1F06940F0A0
:1023D0008050F061F06900F080500090009847F262
:1023E0000007C4F200073868C00529D4386840F4F3
:1023F00080703860FFF7F2FB054600BF3868C00503
:102400001ED4FFF7EBFB401B6428F7D905E100BFA2
:102410002069002840F20000C4F2422000F08280CF
:1024200001210160FFF7DAFB054600BF3068800735
:102430003FF588AFFFF7D2FB401B0228F6D9ECE04E
:10244000E068002800F08080052800F097800128CF
:1024500000F09880306A20F001003062306A20F08D
:10246000040092E00020C4F242200021C0F8801451
:10247000FFF7B4FB054600BF706A80077FF56CAFBD
:10248000FFF7ACFB401B0228F6D9C6E00027C4F2D8
:10249000422700203866FFF7A1FB022D05460BD12D
:1024A0003068800140F1BE80FFF798FB401B022896
:1024B0004FF00300F4D968E7306880017FF564AF1E
:1024C000FFF78CFB401B02284FF00300F4D95CE7B8
:1024D00040F25000C2F20000006844F6D351C1F24D
:1024E0006201A0FB0101480A019000BF00BF0198F2
:1024F000411E002801913FF42FAF00BF0198411EFB
:10250000002801913FF428AF00BF0198411E002828
:1025100001913FF421AF00BF0198411E00280191B5
:10252000E4D119E700210160FFF758FB054600BF21
:10253000306880077FF50DAFFFF750FB401B022886
:102540004FF00300F4D920E7306A20F00100306238
:10255000306A20F004003062FFF740FB054641F28C
:10256000883700BF306A800720D5FFF737FB401B54
:10257000B8424FF00300F5D907E700BF306A40F0DA
:1025800004003062306A40F001003062FFF726FB41
:10259000054641F2883700BF306A800706D4FFF74E
:1025A0001DFB401BB842F7D937E000BFB8F1000F60
:1025B0007FF4D5AEF06920F08050F061CFE600BF27
:1025C000306820F480303060306820F48020306043
:1025D000FFF704FB054600BF306880037FF59DAE22
:1025E000FFF7FCFA401B64284FF00300F4D9CCE657
:1025F000306840F480203060306840F480303060D3
:10260000FFF7ECFA054600BF306880033FF585AE62
:10261000FFF7E4FA401B6428F6D9032002B0BDE8B6
:10262000F08100BF206AB0F5803F05D17168A268D3
:1026300021F40031114371607168626A21F47411F0
:1026400011430843706001203866FFF7C7FA04465B
:10265000306880013FF598AEFFF7C0FA001B0228F2
:102660004FF00300F4D990E6411E0020B0EB116F4B
:102670001CBF012070474EF21002CEF200025160E2
:102680004EF62351CEF20001F0230B70072190602B
:1026900011607047704700007047000010B590F857
:1026A0003C20012A4FF0020233D080F83D2002681E
:1026B000D2F804E0D2F808C00C682EF0700323436F
:1026C00040F2FF74C4F20004A24253600ADCB2F18B
:1026D000804F13D040F20043C4F200039A420DD061
:1026E00011E000BF42F60043C4F201039A4205D054
:1026F00040F60003C4F200039A4204D149682CF06A
:102700008003194391600121002280F83D1080F878
:102710003C20104610BD0000002804BF0120704777
:1027200010B5044690F83D0028B9002084F83C001C
:10273000204600F067F8022084F83D00206840F24F
:10274000FF730268C4F2000342F6004C9842C4F2E0
:10275000010C15DCB0F1804F1AD040F20041C4F2F8
:102760000001884214D0984218DCB0F1804F1DD08F
:1027700040F20041C4F20001884217D01AE000BFC5
:10278000604505D040F60001C4F200018842EAD15C
:10279000A16822F070020A439842E6DD604505D048
:1027A00040F60001C4F20001884203D1216922F4FD
:1027B00040720A43A36922F08001D4F804E0E26881
:1027C000194360450160C262C0F828E002D1616926
:1027D000CCF8301001214161002084F8461084F8C3
:1027E0003E1084F83F1084F8401084F8411084F8BB
:1027F000421084F8431084F8441084F8451084F89B
:102800003D1010BD80B584B0006840F60001C4F2F0
:102810000001884218D040F20041C4F20001884211
:102820002AD0B0F1804F0CD141F21C00C4F202005A
:10283000016841F001010160006800F001000390AF
:10284000039804B080BD00BF41F21C00C4F2020036
:102850000168002241F0040101600068002100F0DD
:102860000400019001981E20FFF7E0FB1E2004B039
:10287000BDE88040FFF7C6BB41F21C00C4F2020075
:102880000168002241F0020101600068012100F0AE
:102890000200029002981D20FFF7C8FB1D2004B023
:1028A000BDE88040FFF7AEBB90F83D1001291CBF8A
:1028B00001207047022180F83D10006840F2FF724D
:1028C000C168C4F20002904241F00101C16009DC1C
:1028D000B0F1804F12D040F20041C4F200018842B2
:1028E0000CD012E042F60041C4F20101884205D04A
:1028F00040F60001C4F20001884206D1816801F06F
:102900000701062904BF00207047016841F001015A
:10291000016000207047000080B590F83C20012A3B
:102920004FF0020200F0C28080F83D20D0F800C0D5
:102930004FF67772DCF8083023EA0202CCF8082060
:102940000B684F2B28DC1F2B44DD202B45D0302B70
:1029500043D0402B40F0AC80D1F804E0C968DCF8EB
:102960002030DCF8202022F00102CCF82020DCF816
:10297000182022F0F00242EA011123F00A0242EA92
:102980000E02CCF81810CCF82020DCF8081041F02A
:10299000470121F0300180E06F2B27DDB3F5005FA8
:1029A00048D0B3F5805F7AD0702B40F08180D1E9B8
:1029B00001E3C968DCF8082043EA0E0322F47F42F1
:1029C00043EA01211143CCF80810DCF8081041F06B
:1029D000770162E00BB1102B6AD1DCF8081021F00E
:1029E0007001194341F0070157E000BF502B35D06B
:1029F000602B5DD1D1F804E0C968DCF82030DCF848
:102A0000202022F01002CCF82020DCF8182022F43C
:102A1000704242EA013123F0A00242EA0E12CCF8E1
:102A20001810CCF82020DCF8081041F0670121F0E4
:102A3000100132E0D1E901E3C968DCF8082043EA7B
:102A40000E0322F47F4243EA01211143CCF808101F
:102A5000DCF8081041F480411FE000BFD1F804E029
:102A6000C968DCF82030DCF8202022F00102CCF824
:102A70002020DCF8182022F0F00242EA011123F0B5
:102A80000A0242EA0E02CCF81810CCF82020DCF83A
:102A9000081041F0570121F02001CCF80810002265
:102AA000012180F83D10002180F83C10104680BDC7
:102AB0000122F5E77047000010B501680446086977
:102AC000800744BFC8685FEA807039D4086940074E
:102AD00044BFC8685FEA40703ED40869000744BF3D
:102AE000C8685FEA007045D40869C00644BFC8687A
:102AF0005FEAC0604AD40869C0071CBFC8685FEAC3
:102B0000C07051D10869000644BFC8685FEA006020
:102B100052D40869400644BFC8685FEA406053D495
:102B20000869800646BFC8685FEA806010BD6FF024
:102B3000200220460A61BDE81040FFF7ADBD00BF8E
:102B40006FF002000861012020778869800743D078
:102B50002046FFF7AFFF45E06FF004000861022058
:102B60002077886910F4407F40D02046FFF7A2FF0D
:102B700042E000BF6FF00800086104202077C869B8
:102B800080073DD02046FFF795FF3FE06FF0100033
:102B9000086108202077C86910F4407F3AD02046A9
:102BA000FFF788FF3CE000BF6FF00100086120469E
:102BB00000F02CFA2168A5E76FF08000086120463C
:102BC000FFF768FD2168A4E76FF040000861204628
:102BD00000F0E4FA2168A3E7204600F025F820463B
:102BE00000F0A2F92168002020776FE7204600F06E
:102BF0001BF8204600F098F92168002020776CE748
:102C0000204600F011F8204600F08EF921680020DF
:102C1000207769E7204600F007F8204600F084F9A5
:102C200021680020207766E7704700002DE9F04317
:102C300090F83C30012B04BF0220BDE8F0834FEA3E
:102C4000B202032A3CD8DFE802F0034381BD00BF93
:102C5000036842F600461D6A1A6AC4F2010622F0B1
:102C600001021A621A465C6852F818CFB3428E68A5
:102C7000D1F800E025F0020545EA06050CD1CE6842
:102C8000D1E9057824F4407425F00C0526F00406FB
:102C90003C43354344EA08042CF0730747EA0E0727
:102CA0005C609F614F6809695F631D629F6947F0BF
:102CB00008079F619F6927F004079F61B2E000BF8A
:102CC0000121002280F83C200846BDE8F08300BFC7
:102CD000036842F600461D6A1A6AC4F2010622F031
:102CE00010021A621A46D3F804C052F8184FB342C1
:102CF0008E68D1F800E025F0200545EA061510D1D0
:102D0000CE68D1E9058725F0C0096FF0400505EAD6
:102D100006152CF4406647EA080745EA090546EA25
:102D2000870C24F4E64444EA0E27C3F804C09F61EC
:102D30004F6809699F631D629F6947F400679F613F
:102D40009F6927F480679F616BE000BF036842F6CC
:102D500000461D6A1A6AC4F2010622F480721A62E1
:102D60001A46D3F804C052F81CEFB3428E680C68C0
:102D700025F4007545EA062511D1CE68D1E905870D
:102D800025F44069360240F2FF4526EA05052CF499
:102D9000405647EA080745EA090546EA071C2EF0AF
:102DA00073072743C3F804C0DF614F680969DF6315
:102DB0001D62DF6947F00807DF61DF6927F004075C
:102DC000DF612FE0036842F60047D3F820C01A6A9B
:102DD000C4F2010722F480521A621A465C6852F863
:102DE0001C5FD1F800E08E68BB4204D14F6924F427
:102DF000804444EA87142CF4005747EA063725F448
:102E0000E64646EA0E265C60DE614E6809691E648D
:102E10001F62DF6947F40067DF61DF6927F48067BD
:102E2000DF6109021368194311600021002280F854
:102E30003C200846BDE8F083002804BF012070470D
:102E400010B5044690F83D0028B9002084F83C00F5
:102E5000204600F067F8022084F83D00206840F228
:102E6000FF730268C4F2000342F6004C9842C4F2B9
:102E7000010C15DCB0F1804F1AD040F20041C4F2D1
:102E80000001884214D0984218DCB0F1804F1DD068
:102E900040F20041C4F20001884217D01AE000BF9E
:102EA000604505D040F60001C4F200018842EAD135
:102EB000A16822F070020A439842E6DD604505D021
:102EC00040F60001C4F20001884203D1216922F4D6
:102ED00040720A43A36922F08001D4F804E0E2685A
:102EE000194360450160C262C0F828E002D16169FF
:102EF000CCF8301001214161002084F8461084F89C
:102F00003E1084F83F1084F8401084F8411084F893
:102F1000421084F8431084F8441084F8451084F873
:102F20003D1010BD704700007047000041B10829F6
:102F300010D0042914BF00F1410200F13F020BE060
:102F400090F83E20012A1CBF01207047022280F821
:102F50003E2013E000F140021278012A1CBF01203C
:102F600070470222082907D0042914BF80F84120A5
:102F700080F83F2002E000BF80F84020006801F0A8
:102F80001F010122036A8A4023EA02010162036AE7
:102F900042F64441C4F201011A43A1F144039842AC
:102FA00002620FD040F2FF71C4F20001884213DCCC
:102FB000B0F1804F1CD040F20041C4F200018842C1
:102FC00016D01CE00A6842F400420A6040F2FF7129
:102FD000C4F200018842EBDD42F60041C4F2010177
:102FE000884205D040F60001C4F20001884206D1B3
:102FF000816801F00701062904BF002070470168BD
:1030000041F0010101600020704700002DE9F0410E
:10301000006840F20041C4F20001884200F0B6802E
:1030200040F60001C4F20001884240F0B58040F251
:103030005818C2F2000898F81C00002800F0AC8074
:10304000D8F82C00D8F8344006F002F8054620469F
:1030500005F0FEFF0146284603F0D6FDC8F824001F
:10306000D8F83000D8F8384005F0F2FF0546204681
:1030700005F0EEFF0146284603F022FEC8F82800BE
:1030800003F07CFE40F2F004D8F82410C2F20004F1
:103090002061084603F072FE40F23C15C2F20005C2
:1030A0002968E060084605F097FF216903F02AFFD0
:1030B00005F0CEFF296802460846114605F0FEFDE0
:1030C000286005F0A5FF03F093FE40F23815C2F228
:1030D00000052968C8F80800084605F07DFFE1688A
:1030E00003F0B0FE05F0B4FF296802460846114619
:1030F00005F0E4FD286005F08BFF03F079FE002564
:10310000C4F2B4252946044605F04FFE0026CCF251
:10311000B42600281CBF0024C4F2B4242046314643
:1031200005F03CFE002808BF3446D8F80870294650
:103130003846C8F80C4005F038FE00281CBF0027B0
:10314000C4F2B4273846314605F028FE0028204650
:1031500008BF3746C8F8087003F034FFD8F80800F5
:1031600003F068FFD8F80400411C3228C8F80410A6
:10317000B8BFBDE8F081D8F810100020C8F80400EE
:10318000481CC8F81000BDE8F08100BF40F258109C
:10319000C2F2000001214177BDE8F08170470000D4
:1031A0007047000010B504460068416994F841205A
:1031B000212A56D111F0800153D000BF206850E879
:1031C000050F216820F0800041E80502DAB120688F
:1031D00050E8050F216820F0800041E8050292B117
:1031E000206850E8050F216820F0800041E80502C2
:1031F0004AB1206850E8050F216820F0800041E8BE
:103200000502002ADAD1A06B002818BFFEF7D8F912
:10321000206850E8030F216820F0C00041E8030255
:10322000DAB1206850E8030F216820F0C00041E8BF
:10323000030292B1206850E8030F216820F0C0001B
:1032400041E803024AB1206850E8030F216820F0EA
:10325000C00041E80302002ADAD1202084F84100AE
:103260002068406994F84210222940F0A78010F0AD
:10327000400000F0A38000BF206850E8050F2168DF
:1032800020F0400041E80502DAB1206850E8050F5F
:10329000216820F0400041E8050292B1206850E822
:1032A000050F216820F0400041E805024AB120687E
:1032B00050E8050F216820F0400041E80502002A8F
:1032C000DAD1E06B002818BFFEF77AF9206850E8E1
:1032D000030F216820F4907041E80302BAB320681C
:1032E00050E8030F216820F4907041E8030272B3A4
:1032F000206850E8030F216820F4907041E8030231
:103300002AB3206850E8030F216820F4907041E848
:103310000302002ADAD11AE0206850E8050F21687C
:1033200020F0010041E80502DAB1206850E8050FFD
:10333000216820F0010041E8050292B1206850E8C0
:10334000050F216820F0010041E805024AB120681C
:1033500050E8050F216820F0010041E80502002A2D
:10336000DAD1206B012824D1206850E8030F2168AE
:1033700020F0100041E80302DAB1206850E8030FA2
:10338000216820F0100041E8030292B1206850E863
:10339000030F216820F0100041E803024AB12068C1
:1033A00050E8030F216820F0100041E80302002AD2
:1033B000DAD1202084F8420000202063002010BDD4
:1033C00070470000B0B582B0044600680168C36869
:1033D000426901F02F05202D03F0200506D12DB103
:1033E000204602B0BDE8B04004F048B85FEA017C76
:1033F0001EBF02F0010E03F4907212EB0E0253D1C5
:10340000226B012A05D111F0100218BF13F010022F
:1034100036D10A0622D513F080021FD094F841104D
:1034200021293FD1A168B1F5805F03D1216900292D
:1034300000F07082216A4A1C226209784160E18CA6
:1034400001390A04E1842DD1C16821F08001C160F5
:10345000C16841F04001C16002B0B0BD490621D54C
:1034600013F040011ED0C16821F04001C16020214D
:10347000204684F8411002B0BDE8B04000F0CEBD57
:103480000021019101680191416801910199406910
:10349000400613D4A08DE18DE28D002A18BF88422A
:1034A00040F0BA8102B0B0BDCA0718BF13F48072F1
:1034B00040F0B6804A0700F1B980BEE0E06B0168D9
:1034C00049688AB2002AEDD0A38D9A42EAD2E185FA
:1034D0008069202800F09C80206850E8030F216854
:1034E00020F4807041E80302DAB1206850E8030F4D
:1034F000216820F4807041E8030292B1206850E80E
:10350000030F216820F4807041E803024AB120686B
:1035100050E8030F216820F4807041E80302002A7C
:10352000DAD1206850E8050F216820F0010041E859
:103530000502DAB1206850E8050F216820F001008B
:1035400041E8050292B1206850E8050F216820F09B
:10355000010041E805024AB1206850E8050F2168E2
:1035600020F0010041E80502002ADAD1206850E885
:10357000050F216820F0400041E80502DAB120681B
:1035800050E8050F216820F0400041E8050292B1A3
:10359000206850E8050F216820F0400041E805024E
:1035A0004AB1206850E8050F216820F0400041E84A
:1035B0000502002ADAD1202084F84200002020638E
:1035C000206850E8030F216820F0100041E8030252
:1035D000DAB1206850E8030F216820F0100041E8BC
:1035E000030292B1206850E8030F216820F0100018
:1035F00041E803024AB1206850E8030F216820F037
:10360000100041E80302002ADAD1E06BFDF7D8FF91
:1036100002206063A08DE18D401A81B2204674E1E2
:10362000626C42F0010262644A0706D5BEF1000FE7
:1036300003D0626C42F0020262648A0706D5BEF1D2
:10364000000F03D0626C42F004026264BCF1000F10
:1036500009D545EA0E02B2FA82F2520903D1626C30
:1036600042F008026264626C002A3FF41BAF11F062
:10367000200118BF002D03D0204603F0FFFE206874
:103680004069616C00F0400001F00801401800F052
:10369000B58000BF206850E8030F216820F49070C7
:1036A00041E80302BAB3206850E8030F216820F410
:1036B000907041E8030272B3206850E8030F21685C
:1036C00020F4907041E803022AB3206850E8030F09
:1036D000216820F4907041E80302002ADAD11AE050
:1036E000206850E8050F216820F0010041E805023C
:1036F000DAB1206850E8050F216820F0010041E8A8
:10370000050292B1206850E8050F216820F0010001
:1037100041E805024AB1206850E8050F216820F011
:10372000010041E80502002ADAD1206B012824D1EA
:10373000206850E8030F216820F0100041E80302E0
:10374000DAB1206850E8030F216820F0100041E84A
:10375000030292B1206850E8030F216820F01000A6
:1037600041E803024AB1206850E8030F216820F0C5
:10377000100041E80302002ADAD1202084F8420038
:10378000002020632068406940063FD5206850E84B
:10379000050F216820F0400041E80502DAB12068F9
:1037A00050E8050F216820F0400041E8050292B181
:1037B000206850E8050F216820F0400041E805022C
:1037C0004AB1206850E8050F216820F0400041E828
:1037D0000502002ADAD1E06BC0B147F2C501C0F69C
:1037E00000014163FDF710FF00283FF45BAEE06B82
:1037F000416B02B0BDE8B040084700BF2046FFF76C
:10380000DFFD0020606402B0B0BD00BF204602B002
:10381000BDE8B040FFF7D4BD401A216851E8031F4E
:10382000226821F4907142E80313DBB1216851E86A
:10383000031F226821F4907142E8031393B12168B9
:1038400051E8031F226821F4907142E803134BB141
:10385000216851E8031F226821F4907142E80313A4
:10386000002BDAD1216851E8051F226821F00101FF
:1038700042E80513DBB1216851E8051F226821F0F9
:10388000010142E8051393B1216851E8051F226840
:1038900021F0010142E805134BB1216851E8051FF1
:1038A000226821F0010142E80513002BDAD1202122
:1038B00084F8421000212163216851E8031F226827
:1038C00021F0100142E80313DBB1216851E8031F26
:1038D000226821F0100142E8031393B1216851E8F6
:1038E000031F226821F0100142E803134BB1216845
:1038F00051E8031F226821F0100142E80313002B56
:10390000DAD1022281B22046626302B0BDE8B04043
:10391000FFF746BC216A31F8022B6FF35F22426049
:1039200021628CE5002804BF0120704710B50446D1
:1039300090F8410028B9002084F84000204600F0AB
:1039400063F8242084F841002068D4E90212C36897
:1039500023F40053C360036923F440531A43026104
:10396000D4E904231143C268194341F20C639A431A
:103970001143C1604169A26921F44071114343F6CA
:103980000002C4F201029042416103D0FEF76AFCDA
:1039900002E000BFFEF77AFC6268192148439100FB
:1039A000B0FBF1F048F21F51C5F2EB11A0FB01236F
:1039B0005A094FF69C73C0F6FF7302FB03003223D3
:1039C00003EB0010A0FB0101F02303EA5113206870
:1039D00003EB0212C1F3431111448160016921F428
:1039E00090410161416921F02A014161C16841F4BE
:1039F0000051C16000202021606484F8411084F8E7
:103A00004210606310BD00002DE9F04186B004460D
:103A1000006844F20041C4F2000100278842059783
:103A2000CDE90377029741D043F60001C4F20101CA
:103A3000884240F0A28041F21800C4F202000168FE
:103A400002AD41F480410160016801F480410191BF
:103A50000199016841F0080101600068294600F001
:103A6000080001900198402002900220039003205A
:103A7000059040F60000C4F2010000F58064204685
:103A8000FDF792FF802002900020CDE90300204640
:103A90002946FDF789FF0420C4F2010001682524AE
:103AA00041F0E06141F0040101605EE041F2180084
:103AB000C4F20200416840F6000541F40031416063
:103AC0004168C4F2010501F40031019101990168D6
:103AD00002AE41F004010160006840F26C0800F0A1
:103AE000040001900198042002900220039003201A
:103AF000059028463146C4F20208FDF755FF08201C
:103B0000CDE90207284631460497FDF74DFF40F204
:103B1000B015C2F2000580262846C5E90087C5E930
:103B20000276C5E90477C5E90677FDF797FE002818
:103B300018BFFDF73FFDE5636C6240F2F41508F134
:103B40001400C2F200051021002285E84700284633
:103B5000C5E90422C5E90622FDF780FE002818BF4A
:103B6000FDF728FDA5636C62262420460021002273
:103B7000FEF75CFA2046FEF745FA06B0BDE8F08194
:103B800070B582B0044690F8420020280AD113464E
:103B90000A4600294FF0010018BF002B06D102B0E1
:103BA00070BD00BF022002B070BD00BF0025222002
:103BB0002563A262A385656484F842002168E06BF6
:103BC00047F24D2C47F2AD3E47F2D106C0F6000C4D
:103BD000C0F6000EC0F600060431C0E90ACEC0E906
:103BE0000C65FDF77FFE0195206801680191406832
:103BF00001900198206928B3206850E8030F2168DC
:103C000040F4807041E80302E2B1206850E8030FFD
:103C1000216840F4807041E803029AB1206850E8BE
:103C2000030F216840F4807041E8030252B120681C
:103C300050E8030F216840F4807041E80302002A35
:103C4000DAD100BF206850E8050F216840F001007C
:103C500041E80502E2B1206850E8050F216840F014
:103C6000010041E805029AB1206850E8050F21687B
:103C700040F0010041E8050252B1206850E8050F0C
:103C8000216840F0010041E80502002ADAD100BFB6
:103C9000206850E8050F216840F0400041E8050227
:103CA000DAB1206850E8050F216840F0400041E893
:103CB000050292B1206850E8050F216840F04000ED
:103CC00041E805024AB1206850E8050F216840F03C
:103CD000400041E80502002ADAD1002002B070BDA0
:103CE00070470000704700002DE9F04381B00446A2
:103CF00090F84100202840F0B180884600294FF01C
:103D0000010000F0D6801646002A00F0D280002084
:103D1000606421201D4684F84100FDF75FFFA68402
:103D2000E684A1680646B1F5805F03D120690028CA
:103D300000F0988047464FF00008E18C2068002989
:103D400000F0968005F101090BE000BF47B317F8BA
:103D5000011B4160E18C0139E184E18C002900F014
:103D6000878001680906F1D4B9F1000F0AD0EDB1DE
:103D7000FDF734FF801BA84218D8206801680906A7
:103D8000F6D5E3E701680906E0D4016809065CBFDF
:103D900001685FEA0161D9D401680906F2D5D5E767
:103DA00038F8021B00276FF35F21D2E7206850E844
:103DB000030F216820F4D07041E80302BAB32068F1
:103DC00050E8030F216820F4D07041E8030272B379
:103DD000206850E8030F216820F4D07041E8030206
:103DE0002AB3206850E8030F216820F4D07041E81E
:103DF0000302002ADAD11AE0206850E8050F216892
:103E000020F0010041E80502DAB1206850E8050F12
:103E1000216820F0010041E8050292B1206850E8D5
:103E2000050F216820F0010041E805024AB1206831
:103E300050E8050F216820F0010041E80502002A42
:103E4000DAD1202084F8410084F84200002084F870
:103E50004000032001B0BDE8F08300BF022001B0A4
:103E6000BDE8F0830027E18C206800297FF46AAF69
:103E70000168490619D4FDB1691C0DD101684906D4
:103E800013D4016849065CBF01685FEA41610CD444
:103E900001684906F2D508E0FDF7A0FE801BA842A4
:103EA0000AD8206800684006F6D5202084F8410032
:103EB000002001B0BDE8F083206850E8030F2168BE
:103EC00020F4D07041E80302002A3ED0206850E878
:103ED000030F216820F4D07041E80302AAB32068E0
:103EE00050E8030F216820F4D07041E8030262B368
:103EF000206850E8030F216820F4D07041E80302E5
:103F0000002AD9D121E000BF206850E8050F2168C0
:103F100020F0010041E80502002A3FF492AF20683A
:103F200050E8050F216820F0010041E80502002A51
:103F30003FF487AF206850E8050F216820F00100AA
:103F400041E80502002A3FF47CAF206850E8050FE5
:103F5000216820F0010041E80502002AD4D170E771
:103F600070B5044690F8410020281CBF022070BDA7
:103F700000294FF001004DD0002A134608BF70BD44
:103F80004FF0000C21202162A384E384C4F844C0D4
:103F900084F841002268A06B47F2C53E47F27545A0
:103FA00047F2D106C0F6000EC0F60005C0F60006C6
:103FB0000432C0E90AE5C0E90C6CFDF793FC206807
:103FC0006FF04001016000BF206850E8050F2168D4
:103FD00040F0800041E80502F2B1206850E8050F8A
:103FE000216840F0800041E80502AAB1206850E84D
:103FF000050F216840F0800041E8050262B12068A9
:1040000050E8050F216840F0800041E80502002AD1
:10401000DAD1002070BD00BF002070BD70470000E5
:1040200070470000FEE700002DE9F04383B004462E
:1040300000680D4601680A9F0B9E41F48071994605
:104040009046016020464FF0011100223B46009649
:1040500000F0AEF850B120680068C00544BF4FF4CE
:1040600000702064032003B0BDE8F083206805F0F1
:10407000FE0101610221C0F2010120463A463346A9
:1040800000F080F920B1012003B0BDE8F08300BF4B
:1040900000200290206832464169029180693946C9
:1040A00002900298204600F0DDF958B1206C0428F7
:1040B000E9D12068016841F400710160012003B07A
:1040C000BDE8F0832068B9F1010F0AD04FEA18214A
:1040D000016120463946324600F0C4F90028E5D196
:1040E00020685FFA88F10161002003B0BDE8F08329
:1040F00070B50368044653F8140F400711D40E46F8
:10410000481C29D086BB00BF1868400527D4FDF79E
:1041100065FD236853F8140F400739D51868400728
:10412000F2D5002070BD00BF18684007F9D41868A8
:10413000400514D418684007F3D4186840050ED41D
:1041400018684007EDD41868400508D4186840077F
:104150004FF0000048BF70BD18684005E4D56FF40B
:1041600080601860042014E0154603E053F8140F33
:104170004007D6D418684005F1D4FDF72FFD401B49
:104180002368B042F2D958694007EFD4202000E0FC
:10419000202000212022216384F83D2084F83E1055
:1041A000226C10432064012084F83C1070BD000094
:1041B0002DE9F041054600681E46144601F47F02D1
:1041C00001338FB242D0DDF81880B2F5803F40F065
:1041D000878040693840C01BB0FA80F04009A04297
:1041E00040F0C8804EB924E040693840C01BB0FAA6
:1041F00080F04009A04240F0BD80FDF7EFFCA0EB4D
:1042000008012868B142EFD941693940C91BB1FAA8
:1042100081F14909A142E7D19BE000BF40693840E4
:10422000C01BB0FA80F04009A0424FF0000040F0FF
:10423000A680FDF7D3FC286841693940C91BB1FA53
:1042400081F14909A142E9D183E000BFB2F5803F85
:1042500024D100BF41693940C91BB1FA81F1490934
:10426000A14240F0878041693940C91BB1FA81F110
:104270004909A14240F07E8041693940C91BB1FA29
:1042800081F14909A14275D141693940C91BB1FA8F
:1042900081F14909A142DDD06CE000BF816939405C
:1042A000C91BB1FA81F14909A14263D18169394041
:1042B000C91BB1FA81F14909A1425BD18169394039
:1042C000C91BB1FA81F14909A14253D18169394031
:1042D000C91BB1FA81F14909A142DFD04AE000BF10
:1042E00080693840C01BB0FA80F04009A04241D13B
:1042F00046B923E080693840C01BB0FA80F040091D
:10430000A0423BD1FDF76AFCA0EB08012868B1424E
:10431000F0D981693940C91BB1FA81F14909A1423B
:10432000E8D116E080693840C01BB0FA80F040093F
:10433000A0424FF0000018BFBDE8F081FDF74EFC31
:10434000286881693940C91BB1FA81F14909A14244
:10435000E8D100202021286385F83D1085F83E0033
:10436000296C41F02001296485F83C000120BDE85A
:10437000F08100BF0020BDE8F08100BF0020BDE853
:10438000F0810000F0B581B0044600681D46436925
:104390008FB203EA0701B94202D1002001B0F0BD9B
:1043A00041691646013201F4806125D0002940D1CF
:1043B000CEB100BFFDF712FC411B2068B14203D90A
:1043C00041693940B9424BD141693940B942E4D0E1
:1043D00041694905EED52CE041693940B942DCD04C
:1043E0004169490525D4FDF7F9FB20684169394049
:1043F000B942F1D0202024E0D9B941693940B9420D
:10440000CBD04169490514D441693940B942C4D07F
:10441000416949050DD441693940B942BDD041696E
:10442000490506D441693940B942B6D041694905C8
:10443000E3D5016841F4007101606FF4806141616E
:10444000042000212022216384F83D2084F83E10BE
:10445000226C1043206484F83C10012001B0F0BDB0
:104460002020EEE770B50368044653F8140F0006E9
:1044700011D40E46481C29D086BB00BF18684005E1
:1044800027D4FDF7ABFB236853F8140F000639D58A
:1044900018680006F2D5002070BD00BF186800063D
:1044A000F9D41868400514D418680006F3D41868C5
:1044B00040050ED418680006EDD41868400508D4ED
:1044C000186800064FF0000048BF70BD186840052E
:1044D000E4D56FF480601860042014E0154603E012
:1044E00053F8140F0006D6D418684005F1D4FDF730
:1044F00075FB401B2368B042F2D958690006EFD41F
:10450000202000E0202000212022216384F83D208B
:1045100084F83E10226C10432064012084F83C1083
:1045200070BD000010B540F2AC14C2F20004207857
:10453000411C0528217049D8DFE800F00418222C1E
:10454000364000BF01F0B2FC40F27410C2F200002D
:10455000022141710421817040F2AC30C2F20000AE
:104560002BA10F22FFF7FCFC30E000BF40F2AC3083
:10457000C2F2000024A10622FFF7F2FC26E000BFF1
:1045800040F2AC30C2F200001DA10722FFF7E8FCA8
:104590001CE000BF40F2AC30C2F2000015A10822BE
:1045A000FFF7DEFC12E000BF40F2AC30C2F20000C8
:1045B0000EA10722FFF7D4FC08E000BF40F2AC30A8
:1045C000C2F2000006A10822FFF7CAFC2078AB2146
:1045D0004143890A01EB4101A0EB4100207010BD6D
:1045E0006D6964706F696E74000000006C6F776CA9
:1045F000656674006C6F777269676874000000000C
:10460000757072696768740075706C656674000017
:10461000436F727265637452656453706F74730094
:10462000B0B540F2BC4040F25015C2F20000C2F2F8
:10463000000501686A68891A0A2961D3006840F692
:104640000044C4F20104686020464FF48051FDF735
:10465000B9FAB8B120464FF40051FDF7B3FA98B15A
:1046600020464FF40041FDF7ADFA78B1A4F5806023
:104670004FF48051FDF7A6FAB0FA80F040098000AF
:1046800005E000BF012002E0022000E003202978BD
:10469000287020EA01010139032988BFB0BDDFE895
:1046A00001F00317314D00BF40F27413C2F2000352
:1046B000002540F2AC3049F6F951C2F20000C0F6D4
:1046C00000010C221D71BDE8B040FFF749BC00BFDE
:1046D00040F27414C2F20004A07901250130A071E7
:1046E000257101F0E3FB40F2AC3049F6F951C2F21A
:1046F0000000C0F600010C22FFF732FCA580A57077
:10470000B0BD00BF40F27414C2F20004A0790130C1
:10471000A0710220207101F0C9FB40F2AC3049F6D3
:104720000661C2F20000C0F600011122FFF718FC7A
:104730004FF48170A0800520A070B0BD40F27410CD
:10474000C2F20000817901318171BDE8B040FFF70C
:10475000E9BE000080B582B041F21400C4F202004C
:104760000168002241F0010101600068002100F0B1
:104770000100019001981020FDF758FC1020FDF772
:1047800041FC112000210022FDF750FC112002B055
:10479000BDE88040FDF736BCF0B585B041F21800A9
:1047A000C4F20200016841F2000441F0100101600E
:1047B0000168C4F2010401F010010191019901683E
:1047C000002241F02001016001684FF4005501F022
:1047D0002001019101990168002641F00401016066
:1047E000016801F0040101910199016841F008019B
:1047F000016000684FF4005100F00800019001983A
:104800002046FDF7E5F90195022001AD012704904E
:1048100020462946CDE90276FDF7C6F84FF4304030
:1048200001A9C1C1A4F580602946FDF7BDF84FF488
:10483000805001A9C1C1A4F500602946FDF7B4F874
:1048400005B0F0BD80B540F2382045F20041C2F21B
:104850000000C4F2000148F2A06200234FF4804C33
:10486000C0F2010280E80E00C0E9033CC0E9053354
:10487000C0E90733FDF7B8F9002808BF80BDBDE8DF
:104880008040FCF797BE000070B594B040F28C20D9
:104890000021C2F2000040F2CF750E91CDE90C115B
:1048A0000991CDE90711CDE90511CDE90311CDE954
:1048B00001114FF0804240F2CF23C0E9021501619F
:1048C0008021C0E900238161FDF726FF002818BF81
:1048D000FCF770FE4FF480500B9040F28C20C2F237
:1048E00000000BA9FEF718F8002818BFFCF762FEBD
:1048F00040F28C20C2F20000FEF79EFA002818BF9A
:10490000FCF758FE40F28C200024C2F2000008A9F7
:10491000CDE90844FDF7C2FE002818BFFCF74AFEA7
:104920006020CDE9010440F28C20C2F2000001A910
:10493000002203940594FEF779F9002818BFFCF7CC
:1049400039FE40F28C24C2F2000401A92046042260
:10495000FEF76CF9002818BFFCF72CFE2068002138
:10496000B0F1804F129101D014B070BD41F2180027
:10497000C4F20200016840F6000441F00401016045
:104980000168C4F2010401F004010F910F9901685C
:1049900010AD41F0080101600068022600F0080037
:1049A0000F900F984FF40040109020462946119622
:1049B0001396FCF7F9FF0820CDE9100604F5806096
:1049C00029461396FCF7F0FF0420C4F201000168A9
:1049D0004FF6FF42CFF6FF02114041F0E06141F493
:1049E0008071016014B070BD80B586B040F2D420F3
:1049F0000021C2F2000040F200424FF0090C059184
:104A0000CDE90311CDE90011C4F200024723C0E94A
:104A1000021C01618021C0E900238161FDF77CFE59
:104A2000002818BFFCF7C6FD4FF48050029040F2FA
:104A3000D420C2F2000002A9FDF76EFF002818BFC3
:104A4000FCF7B8FD40F2D420C2F200006946FDF741
:104A500025FE002818BFFCF7ADFD06B080BD0000A4
:104A600080B586B040F21C300021C2F2000040F652
:104A700000024FF0630C0591CDE90311CDE900115F
:104A8000C4F2000241F61F43C0E9021C016180210B
:104A9000C0E900238161FDF73FFE002818BFFCF745
:104AA00089FD4FF48050029040F21C30C2F20000A9
:104AB00002A9FDF731FF002818BFFCF77BFD40F28B
:104AC0001C30C2F200006946FDF7E8FD002818BF5F
:104AD000FCF770FD06B080BD80B540F2643043F64F
:104AE0000001C2F20000C4F2010100234FF00C0CDF
:104AF0004FF4E13280E80E00C0E90333C0E905C39A
:104B0000C361FEF70FFF002808BF80BDBDE88040ED
:104B1000FCF750BD80B540F2AC3044F20041C2F227
:104B20000000C4F2000100234FF00C0C4FF4E132FE
:104B300080E80E00C0E90333C0E905C3C361FEF796
:104B4000F1FE002808BF80BDBDE88040FCF732BD03
:104B5000FEE700002DE9F04F81B040F25818C2F294
:104B6000000898F800200C2A00F27F8383468A46CA
:104B7000DFE812F078030E005400140178003401CD
:104B800048015C01700194008401A800D80000BFB6
:104B900098F81F00042800F26883DFE810F0050091
:104BA000F303250457046903D8E90F954846009597
:104BB00004F04EFA0446284604F04AFADBF80010E6
:104BC0000546084604F044FADAF80010064608469E
:104BD00004F03EFA294604F087FB0746304621469A
:104BE00004F082FB0146384604F000F92146C8F87B
:104BF000440004F0ADFA0146284604F075FB04F0C9
:104C0000EBF9C8F84800DBF800000099A0EB0900B8
:104C1000C8F84C00DAF8000064E300BF98F81F0001
:104C2000042800F22283DFE810F005004B045F0344
:104C300079039303D8E91301002848BF4042D8F80C
:104C40003C20002948BF4942C8F834208842C8F8AF
:104C5000382094BF0420032088F8000001B0BDE88C
:104C6000F08F00BFD8F8501098F81D000129C0F24D
:104C70001981012840F0F982D8F838000022073065
:104C8000C8F83800DAF8001088F81D20401A48BF2C
:104C90004042032800F2E98214E100BFD8F84C102A
:104CA00098F81D000129C0F21781012840F0DD822B
:104CB000002088F81D00D8F83400D8E91145C61D39
:104CC00015E100BFD8F84C1098F81D000129C0F27A
:104CD0003581012840F0C982002088F81D00D8F8ED
:104CE0003400D8E91145C61D3046C8F8346004F0D8
:104CF000AFF90746284604F0ABF905462046394689
:104D000004F026FA294603F0D9FF04F065F9C8F843
:104D10003800DBF80000301A48BF4042092800F292
:104D2000A48233E1D8F8501098F81D000129C0F290
:104D30003B81012840F09982002088F81D00D8F8B6
:104D40003800D8E91145C61D3046C8F8386004F06F
:104D50007FF90746284604F07BF90146384604F0FF
:104D6000C3FA214604F042F804F036F9C8F83400DA
:104D7000DAF80000301A48BF4042092800F2758274
:104D8000DBF80000C8F83400DAF80010C8F8381072
:104D9000C8E90B0101B0BDE8F08F00BFD8F84C1096
:104DA00098F81D000129C0F23181012840F05D8290
:104DB000D8F83400D8E91174C61D3046C8F83460FC
:104DC00004F046F90546204604F042F90446384608
:104DD000294604F0BDF921462FE100BFD8F84C1058
:104DE00098F81D000129C0F24981012840F03D8258
:104DF000002088F81D00D8F83400D8E91145C61DF8
:104E000047E100BFD8F8501098F81D000129C0F202
:104E10006781012840F02982002088F81D00D8F819
:104E20003800D8E91145C61D65E100BFD8F84C101F
:104E300098F81D000129C0F28581012840F01582F3
:104E4000002088F81D00D8F83400D8E91145C61DA7
:104E500083E100BFD8F8501098F81D000129C0F276
:104E6000A181012840F00182002088F81D00D8F8B7
:104E70003800D8E91145C61D9EE100BFD8F8501092
:104E800098F81D000129C0F2BD81012840F0ED8194
:104E9000002088F81D00D8F83800D8E91145C61D53
:104EA000BAE100BF012840F0E081D8F838000022C4
:104EB0000738C8F83800DAF8001088F81D20884252
:104EC00040F0D381DBF80000C8F83400DAF80000C5
:104ED000C8F83800CAE000BF012840F0C6810020B1
:104EE00088F81D00D8F83400D8E91145C61F3046AF
:104EF000C8F8346004F0ACF80746284604F0A8F877
:104F000005462046394604F023F9294603F0D6FE2B
:104F100004F062F8C8F83800DBF80C00301A48BF1B
:104F20004042092800F2A181DAF80C00C8F83800E4
:104F3000DBF80C00C8F8340091E100BF012840F014
:104F40009481002088F81D00D8F83400D8E9114574
:104F5000C61F3046C8F8346004F07AF80746284681
:104F600004F076F805462046394604F0F1F8294663
:104F700003F0A4FE04F030F8C8F83800DBF80000B5
:104F8000301A48BF4042092800F26F81DAF8000069
:104F9000C8F83800DBF80010C8F83410C8E90B1066
:104FA00001B0BDE8F08F00BF012840F05E81002015
:104FB00088F81D00D8F83800D8E91145C61F3046DA
:104FC000C8F8386004F044F80746284604F040F872
:104FD0000146384604F088F9214603F007FF03F044
:104FE000FBFFC8F83400DAF80000301A48BF40422E
:104FF000092800F23A81DBF80000C8F83400DAF83A
:105000000010C8F83810C8E90B012EE1012840F063
:105010002C81D8F83400D8E91145C61F3046C8F8AD
:10502000346004F015F80746284604F011F80546E8
:105030002046394604F08CF8294603F03FFE03F081
:10504000CBFFC8F83800DBF800000021301A88F8E0
:105050001D1048BF4042032800F20781DAF8000023
:10506000C8F83800DBF80000C8F83400012088F8E0
:105070001F0088F8000001B0BDE8F08F012840F063
:10508000F480002088F81D00D8F83400D8E91145D4
:10509000C61F3046C8F8346003F0DAFF07462846DA
:1050A00003F0D6FF05462046394604F051F829465C
:1050B00003F004FE03F090FFC8F83800DBF80400AA
:1050C000301A48BF4042032800F2CF80DAF80400CB
:1050D000C8F83800DBF80400C8F834002FE000BF3F
:1050E000012840F0C280002088F81D00D8F8380060
:1050F000D8E91145C61F3046C8F8386003F0A8FF4C
:105100000746284603F0A4FF0146384604F0ECF8B1
:10511000214603F06BFE03F05FFFC8F83400DAF8B5
:105120000400301A48BF4042032800F29E80DBF89A
:105130000400C8F83400DAF80400C8F83800022087
:105140008EE000BF012840F09080002088F81D000C
:10515000D8F83400D8E91145C61F3046C8F8346085
:1051600003F076FF0746284603F072FF0546204607
:10517000394603F0EDFF294603F0A0FD03F02CFFB4
:10518000C8F83800DBF80800301A48BF404203284E
:105190006BD8DAF80800C8F83800DBF80800C8F85F
:1051A00034002CE0012860D1002088F81D00D8F8D8
:1051B0003800D8E91145C61F3046C8F8386003F0FA
:1051C00047FF0746284603F043FF0146384604F0F0
:1051D0008BF8214603F00AFE03F0FEFEC8F8340007
:1051E000DAF80800301A48BF404203283DD8DBF8FF
:1051F0000800C8F83400DAF80800C8F838000320BE
:105200002EE000BF012830D1002088F81D00D8F81A
:105210003800D8E91145C61F3046C8F8386003F099
:1052200017FF0746284603F013FF0146384604F0EF
:105230005BF8214603F0DAFD03F0CEFEC8F8340037
:10524000DAF80C00301A48BF404209280DD8DBF8C4
:105250000C00C8F83400DAF80C00C8F83800042054
:1052600088F81F00012088F8000001B0BDE8F08F29
:10527000DBF80C00DBF8006003F0EAFEDAF80C1053
:10528000DAF800708146084603F0E2FE0446304634
:1052900003F0DEFE0646384603F0DAFE214604F04F
:1052A00023F807463046494604F01EF801463846C2
:1052B00003F09CFD4946C8F8440003F049FF01464D
:1052C000204604F011F803F087FEC8F84800DBF828
:1052D0000000DBF80C10401AC8F84C00DAF80000A7
:1052E000DAF80C10401AE3E0D8E91301002848BFAF
:1052F0004042002948BF4942DBF804208842C8F8F0
:105300003420DAF80420C8F8382094BF0820072099
:1053100088F8000001B0BDE8F08F00BFD8E91301A4
:10532000002848BF4042002948BF4942DBF8082016
:105330008842C8F83420DAF80820C8F8382094BF2A
:105340000A20092088F8000001B0BDE8F08F00BFF6
:10535000D8E91301002848BF4042002948BF49420C
:10536000DBF80C208842C8F83420DAF80C20C8F8A2
:10537000382094BF0C200B2088F8000001B0BDE855
:10538000F08F00BFDBE9000603F062FE0446DAE9B5
:10539000000703F05DFE8146304603F059FE0646E5
:1053A000384603F055FE494603F09EFF0746304657
:1053B000214603F099FF0146384603F017FD2146C8
:1053C000C8F8440003F0C4FE0146484603F08CFFD1
:1053D00003F002FEC8F84800DBE90001081AC8F82B
:1053E0004C00DAE9000162E0DBE9010603F030FE7F
:1053F0000446DAE9010703F02BFE8146304603F04C
:1054000027FE0646384603F023FE494603F06CFFAC
:1054100007463046214603F067FF0146384603F051
:10542000E5FC2146C8F8440003F092FE01464846D8
:1054300003F05AFF03F0D0FDC8F84800DBE9010192
:10544000081AC8F84C00DAE9010130E0DBE902068D
:1054500003F0FEFD0446DAE9020703F0F9FD814698
:10546000304603F0F5FD0646384603F0F1FD4946A7
:1054700003F03AFF07463046214603F035FF014668
:10548000384603F0B3FC2146C8F8440003F060FE40
:105490000146484603F028FF03F09EFDC8F8480087
:1054A000DBE90201081AC8F84C00DAE90201081A1F
:1054B000C8F85000022088F8000001B0BDE8F08F65
:1054C000D8E91301002848BF4042002948BF49429B
:1054D00088420DD9DBF80000C8F83400DAF8000083
:1054E000C8F83800052088F8000001B0BDE8F08F4A
:1054F000DAF80000C8F83800DAF80000C8F834001C
:10550000062088F8000001B0BDE8F08F2DE9F04FCB
:1055100081B040F25818C2F2000898F800200C2A16
:1055200000F2738383468A46DFE812F06C030E00B4
:1055300054000601780026013A014E0162018600FE
:1055400076019A00CA0000BF98F81F00042800F2F4
:105550005C83DFE810F00500E70319044B045D03EA
:10556000D8E90F954846009503F072FD0446284699
:1055700003F06EFDDBF800100546084603F068FDF9
:10558000DAF800100646084603F062FD294603F0EB
:10559000ABFE07463046214603F0A6FE01463846DC
:1055A00003F024FC2146C8F8440003F0D1FD014675
:1055B000284603F099FE03F00FFDC8F84800DBF819
:1055C00000000099A0EB0900C8F84C00DAF80000D0
:1055D00058E300BF98F81F00042800F21683DFE8A4
:1055E00010F005003F0453036D038703D8E913014E
:1055F000002848BF4042D8F83C20002948BF494213
:10560000C8F834208842C8F8382094BF042003200A
:1056100088F8000001B0BDE8F08F00BFD8F8501046
:1056200098F81D000129C0F20B81012840F0ED829D
:10563000D8F83800013009E1D8F84C1098F81D006E
:105640000129C0F21981012840F0DF82002088F88A
:105650001D00D8F83400D8E91145461C17E100BFF9
:10566000D8F84C1098F81D000129C0F237810128A4
:1056700040F0CB82002088F81D00D8F83400D8E92B
:105680001145461C3046C8F8346003F0E1FC07467B
:10569000284603F0DDFC05462046394603F058FD58
:1056A000294603F00BFB03F097FCC8F83800DBF841
:1056B0000000301A48BF4042012800F2A68235E1BE
:1056C000D8F8501098F81D000129C0F23D8101283A
:1056D00040F09B82002088F81D00D8F83800D8E9F7
:1056E0001145461C3046C8F8386003F0B1FC074647
:1056F000284603F0ADFC0146384603F0F5FD21468F
:1057000003F074FB03F068FCC8F83400DAF800001A
:10571000301A48BF4042012800F27782DBF80000CF
:10572000C8F83400DAF80010C8F83810C8E90B01DE
:1057300001B0BDE8F08F00BFD8F84C1098F81D00FC
:105740000129C0F23381012840F05F82D8F834008B
:10575000D8E91174461C3046C8F8346003F078FC70
:105760000546204603F074FC04463846294603F0FB
:10577000EFFC214631E100BFD8F84C1098F81D002D
:105780000129C0F24B81012840F03F82002088F8B7
:105790001D00D8F83400D8E91145461C49E100BF86
:1057A000D8F8501098F81D000129C0F2698101282D
:1057B00040F02B82002088F81D00D8F83800D8E986
:1057C0001145C61D67E100BFD8F84C1098F81D00C0
:1057D0000129C0F28781012840F01782002088F853
:1057E0001D00D8F83400D8E91145461C85E100BFFA
:1057F000D8F8501098F81D000129C0F2A3810128A3
:1058000040F00382002088F81D00D8F83800D8E95D
:105810001145461CA0E100BFD8F8501098F81D00B3
:105820000129C0F2BF81012840F0EF81002088F8F3
:105830001D00D8F83800D8E91145461CBCE100BF6E
:10584000012840F0E281D8F838000138C8F8380063
:10585000DAF800100022401A88F81D2048BF4042A4
:10586000012800F2D281DBF80000C8F83400DAF831
:105870000000C8F83800C9E0012840F0C6810020C7
:1058800088F81D00D8F83400D8E91145461E304686
:10589000C8F8346003F0DCFB0746284603F0D8FB69
:1058A00005462046394603F053FC294603F006FA24
:1058B00003F092FBC8F83800DBF80C00301A48BF40
:1058C0004042012800F2A181DAF80C00C8F8380043
:1058D000DBF80C00C8F8340091E100BF012840F06B
:1058E0009481002088F81D00D8F83400D8E91145CB
:1058F000461E3046C8F8346003F0AAFB0746284627
:1059000003F0A6FB05462046394603F021FC294654
:1059100003F0D4F903F060FBC8F83800DBF80000AE
:10592000301A48BF4042012800F26F81DAF80000C7
:10593000C8F83800DBF80010C8F83410C8E90B10BC
:1059400001B0BDE8F08F00BF012840F05E8100206B
:1059500088F81D00D8F83800D8E91145461E3046B1
:10596000C8F8386003F074FB0746284603F070FB64
:105970000146384603F0B8FC214603F037FA03F03D
:105980002BFBC8F83400DAF80000301A48BF404258
:10599000012800F23A81DBF80000C8F83400DAF898
:1059A0000010C8F83810C8E90B012EE1012840F0BA
:1059B0002C81D8F83400D8E91145461E3046C8F885
:1059C000346003F045FB0746284603F041FB0546DB
:1059D0002046394603F0BCFB294603F06FF903F07B
:1059E000FBFAC8F83800DBF800000021301A88F80C
:1059F0001D1048BF4042012800F20781DAF800007C
:105A0000C8F83800DBF80000C8F83400012088F836
:105A10001F0088F8000001B0BDE8F08F012840F0B9
:105A2000F480002088F81D00D8F83400D8E911452A
:105A3000461E3046C8F8346003F00AFB0746284685
:105A400003F006FB05462046394603F081FB294654
:105A500003F034F903F0C0FAC8F83800DBF80400AA
:105A6000301A48BF4042012800F2CF80DAF8040023
:105A7000C8F83800DBF80400C8F834002FE000BF95
:105A8000012840F0C280002088F81D00D8F83800B6
:105A9000D8E91145461E3046C8F8386003F0D8FAF8
:105AA0000746284603F0D4FA0146384603F01CFCAA
:105AB000214603F09BF903F08FFAC8F83400DAF8B6
:105AC0000400301A48BF4042012800F29E80DBF8F3
:105AD0000400C8F83400DAF80400C8F838000220DE
