:020000040800F2
:10000000C00A002061020008095E00087D40000867
:10001000994B0008C1150008BD78000800000000D9
:10002000000000000000000000000000E96C000873
:10003000DD15000800000000756B00081570000851
:100040007B0200087B0200087B0200087B0200089C
:100050007B0200087B0200087B0200087B0200088C
:100060007B0200087B0200087B0200087B0200087C
:100070007B0200087B0200087B0200087B0200086C
:10008000C5150008D11500087B0200087B02000896
:100090007B0200087B0200087B0200087B0200084C
:1000A0007B0200087B0200087B0200087B0200083C
:1000B0007B0200081D700008297000087B02000800
:1000C0007B0200087B0200087B0200087B0200081C
:1000D0007B020008ED740008F97400087B02000838
:1000E0007B0200087B0200087B02000800F002F897
:1000F00000F0A6F814A696E8000CB244B344DA4522
:1001000001D100F09DF8BAE80F000FA696E8300084
:10011000A5EB040504EB0607AAEB0704A7F101070A
:100120004FEA15154FEA3414A4F10104AC4201D38F
:1001300000F086F813F0010F18BFFB1A43F001031B
:1001400000F001F8DBE71847849C0000A49C000045
:10015000103A24BF78C878C1FAD8520724BF30C8F3
:1001600030C144BF04680C60704700007047000055
:100170000023002400250026103A28BF78C1FBD8B0
:10018000520728BF30C148BF0B6070476E2900F08E
:10019000D782702900F02786662909F0F480652946
:1001A00009F0F180672909F0EE80612909F0ED80FE
:1001B00003681B0A28BF41F08001692900F0C08054
:1001C000642900F0BD80752900F0BA806F2900F025
:1001D000B585782900F0F385E92900F04F85E429F9
:1001E00000F04C85F52900F04985EF2900F0B28533
:1001F000F82900F0F2850368DB0928BF41F080018F
:10020000632901F05180732901F05680E32901F040
:100210006180F32901F06680002070471FB500F06F
:1002200031FE04000020002108F07CF8401C6060D2
:100230000020002108F060F8E0601FBD10B510BD7F
:1002400001F03AF91146FFF7E9FF07F09BFB01F0D7
:1002500066F903B4FFF7F2FF03BC01F0A9F900004F
:100260000948804709480047FEE7FEE7FEE7FEE74A
:10027000FEE7FEE7FEE7FEE7FEE7FEE70448054986
:10028000054A064B7047000019700008ED00000891
:10029000C0040020C00A0020C0060020C0060020C4
:1002A0001CB50C46064B7B4469460090204600F086
:1002B0006EFC04460020694600F07CFC20461CBD14
:1002C0000B0900000FB41CB5084B06AA7B44694615
:1002D0000090059800F05BFC04460020694600F0A1
:1002E00069FC20461CBC5DF814FB0000E50800001A
:1002F00070B5044685690068C10601D5302600E066
:100300002026C00707D070BDD4E9012130469047B0
:10031000206A401C20626D1EF6D570BD70B5044683
:1003200085690078C00707D170BDD4E9012120207C
:100330009047206A401C20626D1EF6D570BD0000FB
:100340002DE9F0410646002410687529314616A5AE
:1003500010D000F061F9002802DA404213A507E04E
:1003600031688A0701D512A502E0490704D511A515
:10037000012401E000F059F900210A2206F12407C6
:1003800009E0B0FBF2FCB0FBF2F302FB1C003030E2
:1003900078541846491C0028F3D123462A46304693
:1003A000BDE8F04100F073B9000000002D0000002E
:1003B0002B000000200000002DE9F05F8946044674
:1003C0004FF0000ADFF874B1FB44C0F820A02046CB
:1003D000E1688847002874D0252806D0D4E9012197
:1003E0009047206A401C2062F1E700265F462046C5
:1003F000E16888472028054607DB312D05D27819AA
:1004000010F8200C08B10643F1E7B00701D526F03B
:100410000406C4F81CA00027C4F818A02A2D09D08F
:10042000284607F061FF38B304EB8708303DC8F871
:10043000185019E059F8041B204604EB870291611B
:10044000E1688847012F054618D1E069002820DAC5
:1004500026F020061DE0D8F8180000EB800005EB20
:1004600040003038C8F818002046E1688847054643
:1004700007F03AFF0028EED1012F0AD02E2D08D127
:100480002046E16888477F1C0546022F46F020067B
:10049000C4DBA069002803DA404246F00106A061EF
:1004A000F00701D026F010066C2D0BD0682D09D076
:1004B0004C2D39D06A2D35D0742D35D07A2D33D0CE
:1004C00016E038E0E1682F4620468847B8420546E6
:1004D00009D16C2F26D04FF48060E1680643204696
:1004E0008847054604E06C2F1AD04FF4807006430D
:1004F0000DB3A5F14100192802D8203546F4006655
:100500004A462946204626604E46FFF73FFE80B108
:1005100001280BD0F61D26F0070000F1080956E768
:100520004020E4E78020D8E70020D6E706F1040960
:100530004DE7284652E7206ABDE8F09FC28F0000D1
:1005400070B5064600F064F80468054630460A2295
:10055000002100F053FC2C6070BD30B505460B4601
:100560002A4613F8014B12F8010B08B1A042F8D04B
:100570001CB1002802D06D1CF1E7284630BD10B533
:10058000431C02E010F8011B71B18107FAD14FF052
:10059000013202C88C1A8C4314EAC211F9D0C01A75
:1005A0000A0603D0C01E10BDC01A10BD0A0401D037
:1005B000801E10BD0902FCD0401E10BD4FF000028D
:1005C00000B5134694469646203922BFA0E80C5049
:1005D000A0E80C50B1F12001BFF4F7AF090728BF24
:1005E000A0E80C5048BF0CC05DF804EB890028BFA0
:1005F00040F8042B08BF704748BF20F8022B11F0C9
:10060000804F18BF00F8012B704770477047704744
:10061000004870475800002009684A0501D540B2DB
:100620007047C905FCD500B2704709684A0501D575
:10063000C0B27047C905FCD580B2704770B50C4692
:100640000546012A05D02878800600D5EA690023EE
:1006500002E0012305E05B1C934202D2E05C00282B
:10066000F9D1A869E618C01AA861286A1844286256
:100670002846FFF73DFE04E0D5E9012114F8010BFF
:100680009047B442F8D32846FFF748FE70BD2DE9E5
:10069000F0470D4699469246044600F12408016849
:1006A000880604D5E06921F01001216000E00120F6
:1006B000A84201DD471B00E00027A1697A1902EB7F
:1006C0000900081AA0612078C00602D42046FFF76E
:1006D0000FFE002608E0D4E901211AF80600904731
:1006E000206A401C761C20624E45F4DB2078C00650
:1006F0000AD52046FFF7FCFD06E0D4E901213020B1
:100700009047206A401C2062381EA7F10107F4DCE4
:1007100007E0D4E9012118F805009047206A401C41
:100720002062281EA5F10105F3DC2046FFF7F6FD47
:100730002078000602D50220BDE8F0870120FBE703
:1007400011680268006A530501D508700AE0D305F4
:1007500001D5088006E0130603D5C217C1E90002DF
:1007600000E00860012070472DE9FF4F0C461E464F
:100770004FF0FF378BB0D2E90001DDF860800A90BE
:100780008A46C1F30A5505B93D46002108464FF097
:100790000000BAF1000F00F4400005DA00EB800021
:1007A0004FF4400101EA50004FEA9059B9F1010FAE
:1007B00000DDB9460A9850EA4A000ED044F61050BF
:1007C000A5F2FF3545432F14B8F1000F1ED0754236
:1007D000291E1EDDC9F100021CE0B8F1010F4FF027
:1007E000000001D0302103E0F24305E02154401C19
:1007F000B042FBDB30460022002121540B99C1F8A6
:100800000880C1E900200FB0BDE8F08FBD1B6D1C52
:10081000DEE74A4600DA694206A800F0B7FD06ABFB
:1008200093E8070003AB83E8070050460A9907F0F6
:100830007EF98DE80700A0F500501F38009003985E
:10084000002D0ADD42F21F014A460844002303A995
:100850000390684607F0E8FB09E0A0F500504A461F
:100860001F38002303A90390684607F0F2FB8DE8C8
:1008700007000004000C03D04FF0FF30410800E0F7
:100880001046B8F1000F03D00022009215461EE07A
:10089000751E05D400F0FAFA303262556D1EF9D596
:1008A000B3460122084302D000227F1C04E02078D6
:1008B000302801D100227F1E002A099784D01DE034
:1008C000112D07DA00F0E2FA303262556D1C50EA61
:1008D0000102F5D1084302D00098C8B10EE0002112
:1008E000681E05E0235C625C63542254401E491C70
:1008F0008142F7DBAB46A81B401E0990002004F89C
:100900000B000B98099AC0F80880C0E9002B7AE721
:1009100011264FF0000857E72DE9F04F88460446AE
:10092000D21D22F0070191B0D1E90001CDE90A0101
:1009300007F0C6FC02460B98C00F01D02D2007E03F
:100940002068810701D52B2002E0202101EAC000A8
:10095000032A099001D0072A05DB034641462046B9
:1009600000F058FC0BE12078800601D5E06900E03A
:100970000620B8F1650F814606D0B8F1660F18D091
:10098000B8F1670F70D131E00020B9F1110F00907C
:1009900001DB112301E009F101030AAA01A90CA856
:1009A000FFF7E2FEDDE90C70002609F10105834640
:1009B00047E001204B4600904FF000470AAA01A9EA
:1009C0000CA8FFF7D1FEDDE90DB00C995D460026BD
:1009D00010B909F101000D18B9EB050003D4C0F1FD
:1009E000FF3609F10105A5EB09002BE0B9F1010F74
:1009F00001DA4FF001090020B9F1110F00904846CB
:100A000001DD112300E003460AAA01A90CA8FFF7A3
:100A1000ABFEDDE90C704D460026834620780007CA
:100A20000AD4AB4500DA5D4601A8012D04DD411969
:100A300011F8011C302907D04F4502DA17F1040FD5
:100A400004DA012082460FE06D1EEEE7002F02DC83
:100A5000ED1B3E4403E0781CA84200DD7D1CB81B62
:100A600000F1010A4FF000472078000703D4AA459F
:100A700001DB4FF0FF3A0021B7F1004F0DF14308C1
:100A80008DF8431024D002202B23002F01DA7F425F
:100A90002D230A21021EA0F1010000DC5FB197FBAB
:100AA000F1FC97FBF1F201FB1C7C17460CF1300CBA
:100AB00008F801CDEEE7A8F10100037021880905CF
:100AC00001D5452100E06521A0F1010800F8011CD5
:100AD00009980FA9A1EB0807FF1D00B101204119DA
:100AE00001EBEA70A1693844081A401EA061207821
:100AF000C00602D42046FFF7FBFB099828B1D4E9D1
:100B000001219047206A401C20622078C00622D52F
:100B10002046FFF7EDFB1EE0002E04DBB34502DDAF
:100B200001A8805D00E03020D4E901219047206ACF
:100B3000401C2062761CAAF101005FEA000A0AD17B
:100B400000F0A0F9C0680168405CD4E90121904739
:100B5000206A401C2062281EA5F10105DCDC07E0AC
:100B6000D4E9012118F8010B9047206A401C20624B
:100B7000381EA7F10107F3DC2046FFF7CFFB032067
:100B800011B041E601694A1C02610878704700B55E
:100B90008FB0CDE901310021059105497944CDE9B6
:100BA000031011466846FFF707FC0FB000BD0000B8
:100BB000E5FFFFFF0A6802F8010B0A6070470000BA
:100BC0002DE9FF5F15468A460446DFF8AC80F844FD
:100BD0000027D8E900103E46CDE9001010E03AF8B1
:100BE00016106A4602A800F043FC411C07D0217889
:100BF000890603D5E269391891420DD80744761C5D
:100C00002078800602D5E069B84205DDAE42E6DB19
:100C10003AF816000028E2D1A069C01BA061204666
:100C2000FFF766FBD8E90010CDE90010002017E0BF
:100C30003AF818106A4602A800F01AFCB0F1FF3F1B
:100C400081460BD000250DF1080B05E0D4E9012108
:100C50001BF8050090476D1C4D45F7D308F10100C6
:100C6000B0428046E4DB206A384420622046FFF729
:100C700055FBBDE8FF9F0000CE8700002DE9F04145
:100C80008046D21D22F007020025D2E90002F52994
:100C900015A614D0011E72F1000106DA0023D0EB74
:100CA000030063EB020211A608E0D8F800108B07DE
:100CB00001D50FA602E0490701D50EA60125114670
:100CC000002408F1240704E000F0E0F830323A553F
:100CD000641C50EA0102F7D12B46324621464046B9
:100CE000BDE8F041FFF7D3BC000000002D0000007C
:100CF0002B0000002000000030B4002100F124048B
:100D000008E002F00705D208303542EA4372DB08FA
:100D10006554491C52EA0305F3D10468002310A26C
:100D2000250708D504F020040C4304D0C46901232E
:100D30000CA2641EC46130BCFFF7A9BC10B5044608
:100D400021461068FFF771FC02462046BDE81040BE
:100D50000023D1E7D21D22F00701D1E90023CBE720
:100D60000000000030000000F0B40D4601880905C5
:100D700002D5214C7C4402E01F4C7C440E340021FF
:100D800000F1240608E002F00F071209E75D42EACD
:100D900003721B097754491C52EA0307F3D1027806
:100DA0000023120704D5702D06D009B10223113497
:100DB0002246F0BCFFF76BBC01231034F8E770B596
:100DC00004460D4621461068FFF72FFC02462946CF
:100DD0002046BDE870400023C6E7D21D22F007037D
:100DE000D3E90023C0E70368126843F020030360DF
:100DF0000823C3610023B7E7308600002DE9F047E0
:100E000091460F4680460446002614F8015B2DB13A
:100E100000F030F80068405DC007F6D12B2D02D0FD
:100E20002D2D18D0641E4A463946204600F05EFA41
:100E300027B13968A14201D1C7F800804FF0020400
:100E400071050BD54042002803DDFFF7E1FB04608C
:100E5000A007BDE8F08746F48066E4E70028F8DAEA
:100E6000FFF7D6FB04606FF00040F2E700487047E0
:100E70005800002010B500F005F8001D10BD00BF9F
:100E8000A5740000004870477800002030B5B0F12C
:100E90000A0271F100034FEA900E4EEA817EB0EB38
:100EA0000E0061EB91014FEA101E4EEA017E10EB3D
:100EB0000E0041EB11114FEA102E4EEA016E10EBBD
:100EC0000E0041EB11214FEA104E4EEA014E10EB9D
:100ED0000E0041EB1141401841F100014FEAD000F2
:100EE00040EA41704FEAD1014FEA810444EA90742C
:100EF00010EB800544EB01046D1944EB0404521B14
:100F0000A3414FF0000348BF0A3200D530BD401C5A
:100F100041F1000130BD00002DE9F04F04460D46BF
:100F2000D21D22F0070089B0D0E900974846394623
:100F300007F0C6F90246F80F01D02D2307E020681C
:100F4000810701D52B2302E0202101EAC0038DF89F
:100F500020300BB1012000E00020032A824601D09E
:100F6000072A04DB2946204600F054F93FE12078A7
:100F7000800601D40D2500E0E569C7F30A560D2D62
:100F800049DA00214FEA175B08464FF00000002FB6
:100F900000F4400007DA00EB80004FF4400100EB62
:100FA000D07001EA60008115012901DD4FF0FF31A9
:100FB00000224FEA850CBCF1180F06D31346ACF1A2
:100FC00018004FF08052C24003E04FF4801323FA20
:100FD0000CF30CF10C0CBCF1200F04D3ACF1200C81
:100FE00009FA0CF001E007FA0CF000294FF0004874
:100FF00001DD18B90FE00ED140450CD319EB020901
:101000005F4121B9404502D19F4329EA0209BBEB68
:10101000175F00D0761C2088000502D57B487844F5
:1010200002E07A487844193808AA302302F80A30D6
:10103000037C0AF10101002E0AF1020A53546A46A8
:1010400002DC4FF0300101E04FF031014FF00108B8
:101050008DF8001002D0A6F2FF3603E059EA4701EE
:1010600000D06B4E002D02DC2178090704D54FF02B
:1010700002082E218DF80110C44600210BE0C7F3B1
:1010800003433F01C35C491C6D1E02F8083005296B
:1010900008F1010801DA002DF1DC00210CE000EB81
:1010A0001973491C1B786D1E082902F808304FEA95
:1010B000091908F1010801DA002DF0DC21688B061E
:1010C00002D516E0A8F10108E04505DD02EB0803B2
:1010D00013F8013C302BF5D0B8F1000F09DD02EB1D
:1010E000080313F8013C2E2B03D1090701D4A8F102
:1010F0000108002D05DD3E2102F808106D1E08F1E3
:101100000108407C002E02F8080008F1010804DA0A
:101110002D20764202F8080002E02B2002F8080099
:101120000A214FF47A70864208F101080BDB96FB26
:10113000F0F3303302F8083096FBF0F308F10108C1
:1011400000FB136601E0642E0CDB642096FBF0F3D9
:10115000303302F8083096FBF0F308F1010800FB89
:10116000136601E00A2E06DB96FBF1F0303002F840
:10117000080008F1010896FBF1F001FB1060303027
:1011800002F80800A16908F1010808EB050202EB6A
:101190000A00081AA0612078C00602D42046FFF792
:1011A000A7F8216A08AE01EB0A00206204E0D4E946
:1011B000012116F8010B9047BAF1010AF7D2207805
:1011C000C00602D52046FFF793F86E4609E016F8F0
:1011D000010B3E280FD0D4E901219047206A401C22
:1011E0002062B8F10108F2D22046FFF797F809B063
:1011F0000320BDE8F08F206A2844206203E0D4E990
:101200000121302090476D1EEBD3F8E7C183000029
:1012100002FCFFFF2DE9F0411F460446032601684A
:10122000072A01F4006004DB08B116A505E016A545
:1012300003E008B115A500E015A521F0100020601D
:10124000A069C01EA0610FB1401EA0612046FFF73B
:101250004FF84FB1D4E9012138469047206A401C2D
:101260002062C01C206206E0206AFAE7D4E901216E
:1012700015F8010B9047761EF8D22046FFF74EF87E
:10128000BDE8F0814E414E006E616E00494E460051
:10129000696E660010B5436913B1AFF3008001E0D9
:1012A000FFF7CCF9012010BD127800F124010A707B
:1012B00000224A700122EDE711684FF0FF32E9E7A2
:1012C00010B5436913B1AFF3008001E0FFF778FC7C
:1012D000012010BD128800F1240182840022C28402
:1012E0000122EDE711684FF0FF32E9E72DE9F05FE9
:1012F000824615468B4600270AF10104B94600785C
:10130000302801D09DB113E014F8010B0127782893
:1013100003D0582801D045B10AE00DB1102D07D1F6
:10132000002714F8010B102502E0082500E00A252B
:101330000026B0460EE005FB080005FB06F101277C
:101340001FFA80F801EB1046B6F5803F00D3B9468E
:1013500014F8010B294600F0D4F80028EBDABBF1B1
:10136000000F05D00FB1641E00E05446CBF80040DA
:10137000B9F1000F06D0FFF74BF902210160C81E3A
:10138000BDE8F09F48EA0640FAE700002DE9F04783
:10139000814616468AB0354878440DC88DE80D0060
:1013A00032487844801C03AC0DC884E80D0041F637
:1013B0009B300844372190FBF1F290FBF1F5A5F149
:1013C000800501FB12041B3C02D56442012000E0B1
:1013D0000020DFF898A080460027FA44AAF1BE0A50
:1013E0000EE0E0070AD03246684607EB47010123CA
:1013F0000AEB810106F02DFE8DE8070064107F1CCA
:10140000002CEED1194F7F44AE3F19E0E80715D00C
:1014100007EB04100DF1180A90E80E008AE80E00A0
:10142000C068F04201D1981908903246012306A9FC
:1014300003A806F00EFE03AB83E807006D10641CE2
:10144000002DE3D14FF0010332466946B8F1000F99
:1014500003A802D006F0E8FD01E006F0FAFDC9E9B4
:101460000001C9F808200AB0BDE8F087D880000064
:101470002DE9F04116460C460546FFF7FBFC0368D4
:1014800093F80101012807D0FF2C12D8185D80B114
:1014900001202C70BDE8F081D3F8070132462146C7
:1014A00003F20713C7182846BC46BDE8F0410023E5
:1014B00060474FF0FF30EDE77546FFF7D7FCAE46CB
:1014C00005006946534620F00700854618B020B550
:1014D000FEF7D4FEBDE820404FF000064FF00007B5
:1014E0004FF000084FF0000BAC46ACE8C009ACE888
:1014F000C009ACE8C009ACE8C00921F007018D467D
:1015000070473A2800D2303820F02002412A01D317
:10151000A2F13700884201D34FF0FF30704710B579
:101520000446AFF300802046BDE81040FEF791BEB0
:101530004FF0013C50F8042B51F8043B9A4221D162
:10154000A2EB0C03934313EACC1317D150F8042BEE
:1015500051F8043B9A4215D1A2EB0C03934313EAD2
:10156000CC130BD150F8042B51F8043B9A4209D10B
:10157000A2EB0C03934313EACC13DBD04FF0000033
:10158000704700BFD01A01BAB1FA81F101F0180119
:1015900022FA01F0CB40DBB2C0B2C01AC1F1200187
:1015A0002CFA01F3D11A914311EAC311E6D1704725
:1015B00001491820ABBEFEE726000200704700007C
:1015C000FEE7000040F2B010C2F2000000F08EB85A
:1015D00040F2F410C2F2000000F088B8704700003A
:1015E000EFF3108072B600BFFEE70000014690F8EE
:1015F0002100022816D10868D1E90FC3026822F041
:101600000E020260026822F001020260012000FA6C
:1016100003F2CCF8042081F821000020002281F898
:1016200020207047042088630120002281F82020B8
:101630007047000090F82110022923D1026840F27F
:10164000040C1168C4F2020C21F00E011160136841
:101650002F21C4F202018A4223F00103136015DD39
:101660003023C4F202039A421CD04423C4F2020382
:101670009A421BD05823C4F202039A421CD14FF461
:10168000803321E004218163012070470823C4F2E4
:1016900002039A420ED01C23C4F202039A420BD1D9
:1016A000102311E04FF480730EE000BF4FF480531D
:1016B0000AE000BF012307E00CF168014FF08073DE
:1016C0008A4208BF4FF480130121CCF8003080F823
:1016D0002110416B0022002980F8202004BF002047
:1016E000704780B58847002080BD000010B5D0E964
:1016F0000FCE0168DCF800300A6823FA0EF35C07AD
:101700002AD512F0040427D00A68920603D40A6886
:1017100022F004020A602F22C4F20202914240F237
:101720000402C4F202025BDD3023C4F202039942D8
:1017300072D04423C4F20203994273D05823C4F2F6
:101740000203994240F07A804FF480231360C16A0B
:10175000002940F098806FE09C0727D512F0020422
:1017600024D00A68920606D40A6822F00A020A60A7
:10177000012280F821202F22C4F20202914240F27D
:101780000402C4F202023BDD3023C4F20203994298
:1017900060D04423C4F2020399425FD05823C4F2BC
:1017A0000203994260D14FF4003365E01B0743D533
:1017B00012F0080208BF10BD0A6822F00E020A608B
:1017C000012101FA0EF2CCF80420816380F8211087
:1017D000016B0022002980F8202054D12CE000BFAA
:1017E0000823C4F20203994222D01C23C4F202034C
:1017F000994223D140231360C16A002943D11BE0E1
:101800000823C4F2020399422CD01C23C4F2020321
:10181000994229D120232FE04FF480631360C16ADD
:1018200089BB09E04FF480431360C16A59BB03E0F0
:1018300004231360C16A31BB10BD00BF02F168040C
:101840004FF08063A14208BF4FF480031360C16A68
:10185000C9B9F1E74FF400730EE000BF4FF4005335
:101860000AE000BF022307E002F168044FF00073B2
:10187000A14208BF4FF400131360816A00220029BF
:1018800080F82020D8D0BDE8104008470146002845
:101890004FF0010008BF70472DE9F043D1F800C0B8
:1018A0004FF6F873CBF6FD734CF6CD426344CCF69D
:1018B000CC42A3FB02236FF0030202EA930200234F
:1018C000C4F2020301F10C08C1E90F320222D1E98E
:1018D000019E98E8F00181F82120DCF8002043F611
:1018E000F0739A4342EA090242EA0E0222432A4373
:1018F00032433A4342EA0802CCF8002000228A63CD
:1019000081F8210081F820200020BDE8F0437047D5
:1019100090F820C0BCF1010F04BF02207047F0B561
:101920004FF0010E80F820E090F821C0BCF1010FCB
:1019300026D14FF0020C80F821C04FF0000CC0F807
:1019400038C0D0E900C4C56AC66BDCF80070102C42
:1019500027F00107CCF80070006C0EFA00F0706000
:101960000846CCF8043004BF10460A46CCF80800FC
:10197000CCF80C20DCF8000045B140F00E000DE082
:10198000002180F820100220F0BD00BF20F00400EC
:10199000CCF80000DCF8000040F00A00CCF80000B1
:1019A000DCF8000040F00100CCF800000020F0BDA1
:1019B000B0B5044600F024F9054640F20000C2F23A
:1019C00000000078611C18BF044400BF00F018F943
:1019D000401BA042FAD3B0BD2DE9F04F82B00E6893
:1019E000002E00F0FD8041F20042C4F20102042307
:1019F00040F2004E904208BF03234FF6FF7CC4F232
:101A0000010E009300240123C1F2100C4FF0000AD4
:101A10004FF000094BE000BF41F20002C4F20102A6
:101A2000009F904208BF022704F00C030F229A4047
:101A30002BEA020207FA03F34FEA9A051A4346F823
:101A400025204E6840F20C45F202DEF8082054BF13
:101A500022EA080242EA0802C4F20105CEF8082090
:101A60002A68B30254BF22EA080242EA08022A6046
:101A7000B303DEF8042054BF22EA080242EA080257
:101A8000F303CEF80420DEF800204FF0010354BF2A
:101A900022EA080242EA0802CEF800200E680AF1A3
:101AA000010A36FA0AF204F1040400F0998003FAFC
:101AB0000AFB16EA0B08F1D04E68664512DC122EBE
:101AC00056D8DFE806F0350B4D4955555555555557
:101AD0005555555555555545510000BFD1F80C90F9
:101AE00046E000BF4FF6FF72C1F2210296420FDCC2
:101AF0000022C1F2110296421AD00022C1F2120253
:101B0000964215D00022C1F22102964210D02FE059
:101B10000022C1F2220296420AD00022C1F2310212
:101B2000964205D00022C1F23202964220D100BF77
:101B30008A684AB1012A14BFC0F814B0C0F810B0C6
:101B40004FF0080914E000BF4FF0040910E000BF97
:101B5000CA6802F104090BE04FF0000908E000BF79
:101B6000CA6802F1080903E0CA6802F10C0900BF63
:101B700002462646B8F5807F24BF0432203E17680F
:101B80000F25B54027EA050509FA06F63543156025
:101B9000CA79D2067FF582AF41F21803C4F202037C
:101BA0001A68AEF57E7642F001021A601A6802F0F9
:101BB00001020192019A2AF0030256F802B040F69F
:101BC0000002C4F20102904208D040F60042C4F282
:101BD000010290427FF420AF012725E7002723E789
:101BE00002B0BDE8F08F00008068084018BF0120F7
:101BF00070470000002A08BF090401617047000017
:101C000040F2BC40C2F2000000687047002804BFE8
:101C100001207047F0B581B0044690F83D0028B926
:101C2000002084F83C00204600F050F9242084F87D
:101C30003D002068016821F001010160016841F464
:101C400000410160016821F40041016000F014FBD3
:101C5000636848F2A16CC0F2010C40F60011C0F2BA
:101C60003D0163453CBF48F28041C0F21E018842FD
:101C700002D2012001B0F0BD4DF68361C4F21B31E8
:101C8000A0FB01122168970CD1F804E04FF496767E
:101C90002EF03F0545EA92454D60774348F63816E9
:101CA0000D6AC0F24106A7FB067625F03F076345A3
:101CB00038BF960C721C3A430A62CA6948F2A066A1
:101CC0004CF6FF77C0F20106B34222EA07020BD8B6
:101CD00001385B00B0FBF3F001306FF31F300428D4
:101CE00098BF04201BE000BFA768013857B119272F
:101CF0007B43B0FBF3F001306FF31F3070B100F5A0
:101D0000804007E003EB4303B0FBF3F001306FF3D7
:101D10001F3018B100F5004001E000BF0120104362
:101D2000C8610868D4E9072320F0C00010431843B5
:101D30000860886848F2FF3204F10C0790438CCFAA
:101D400018431043A6698860C86820F0FF00384334
:101D50003043C860086840F001000860002020217E
:101D6000206484F83D10206384F83E0001B0F0BD8B
:101D70002DE9F04383B0994616460F460446FFF717
:101D80003FFF94F83D10202924D10546206800BF6C
:101D9000816989071AD5FFF733FF411B20681A298B
:101DA000F6D381698907F3D500202021206384F8C8
:101DB0003D1084F83E00216C41F02001216484F83C
:101DC0003C00022003B0BDE8F08300BF94F83C1053
:101DD000012903D1022003B0BDE8F083012284F879
:101DE0003C200368DDE90B180A9ADB0703D103687E
:101DF00043F001030360036823F4006303602120C0
:101E000084F83D00402084F83E0000202064626297
:101E10006185608D394620850020CFF6FF70E06235
:101E2000204632464B46CDE9008502F029F918B12B
:101E3000012003B0BDE8F083208D98B920464146CB
:101E40002A4602F081F988B3206C0428F0D120687A
:101E5000016841F400710160012003B0BDE8F08326
:101E60000004EBD0204641462A4602F01DFB002824
:101E7000EAD1616A2268084610F8013B1361238D9C
:101E80006062581E2085678D013F678557697F070F
:101E9000E6D50704E4D048781061881C6062981E7B
:101EA0002085618D01396185DAE700BF206801680E
:101EB00041F400710160202084F83D00002084F886
:101EC0003E0084F83C0003B0BDE8F08310B586B056
:101ED000006845F20041C4F2000188424FF0000062
:101EE000CDE90400CDE9020002D006B010BD00BF6C
:101EF00041F21804C4F20204206802A940F008006C
:101F00002060206800F00800019001984FF44070B4
:101F10000290122003900320059040F60040C4F286
:101F20000100FFF759FD0420C4F20100016841F0EF
:101F3000E06141F002010160606840F400106060FF
:101F4000606800F400100190019806B010BD000018
:101F500040F2000040F2BC41C2F20000C2F20001B7
:101F600000780A68104408607047000080B542F2AB
:101F70000000C4F20200016841F01001016003207A
:101F800000F08CF80F2000F005F800F027F8002092
:101F900080BD000070B540F20006C2F2000640F2BB
:101FA00050013278C2F200014FF47A730968B3FB32
:101FB000F2F20446B1FBF2F1084600F085FB0F2C6B
:101FC0004FF0010508D838B94FF0FF302146002204
:101FD000002500F037F87460284670BD82B041F2E9
:101FE0001800C4F202000168022241F00101016000
:101FF000016801F0010101910199416841F08051AE
:102000004160406800F08050009000980420C4F2C5
:102010000100016862F31A61016002B070470000BC
:10202000002848BF704700F01F01012202FA01F1A9
:102030001C2202EAD0004EF20012CEF200028150C1
:102040007047000010B54EF60C5CCEF2000CDCF8C8
:102050000030C3F3022E8EF00704042C28BF0424A2
:10206000BEF103034FF0FF3E0EFA04F438BF002325
:10207000A14399400EFA03F39A43114300F00F0273
:1020800000F160430901043A03F564436244002807
:1020900048BF02F10C03197010BD00004EF60C5140
:1020A000CEF200010A684FF6FF031A4060F30A22DD
:1020B00042F0806040F0FD7008607047002804BF67
:1020C000012070472DE9F04381B042F20008C4F2CC
:1020D00002080446D8F800000D4600F007008842C8
:1020E0000CD2D8F8000020F007002843C8F8000000
:1020F000D8F8000000F00700A8426CD1206841F237
:1021000004098107C4F2020917D5410705D5D9F89A
:10211000001041F4E061C9F80010010705D5D9F8B5
:10212000001041F46051C9F80010D9F80010A268FD
:1021300021F0F0011143C9F80010C00742D1D8F8CE
:10214000000000F00700A8420CD9D8F8000020F0E9
:1021500007002843C8F80000D8F8000000F0070086
:10216000A84238D12068410707D5D9F80010E268A5
:1021700021F4E0611143C9F80010000708D5D9F82F
:102180000000216920F4605040EAC100C9F8000055
:10219000D9F8002002F00C00082841F20020C0F21B
:1021A0007A004DD149F6BE43C2F38341C0F6000325
:1021B000595CD20338D440F60010C0F23D004843C9
:1021C0003EE000BF606859F8041C022808D00128CE
:1021D00026D1890306D4012001B0BDE8F08300BFF9
:1021E0008901F8D5D9F8001021F003010843C9F896
:1021F0000000FFF705FD064641F28837D9F80000D8
:10220000616800F00C00B0EB810F98D0FFF7F8FC8C
:10221000801BB842F2D9032001B0BDE8F08300BFB3
:102220008907D8D5DEE700BFD9F8002049F6BC43BE
:10223000C2F34042C0F600039A5C4843B0FBF2F0A0
:10224000D9F8001049F28C42C1F30311C0F6000224
:10225000515C40F2500220FA01F140F20400C2F257
:1022600000000068C2F200021160FFF793FE002038
:1022700001B0BDE8F083000040F2500041F20401DB
:10228000C2F20000C4F202010068096849F29C42EF
:10229000C1F30221C0F60002515CC8407047000043
:1022A00040F2500041F20401C2F20000C4F2020107
:1022B0000068096849F29C42C1F3C221C0F60002DD
:1022C000515CC84070470000002804BF01207047DF
:1022D0002DE9F04182B00446007841F20006C007C3
:1022E000C4F202060CD0706800F00C00042840F024
:1022F00081803068800303D56068002800F0468143
:10230000207880071BD5706810F00C0F09D070681A
:1023100000F00C00082840F087807068C00300F1CE
:1023200083803068800703D52069012840F02E8122
:102330003068616920F0F80040EAC1003060207820
:10234000000713D4207840072CD4E569002D00F055
:102350001881706800F00C00082840F0A780012D5B
:1023600040F00481012002B0BDE8F081A06900289E
:1023700000F084800020C4F242200121C0F88014C3
:10238000FFF73EFC054600BF706A800700F1B2808F
:10239000FFF736FC401B0228F6D9032002B0BDE847
:1023A000F08100BFF0695FEAC00808D4F06940F02E
:1023B0008050F061F06900F080500090009847F282
:1023C0000007C4F200073868C00549D4386840F4F3
:1023D00080703860FFF714FC054600BF3868C00500
:1023E0003ED4FFF70DFC401B6428F7D9032002B050
:1023F000BDE8F081706800F00C00082803D1706817
:10240000C0033FF576AF61683068002900F00C81A9
:10241000B1F5A02F00F00081B1F5803F40F01A81A6
:1024200040F480301CE100BF2069002840F2000029
:10243000C4F2422000F0888001210160FFF7E0FB38
:10244000054600BF306880073FF572AFFFF7D8FB45
:10245000401B0228F6D9032002B0BDE8F08100BF7E
:10246000E168306A002900F09D80052900F0928023
:10247000012940F0AF8040F00100B1E00020C4F23B
:1024800042200021C0F88014FFF7BAFB054600BFC8
:10249000706A80077FF556AFFFF7B2FB401B02283A
:1024A000F6D9032002B0BDE8F08100BF0027C4F2D6
:1024B000422700203866FFF7A3FB022D05460DD109
:1024C0003068800140F1DE80FFF79AFB401B022854
:1024D0004FF00300F4D902B0BDE8F081306880010C
:1024E0004FD5FFF78DFB401B02284FF00300F5D9B5
:1024F000F1E700BF40F25000C2F20000006844F66D
:10250000D351C1F26201A0FB0101480A019000BF52
:1025100000BF0198411E002801913FF413AF00BF96
:102520000198411E002801913FF40CAF00BF0198B3
:10253000411E002801913FF405AF00BF0198411EE4
:1025400000280191E4D1FDE600210160FFF758FB6E
:10255000054600BF306880077FF5F1AEFFF750FBFE
:10256000401B02284FF00300F4D9B4E77068216AD9
:1025700000F480328A4209D1616A00F47010884206
:1025800004D1002002B0BDE8F08100BF012002B0FC
:10259000BDE8F08140F004003062306A40F0010094
:1025A0001EE000BF20F001003062306A20F004001D
:1025B0003062FFF725FB054641F28837306A800715
:1025C00020D5FFF71DFB401BB8424FF00300F5D9A3
:1025D00081E700BF20F001003062306A20F0040083
:1025E0003062FFF70DFB054641F28837306A8007FD
:1025F00008D4FFF705FB401BB842F7D9032002B00F
:10260000BDE8F081B8F1000F3FF59FAEF06920F012
:102610008050F06199E600BF40F48020306030685F
:1026200040F480301CE000BF20F48030306030681F
:1026300020F480203060FFF7E3FA0546306880031D
:102640007FF55EAEFFF7DCFA401B64284FF0030015
:10265000F4D940E720F480303060306820F48020E6
:102660003060FFF7CDFA0546306880033FF548AE8D
:10267000FFF7C6FA401B6428F6D9032002B0BDE874
:10268000F08100BF206AB0F5803F05D17168A26873
:1026900021F40031114371607168626A21F4741190
:1026A00011430843706001203866FFF7A9FA044619
:1026B000306880013FF565AFFFF7A2FA001B0228E2
:1026C0004FF00300F4D906E7411E0020B0EB116F74
:1026D0001CBF012070474EF21002CEF20002516082
:1026E0004EF62351CEF20001F0230B7007219060CB
:1026F00011607047704700007047000090F83C2060
:10270000012A4FF0020236D010B580F83D20026851
:10271000D2F804E0D2F808C00C682EF0700323430E
:1027200040F2FF74C4F20004A24253600ADCB2F12A
:10273000804F13D040F20043C4F200039A420DD000
:1027400011E000BF42F60043C4F201039A4205D0F3
:1027500040F60003C4F200039A4204D149682CF009
:102760008003194391600121002280F83D1080F818
:102770003C20BDE81040104670470000002804BF10
:102780000120704710B590F83D1031B9002180F854
:102790003C10044600F068F82046022180F83D1005
:1027A000016840F2FF740B68C4F2000442F6004C6A
:1027B000A142C4F2010C15DCB1F1804F1AD040F2F5
:1027C0000042C4F20002914214D0A14218DCB1F1DF
:1027D000804F1DD040F20042C4F20002914217D057
:1027E0001AE000BF614505D040F60002C4F20002C5
:1027F0009142EAD1826823F070031343A142E6DDDF
:10280000614505D040F60002C4F20002914203D1B6
:10281000026923F440731343846923F08002D0F8E3
:1028200004E0C368224361450A60CB62C1F828E036
:1028300002D14269CCF8302001224A6180F846205A
:1028400080F83E2080F83F2080F8402080F841202A
:1028500080F8422080F8432080F8442080F845200A
:1028600080F83D20002010BD80B584B0006840F69F
:102870000001C4F20001884230D040F20041C4F2AD
:102880000001884212D0B0F1804F0CD141F21C00FF
:10289000C4F20200016841F001010160006800F02B
:1028A00001000390039804B080BD00BF41F21C00FA
:1028B000C4F202000168002241F0020101600068D8
:1028C000012100F00200029002981D20FFF7BAFBE0
:1028D0001D2004B0BDE88040FFF7A2BB41F21C0000
:1028E000C4F202000168002241F0040101600068A6
:1028F000002100F00400019001981E20FFF7A2FBC8
:102900001E2004B0BDE88040FFF78ABB90F83D1060
:1029100001291CBF01207047022180F83D1000688A
:1029200040F2FF72C168C4F20002904241F001011E
:10293000C16009DCB0F1804F12D040F20041C4F216
:10294000000188420CD012E042F60041C4F20101BD
:10295000884205D040F60001C4F20001884206D149
:10296000816801F00701062904BF00207047016853
:1029700041F00101016000207047000090F83C2008
:10298000012A4FF002026CD080B580F83D20D0F8CB
:1029900000C04FF67772DCF8083023EA0202CCF868
:1029A00008200B684F2B29DC1F2B45DD202B46D040
:1029B000302B44D0402B40F0AF80D1F804E0C96800
:1029C000DCF82030DCF8202022F00102CCF82020B6
:1029D000DCF8182022F0F00242EA011123F00A028A
:1029E00042EA0E02CCF81810CCF82020DCF80810CF
:1029F00041F0470121F0300128E000BF6F2B33DDAB
:102A0000B3F5005F74D0B3F5805F21D0702B40F038
:102A10008380D1E901E3C968DCF8082043EA0E03AA
:102A200022F47F4243EA01211143CCF80810DCF87C
:102A3000081041F0770109E00BB1102B6CD1DCF8E4
:102A4000081021F07001194341F00701CCF808107B
:102A50000022012180F83D10002180F83C10BDE8E3
:102A600080401046704700BF502B21D0602B53D1BF
:102A7000D1F804E0C968DCF82030DCF8202022F02E
:102A80001002CCF82020DCF8182022F4704242EA30
:102A9000013123F0A00242EA0E12CCF81810CCF853
:102AA0002020DCF8081041F0670121F01001CDE78B
:102AB000D1F804E0C968DCF82030DCF8202022F0EE
:102AC0000102CCF82020DCF8182022F0F00242EAC3
:102AD000011123F00A0242EA0E02CCF81810CCF8D9
:102AE0002020DCF8081041F0570121F02001ADE76B
:102AF000D1E901E3C968DCF8082043EA0E0322F4B7
:102B00007F4243EA01211143CCF80810DCF8081099
:102B100041F480419AE700BF01229AE77047000024
:102B200010B5016804460869800744BFC8685FEAB9
:102B3000807039D40869400744BFC8685FEA4070B4
:102B40003ED40869000744BFC8685FEA007045D4F6
:102B50000869C00644BFC8685FEAC0604AD4086913
:102B6000C0071CBFC8685FEAC07051D10869000681
:102B700044BFC8685FEA006052D40869400644BF99
:102B8000C8685FEA406053D40869800646BFC868D9
:102B90005FEA806010BD6FF0200220460A61BDE848
:102BA0001040FFF7A9BD00BF6FF0020008610120CF
:102BB00020778869800743D02046FFF7AFFF45E0C4
:102BC0006FF00400086102202077886910F4407FCC
:102BD00040D02046FFF7A2FF42E000BF6FF00800A0
:102BE000086104202077C86980073DD02046FFF7A0
:102BF00095FF3FE06FF01000086108202077C8695A
:102C000010F4407F3AD02046FFF788FF3CE000BF39
:102C10006FF001000861204600F026FA2168A5E760
:102C20006FF0800008612046FFF764FD2168A4E78B
:102C30006FF040000861204600F0CCFA2168A3E75D
:102C4000204600F025F8204600F09EF9216800207B
:102C500020776FE7204600F01BF8204600F094F93B
:102C60002168002020776CE7204600F011F820460C
:102C700000F08AF921680020207769E7204600F0FB
:102C800007F8204600F080F921680020207766E7E9
:102C90007047000090F83C30012B04BF02207047C1
:102CA0004FEAB202032A00F2F1802DE9F043DFE897
:102CB00002F003A53B7500BF036842F600461D6A9B
:102CC0001A6AC4F2010622F001021A621A465C680E
:102CD00052F818CFB3428E68D1F800E025F0020513
:102CE00045EA06050CD1CE68D1E9057824F4407494
:102CF00025F00C0526F004063C43354344EA08045D
:102D00002CF0730747EA0E075C609F614F68096902
:102D10005F631D629F6947F008079F619F6927F005
:102D200004079F61A6E000BF036842F600461D6AE3
:102D30001A6AC4F2010622F480721A621A46D3F8A3
:102D400004C052F81CEFB3428E680C6825F400757D
:102D500045EA06250FD1CE68D1E90598360240F242
:102D6000FF4725F44065BE4335432CF4405748EAFD
:102D7000090647EA061C2EF073072743C3F804C070
:102D8000DF614F680969DF631D62DF6947F008078B
:102D9000DF61DF6927F00407DF616BE0036842F65B
:102DA0000047D3F820C01A6AC4F2010722F4805207
:102DB0001A621A465C6852F81C5FD1F800E08E680F
:102DC000BB4204D14F6924F4804444EA87142CF4B4
:102DD000005747EA063725F4E64646EA0E265C60C9
:102DE000DE614E6809691E641F62DF6947F400678F
:102DF000DF61DF6927F48067DF613AE0036842F64C
:102E000000461D6A1A6AC4F2010622F010021A6214
:102E10001A46D3F804C052F8184FB3428E68D1F85E
:102E200000E025F0200545EA06150FD1CE68D1E96E
:102E300005986FF0400725F0C00507EA06163543F0
:102E40002CF4406748EA090647EA860C24F4E64475
:102E500044EA0E27C3F804C09F614F6809699F6365
:102E60001D629F6947F400679F619F6927F480672F
:102E70009F6109021368194311600021BDE8F04306
:102E8000002280F83C200846704700BF0121002244
:102E900080F83C2008467047002804BF0120704796
:102EA00010B590F83D1031B9002180F83C1004466F
:102EB00000F068F82046022180F83D10016840F2D9
:102EC000FF740B68C4F2000442F6004CA142C4F245
:102ED000010C15DCB1F1804F1AD040F20042C4F26F
:102EE0000002914214D0A14218DCB1F1804F1DD0F4
:102EF00040F20042C4F20002914217D01AE000BF33
:102F0000614505D040F60002C4F200029142EAD1C8
:102F1000826823F070031343A142E6DD614505D0CA
:102F200040F60002C4F20002914203D1026923F488
:102F300040731343846923F08002D0F804E0C3682F
:102F4000224361450A60CB62C1F828E002D14269A0
:102F5000CCF8302001224A6180F8462080F83E20DB
:102F600080F83F2080F8402080F8412080F84220FF
:102F700080F8432080F8442080F8452080F83D20E8
:102F8000002010BD7047000070470000C1B1042947
:102F900008D0082914BF41224022825C012A05D0B2
:102FA00016E000BF3F22825C012A11D102220829CB
:102FB00010D0042914BF80F8412080F83F200BE096
:102FC00090F83E20012A03D1022280F83E2003E03F
:102FD0000120704780F84020006801F01F010122A5
:102FE000036A8A4023EA02010162036A42F644410D
:102FF000C4F201011A43A1F14403984202620FD0C6
:1030000040F2FF71C4F20001884213DCB0F1804F3E
:103010001CD040F20041C4F20001884216D01CE0EE
:103020000A6842F400420A6040F2FF71C4F20001F3
:103030008842EBDD42F60041C4F20101884205D02E
:1030400040F60001C4F20001884206D1816801F017
:103050000701062904BF00207047016841F0010103
:103060000160002070470000006840F20041C4F297
:103070000001884200F0A68040F60001C4F2000181
:10308000884218BF70472DE9F04140F25816C2F24D
:103090000006307F002800F09380F06A746B05F022
:1030A000B1FF0546204605F0ADFF0146284603F076
:1030B00063FD7062306BB46B05F0A4FF05462046DB
:1030C00005F0A0FF0146284603F0B2FDB06203F010
:1030D0000DFE40F2F004716AC2F20004206108465D
:1030E00003F004FE40F23C15C2F200052968E060DE
:1030F000084605F04BFF216903F0BCFE05F082FF96
:10310000296802460846114605F0B2FD286005F020
:1031100059FF03F025FE40F23815C2F20005296878
:10312000B060084605F032FFE16803F043FE05F0A9
:1031300069FF296802460846114605F099FD286096
:1031400005F040FF03F00CFE40F20008C4F2B42882
:103150004146044605F003FE0025CCF2B4250028C4
:103160001CBF0024C4F2B4242046294605F0F0FD1B
:10317000002808BF2C46B76841463846F46005F081
:10318000EEFD00281CBF0027C4F2B42738462946AC
:1031900005F0DEFD0028204608BF2F46B76003F08B
:1031A000C9FEB06803F0FEFE7068411C32287160F1
:1031B000B8BFBDE8F081316900207060481C306103
:1031C000BDE8F08140F25810C2F2000001214177C1
:1031D00070470000704700007047000010B50446BB
:1031E0000068416994F84120212A56D111F08001EC
:1031F00053D000BF206850E8050F216820F0800000
:1032000041E80502DAB1206850E8050F216820F096
:10321000800041E8050292B1206850E8050F21685E
:1032200020F0800041E805024AB1206850E8050F0F
:10323000216820F0800041E80502002ADAD1A06B65
:10324000002818BFFEF7D2F9206850E8030F216864
:1032500020F0C00041E80302DAB1206850E8030F13
:10326000216820F0C00041E8030292B1206850E8D4
:10327000030F216820F0C00041E803024AB1206832
:1032800050E8030F216820F0C00041E80302002A43
:10329000DAD1202084F841002068406994F8421077
:1032A000222940F0A78010F0400000F0A38000BF6A
:1032B000206850E8050F216820F0400041E8050231
:1032C000DAB1206850E8050F216820F0400041E89D
:1032D000050292B1206850E8050F216820F04000F7
:1032E00041E805024AB1206850E8050F216820F046
:1032F000400041E80502002ADAD1E06B002818BF3F
:10330000FEF774F9206850E8030F216820F49070EC
:1033100041E80302BAB3206850E8030F216820F4A3
:10332000907041E8030272B3206850E8030F2168EF
:1033300020F4907041E803022AB3206850E8030F9C
:10334000216820F4907041E80302002ADAD11AE0E3
:10335000206850E8050F216820F0010041E80502CF
:10336000DAB1206850E8050F216820F0010041E83B
:10337000050292B1206850E8050F216820F0010095
:1033800041E805024AB1206850E8050F216820F0A5
:10339000010041E80502002ADAD1206B012824D17E
:1033A000206850E8030F216820F0100041E8030274
:1033B000DAB1206850E8030F216820F0100041E8DE
:1033C000030292B1206850E8030F216820F010003A
:1033D00041E803024AB1206850E8030F216820F059
:1033E000100041E80302002ADAD1202084F84200CC
:1033F00000202063002010BD70470000B0B582B0EF
:1034000001680A68CC684B6902F02F05202D04F092
:10341000200505D125B102B0BDE8B04003F0E6BFFC
:103420005FEA027C1EBF03F0010E04F4907313EBFD
:103430000E0341D1036BD50618D5012B16D114F01C
:10344000100313D0002201920A6801924A68019287
:10345000019A496949064BD4818DC28DC38D002BD9
:1034600018BF914240F0F48102B0B0BD13062DD5D3
:1034700014F080032AD090F84120212AF4D18268E8
:10348000B2F5805F03D10269002A00F06782026A08
:10349000531C036212784A60C28C013A1304C2843E
:1034A000E2D1C86820F08000C860C86840F04000E1
:1034B000C86002B0B0BD00BFD30718BF14F480735A
:1034C00040F0D080530700F1D380D8E05206CBD52E
:1034D00014F04002C8D0CA6822F04002CA6020211D
:1034E00080F8411002B0BDE8B04000F0C3BD00BF9D
:1034F000C16B0A68526893B2002BB5D0858DAB4280
:10350000B2D2C2858969202900F0A180016851E802
:10351000031F026821F4807142E80313DBB10168E4
:1035200051E8031F026821F4807142E8031393B14C
:10353000016851E8031F026821F4807142E8031317
:103540004BB1016851E8031F026821F4807142E821
:103550000313002BDAD1016851E8051F026821F03E
:10356000010142E80513C3B3016851E8051F026871
:1035700021F0010142E805137BB3016851E8051F02
:10358000026821F0010142E8051333B3016851E8F4
:10359000051F026821F0010142E80513002BDAD172
:1035A0001BE000BF016851E8051F026821F04001DF
:1035B00042E80513DBB1016851E8051F026821F0FC
:1035C000400142E8051393B1016851E8051F026804
:1035D00021F0400142E805134BB1016851E8051F95
:1035E000026821F0400142E80513002BDAD12021C6
:1035F00080F8421000210163016851E8031F02684E
:1036000021F0100142E80313DBB1016851E8031F08
:10361000026821F0100142E8031393B1016851E8F8
:10362000031F026821F0100142E803134BB1016847
:1036300051E8031F026821F0100142E80313002B38
:10364000DAD1C16B04460846FDF7D0FF20460221BF
:103650004163818DC28D891A89B202B0BDE8B04044
:10366000FFF7BABD436C43F001034364530706D52B
:10367000BEF1000F03D0436C43F002034364930791
:1036800006D5BEF1000F03D0436C43F0040343643E
:10369000BCF1000F06D55EEA050303D0436C43F08E
:1036A00008034364436C002B3FF4DEAE920605D55D
:1036B00025B1044603F09AFE216820464969426C10
:1036C00001F0400102F00802891800F0B98000BF43
:1036D000016851E8031F026821F4907142E8031366
:1036E000BBB3016851E8031F026821F4907142E8FE
:1036F000031373B3016851E8031F026821F490714A
:1037000042E803132BB3016851E8031F026821F458
:10371000907142E80313002BDAD11AE0016851E8F6
:10372000051F026821F0010142E80513DBB10168C1
:1037300051E8051F026821F0010142E8051393B129
:10374000016851E8051F026821F0010142E80513F4
:103750004BB1016851E8051F026821F0010142E800
:103760000513002BDAD1016B012924D1016851E83E
:10377000031F026821F0100142E80313DBB1016866
:1037800051E8031F026821F0100142E8031393B1CE
:10379000016851E8031F026821F0100142E8031399
:1037A0004BB1016851E8031F026821F0100142E8A3
:1037B0000313002BDAD1202180F84210002101638D
:1037C00001684969490640F1C380016851E8051F55
:1037D000026821F0400142E80513DBB1016851E8BD
:1037E000051F026821F0400142E8051393B101680A
:1037F00051E8051F026821F0400142E805134BB172
:10380000016851E8051F026821F0400142E80513F4
:10381000002BDAD1C16B002900F09A8047F2350203
:10382000C0F60002044608464A63FDF703FF00287D
:103830003FF41AAEE06B416B02B0BDE8B040084700
:103840000446FFF7D9FD0020606402B0B0BD00BFA0
:10385000891A00BF026852E8032F036822F49072AD
:1038600043E80325BDB3026852E8032F036822F43E
:10387000907243E8032575B3026852E8032F03688A
:1038800022F4907243E803252DB3026852E8032F17
:10389000036822F4907243E80325002DDAD11AE080
:1038A000026852E8052F036822F0010243E805256B
:1038B000DDB1026852E8052F036822F0010243E8F7
:1038C000052595B1026852E8052F036822F0010230
:1038D00043E805254DB1026852E8052F036822F040
:1038E000010243E80525002DDAD1202280F842208C
:1038F00000220263026852E8032F036822F01002DC
:1039000043E80325DDB1026852E8032F036822F083
:10391000100243E8032595B1026852E8032F0368BB
:1039200022F0100243E803254DB1026852E8032F4C
:10393000036822F0100243E80325002DDAD10222A9
:1039400089B2426302B0BDE8B040FFF745BC00BF9A
:1039500002B0BDE8B040FFF74FBD00BF026A32F8C9
:10396000023B6FF35F234B60026295E5002804BFC2
:103970000120704710B5044690F8410028B9002096
:1039800084F84000204600F063F8242084F84100C9
:103990002068D4E90212C36823F40053C3600369AA
:1039A00023F440531A430261D4E904231143C2684B
:1039B000194341F20C639A431143C1604169A26902
:1039C00021F44071114343F60002C4F20102904217
:1039D000416103D0FEF750FC02E000BFFEF760FC3F
:1039E000D4E90023192148439900B0FBF1F048F2D3
:1039F0001F5CC5F2EB1CA0FB0C314FF69C73490910
:103A0000C0F6FF7301FB0300322303EB0010A0FBA1
:103A10000C03F02000EA531000EB0110C3F3431134
:103A2000084490601069202120F490401061506992
:103A300020F02A005061D06840F40050D06000208F
:103A4000606484F8411084F84210606310BD000087
:103A50002DE9F04186B00446006844F20041C4F20A
:103A60000001002788420597CDE90377029741D0EE
:103A700043F60001C4F20101884240F0A28041F205
:103A80001800C4F20200016802AD41F480410160F7
:103A9000016801F4804101910199016841F0080138
:103AA00001600068294600F008000190019840205C
:103AB0000290022003900320059040F60000C4F21B
:103AC000010000F580642046FDF786FF802002900B
:103AD0000020CDE9030020462946FDF77DFF0420A4
:103AE000C4F201000168252441F0E06141F00401C5
:103AF00001605EE041F21800C4F20200416840F645
:103B0000000541F4003141604168C4F2010501F44F
:103B1000003101910199016802AE41F00401016098
:103B2000006840F26C0800F0040001900198042045
:103B30000290022003900320059028463146C4F2EB
:103B40000208FDF749FF0820CDE902072846314663
:103B50000497FDF741FF40F2B015C2F20005802640
:103B60002846C5E90087C5E90276C5E90477C5E9B5
:103B70000677FDF78BFE002818BFFDF731FDE563E2
:103B80006C6240F2F41508F11400C2F20005102135
:103B9000002285E847002846C5E90422C5E9062237
:103BA000FDF774FE002818BFFDF71AFDA5636C62CF
:103BB0002624204600210022FEF744FA2046FEF784
:103BC0002FFA06B0BDE8F08190F84230202B0BD1DF
:103BD00094460A4600294FF0010118BFBCF1000FBE
:103BE00006D10846704700BF02210846704700BF53
:103BF00070B582B00025222105638262A0F82CC036
:103C0000456480F842100168C36B47F2BD1447F267
:103C10001D3E47F24106C0F60004C0F6000EC0F695
:103C20000006C3E90A4EC3E90C6504310446184690
:103C30006346FDF76DFE0195216820460A680192F2
:103C4000496801910199216931B300BF016851E8C8
:103C5000031F026841F4807142E80313E3B1016875
:103C600051E8031F026841F4807142E803139BB1DD
:103C7000016851E8031F026841F4807142E80313B0
:103C800053B1016851E8031F026841F4807142E8B2
:103C90000313002BDAD100BF016851E8051F026849
:103CA00041F0010142E80513BBB3016851E8051F6B
:103CB000026841F0010142E8051373B3016851E85D
:103CC000051F026841F0010142E805132BB30168AA
:103CD00051E8051F026841F0010142E80513002B7D
:103CE000DAD11AE0016851E8051F026841F040018D
:103CF00042E80513DBB1016851E8051F026841F095
:103D0000400142E8051393B1016851E8051F0268BC
:103D100041F0400142E805134BB1016851E8051F2D
:103D2000026841F0400142E80513002BDAD100207F
:103D300002B070BD70470000704700002DE9F043ED
:103D400081B0044690F84100202809D18846002916
:103D50004FF0010018BF002A06D101B0BDE8F08382
:103D6000022001B0BDE8F0830020606421201D46E0
:103D700084F841001646FDF743FFA684E684A16857
:103D80000646B1F5805F03D12069002800F09480D9
:103D900047464FF00008E18C2068002900F092802F
:103DA00005F101090BE000BF47B317F8011B4160A3
:103DB000E18C0139E184E18C002900F08380016805
:103DC0000906F1D4B9F1000F0AD0EDB1FDF718FFE3
:103DD000801BA84218D8206801680906F6D5E3E7D9
:103DE00001680906E0D4016809065CBF01685FEA62
:103DF0000161D9D401680906F2D5D5E738F8021B6C
:103E000000276FF35F21D2E7206850E8030F216895
:103E100020F4D07041E80302BAB3206850E8030FE1
:103E2000216820F4D07041E8030272B3206850E8A2
:103E3000030F216820F4D07041E803022AB3206800
:103E400050E8030F216820F4D07041E80302002AF3
:103E5000DAD11AE0206850E8050F216820F001004F
:103E600041E80502DAB1206850E8050F216820F02A
:103E7000010041E8050292B1206850E8050F216871
:103E800020F0010041E805024AB1206850E8050F22
:103E9000216820F0010041E80502002ADAD1202043
:103EA00084F8410084F84200002084F84000032098
:103EB00001B0BDE8F08300BF0027E18C2068002935
:103EC0007FF46EAF016849060FD4F5B1691C17D1B4
:103ED0000168490609D4016849065CBF01685FEAC8
:103EE000416102D401684906F2D5202084F84100DE
:103EF000002001B0BDE8F083206800684006F4D4DB
:103F0000FDF77EFE801BA842F6D9206850E8030F1B
:103F1000216820F4D07041E80302EAB3206850E839
:103F2000030F216820F4D07041E80302A2B3206897
:103F300050E8030F216820F4D07041E803025AB31F
:103F4000206850E8030F216820F4D07041E8030294
:103F5000002ADAD120E000BF206850E8050F216870
:103F600020F0010041E80502002A98D0206850E8BE
:103F7000050F216820F0010041E80502002A3FF406
:103F80008EAF206850E8050F216820F0010041E85D
:103F90000502002A3FF483AF206850E8050F21682E
:103FA00020F0010041E80502002AD5D177E70000A2
:103FB00090F84130202B09D1944600294FF001029E
:103FC00018BFBCF1000F05D1104670470222104601
:103FD000704700BF70B5002221230162A0F824C001
:103FE000A0F826C0426480F841300468836B47F231
:103FF000353E47F2E53547F24106C0F6000EC0F601
:104000000005C0F60006C3E90AE5C3E90C62221DFB
:10401000044618466346FDF77BFC216820466FF096
:1040200040020A60016851E8051F026841F0800102
:1040300042E80513DBB1016851E8051F026841F051
:10404000800142E8051393B1016851E8051F026839
:1040500041F0800142E805134BB1016851E8051FAA
:10406000026841F0800142E80513002BDAD10020FC
:1040700070BD00007047000070470000FEE70000C0
:104080002DE9F04383B0044600680F4601680A9D9D
:104090000B9E41F4807199469046016020464FF096
:1040A000011100222B46009600F0ACF850B12068B8
:1040B0000068C00544BF4FF400702064032003B0C3
:1040C000BDE8F083206807F0FE0101610221C0F223
:1040D000010120462A46334600F07AF920B101203A
:1040E00003B0BDE8F08300BF002002902068324694
:1040F000416902918069294602900298204600F0A9
:10410000D3F958B1206C0428E9D12068016841F442
:1041100000710160012003B0BDE8F0832068B9F1AF
:10412000010F0AD04FEA1821016120462946324684
:1041300000F0BAF90028E5D120685FFA88F1016142
:10414000002003B0BDE8F08370B50368044653F85F
:10415000140F400711D40E46481C29D086BB00BF5F
:104160001868400527D4FDF74BFD236853F8140F5A
:10417000400737D518684007F2D5002070BD00BF52
:1041800018684007F9D41868400514D41868400727
:10419000F3D4186840050ED418684007EDD41868A9
:1041A000400508D4186840074FF0000048BF70BDB4
:1041B00018684005E4D56FF480601860042012E0B0
:1041C000154603E053F8140F4007D6D4186840058D
:1041D000F1D4FDF715FD401B2368B042F2D95869B0
:1041E0004007EFD4202000212022216384F83D20C5
:1041F00084F83E10226C10432064012084F83C10A7
:1042000070BD00002DE9F041054600681E461446C9
:1042100001F47F0201338FB242D0DDF81880B2F58D
:10422000803F40F0878040693840C01BB0FA80F082
:104230004009A04240F0C8804EB924E040693840AF
:10424000C01BB0FA80F04009A04240F0BD80FDF7ED
:10425000D7FCA0EB08012868B142EFD94169394089
:10426000C91BB1FA81F14909A142E7D19BE000BF26
:1042700040693840C01BB0FA80F04009A0424FF0BE
:10428000000040F0A280FDF7BBFC2868416939407E
:10429000C91BB1FA81F14909A142E9D183E000BF0C
:1042A000B2F5803F24D100BF41693940C91BB1FA42
:1042B00081F14909A14240F0878041693940C91B19
:1042C000B1FA81F14909A14240F07E80416939404B
:1042D000C91BB1FA81F14909A14275D1416939403F
:1042E000C91BB1FA81F14909A142DDD06CE000BFE0
:1042F00081693940C91BB1FA81F14909A14263D1F1
:1043000081693940C91BB1FA81F14909A1425BD1E8
:1043100081693940C91BB1FA81F14909A14253D1E0
:1043200081693940C91BB1FA81F14909A142DFD045
:104330004AE000BF80693840C01BB0FA80F04009F5
:10434000A04241D146B923E080693840C01BB0FA91
:1043500080F04009A04237D1FDF752FCA0EB0801E4
:104360002868B142F0D981693940C91BB1FA81F19D
:104370004909A142E8D116E080693840C01BB0FA73
:1043800080F04009A0424FF0000018BFBDE8F08166
:10439000FDF736FC286881693940C91BB1FA81F103
:1043A0004909A142E8D100202021286385F83D1069
:1043B00085F83E00296C41F02001296485F83C0015
:1043C0000120BDE8F08100BF0020BDE8F0810000C1
:1043D000F0B581B0044600681D4643698FB203EA18
:1043E0000701B94202D1002001B0F0BD4169164673
:1043F00001323CD0490512D47EB300BFFDF700FC6A
:10440000411B2068B14203D941693940B9422BD1DF
:1044100041693940B942E6D041694905EED50168A4
:1044200041F4007101606FF480614161042000215A
:104430002022216384F83D2084F83E10226C104332
:10444000206484F83C10012001B0F0BD416939407E
:10445000B942C8D041694905E1D4FDF7D1FB2068D4
:1044600041693940B942F1D02020E0E7416949056E
:10447000D5D441693940B942B5D041694905CED456
:1044800041693940B942AED041694905C7D4416953
:104490003940B942A7D041694905C0D44169394082
:1044A000B942E3D19FE7000070B50368044653F8B2
:1044B000140F000611D40E46481C29D086BB00BF3D
:1044C0001868400527D4FDF79BFB236853F8140FA9
:1044D000000637D518680006F2D5002070BD00BF71
:1044E00018680006F9D41868400514D41868000646
:1044F000F3D4186840050ED418680006EDD4186887
:10450000400508D4186800064FF0000048BF70BD91
:1045100018684005E4D56FF480601860042012E04C
:10452000154603E053F8140F0006D6D4186840056A
:10453000F1D4FDF765FB401B2368B042F2D95869FE
:104540000006EFD4202000212022216384F83D20A2
:1045500084F83E10226C10432064012084F83C1043
:1045600070BD000010B540F2AC14C2F20004207817
:10457000411C052821703DD8DFE800F0042C1E26E0
:10458000163400BF01F042FC40F27410C2F2000089
:10459000022141710421817040F2AC30C2F200006E
:1045A00025A10F2224E000BF40F2AC30C2F200008F
:1045B00018A107221CE000BF40F2AC30C2F200009C
:1045C00019A1072214E000BF40F2AC30C2F2000093
:1045D00012A10CE040F2AC30C2F2000014A106229D
:1045E00006E000BF40F2AC30C2F2000006A1082293
:1045F000FFF7DEFC2078AB214143890A01EB410142
:10460000A0EB4100207010BD6D6964706F696E741D
:10461000000000006C6F776C656674006C6F7772D9
:1046200069676874000000007570726967687400DB
:1046300075706C6566740000436F727265637452C6
:10464000656453706F747300B0B540F2BC4040F2C3
:104650005015C2F20000C2F2000501686A68891AAA
:104660000A2901D2B0BD00BF006840F60044C4F280
:104670000104686020464FF48051FDF7B5FAB8B1E7
:1046800020464FF40051FDF7AFFA98B120464FF4A1
:104690000041FDF7A9FA78B1A4F580604FF480518C
:1046A000FDF7A2FAB0FA80F04009800005E000BFF3
:1046B000012002E0022000E003202978287020EA8F
:1046C00001010139032988BFB0BDDFE801F00345CE
:1046D000173900BF40F27413C2F20003002540F204
:1046E000AC3049F6AD51C2F20000C0F600010C2218
:1046F0001D71BDE8B040FFF75BBC00BF40F2741411
:10470000C2F20004A0790130A0710220207101F0F2
:104710007DFB40F2AC3049F6BA51C2F20000C0F65F
:1047200000011122FFF744FC4FF48170A0800520A6
:10473000A07040F25810C2F2000000210170B0BD1C
:1047400040F27410C2F20000817901318171BDE83C
:10475000B040FFF707BF00BF40F27414C2F200047C
:10476000A07901250130A071257101F04FFB40F2C5
:10477000AC3049F6AD51C2F20000C0F600010C2287
:10478000FFF716FCA580A570B0BD000080B582B013
:1047900041F21400C4F202000168002241F001015C
:1047A00001600068002100F00100019001981020D4
:1047B000FDF748FC1020FDF733FC112000210022FA
:1047C000FDF740FC112002B0BDE88040FDF728BC99
:1047D000F0B585B0002641F21800CDE90366CDE9B9
:1047E0000166C4F20200016841F2000441F01001C8
:1047F00001600168C4F2010401F010010091009908
:104800000168002241F02001016001684FF4005569
:1048100001F0200100910099016841F0040101605C
:10482000016801F0040100910099016841F008015C
:10483000016000684FF4005100F0080000900098FB
:104840002046FDF7D7F90195022001AD012704901C
:1048500020462946CDE90276FDF7BEF84FF43040F8
:1048600001A9C1C1A4F580602946FDF7B5F84FF450
:10487000805001A9C1C1A4F500602946FDF7ACF83C
:1048800005B0F0BD80B540F2382045F20041C2F2DB
:104890000000C4F2000148F2A06200234FF4804CF3
:1048A000C0F2010280E80E00C0E9033CC0E9053314
:1048B000C0E90733FDF7AAF9002808BF80BDBDE8AD
:1048C0008040FCF78DBE000070B594B040F28C20A3
:1048D0000021C2F2000040F2CF750E91CDE90C111B
:1048E0000991CDE90711CDE90511CDE90311CDE914
:1048F00001114FF0804240F2CF23C0E9021501615F
:104900008021C0E900238161FDF738FF002818BF2E
:10491000FCF766FE4FF480500B9040F28C20C2F200
:1049200000000BA9FEF72AF8002818BFFCF758FE74
:1049300040F28C20C2F20000FEF7AEFA002818BF49
:10494000FCF74EFE40F28C200024C2F2000008A9C1
:10495000CDE90844FDF7D2FE002818BFFCF740FE61
:104960006020CDE9010440F28C20C2F2000001A9D0
:10497000002203940594FEF78DF9002818BFFCF778
:104980002FFE40F28C24C2F2000401A9204604222A
:10499000FEF780F9002818BFFCF722FE21680020EE
:1049A000B1F1804FCDE912001190109002D014B0F7
:1049B00070BD00BF41F21800C4F20200016840F669
:1049C000000441F0040101600168C4F2010401F037
:1049D00004010F910F99016810AD41F008010160C9
:1049E0000068022600F008000F900F984FF4004076
:1049F00010902046294611961396FCF7EDFF0820EB
:104A0000CDE9100604F5806029461396FCF7E4FF13
:104A10000420C4F2010001684FF6FF42CFF6FF0206
:104A2000114041F0E06141F48071016014B070BD4B
:104A300080B586B040F2D4200021C2F2000040F2DE
:104A400000424FF0090C0591CDE90311CDE90011A9
:104A5000C4F200024723C0E9021C01618021C0E9C1
:104A600000238161FDF78AFE002818BFFCF7B8FD1E
:104A70004FF48050029040F2D420C2F2000002A90C
:104A8000FDF77CFF002818BFFCF7AAFD40F2D420F8
:104A9000C2F200006946FDF731FE002818BFFCF79E
:104AA0009FFD06B080BD000080B586B040F21C308E
:104AB0000021C2F2000040F600024FF0630C0591A5
:104AC000CDE90311CDE90011C4F2000241F61F4304
:104AD000C0E9021C01618021C0E900238161FDF76A
:104AE0004DFE002818BFFCF77BFD4FF4805002906C
:104AF00040F21C30C2F2000002A9FDF73FFF00287F
:104B000018BFFCF76DFD40F21C30C2F20000694690
:104B1000FDF7F4FD002818BFFCF762FD06B080BD6C
:104B200080B540F2643043F60001C2F20000C4F2E6
:104B3000010100234FF00C0C4FF4E13280E80E002D
:104B4000C0E90333C0E905C3C361FEF70FFF0028C6
:104B500008BF80BDBDE88040FCF742BD80B540F293
:104B6000AC3044F20041C2F20000C4F20001002364
:104B70004FF00C0C4FF4E13280E80E00C0E9033333
:104B8000C0E905C3C361FEF7F1FE002808BF80BD80
:104B9000BDE88040FCF724BDFEE700002DE9F04FA2
:104BA00081B040F25819C2F2000999F800200C2A8D
:104BB00000F24083DFE812F03B030E00A600C800BD
:104BC0006400EE000201DA002A0192001601500092
:104BD0007E0000BF99F81F20042A00F22B830E46A6
:104BE000DFE812F006001E04A803EE03440300BF32
:104BF000D9E90FA88346504604F004FA054640461A
:104C000004F000FADBF800100746084604F0FAF951
:104C100031680446084604F0F5F90346284639464B
:104C2000224602F095FE2946C9F8440004F06AFACB
:104C30000146384604F032FB04F0A8F9C9F84800F0
:104C4000DBF80000A0EB0A00C9F84C003068A0EBCC
:104C5000080000F014BC00BFD9F84C3099F81D20B2
:104C6000012BC0F2E780012A40F0E482884600214F
:104C700089F81D10D9F83410D9E91156CC1DE5E09A
:104C8000D9F8503099F81D20012BC0F20B81012A70
:104C900040F0D082D9F8382000270732C9F83820F0
:104CA0000B6889F81D70D21A48BF5242032A40F29D
:104CB0000881BFE2D9F8503099F81D20012BC0F2CD
:104CC0000781012A40F0B682002289F81D20D9F818
:104CD0003820D9F84C30D41D05E100BFD9F84C304C
:104CE00099F81D20012BC0F22D81012A40F0A282EB
:104CF0008846002189F81D10D9F83410D9E91156D9
:104D0000CC1D2BE199F81F20042A00F29382DFE8E2
:104D100012F005004103E102F9029502D9E91301FD
:104D2000002848BF4042D9E90F23002948BF494223
:104D30008842C9E90D238CBF0320042089F80000B4
:104D400001B0BDE8F08F00BFD9F84C3099F81D20B4
:104D5000012BC0F22B81012A40F06C828846D9F8E1
:104D60003410D9E91156CC1D29E100BFD9F84C30D7
:104D700099F81D20012BC0F25381012A40F05A827C
:104D80008846002189F81D10D9F83410D9E9115648
:104D9000CC1D51E1D9F84C3099F81D20012BC0F2FF
:104DA0007381012A40F046828846002189F81D104F
:104DB000D9F83410D9E91156CC1D71E1D9F8503029
:104DC00099F81D20012BC0F29381012A40F0328214
:104DD000002289F81D20D9F83820D9F84C30D41D8C
:104DE00091E100BFD9F8503099F81D20012BC0F295
:104DF000B581012A40F01E82002289F81D20D9F8D1
:104E00003820D9F84C30D41DB2E100BFD9F8503069
:104E100099F81D20012BC0F2D581012A40F00A82A9
:104E2000002289F81D20D9F83820D9F84C30D41D3B
:104E3000D2E100BF012A40F0FD818846002189F8B7
:104E40001D10D9F83410D9E91156CC1F82462046DE
:104E5000C9F8344004F0D6F80746304604F0D2F8DA
:104E600006462846394604F04DF9314603F000FF66
:104E700004F08CF8C9F83800DAF80000201A48BFAE
:104E80004042092800F2D681D8F80000C9F838005D
:104E9000DAF80010C9F83410C9E90B1001B0BDE808
:104EA000F08F00BF012A40F0C581D9F838200027D3
:104EB000073AC9F838200B6889F81D709A4240F00B
:104EC000B9810068C9F834000868C9F838009FE063
:104ED000012A40F0AF81002289F81D20D9F838203E
:104EE000D9F84C30D41FC9F83840C3B180462046A9
:104EF0000F4604F087F8D9E911510646084604F038
:104F000081F80146304604F0C9F9294603F048FF0C
:104F100004F03CF8394602464046C9F834200A6895
:104F2000A21A48BF5242092A00F284810068C9F8D7
:104F300034000968C9F83810C9E90B0101B0BDE8AF
:104F4000F08F00BF012A40F075818846002189F862
:104F50001D10D9F83410D9E91156CC1F82462046CD
:104F6000C9F8344004F04EF80746304604F04AF8D9
:104F700006462846394604F0C5F8314603F078FE67
:104F800004F004F8C9F83800DAF80C00201A48BF19
:104F90004042092800F24E81D8F80C00C9F83800C8
:104FA000DAF80C00C9F8340004203EE1012A40F090
:104FB00041818846D9F83410D9E91156CC1F824670
:104FC0002046C9F8344004F01DF80746304604F086
:104FD00019F806462846394604F094F8314603F09D
:104FE00047FE03F0D3FFC9F83800DAF800000021CB
:104FF000201A89F81D1048BF4042032800F21A8188
:10500000D8F80000C9F83800DAF80000C9F8340010
:10501000012089F81F0089F8000001B0BDE8F08F79
:10502000012A40F007818846002189F81D10D9F82F
:105030003410D9E91156CC1F82462046C9F83440B5
:1050400003F0E0FF0746304603F0DCFF0646284643
:10505000394604F057F8314603F00AFE03F096FF94
:10506000C9F83800DAF80800201A48BF404203287F
:1050700000F2E080D8F80800C9F83800DAF8080033
:10508000C9F83400D0E000BF012A40F0D380884640
:10509000002189F81D10D9F83410D9E91156CC1F18
:1050A00082462046C9F8344003F0ACFF074630463C
:1050B00003F0A8FF06462846394604F023F8314697
:1050C00003F0D6FD03F062FFC9F83800DAF80400F7
:1050D000201A48BF4042032800F2AC80D8F80400F0
:1050E000C9F83800DAF80400C9F8340033E000BF2A
:1050F000012A40F09F80002289F81D20D9F838202D
:10510000D9F84C30D41FC9F83840C3B18046204686
:105110000F4603F077FFD9E911510646084603F020
:1051200071FF0146304604F0B9F8294603F038FE15
:1051300003F02CFF394602464046C9F834204A683D
:10514000A21A48BF5242032A74D84068C9F83400F2
:105150004868C9F83800022067E000BF012A69D119
:10516000002289F81D20D9F83820D9F84C30D41FF6
:10517000C9F83840C3B1804620460F4603F042FFCD
:10518000D9E911510646084603F03CFF0146304676
:1051900004F084F8294603F003FE03F0F7FE3946D5
:1051A00002464046C9F83420CA68A21A48BF524293
:1051B000092A3FD8C068C9F83400C868C9F838005F
:1051C000042032E0012A35D1002289F81D20D9F8C7
:1051D0003820D9F84C30D41FC9F83840C3B18046C4
:1051E00020460F4603F00EFFD9E911510646084646
:1051F00003F008FF0146304604F050F8294603F05A
:10520000CFFD03F0C3FE394602464046C9F83420BC
:105210008A68A21A48BF5242032A0BD88068C9F88C
:1052200034008868C9F83800032089F81F0001207D
:1052300089F8000001B0BDE8F08F00BFD9E9132361
:10524000002A48BF5242002B48BF5B42C0689A42C6
:10525000C9F83400C868C9F8380094BF0C200B2086
:1052600089F8000001B0BDE8F08F00BFC168046894
:105270008246084603F0C6FEF168D6F8008005466F
:10528000084603F0BFFE0746204603F0BBFE044677
:10529000404603F0B7FE034628463946224602F050
:1052A00057FB2946C9F8440003F02CFF0146384655
:1052B00003F0F4FF03F06AFEC9F84800DAF80000D2
:1052C000DAF80C10401AC9F84C003068F168401A3E
:1052D000D5E000BFD9E91323002A48BF5242002B72
:1052E00048BF5B4240689A42C9F834004868C9F830
:1052F000380094BF0820072089F8000001B0BDE8FD
:10530000F08F00BFD9E91323002A48BF5242002B77
:1053100048BF5B4280689A42C9F834008868C9F87F
:10532000380094BF0A20092089F8000001B0BDE8C8
:10533000F08F00BFD0E901148046084603F062FEFA
:105340000546B246D6E9010603F05CFE0746204654
:1053500003F058FE0446304603F054FE0346284648
:105360003946224602F0F4FA2946C9F8440003F00F
:10537000C9FE0146384603F091FF03F007FEC9F865
:105380004800D8E90101081AC9F84C00DAE901011E
:1053900074E000BFD9E91323002A48BF5242002B12
:1053A00048BF5B429A4273D90068C9F83400086864
:1053B000C9F83800052089F8000001B0BDE8F08F79
:1053C000D0E902148046084603F01CFE0546B246AA
:1053D000D6E9020603F016FE0746204603F012FE49
:1053E0000446304603F00EFE034628463946224660
:1053F00002F0AEFA2946C9F8440003F083FE0146E4
:10540000384603F04BFF03F0C1FDC9F84800D8E966
:105410000201081AC9F84C00DAE902012EE000BFC7
:10542000D0E900148046084603F0ECFD0546B2467C
:10543000D6E9000603F0E6FD0746204603F0E2FD4C
:105440000446304603F0DEFD034628463946224630
:1054500002F07EFA2946C9F8440003F053FE0146E3
:10546000384603F01BFF03F091FDC9F84800D8E966
:105470000001081AC9F84C00DAE90001081AC9F855
:105480005000022089F8000001B0BDE8F08F00BF95
:105490000968C9F838100068C9F83400062089F88E
:1054A000000001B0BDE8F08F2DE9F04F81B040F26F
:1054B0005818C2F2000898F800200C2A00F26883FD
:1054C000DFE812F00E00BE00620098002C0012010E
:1054D0002601AA004E014E003A0118003A0000BF12
:1054E000012088F80000002088F81F0001B0BDE806
:1054F000F08F00BFD8F84C3098F81D20012BC0F277
:105500004381012A40F044838946002188F81D1018
:10551000D8F83410D8E911564C1C41E1D8F8503075
:1055200098F81D20012BC0F26781012A40F03083DA
:10553000D8F83820013265E1D8F8503098F81D20AD
:10554000012BC0F27381012A40F02283002288F8E7
:105550001D20D8F83820D8F84C30541C71E100BF19
:10556000D8F84C3098F81D20012BC0F29981012AFF
:1055700040F00E838946002188F81D10D8F83410B9
:10558000D8E911564C1C97E198F81F20042A00F224
:10559000FF82DFE812F005007D03190365030103B4
:1055A00090E88C00C0681A443A441044C21700EBDB
:1055B000927291E88900C968184438444318D8E9C0
:1055C0001301DF17002803EB977348BF4042921086
:1055D00000294FEAA3034FF0040748BF494288421D
:1055E00088BF0327C8E90D2388F8007001B0BDE823
:1055F000F08F00BFD8F84C3098F81D20012BC0F276
:105600008381012A40F0C4828946D8F83410D8E951
:1056100011564C1C81E100BFD8F84C3098F81D2081
:10562000012BC0F2AB81012A40F0B28289460021F1
:1056300088F81D10D8F83410D8E911564C1CA9E18F
:1056400098F81F20042A00F2A382DFE812F0050078
:10565000990339036903D502D0E90042D0E9023742
:1056600022441A443A44D31702EB9379D1E9005308
:10567000D1E902762B443B4433444FEAA902DF17B9
:1056800003EB977A834610464FEAAA06009103F08F
:10569000B9FC0746304603F0B5FC0646204603F049
:1056A000B1FC0446284603F0ADFC034638463146BB
:1056B000224602F04DF93946C8F8440003F022FDB5
:1056C0000146304603F0EAFD03F060FCC8F84800EC
:1056D000DBF80000A0EBA900C8F84C0000980068B7
:1056E000A0EBAA007BE300BFD8F84C3098F81D204F
:1056F000012BC0F27781012A40F04A8289460021BD
:1057000088F81D10D8F83410D8E911564C1C75E1F2
:10571000D8F8503098F81D20012BC0F29781012A4B
:1057200040F03682002288F81D20D8F83820D8F8BA
:105730004C30541C95E100BFD8F8503098F81D202B
:10574000012BC0F2B981012A40F02282002288F8A0
:105750001D20D8F83820D8F84C30541CB6E100BFD2
:10576000D8F8503098F81D20012BC0F2D981012AB9
:1057700040F00E82002288F81D20D8F83820D8F892
:105780004C30541CD6E100BF012A40F0018289460A
:10579000002188F81D10D8F83410D8E911564C1E95
:1057A00082462046C8F8344003F02CFC07463046B9
:1057B00003F028FC06462846394603F0A3FC314690
:1057C00003F056FA03F0E2FBC8F83800DAF80000FC
:1057D000201A48BF4042012800F2DA81D9F80000BF
:1057E000C8F83800DAF80010C8F83410C8E90B100F
:1057F00001B0BDE8F08F00BF012A40F0C981D8F8A0
:105800003820013AC8F838200B680027D21A88F8E7
:105810001D7048BF5242012A00F2BA810068C8F8E0
:1058200034000868C8F83800A0E000BF012A40F042
:10583000AF81002288F81D20D8F83820D8F84C30E5
:10584000541EC8F83840C3B1814620460F4603F0C5
:10585000D9FBD8E911510646084603F0D3FB0146AF
:10586000304603F01BFD294603F09AFA03F08EFB45
:10587000394602464846C8F834200A68A21A48BF8A
:105880005242012A00F284810068C8F83400096895
:10589000C8F83810C8E90B0101B0BDE8F08F00BFAF
:1058A000012A40F075818946002188F81D10D8F83A
:1058B0003410D8E911564C1E82462046C8F83440B0
:1058C00003F0A0FB0746304603F09CFB0646284643
:1058D000394603F017FC314603F0CAF903F056FBD2
:1058E000C8F83800DAF80C00201A48BF40420128F6
:1058F00000F24E81D9F80C00C8F83800DAF80C0034
:10590000C8F8340004203EE1012A40F04181894674
:10591000D8F83410D8E911564C1E82462046C8F8F3
:10592000344003F06FFB0746304603F06BFB06463E
:105930002846394603F0E6FB314603F099F903F0B7
:1059400025FBC8F83800DAF800000021201A88F892
:105950001D1048BF4042012800F21A81D9F800000A
:10596000C8F83800DAF80000C8F83400012088F8D8
:105970001F0088F8000001B0BDE8F08F012A40F058
:1059800007818946002188F81D10D8F83410D8E91D
:1059900011564C1E82462046C8F8344003F032FBB4
:1059A0000746304603F02EFB06462846394603F0EC
:1059B000A9FB314603F05CF903F0E8FAC8F83800B7
:1059C000DAF80800201A48BF4042012800F2E080BF
:1059D000D9F80800C8F83800DAF80800C8F8340028
:1059E000D0E000BF012A40F0D3808946002188F82A
:1059F0001D10D8F83410D8E911564C1E82462046A6
:105A0000C8F8344003F0FEFA0746304603F0FAFACD
:105A100006462846394603F075FB314603F028F95F
:105A200003F0B4FAC8F83800DAF80400201A48BFC6
:105A30004042012800F2AC80D9F80400C8F83800D0
:105A4000DAF80400C8F8340033E000BF012A40F05F
:105A50009F80002288F81D20D8F83820D8F84C30D4
:105A6000541EC8F83840C3B1814620460F4603F0A3
:105A7000C9FAD8E911510646084603F0C3FA0146AF
:105A8000304603F00BFC294603F08AF903F07EFA56
:105A9000394602464846C8F834204A68A21A48BF28
:105AA0005242012A74D84068C8F834004868C8F8DF
:105AB0003800022067E000BF012A69D1002288F87F
:105AC0001D20D8F83820D8F84C30541EC8F838407B
:105AD000C3B1814620460F4603F094FAD8E911512C
